:100000000C94BC000C94E4000C94E4000C94AE0737
:100010000C94AE070C94AE070C94E4000C94E4002E
:100020000C94E4000C94E4000C94E4000C94E400C0
:100030000C94E4000C94E4000C94E4000C94E400B0
:100040000C940C070C94E4000C947C070C94560759
:100050000C94E4000C94E4000C94E4000C94E40090
:100060000C94E4000C94E4004446506C6179657291
:10007000204D696E69206F6E6C696E652E00322EA0
:10008000506C6561736520696E7365727420746865
:100090006520534420636172642100312E506C65E9
:1000A000617365207265636865636B2074686520A1
:1000B000636F6E6E656374696F6E2100556E616269
:1000C0006C6520746F20626567696E3A00496E69DD
:1000D0007469616C697A696E67204446506C617915
:1000E0006572202E2E2E20284D61792074616B655B
:1000F00020337E35207365636F6E64732900444638
:10010000526F626F74204446506C61796572204D65
:10011000696E692044656D6F0000000000240027AF
:10012000002A00000000080002010000030407008C
:10013000000000000000000000000023002600294D
:100140000001020408102040800102040810200170
:10015000020408102000000000250028002B0004E5
:10016000040404040404040202020202020303035E
:100170000303030026082B0C11241FBECFEFD8E089
:10018000DEBFCDBF11E0A0E0B1E0EAE1FCE102C0DA
:1001900005900D92A236B107D9F722E0A2E6B1E0B0
:1001A00001C01D92A03CB207E1F710E0CBEBD0E01C
:1001B00004C02197FE010E94CE0CCA3BD107C9F7AB
:1001C0000E9468090C94000E0C9400004F925F92FC
:1001D0006F927F928F929F92AF92BF92FF922091E7
:1001E0009B0230919C028217930708F043C02B01B9
:1001F00066247724852E962EA72EBB24B82DA42FF7
:100200002091A102F42C222391F0E22FF0E0E49D52
:10021000D001E59DB00DF49DB00D1124FB2E289D5D
:1002200040011124B92D249F90011124A32FE091A6
:10023000A7022091A2023091A3025091A402E513DB
:1002400023C0FC01EE0FFF1F8E0F9F1F820F931F15
:10025000E091A402E80FF92FF11DF082E091A502D0
:10026000E80FF92FF11DB0832091A602820F911D96
:10027000FC01A083FF90BF90AF909F908F907F90E4
:100280006F905F904F900895880F991F880F991F66
:10029000820F931FE80FF92FF11D1082D9CF80E450
:1002A00080937C0080917A00806480937A008091B2
:1002B0007A0086FDFCCF80917800909179000895B6
:1002C00090E0FC01ED5DFE4F2491FC01EF5BFE4FE1
:1002D0003491FC01E15AFE4FE491EE23C9F0222350
:1002E00039F0233001F1A8F4213019F1223029F13D
:1002F000F0E0EE0FFF1FEB5AFE4FA591B4918FB7C0
:10030000F894EC91611126C030953E233C938FBF49
:1003100008952730A9F02830C9F0243049F780919A
:1003200080008F7D03C0809180008F778093800054
:10033000DFCF84B58F7784BDDBCF84B58F7DFBCFD6
:100340008091B0008F778093B000D2CF8091B000C1
:100350008F7DF9CF3E2BDACFCF93DF9390E0FC0176
:10036000EF5BFE4F2491815A9E4FFC0184918823BC
:10037000D1F090E0880F991FFC01E75EFE4FA59138
:10038000B491FC01EB5AFE4FC591D49161110EC09E
:100390009FB7F8948C91E22FE0958E238C9328815F
:1003A000E223E8839FBFDF91CF9108958FB7F89440
:1003B000EC91E22BEC938FBFF6CF3FB7F89480918E
:1003C000B3019091B401A091B501B091B60126B5E9
:1003D000A89B05C02F3F19F00196A11DB11D3FBF7D
:1003E000BA2FA92F982F8827BC01CD01620F711D4C
:1003F000811D911D42E0660F771F881F991F4A9546
:10040000D1F708950F931F93CF93DF93CDB7DEB746
:1004100029970FB6F894DEBF0FBECDBF8091A20220
:100420009091A302892B09F47CC00E94DD01009108
:10043000A8021091A9022091AA023091AB02601784
:1004400071078207930740F46093A8027093A90292
:100450008093AA029093AB020091A8021091A90286
:100460002091AA023091AB02601B710B820B930B9F
:100470006C32714081059105C0F2F89480919D0223
:1004800090919E029A838983E091A202F091A30247
:10049000DF0111968081898790919902E091AC02E9
:1004A000F091AD028091AE02992309F445C090818C
:1004B000982B98879081809589238F838F818C8357
:1004C00088E08B8358856F8149853B812C818981A8
:1004D0009A81508347FD252F3A952083262F39F0A6
:1004E000441F00C000006083000000C0F2CF38E06D
:1004F0004D9160830000019761F7F093AD02E093A6
:10050000AC0249873B832C839A83898378940E9429
:10051000DD016093A8027093A9028093AA029093D0
:10052000AB0229960FB6F894DEBF0FBECDBFDF91A8
:10053000CF911F910F9108959081982B988790816A
:10054000809589238F838F818E8388E08D83588562
:100550006F8149853D812E8189819A81508347FD34
:10056000252F00C000C0208300C000C000C000C014
:1005700000C060830000262F3A9541F0441F000020
:1005800000C000C000C000C000C0E8CF38E04D91FE
:1005900000C0608300C0019709F7F093AD02E093BB
:1005A000AC0249873D832E83AFCF8F929F92AF924B
:1005B000BF92CF92DF92EF92FF926B017C010E947B
:1005C000DD014B015C01C114D104E104F104B9F077
:1005D0000E94DD01681979098A099B09683E734008
:1005E0008105910580F321E0C21AD108E108F108E4
:1005F00088EE880E83E0981EA11CB11CE4CFFF900A
:10060000EF90DF90CF90BF90AF909F908F90089524
:100610002FB7F8946091AF017091B0018091B10152
:100620009091B2012FBF08950F931F9380915402B0
:1006300090915502DC01ED91FC910084F185E02D53
:100640000995892B09F4D7C060E070E0CB010E94C6
:10065000D502209172028091540290915502DC01E2
:10066000ED91FC910284F385E02D21110BC00995D9
:1006700080935E028E37D1F6809172028F5F8093F5
:100680007202D4CF099590917202E92FF0E0EC5AF2
:10069000FD4F82879230B9F09930D9F09130A9F4AA
:1006A0008F3F99F01092720281E080937402109251
:1006B000770210927602809378021092790280E09D
:1006C0001F910F910895863069F79F5F9093720292
:1006D000ADCF8F3E39F72091600280915F02280FE5
:1006E0003327331FE0916102C9018E0F911D2091C4
:1006F0006202280F392F311D4091630250E0240F10
:10070000351F8091640290E06091650270E0762F61
:100710006627F09166026F0F711D280F391F319502
:10072000219531096217730709F0BCCF109272024C
:10073000E13419F4109279022FC0E0937502542F1E
:100740004427840F951F9093770280937602EA5393
:10075000E63108F046C0F0E0E055FC4F0C94CE0CBA
:10076000DD03E503EF03C603EF03CF03ED03F1035E
:10077000EF03EF03EF03EF03EF03EF03EF03EF03E9
:10078000F103EF03EF03EF03EF03EF0385E0809343
:10079000740281E0809378028091780291CF80FF8B
:1007A00002C089E0F4CF81FF02C084E0F0CF837003
:1007B0009927892B89F38AE0EACF80FF02C087E07E
:1007C000E6CF81FFE9CF82E0E2CF80FF02C088E080
:1007D000DECF81FFE1CF83E0DACF86E0D8CF8BE0B8
:1007E000D6CF81E080937402109277021092760245
:1007F000809378029FCF80917902882369F20E94CA
:10080000080300915602109157022091580230912E
:100810005902601B710B820B930B00915A021091CD
:100820005B0220915C0230915D02601771078207C4
:10083000930708F4B1CF10927202109274021092D2
:1008400077021092760281E036CF8F929F92AF921C
:10085000BF92CF92DF92EF92FF92CF936B017C0118
:100860000E9408034B015C01C114D104E104F104AE
:1008700041F4C0905A02D0905B02E0905C02F0908C
:100880005D020E941403C82F811111C00E94080349
:10089000681979098A099B09C616D706E806F90678
:1008A00030F060E070E0CB010E94D502EACF8C2FDF
:1008B000CF91FF90EF90DF90CF90BF90AF909F903F
:1008C0008F90089580936B02272F30E070936D0214
:1008D00060936E0240916A0290916902490F552718
:1008E000551F840F952F911D40916C02840F911D0F
:1008F000820F931F680F792F711D71956195710992
:1009000070936F0260937002442361F080917902CA
:10091000882341F060E070E0CB010E94D5020E9484
:100920001403F4CF8091540290915502DC01ED91B3
:10093000FC910280F381E02D4AE050E068E672E02D
:1009400009950E94080360935602709357028093A2
:1009500058029093590280916C0291E0811101C07C
:1009600090E090937902811106C06AE070E080E027
:1009700090E00C94D5020895AF92BF92CF92DF928F
:10098000EF92FF920F931F93CF93DF936C017B0144
:100990008B01040F151FEB015E01AE18BF08C017D5
:1009A000D10759F06991D601ED91FC910190F08148
:1009B000E02DC6010995892B79F7C501DF91CF910B
:1009C0001F910F91FF90EF90DF90CF90BF90AF906D
:1009D0000895FC01538D448D252F30E0842F90E045
:1009E000821B930B541710F0CF960895019708952A
:1009F000FC01918D828D981761F0A28DAE0FBF2FF3
:100A0000B11D5D968C91928D9F5F9F73928F90E048
:100A100008958FEF9FEF0895FC01918D828D9817B7
:100A200031F0828DE80FF11D858D90E008958FEFF4
:100A30009FEF0895FC01918D228D892F90E0805CBD
:100A40009F4F821B91098F739927089587EB91E03F
:100A50000E941A0521E0892B09F420E0822F0895D5
:100A600080E090E0892B29F00E94260581110C94EA
:100A700000000895FC01A48DA80FB92FB11DA35A41
:100A8000BF4F2C91848D90E001968F739927848FAE
:100A9000A689B7892C93A089B1898C9183708064D1
:100AA0008C93938D848D981306C00288F389E02D72
:100AB00080818F7D80830895EF92FF920F931F9323
:100AC000CF93DF93EC0181E0888F9B8D8C8D981301
:100AD0001AC0E889F989808185FF15C09FB7F8940D
:100AE000EE89FF896083E889F98980818370806459
:100AF00080839FBF81E090E0DF91CF911F910F91A4
:100B0000FF90EF900895F62E0B8D10E00F5F1F4FB2
:100B10000F731127E02E8C8D8E110CC00FB607FCC1
:100B2000FACFE889F989808185FFF5CFCE010E944F
:100B30003A05F1CFEB8DEC0FFD2FF11DE35AFF4F7E
:100B4000F0829FB7F8940B8FEA89FB8980818062DD
:100B5000CFCFCF93DF93EC01888D8823B9F0AA899A
:100B6000BB89E889F9898C9185FD03C0808186FD68
:100B70000DC00FB607FCF7CF8C9185FFF2CF8081B7
:100B800085FFEDCFCE010E943A05E9CFDF91CF91ED
:100B900008952091A4013091A5012817390771F417
:100BA0009091A2018091A301981741F0E091A201D8
:100BB000F0E0EE59FE4F808190E008958FEF9FEFB7
:100BC00008950895EF92FF920F931F93CF93DF93B1
:100BD000DC015C96ED90FC905D97E114F10479F4F2
:100BE00081E090E013969C938E93129790E080E0C2
:100BF000DF91CF911F910F91FF90EF900895519643
:100C0000ED91FC91529750968C915097982F90951A
:100C10000FB75E962C915E97122F127021FD609592
:100C2000F8942081112319F1282B2083E7012197C3
:100C3000F1F728E0462F50E0308160FF1AC0382BD2
:100C40003083E7012197F1F7BA0175956795215037
:100C500089F7112381F08081892380830FBF5C96FF
:100C60008D919C910197F1F781E090E0C1CF29230C
:100C7000DCCF3923E5CF9081892BEFCF2091A401E0
:100C80003091A5012817390771F48091A3012091B3
:100C9000A20190E0805C9F4F821B910960E470E0AC
:100CA0000E94BA0C089590E080E008952091A4017C
:100CB0003091A50128173907B9F49091A2018091CC
:100CC000A301981789F0E091A201F0E0EE59FE4FE0
:100CD00080812091A20130E02F5F3F4F2F73332797
:100CE0002093A20190E008958FEF9FEF089590E088
:100CF00080E00895FC0101900020E9F73197AF01F1
:100D0000481B590BBC0187EB91E00C94BC048F92FB
:100D10009F92AF92BF920F931F93CF93DF93CDB764
:100D2000DEB7A1970FB6F894DEBF0FBECDBF19A2F4
:100D3000423008F44AE08E010F5D1F4F842E912C43
:100D4000B12CA12CA50194010E94750CE62FB901CC
:100D5000CA01EA30F4F4E05DD801EE938D01232B53
:100D6000242B252B79F790E080E0109719F0CD0126
:100D70000E947A06A1960FB6F894DEBF0FBECDBFD3
:100D8000DF91CF911F910F91BF90AF909F908F9067
:100D90000895E95CE1CFCF92DF92EF92FF92CF937B
:100DA000DF936B017C016DE287EB91E00E945C05B3
:100DB000EC0166277727CB016C197D098E099F0905
:100DC0004AE00E9487068C0F9D1FDF91CF91FF9014
:100DD000EF90DF90CF9008950F931F93CF93DF9301
:100DE0008C01D0E0C0E0F801EC0FFD1F6491662398
:100DF00041F087EB91E00E945C05892B11F0219670
:100E0000F2CF84E391E00E947A068C0F9D1FDF9160
:100E1000CF911F910F9108951F920F920FB60F92CD
:100E200011242F933F938F939F93AF93BF93809100
:100E3000AF019091B001A091B101B091B201309198
:100E4000AE0123E0230F2D3758F50196A11DB11DEA
:100E50002093AE018093AF019093B001A093B101B4
:100E6000B093B2018091B3019091B401A091B5010A
:100E7000B091B6010196A11DB11D8093B30190936D
:100E8000B401A093B501B093B601BF91AF919F910A
:100E90008F913F912F910F900FBE0F901F9018953B
:100EA00026E8230F0296A11DB11DD2CF1F920F92EB
:100EB0000FB60F9211242F933F934F935F936F932D
:100EC0007F938F939F93AF93BF93EF93FF9387EBA2
:100ED00091E00E943A05FF91EF91BF91AF919F91F0
:100EE0008F917F916F915F914F913F912F910F90D3
:100EF0000FBE0F901F9018951F920F920FB60F9272
:100F000011242F938F939F93EF93FF93E091C70149
:100F1000F091C8018081E091CD01F091CE0182FD78
:100F20001BC090818091D0018F5F8F732091D10180
:100F3000821741F0E091D001F0E0E954FE4F958F27
:100F40008093D001FF91EF919F918F912F910F90FE
:100F50000FBE0F901F9018958081F4CF1F920F92B3
:100F60000FB60F9211242F933F934F935F936F937C
:100F70007F938F939F93AF93BF93EF93FF93E091F2
:100F8000A401F091A501309749F0A685B785858524
:100F9000968D91FF14C09C918923A1F4FF91EF914C
:100FA000BF91AF919F918F917F916F915F914F9181
:100FB0003F912F910F900FBE0F901F9018959C910D
:100FC000892361F7A389B4899C91858980958923B8
:100FD0008C93868997890197F1F7608D718DA6852D
:100FE000B785558538E020E0CB010197F1F7822FD6
:100FF00090E095958795282F4C91452309F020681E
:10100000315091F7868D81FD20958091A30190E06C
:1010100001968F7399273091A201381799F0A0910A
:10102000A301B0E0AE59BE4F2C938093A301828DF3
:10103000938D0197F1F7A389B4898C919589892BB8
:101040008C93ACCF868D8160868FF1CF1092BA01E0
:101050001092B90188EE93E0A0E0B0E08093BB016C
:101060009093BC01A093BD01B093BE0184E191E0D7
:101070009093B8018093B70185EC90E09093C40100
:101080008093C30184EC90E09093C6018093C501E6
:1010900080EC90E09093C8018093C70181EC90E0D0
:1010A0009093CA018093C90182EC90E09093CC01A7
:1010B0008093CB0186EC90E09093CE018093CD019C
:1010C0001092D0011092D1011092D2011092D3014E
:1010D00010929A021092A1021092A8021092A902F4
:1010E0001092AA021092AB0281E08093A702809333
:1010F000A4021092A50292E09093A6028093990216
:1011000081E290E090939E0280939D020E94DB0C0E
:101110009093A3028093A202009709F4D0C021E229
:10112000FC0111922A95E9F78BE090E090939C02E4
:1011300080939B0285E090E09093A00280939F02B1
:1011400080919A02882341F061E085E00E94AC0121
:1011500060E085E00E946001E4E6F1E0E491F0E007
:10116000EE0FFF1FEB5AFE4F859194919093AD02C5
:101170008093AC02E6E4F1E0E491E093AE021092D9
:101180007D0210927C0288EE93E0A0E0B0E08093B4
:101190007E0290937F02A0938002B093810286E248
:1011A00091E090937B0280937A02109291021092C8
:1011B0009002109293021092920210929502109255
:1011C00094021092970210929602609198026E7F9C
:1011D0006D7F609398026695617081E068278BE06F
:1011E0000E94600161E08BE00E94AC01ECE4F1E060
:1011F000E491E0938A02EAE6F1E0E491F0E0EE0F98
:10120000FF1FEB5AFE4F8591949190938C0280932F
:101210008B0260E08AE00E94AC018091980281FD1F
:1012200004C061E08AE00E9460018AE08093860247
:10123000EBE4F1E0E491E0938702E9E6F1E0E49188
:10124000F0E0EE0FFF1FE95CFE4F259134913093E3
:1012500089022093880244EF51E060E070E04093FF
:101260005A0250935B0260935C0270935D02E6E069
:10127000F1E0A8E6B2E001900D928A95E1F71092B4
:10128000720282E0809373021092780210927902C7
:101290008FEF8093AF021092B1021092B0021092C1
:1012A000BB021092BA028FEF9FEFDC018093B6026F
:1012B0009093B702A093B802B093B9020895109228
:1012C0009E0210929D0210929C0210929B0232CFBD
:1012D000789484B5826084BD84B5816084BD85B511
:1012E000826085BD85B5816085BD80916E0081601D
:1012F00080936E00109281008091810082608093C3
:1013000081008091810081608093810080918000C4
:101310008160809380008091B10084608093B100EF
:101320008091B00081608093B00080917A008460E9
:1013300080937A0080917A00826080937A00809115
:101340007A00816080937A0080917A00806880932F
:101350007A001092C100E091C701F091C80182E0CB
:101360008083E091C301F091C4011082E091C50136
:10137000F091C60180E180831092CF01E091CB0112
:10138000F091CC0186E08083E091C901F091CA011F
:10139000808180618083E091C901F091CA018081E0
:1013A00088608083E091C901F091CA0180818068E2
:1013B0008083E091C901F091CA0180818F7D808393
:1013C000109295021092940210929302109292023F
:1013D00010929102109290028DE991E09093970201
:1013E0008093960290918602963108F047C02DEBCB
:1013F00030E030939102209390022BE931E030935A
:101400009302209392022CE231E0309395022093D4
:1014100094022091680084E0983048F031E09E30DA
:1014200008F430E081E001C0880F3A95EAF7822B9A
:10143000809368002DE630E0983050F02BE630E0E5
:101440009E3030F02CE630E0963110F030E020E0B5
:1014500030938E0220938D02292F30E0983008F0CF
:1014600084C081E001C0880F9A95EAF780938F02CB
:1014700080919602909197020197F1F780919402E2
:1014800090919502892B49F1E091A401F091A50179
:1014900022E0EA37F20709F1309739F0A389B489DD
:1014A0009C918589809589238C93809198028E7F69
:1014B000809398021092A3011092A2018AE792E011
:1014C0009093A5018093A401E0918D02F0918E028A
:1014D000808190918F02892B808360E08EE00E9452
:1014E000AC0187E391E00E947A0684E391E00E94D8
:1014F0007A068EEF90E00E94EC068DEC90E00E9460
:10150000EC068AE792E0909355028093540281E0C2
:1015100080936C0270E060E08CE00E94620460EDF9
:1015200077E080E090E00E94250468EC70E080E0C5
:1015300090E00E94D502109278028091740284306B
:1015400009F18930F9F08CEB90E00E94EC068BE910
:1015500090E00E94EC068EE790E00E94EC0660E0CE
:1015600070E0CB010E94D502FACF9E3040F42850A3
:10157000310981E001C0880F2A95EAF777CF2E5014
:101580003109F7CF6091A102663029F12091A202C2
:101590003091A3026150C9F070E08FEF95E00E9496
:1015A000A60CF90140919D0250919E02CF01821B31
:1015B000930B8417950760F44081469FC001479FB5
:1015C000900D112490833196EDCF70E060E0E9CF6B
:1015D00086E08093A10280919F029091A00297FDE6
:1015E00008C061E00E94AC0160E080919F020E940F
:1015F000600181E080939A020E94020288E690E0F6
:101600000E94EC060E944F012BE130E0DC010E94B9
:10161000D40C2FEF33E040E050E00E94560C2093B2
:10162000AA013093AB01622F70E086E00E94620451
:1016300061E070E083E00E9462044BE1F42E00E080
:1016400010E00E9408034B015C0138EE831633E082
:101650009306A104B104B9F483E491E00E947A06F0
:101660000E9408034AE00E94870684E391E00E94FA
:101670007A064FEF5FEF6FEF70E085E090E00E9439
:10168000E6000E9402020E940803603A7F40810542
:10169000910508F455C08091A8019091A901092EE7
:1016A000000CAA0BBB0BA5019401281B390B4A0B9C
:1016B0005B0BDA01C901893E9340A105B10508F42D
:1016C0003FC080919B0290919C02C091A601D09155
:1016D000A701C817D907A0F59092A9018092A80187
:1016E0005E0141E0A41AB108019740E05FEF6FEF9F
:1016F00070E0C817D90721F04FEF5FEF6FEF70E090
:10170000CE010E94E6000E94020240E050E0BA01D1
:10171000C5010E94E6000E940202BE016F5F7F4F7A
:101720007093A7016093A601072E000C880B990BFC
:1017300097FF86C00E94CB0684E391E00E947A0660
:101740000E9408038090AC019090AD01092C000C20
:10175000AA08BB08681979098A099B09653F714085
:101760008105910508F460C00E9408037093AD01E3
:101770006093AC010E944F019C01F29EC001F39E58
:10178000900D112497FF02C081509C4F892F990F13
:10179000990B859585952091AA013091AB0182170F
:1017A000930709F441C070E060E083E40E946204A2
:1017B00060E070E0CB010E942504882309F444C056
:1017C0001092780280917602909177029093AB010B
:1017D0008093AA010E944F01AC01F49EC001F59EC6
:1017E000900D112497FF02C081509C4F892F990FB3
:1017F000990B85958595BC01772786E00E94620448
:1018000082E591E00E947A066091AA017091AB0195
:10181000072E000C880B990B97FF19C00E94CB066E
:1018200084E391E00E947A060115110509F409CFBD
:101830000E942605882309F404CF0E94000001CFEE
:101840004AE00E94870678CF8FEF9FEFBFCF4AE034
:101850000E948706E5CF86E291E090937B02809319
:101860007A028091A4019091A5018A57924071F467
:10187000E0918D02F0918E02908180918F0280958F
:10188000892380831092A5011092A4018091A20265
:101890009091A3020E94770D80919F029091A002E7
:1018A00097FD03C060E00C94AC010895052E97FBF2
:1018B0001EF400940E946D0C57FD07D00E94750C19
:1018C00007FC03D04EF40C946D0C50954095309568
:1018D00021953F4F4F4F5F4F08959095809570959C
:1018E00061957F4F8F4F9F4F0895A1E21A2EAA1B3B
:1018F000BB1BFD010DC0AA1FBB1FEE1FFF1FA217C0
:10190000B307E407F50720F0A21BB30BE40BF50BBC
:10191000661F771F881F991F1A9469F76095709545
:10192000809590959B01AC01BD01CF010895A29FC8
:10193000B001B39FC001A39F700D811D1124911DA3
:10194000B29F700D811D1124911D0895AA1BBB1B10
:1019500051E107C0AA1FBB1FA617B70710F0A61BAF
:10196000B70B881F991F5A95A9F780959095BC01D0
:10197000CD01089597FB072E16F4009407D077FD4C
:1019800009D00E94A60C07FC05D03EF490958195E5
:101990009F4F0895709561957F4F0895EE0FFF1F3B
:1019A0000590F491E02D09940E94970CB7FF0895DB
:1019B000821B930B08950F931F93CF93DF93823075
:1019C000910510F482E090E0E091BE02F091BF0238
:1019D00030E020E0B0E0A0E0309799F42115310527
:1019E00009F44AC0281B390B24303105D8F58A8107
:1019F0009B816115710589F1FB0193838283FE014F
:101A000011C0408151810281138148175907E0F0CC
:101A10004817590799F4109761F012960C93129792
:101A200013961C933296CF01DF91CF911F910F91A6
:101A300008950093BE021093BF02F4CF2115310523
:101A400051F04217530738F0A901DB019A01BD019B
:101A5000DF01F801C1CFEF01F9CF9093BF0280936E
:101A6000BE02CDCFFE01E20FF31F8193919322506E
:101A7000310939832883D7CF2091BC023091BD0230
:101A8000232B41F420910201309103013093BD02D8
:101A90002093BC02209100013091010121153105F4
:101AA00041F42DB73EB74091040150910501241B2C
:101AB000350BE091BC02F091BD02E217F307A0F4F0
:101AC0002E1B3F0B2817390778F0AC014E5F5F4F94
:101AD0002417350748F04E0F5F1F5093BD02409307
:101AE000BC02819391939FCFF0E0E0E09CCFCF9335
:101AF000DF930097E9F0FC01329713821282A091E4
:101B0000BE02B091BF02ED0130E020E01097A1F4D9
:101B100020813181820F931F2091BC023091BD0240
:101B20002817390709F061C0F093BD02E093BC02A9
:101B3000DF91CF910895EA01CE17DF07E8F54A81DA
:101B40005B819E0141155105B1F7E901FB83EA83F1
:101B500049915991C40FD51FEC17FD0761F480819D
:101B600091810296840F951FE90199838883828170
:101B700093819B838A83F0E0E0E012968D919C91A3
:101B800013970097B9F52D913C911197CD010296CD
:101B9000820F931F2091BC023091BD022817390794
:101BA00039F6309751F51092BF021092BE02B093F1
:101BB000BD02A093BC02BCCFD383C28340815181BC
:101BC000840F951FC817D90761F44E5F5F4F888156
:101BD0009981480F591F518340838A819B81938348
:101BE00082832115310509F0B0CFF093BF02E09355
:101BF000BE029ECFFD01DC01C0CF13821282D7CF7F
:101C000010E0CBEBD0E004C0FE010E94CE0C219688
:0A1C1000CC3BD107C9F7F894FFCFD1
:101C1A000000C00280007EFF06000100000000EF05
:101C2A00000000005C05BC04E904A9051A05F804D3
:101C3A000C0500000000E205BC047706E1053E063B
:101C4A005606C9050D0A005374617274696E672ECF
:101C5A002E2E006D696C6C692031303030212121C3
:101C6A003A006368616E67656420766F6C756D65AE
:021C7A00000068
:00000001FF
