:100000000C94BC000C94E4000C94E4000C94B8052F
:100010000C94B8050C94B8050C94E4000C94E4001E
:100020000C94E4000C94E4000C94E4000C94E400C0
:100030000C94E4000C94E4000C94E4000C94E400B0
:100040000C9416050C94E4000C9486050C94600541
:100050000C94E4000C94E4000C94E4000C94E40090
:100060000C94E4000C94E4004446506C6179657291
:10007000204D696E69206F6E6C696E652E00322EA0
:10008000506C6561736520696E7365727420746865
:100090006520534420636172642100312E506C65E9
:1000A000617365207265636865636B2074686520A1
:1000B000636F6E6E656374696F6E2100556E616269
:1000C0006C6520746F20626567696E3A00496E69DD
:1000D0007469616C697A696E67204446506C617915
:1000E0006572202E2E2E20284D61792074616B655B
:1000F00020337E35207365636F6E64732900444638
:10010000526F626F74204446506C61796572204D65
:10011000696E692044656D6F0000000000240027AF
:10012000002A00000000080002010000030407008C
:10013000000000000000000000000023002600294D
:100140000001020408102040800102040810200170
:10015000020408102000000000250028002B0004E5
:10016000040404040404040202020202020303035E
:10017000030303003006190A11241FBECFEFD8E095
:10018000DEBFCDBF11E0A0E0B1E0E8E4F7E102C0DE
:1001900005900D92A434B107D9F722E0A4E4B1E0B0
:1001A00001C01D92AA39B207E1F710E0CBEBD0E015
:1001B00004C02197FE010E946C0ACA3BD107C9F70F
:1001C0000E9472070C94970B0C94000090E0FC01C5
:1001D000ED5DFE4F2491FC01EF5BFE4F3491FC017D
:1001E000E15AFE4FE491EE23C9F0222339F0233087
:1001F00001F1A8F4213019F1223029F1F0E0EE0FDD
:10020000FF1FEB5AFE4FA591B4918FB7F894EC9174
:10021000611126C030953E233C938FBF089527304F
:10022000A9F02830C9F0243049F7809180008F7DF3
:1002300003C0809180008F7780938000DFCF84B5EA
:100240008F7784BDDBCF84B58F7DFBCF8091B000ED
:100250008F778093B000D2CF8091B0008F7DF9CF9F
:100260003E2BDACFCF93DF9390E0FC01EF5BFE4FA4
:100270002491815A9E4FFC0184918823D1F090E013
:10028000880F991FFC01E75EFE4FA591B491FC0118
:10029000EB5AFE4FC591D49161110EC09FB7F894EF
:1002A0008C91E22FE0958E238C932881E223E883C2
:1002B0009FBFDF91CF9108958FB7F894EC91E22B17
:1002C000EC938FBFF6CF3FB7F89480918D0190915A
:1002D0008E01A0918F01B091900126B5A89B05C019
:1002E0002F3F19F00196A11DB11D3FBFBA2FA92FB5
:1002F000982F8827BC01CD01620F711D811D911DB2
:1003000042E0660F771F881F991F4A95D1F708951D
:100310008F929F92AF92BF92CF92DF92EF92FF9215
:100320006B017C010E9463014B015C01C114D1048B
:10033000E104F104B9F00E946301681979098A099E
:100340009B09683E73408105910580F321E0C21A44
:10035000D108E108F10888EE880E83E0981EA11C00
:10036000B11CE4CFFF90EF90DF90CF90BF90AF90A3
:100370009F908F9008952FB7F894609189017091A4
:100380008A0180918B0190918C012FBF08950F936A
:100390001F9380912E0290912F02DC01ED91FC9130
:1003A0000084F185E02D0995892B09F4D7C060E020
:1003B00070E0CB010E94880120914C0280912E02B6
:1003C00090912F02DC01ED91FC910284F385E02DE8
:1003D00021110BC00995809338028E37D1F6809198
:1003E0004C028F5F80934C02D4CF099590914C02C0
:1003F000E92FF0E0E25DFD4F82879230B9F099304D
:10040000D9F09130A9F48F3F99F010924C0281E01D
:1004100080934E0210925102109250028093520229
:100420001092530280E01F910F910895863069F772
:100430009F5F90934C02ADCF8F3E39F720913A02E7
:1004400080913902280F3327331FE0913B02C90105
:100450008E0F911D20913C02280F392F311D4091A4
:100460003D0250E0240F351F80913E0290E06091E4
:100470003F0270E0762F6627F09140026F0F711DEA
:10048000280F391F3195219531096217730709F03B
:10049000BCCF10924C02E13419F4109253022FC0D9
:1004A000E0934F02542F4427840F951F90935102DD
:1004B00080935002EA53E63108F046C0F0E0ED596F
:1004C000FD4F0C946C0A90029802A2027902A202DB
:1004D0008202A002A402A202A202A202A202A2021C
:1004E000A202A202A202A402A202A202A202A202EA
:1004F000A20285E080934E0281E0809352028091B7
:10050000520291CF80FF02C089E0F4CF81FF02C088
:1005100084E0F0CF83709927892B89F38AE0EACFB2
:1005200080FF02C087E0E6CF81FFE9CF82E0E2CF23
:1005300080FF02C088E0DECF81FFE1CF83E0DACF29
:1005400086E0D8CF8BE0D6CF81E080934E02109228
:10055000510210925002809352029FCF8091530219
:10056000882369F20E94BB01009130021091310290
:100570002091320230913302601B710B820B930B7E
:1005800000913402109135022091360230913702E9
:10059000601771078207930708F4B1CF10924C02DD
:1005A00010924E02109251021092500281E036CF0A
:1005B00080934502272F30E07093470260934802F2
:1005C0004091440290914302490F5527551F840FD3
:1005D000952F911D40914602840F911D820F931F0C
:1005E000680F792F711D719561957109709349029A
:1005F00060934A02442361F080915302882341F0C2
:1006000060E070E0CB010E9488010E94C701F4CF36
:1006100080912E0290912F02DC01ED91FC910280DD
:10062000F381E02D4AE050E062E472E009950E9417
:10063000BB01609330027093310280933202909339
:1006400033028091460291E0811101C090E09093C5
:100650005302811106C06AE070E080E090E00C94E3
:1006600088010895AF92BF92CF92DF92EF92FF92EE
:100670000F931F93CF93DF936C017B018B01040FCA
:10068000151FEB015E01AE18BF08C017D10759F066
:100690006991D601ED91FC910190F081E02DC601A8
:1006A0000995892B79F7C501DF91CF911F910F91A2
:1006B000FF90EF90DF90CF90BF90AF900895FC0136
:1006C000538D448D252F30E0842F90E0821B930BB7
:1006D000541710F0CF96089501970895FC01918D5D
:1006E000828D981761F0A28DAE0FBF2FB11D5D9660
:1006F0008C91928D9F5F9F73928F90E008958FEF02
:100700009FEF0895FC01918D828D981731F0828DB5
:10071000E80FF11D858D90E008958FEF9FEF08950C
:10072000FC01918D228D892F90E0805C9F4F821B70
:1007300091098F739927089581E991E00E949003B0
:1007400021E0892B09F420E0822F089580E090E0D9
:10075000892B29F00E949C0381110C9400000895BC
:10076000FC01A48DA80FB92FB11DA35ABF4F2C9126
:10077000848D90E001968F739927848FA689B7891D
:100780002C93A089B1898C91837080648C93938D14
:10079000848D981306C00288F389E02D80818F7DB7
:1007A00080830895EF92FF920F931F93CF93DF936F
:1007B000EC0181E0888F9B8D8C8D98131AC0E8899D
:1007C000F989808185FF15C09FB7F894EE89FF896C
:1007D0006083E889F98980818370806480839FBF0A
:1007E00081E090E0DF91CF911F910F91FF90EF900A
:1007F0000895F62E0B8D10E00F5F1F4F0F7311271A
:10080000E02E8C8D8E110CC00FB607FCFACFE88954
:10081000F989808185FFF5CFCE010E94B003F1CF29
:10082000EB8DEC0FFD2FF11DE35AFF4FF0829FB7C8
:10083000F8940B8FEA89FB8980818062CFCFCF93B8
:10084000DF93EC01888D8823B9F0AA89BB89E889F8
:10085000F9898C9185FD03C0808186FD0DC00FB69E
:1008600007FCF7CF8C9185FFF2CF808185FFEDCF1C
:10087000CE010E94B003E9CFDF91CF91089520917E
:100880008601309187012817390771F4909184010E
:1008900080918501981741F0E0918401F0E0EC5BD4
:1008A000FE4F808190E008958FEF9FEF08950895A7
:1008B000EF92FF920F931F93CF93DF93DC015C962F
:1008C000ED90FC905D97E114F10479F481E090E003
:1008D00013969C938E93129790E080E0DF91CF91D6
:1008E0001F910F91FF90EF9008955196ED91FC911B
:1008F000529750968C915097982F90950FB75E967F
:100900002C915E97122F127021FD6095F894208132
:10091000112319F1282B2083E7012197F1F728E013
:10092000462F50E0308160FF1AC0382B3083E7013A
:100930002197F1F7BA0175956795215089F7112331
:1009400081F08081892380830FBF5C968D919C917B
:100950000197F1F781E090E0C1CF2923DCCF392363
:10096000E5CF9081892BEFCF2091860130918701CF
:100970002817390771F4809185012091840190E056
:10098000805C9F4F821B910960E470E00E94580ACE
:10099000089590E080E008952091860130918701CC
:1009A00028173907B9F4909184018091850198172F
:1009B00089F0E0918401F0E0EC5BFE4F80812091B2
:1009C000840130E02F5F3F4F2F7333272093840142
:1009D00090E008958FEF9FEF089590E080E00895F4
:1009E00042E050E064E371E081E991E00C9432036D
:1009F0000F931F93CF93DF938C01D0E0C0E0F801F9
:100A0000EC0FFD1F6491662341F081E991E00E94A3
:100A1000D203892B11F02196F2CF0E94F0048C0FA3
:100A20009D1FDF91CF911F910F9108951F920F92FB
:100A30000FB60F9211242F933F938F939F93AF93F1
:100A4000BF938091890190918A01A0918B01B0910F
:100A50008C013091880123E0230F2D3758F5019642
:100A6000A11DB11D209388018093890190938A0173
:100A7000A0938B01B0938C0180918D0190918E0198
:100A8000A0918F01B09190010196A11DB11D80939D
:100A90008D0190938E01A0938F01B0939001BF912F
:100AA000AF919F918F913F912F910F900FBE0F901B
:100AB0001F90189526E8230F0296A11DB11DD2CFD5
:100AC0001F920F920FB60F9211242F933F934F93C3
:100AD0005F936F937F938F939F93AF93BF93EF93A6
:100AE000FF9381E991E00E94B003FF91EF91BF91E4
:100AF000AF919F918F917F916F915F914F913F91B6
:100B00002F910F900FBE0F901F9018951F920F926C
:100B10000FB60F9211242F938F939F93EF93FF9310
:100B2000E091A101F091A2018081E091A701F091F3
:100B3000A80182FD1BC090818091AA018F5F8F73F5
:100B40002091AB01821741F0E091AA01F0E0EF564D
:100B5000FE4F958F8093AA01FF91EF919F918F9106
:100B60002F910F900FBE0F901F9018958081F4CF9A
:100B70001F920F920FB60F9211242F933F934F9312
:100B80005F936F937F938F939F93AF93BF93EF93F5
:100B9000FF93E0918601F0918701309749F0A68597
:100BA000B7858585968D91FF14C09C918923A1F40A
:100BB000FF91EF91BF91AF919F918F917F916F9135
:100BC0005F914F913F912F910F900FBE0F901F900B
:100BD00018959C91892361F7A389B4899C91858993
:100BE000809589238C93868997890197F1F7608D89
:100BF000718DA685B785558538E020E0CB0101973A
:100C0000F1F7822F90E095958795282F4C914523F9
:100C100009F02068315091F7868D81FD20958091F3
:100C2000850190E001968F739927309184013817E0
:100C300099F0A0918501B0E0AC5BBE4F2C938093FE
:100C40008501828D938D0197F1F7A389B4898C91E9
:100C50009589892B8C93ACCF868D8160868FF1CF5F
:100C6000109294011092930188EE93E0A0E0B0E01E
:100C70008093950190939601A0939701B09398016A
:100C800084E191E0909392018093910185EC90E052
:100C900090939E0180939D0184EC90E09093A0013D
:100CA00080939F0180EC90E09093A2018093A1013A
:100CB00081EC90E09093A4018093A30182EC90E0FA
:100CC0009093A6018093A50126EC30E03093A80113
:100CD0002093A7011092AA011092AB011092AC01CF
:100CE0001092AD011092740210927B021092820257
:100CF00010928302109284021092850281E0809308
:100D0000810280937E0210927F0292E09093800293
:100D100080937302309378022093770286EC90E000
:100D20000E94720A90937D0280937C02009709F4DE
:100D3000D0C026ECFC0111922A95E9F782E490E0FC
:100D4000909376028093750285E090E090937A020A
:100D50008093790280917402882341F061E085E0FC
:100D60000E94320160E085E00E94E600E4E6F1E0E6
:100D7000E491F0E0EE0FFF1FEB5AFE4F8591949146
:100D80009093870280938602E6E4F1E0E491E09399
:100D90008802109257021092560288EE93E0A0E06B
:100DA000B0E08093580290935902A0935A02B093F6
:100DB0005B0286E291E09093550280935402109278
:100DC0006B0210926A0210926D0210926C021092E5
:100DD0006F0210926E021092710210927002609176
:100DE00072026E7F6D7F609372026695617081E022
:100DF00068278BE00E94E60061E08BE00E943201F0
:100E0000ECE4F1E0E491E0936402EAE6F1E0E491DD
:100E1000F0E0EE0FFF1FEB5AFE4F859194919093F7
:100E200066028093650260E08AE00E943201809150
:100E3000720281FD04C061E08AE00E94E6008AE05F
:100E400080936002EBE4F1E0E491E0936102E9E673
:100E5000F1E0E491F0E0EE0FFF1FE95CFE4F259119
:100E60003491309363022093620244EF51E060E0DA
:100E700070E04093340250933502609336027093D1
:100E80003702E6E0F1E0A2E4B2E001900D928A952B
:100E9000E1F710924C0282E080934D0210925202D0
:100EA000109253028FEF8093890210928B0210925E
:100EB0008A0210929502109294028FEF9FEFDC014C
:100EC0008093900290939102A0939202B093930228
:100ED0000895109278021092770210927602109282
:100EE000750232CFCF93DF93CDB7DEB729970FB618
:100EF000F894DEBF0FBECDBF789484B5826084BD08
:100F000084B5816084BD85B5826085BD85B581600D
:100F100085BD80916E00816080936E00109281008B
:100F20008091810082608093810080918100816046
:100F30008093810080918000816080938000809107
:100F4000B10084608093B1008091B0008160809393
:100F5000B00080917A00846080937A0080917A005A
:100F6000826080937A0080917A00816080937A0019
:100F700080917A00806880937A001092C100E0919D
:100F8000A101F091A20182E08083E0919D01F091A6
:100F90009E011082E0919F01F091A00180E1808389
:100FA0001092A901E091A501F091A60186E080834D
:100FB000E091A301F091A401808180618083E091A0
:100FC000A301F091A401808188608083E091A30156
:100FD000F091A401808180688083E091A301F09169
:100FE000A40180818F7D808310926F0210926E0227
:100FF00010926D0210926C0210926B0210926A02B3
:101000008DE991E09093710280937002909160025B
:10101000963108F047C02DEB30E030936B022093FF
:101020006A022BE931E030936D0220936C022CE2CE
:1010300031E030936F0220936E022091680084E0CB
:10104000983048F031E09E3008F430E081E001C093
:10105000880F3A95EAF7822B809368002DE630E0FE
:10106000983050F02BE630E09E3030F02CE630E047
:10107000963110F030E020E0309368022093670250
:10108000292F30E0983008F081C081E001C0880F3E
:101090009A95EAF7809369028091700290917102AB
:1010A0000197F1F780916E0290916F02892B49F1BF
:1010B000E0918601F091870122E0E435F20709F121
:1010C000309739F0A389B4899C91858980958923CB
:1010D0008C93809172028E7F8093720210928501B0
:1010E0001092840184E592E09093870180938601B9
:1010F000E0916702F0916802808190916902892BEA
:10110000808361E089E00E94320160E089E00E9412
:10111000E60060E08EE00E9432014BE050E067E3C1
:1011200071E081E991E00E9432030E94F0048EEFA9
:1011300090E00E94F8048DEC90E00E94F80484E5B1
:1011400092E090932F0280932E0281E080934602DA
:1011500070E060E08CE00E94D8020E94BB016B014D
:101160007C010E94C70181111EC00E94BB016C1945
:101170007D098E099F09613D77408105910598F4AD
:1011800060E070E0CB010E948801EBCF9E3040F41C
:101190002850310981E001C0880F2A95EAF77ACFFB
:1011A0002E503109F7CF68EC70E080E090E00E94AB
:1011B00088011092520280914E028430A1F0893051
:1011C00091F08CEB90E00E94F8048BE990E00E9493
:1011D000F8048EE790E00E94F80460E070E0CB0134
:1011E0000E948801FACF60917B02663029F120913C
:1011F0007C0230917D026150C9F070E08FEF95E084
:101200000E94440AF9014091770250917802CF017F
:10121000821B930B8417950760F44081469FC001A1
:10122000479F900D112490833196EDCF70E060E0E0
:10123000E9CF86E080937B028091790290917A02D7
:1012400097FD08C061E00E94320160E08091790260
:101250000E94E60081E08093740280917C0290916C
:101260007D02892B09F47CC00E94630100918202F7
:1012700010918302209184023091850260177107DA
:101280008207930740F460938202709383028093F5
:101290008402909385020091820210918302209132
:1012A000840230918502601B710B820B930B6C32B0
:1012B000714081059105C0F2F89480917702909178
:1012C00078029A838983E0917C02F0917D02DF01AC
:1012D00011968081898790917302E0918602F09146
:1012E000870280918802992309F46AC09081982B23
:1012F00098879081809589238F838F818C8388E064
:101300008B8358856F8149853B812C8189819A81A6
:10131000508347FD252F3A952083262F39F0441F0F
:1013200000C000006083000000C0F2CF38E04D91A3
:1013300060830000019761F7F0938702E0938602D3
:1013400049873B832C839A83898378940E94630125
:10135000609382027093830280938402909385024B
:1013600088E690E00E94F80462E170E086E00E9466
:10137000D80261E070E083E00E94D80200E010E053
:101380000E94BB0168EE73E080E090E00E9488015B
:1013900061E089E00E94E60068EE73E080E090E0A2
:1013A0000E94880160E089E00E94E60001151105B5
:1013B00039F30E949C03882319F30E940000E0CFB8
:1013C0009081982B98879081809589238F838F8136
:1013D0008E8388E08D8358856F8149853D812E817C
:1013E00089819A81508347FD252F00C000C020834A
:1013F00000C000C000C000C000C060830000262FF5
:101400003A9541F0441F000000C000C000C000C079
:1014100000C0E8CF38E04D9100C0608300C0019764
:1014200009F7F0938702E093860249873D832E8374
:101430008ACF86E291E09093550280935402809186
:101440008601909187018455924071F4E091670282
:10145000F091680290818091690280958923808350
:10146000109287011092860180917C0290917D02FA
:101470000E940E0B8091790290917A0297FD03C031
:1014800060E00C9432010895AA1BBB1B51E107C018
:10149000AA1FBB1FA617B70710F0A61BB70B881F04
:1014A000991F5A95A9F780959095BC01CD01089593
:1014B00097FB072E16F4009407D077FD09D00E9401
:1014C000440A07FC05D03EF4909581959F4F0895FE
:1014D000709561957F4F0895EE0FFF1F0590F49171
:1014E000E02D09940F931F93CF93DF9382309105E2
:1014F00010F482E090E0E0919802F091990230E0DF
:1015000020E0B0E0A0E0309799F42115310509F40E
:101510004AC0281B390B24303105D8F58A819B81BC
:101520006115710589F1FB0193838283FE0111C06E
:10153000408151810281138148175907E0F0481713
:10154000590799F4109761F012960C93129713961D
:101550001C933296CF01DF91CF911F910F91089587
:101560000093980210939902F4CF2115310551F0A0
:101570004217530738F0A901DB019A01BD01DF01D1
:10158000F801C1CFEF01F9CF9093990280939802AF
:10159000CDCFFE01E20FF31F8193919322503109C9
:1015A00039832883D7CF2091960230919702232B3D
:1015B00041F420910201309103013093970220936E
:1015C000960220910001309101012115310541F46D
:1015D0002DB73EB74091040150910501241B350BF6
:1015E000E0919602F0919702E217F307A0F42E1B08
:1015F0003F0B2817390778F0AC014E5F5F4F241777
:10160000350748F04E0F5F1F5093970240939602A4
:10161000819391939FCFF0E0E0E09CCFCF93DF9355
:101620000097E9F0FC01329713821282A091980290
:10163000B0919902ED0130E020E01097A1F42081F3
:101640003181820F931F20919602309197022817C3
:10165000390709F061C0F0939702E0939602DF9199
:10166000CF910895EA01CE17DF07E8F54A815B8143
:101670009E0141155105B1F7E901FB83EA834991C8
:101680005991C40FD51FEC17FD0761F4808191813A
:101690000296840F951FE901998388838281938143
:1016A0009B838A83F0E0E0E012968D919C911397E2
:1016B0000097B9F52D913C911197CD010296820FBB
:1016C000931F20919602309197022817390739F617
:1016D000309751F51092990210929802B0939702A8
:1016E000A0939602BCCFD383C28340815181840FE3
:1016F000951FC817D90761F44E5F5F4F88819981A4
:10170000480F591F518340838A819B819383828331
:101710002115310509F0B0CFF0939902E0939802BA
:101720009ECFFD01DC01C0CF13821282D7CF10E023
:10173000CBEBD0E004C0FE010E946C0A2196CC3BAA
:08174000D107C9F7F894FFCFAF
:1017480000009A0280007EFF06000100000000EF02
:1017580000000000D20332035F031F0490036E03EE
:1017680082030000000058043203ED045704B40457
:10177800CC043F040D0A005374617274696E672EBD
:041788002E2E000001
:00000001FF
