:100000000C94BC000C94E4000C94E4000C94C7071E
:100010000C94C7070C94C7070C94E4000C94E400FC
:100020000C94E4000C94E4000C94E4000C94E400C0
:100030000C94E4000C94E4000C94E4000C94E400B0
:100040000C9425070C94E4000C9495070C946F070E
:100050000C94E4000C94E4000C94E4000C94E40090
:100060000C94E4000C94E4004446506C6179657291
:10007000204D696E69206F6E6C696E652E00322EA0
:10008000506C6561736520696E7365727420746865
:100090006520534420636172642100312E506C65E9
:1000A000617365207265636865636B2074686520A1
:1000B000636F6E6E656374696F6E2100556E616269
:1000C0006C6520746F20626567696E3A00496E69DD
:1000D0007469616C697A696E67204446506C617915
:1000E0006572202E2E2E20284D61792074616B655B
:1000F00020337E35207365636F6E64732900444638
:10010000526F626F74204446506C61796572204D65
:10011000696E692044656D6F0000000000240027AF
:10012000002A00000000080002010000030407008C
:10013000000000000000000000000023002600294D
:100140000001020408102040800102040810200170
:10015000020408102000000000250028002B0004E5
:10016000040404040404040202020202020303035E
:10017000030303003F08B80E11241FBECFEFD8E0E1
:10018000DEBFCDBF11E0A0E0B1E0E4E3F1E202C0E8
:1001900005900D92AA36B107D9F722E0AAE6B1E0A0
:1001A00001C01D92A53DB207E1F710E0CBEBD0E016
:1001B00004C02197FE010E945B0FCA3BD107C9F71B
:1001C0000E9481090C948D100C9400008F929F92D4
:1001D000AF92BF92CF92DF92EF92FF92CF93209196
:1001E000B0023091B10282179307E8F54B01AA24BF
:1001F000BB24C82DC52ED62EE72EFF24BC2DA42F40
:100200002091B602222361F0829E40011124C92D63
:100210002C9D60011124BD2D249FF0011124AF2FCE
:10022000E091BC02E090B702F090B8023091B902C0
:10023000E31323C09C01220F331F820F931F8E0DE7
:100240009F1DE091B902E80FF92FF11DC083E091E5
:10025000BA02E80FF92FF11DB0832091BB02820F83
:10026000911DFC01A083CF91FF90EF90DF90CF9084
:10027000BF90AF909F908F900895880F991F880F1F
:10028000991F8E0D9F1D472F5527662777272223FD
:1002900049F030E0249F7001259FF00C349FF00C52
:1002A00011244F2DE80FF92FF11D4083CACF80E4B0
:1002B00080937C0080917A00806480937A008091A2
:1002C0007A0086FDFCCF80917800909179000895A6
:1002D00090E0FC01ED5DFE4F2491FC01EF5BFE4FD1
:1002E0003491FC01E15AFE4FE491EE23C9F0222340
:1002F00039F0233001F1A8F4213019F1223029F12D
:10030000F0E0EE0FFF1FEB5AFE4FA591B4918FB7AF
:10031000F894EC91611126C030953E233C938FBF39
:1003200008952730A9F02830C9F0243049F780918A
:1003300080008F7D03C0809180008F778093800044
:10034000DFCF84B58F7784BDDBCF84B58F7DFBCFC6
:100350008091B0008F778093B000D2CF8091B000B1
:100360008F7DF9CF3E2BDACFCF93DF9390E0FC0166
:10037000EF5BFE4F2491815A9E4FFC0184918823AC
:10038000D1F090E0880F991FFC01E75EFE4FA59128
:10039000B491FC01EB5AFE4FC591D49161110EC08E
:1003A0009FB7F8948C91E22FE0958E238C9328814F
:1003B000E223E8839FBFDF91CF9108958FB7F89430
:1003C000EC91E22BEC938FBFF6CF3FB7F89480917E
:1003D000C8019091C901A091CA01B091CB0126B585
:1003E000A89B05C02F3F19F00196A11DB11D3FBF6D
:1003F000BA2FA92F982F8827BC01CD01620F711D3C
:10040000811D911D42E0660F771F881F991F4A9535
:10041000D1F708950F931F93CF93DF93CDB7DEB736
:1004200029970FB6F894DEBF0FBECDBF8091B702FB
:100430009091B802892B09F47CC00E94E5010091DB
:10044000BD021091BE022091BF023091C002601720
:1004500071078207930740F46093BD027093BE0258
:100460008093BF029093C0020091BD021091BE0222
:100470002091BF023091C002601B710B820B930B65
:100480006C32714081059105C0F2F8948091B202FE
:100490009091B3029A838983E091B702F091B802F8
:1004A000DF011196808189879091AE02E091C102AF
:1004B000F091C2028091C302992309F445C0908152
:1004C000982B98879081809589238F838F818C8347
:1004D00088E08B8358856F8149853B812C81898198
:1004E0009A81508347FD252F3A952083262F39F096
:1004F000441F00C000006083000000C0F2CF38E05D
:100500004D9160830000019761F7F093C202E09380
:10051000C10249873B832C839A83898378940E9404
:10052000E5016093BD027093BE028093BF02909379
:10053000C00229960FB6F894DEBF0FBECDBFDF9183
:10054000CF911F910F9108959081982B988790815A
:10055000809589238F838F818E8388E08D83588552
:100560006F8149853D812E8189819A81508347FD24
:10057000252F00C000C0208300C000C000C000C004
:1005800000C060830000262F3A9541F0441F000010
:1005900000C000C000C000C000C0E8CF38E04D91EE
:1005A00000C0608300C0019709F7F093C202E09396
:1005B000C10249873D832E83AFCF8F929F92AF9226
:1005C000BF92CF92DF92EF92FF926B017C010E946B
:1005D000E5014B015C01C114D104E104F104B9F05F
:1005E0000E94E501681979098A099B09683E7340F0
:1005F0008105910580F321E0C21AD108E108F108D4
:1006000088EE880E83E0981EA11CB11CE4CFFF90F9
:10061000EF90DF90CF90BF90AF909F908F90089514
:100620002FB7F8946091C4017091C5018091C60103
:100630009091C7012FBF08950F931F938091690276
:1006400090916A02DC01ED91FC910084F185E02D2E
:100650000995892B09F4D7C060E070E0CB010E94B6
:10066000DD02209187028091690290916A02DC018B
:10067000ED91FC910284F385E02D21110BC00995C9
:10068000809373028E37D1F6809187028F5F8093BB
:100690008702D4CF099590918702E92FF0E0E759BE
:1006A000FD4F82879230B9F09930D9F09130A9F49A
:1006B0008F3F99F01092870281E080938902109217
:1006C0008C0210928B0280938D0210928E0280E039
:1006D0001F910F910895863069F79F5F909387026D
:1006E000ADCF8F3E39F72091750280917402280FAB
:1006F0003327331FE0917602C9018E0F911D20919F
:100700007702280F392F311D4091780250E0240FD5
:10071000351F8091790290E060917A0270E0762F27
:100720006627F0917B026F0F711D280F391F3195DD
:10073000219531096217730709F0BCCF1092870227
:10074000E13419F410928E022FC0E0938A02542FE4
:100750004427840F951F90938C0280938B02EA5359
:10076000E63108F046C0F0E0E854FC4F0C945B0F13
:10077000E503ED03F703CE03F703D703F503F9030E
:10078000F703F703F703F703F703F703F703F70399
:10079000F903F703F703F703F703F70385E0809303
:1007A000890281E080938D0280918D0291CF80FF3C
:1007B00002C089E0F4CF81FF02C084E0F0CF8370F3
:1007C0009927892B89F38AE0EACF80FF02C087E06E
:1007D000E6CF81FFE9CF82E0E2CF80FF02C088E070
:1007E000DECF81FFE1CF83E0DACF86E0D8CF8BE0A8
:1007F000D6CF81E08093890210928C0210928B02F6
:1008000080938D029FCF80918E02882369F20E948F
:10081000100300916B0210916C0220916D023091D7
:100820006E02601B710B820B930B00916F02109193
:100830007002209171023091720260177107820775
:10084000930708F4B1CF1092870210928902109298
:100850008C0210928B0281E036CF80938002272F8A
:1008600030E0709382026093830240917F02909106
:100870007E02490F5527551F840F952F911D4091DA
:100880008102840F911D820F931F680F792F711DB4
:100890007195619571097093840260938502442378
:1008A00061F080918E02882341F060E070E0CB011E
:1008B0000E94DD020E941C03F4CF80916902909196
:1008C0006A02DC01ED91FC910280F381E02D4AE0A7
:1008D00050E06DE772E009950E94100360936B028F
:1008E00070936C0280936D0290936E0280918102EE
:1008F00091E0811101C090E090938E02811106C0B9
:100900006AE070E080E090E00C94DD0208958F9240
:100910009F92AF92BF92CF92DF92EF92FF92CF93CE
:100920006B017C010E9410034B015C01C114D104D6
:10093000E104F10441F4C0906F02D0907002E090A5
:100940007102F09072020E941C03C82F811111C025
:100950000E941003681979098A099B09C616D706EF
:10096000E806F90630F060E070E0CB010E94DD029D
:10097000EACF8C2FCF91FF90EF90DF90CF90BF9078
:10098000AF909F908F900895AF92BF92CF92DF92D9
:10099000EF92FF920F931F93CF93DF936C017B0134
:1009A0008B01040F151FEB015E01AE18BF08C017C5
:1009B000D10759F06991D601ED91FC910190F08138
:1009C000E02DC6010995892B79F7C501DF91CF91FB
:1009D0001F910F91FF90EF90DF90CF90BF90AF905D
:1009E0000895FC01538D448D252F30E0842F90E035
:1009F000821B930B541710F0CF960895019708951A
:100A0000FC01918D828D981761F0A28DAE0FBF2FE2
:100A1000B11D5D968C91928D9F5F9F73928F90E038
:100A200008958FEF9FEF0895FC01918D828D9817A7
:100A300031F0828DE80FF11D858D90E008958FEFE4
:100A40009FEF0895FC01918D228D892F90E0805CAD
:100A50009F4F821B91098F73992708958CEC91E029
:100A60000E94220521E0892B09F420E0822F0895BD
:100A700080E090E0892B29F00E942E0581110C94D2
:100A800000000895FC01A48DA80FB92FB11DA35A31
:100A9000BF4F2C91848D90E001968F739927848F9E
:100AA000A689B7892C93A089B1898C9183708064C1
:100AB0008C93938D848D981306C00288F389E02D62
:100AC00080818F7D80830895EF92FF920F931F9313
:100AD000CF93DF93EC0181E0888F9B8D8C8D9813F1
:100AE0001AC0E889F989808185FF15C09FB7F894FD
:100AF000EE89FF896083E889F98980818370806449
:100B000080839FBF81E090E0DF91CF911F910F9193
:100B1000FF90EF900895F62E0B8D10E00F5F1F4FA2
:100B20000F731127E02E8C8D8E110CC00FB607FCB1
:100B3000FACFE889F989808185FFF5CFCE010E943F
:100B40004205F1CFEB8DEC0FFD2FF11DE35AFF4F66
:100B5000F0829FB7F8940B8FEA89FB8980818062CD
:100B6000CFCFCF93DF93EC01888D8823B9F0AA898A
:100B7000BB89E889F9898C9185FD03C0808186FD58
:100B80000DC00FB607FCF7CF8C9185FFF2CF8081A7
:100B900085FFEDCFCE010E944205E9CFDF91CF91D5
:100BA00008952091AC013091AD012817390771F4F7
:100BB0009091AA018091AB01981741F0E091AA01B0
:100BC000F0E0E659FE4F808190E008958FEF9FEFAF
:100BD00008950895EF92FF920F931F93CF93DF93A1
:100BE000DC015C96ED90FC905D97E114F10479F4E2
:100BF00081E090E013969C938E93129790E080E0B2
:100C0000DF91CF911F910F91FF90EF900895519632
:100C1000ED91FC91529750968C915097982F90950A
:100C20000FB75E962C915E97122F127021FD609582
:100C3000F8942081112319F1282B2083E7012197B3
:100C4000F1F728E0462F50E0308160FF1AC0382BC2
:100C50003083E7012197F1F7BA0175956795215027
:100C600089F7112381F08081892380830FBF5C96EF
:100C70008D919C910197F1F781E090E0C1CF2923FC
:100C8000DCCF3923E5CF9081892BEFCF2091AC01C8
:100C90003091AD012817390771F48091AB01209193
:100CA000AA0190E0805C9F4F821B910960E470E094
:100CB0000E94470F089590E080E008952091AC01D4
:100CC0003091AD0128173907B9F49091AA018091AC
:100CD000AB01981789F0E091AA01F0E0E659FE4FC8
:100CE00080812091AA0130E02F5F3F4F2F7333277F
:100CF0002093AA0190E008958FEF9FEF089590E070
:100D000080E00895FC0101900020E9F73197AF01E0
:100D1000481B590BBC018CEC91E00C94C4048F92DD
:100D20009F92AF92BF920F931F93CF93DF93CDB754
:100D3000DEB7A1970FB6F894DEBF0FBECDBF19A2E4
:100D4000423008F44AE08E010F5D1F4F842E912C33
:100D5000B12CA12CA50194010E94020FE62FB9012C
:100D6000CA01EA30F4F4E05DD801EE938D01232B43
:100D7000242B252B79F790E080E0109719F0CD0116
:100D80000E948206A1960FB6F894DEBF0FBECDBFBB
:100D9000DF91CF911F910F91BF90AF909F908F9057
:100DA0000895E95CE1CFCF92DF92EF92FF92CF936B
:100DB000DF936C01990FEE08FF08F7FE1FC06DE28C
:100DC0008CEC91E00E946405EC0166277727CB014B
:100DD0006C197D098E099F094AE00E948F06C80F91
:100DE000D91F8CE391E00E9482068C0F9D1FDF913A
:100DF000CF91FF90EF90DF90CF9008954AE0C70128
:100E0000B6010E948F06EC01ECCF0F931F93CF9396
:100E1000DF938C01D0E0C0E0F801EC0FFD1F64917E
:100E2000662341F08CEC91E00E946405892B11F05F
:100E30002196F2CF8CE391E00E9482068C0F9D1FD9
:100E4000DF91CF911F910F9108951F920F920FB6CE
:100E50000F9211242F933F938F939F93AF93BF9340
:100E60008091C4019091C501A091C601B091C701C4
:100E70003091C30123E0230F2D3758F50196A11DB2
:100E8000B11D2093C3018093C4019093C501A09329
:100E9000C601B093C7018091C8019091C901A0918A
:100EA000CA01B091CB010196A11DB11D8093C8016B
:100EB0009093C901A093CA01B093CB01BF91AF91A8
:100EC0009F918F913F912F910F900FBE0F901F9088
:100ED000189526E8230F0296A11DB11DD2CF1F92AF
:100EE0000F920FB60F9211242F933F934F935F935E
:100EF0006F937F938F939F93AF93BF93EF93FF93E2
:100F00008CEC91E00E944205FF91EF91BF91AF916F
:100F10009F918F917F916F915F914F913F912F9111
:100F20000F900FBE0F901F9018951F920F920FB643
:100F30000F9211242F938F939F93EF93FF93E09140
:100F4000DC01F091DD018081E091E201F091E301AB
:100F500082FD1BC090818091E5018F5F8F7320918E
:100F6000E601821741F0E091E501F0E0E453FE4F25
:100F7000958F8093E501FF91EF919F918F912F9134
:100F80000F900FBE0F901F9018958081F4CF1F9285
:100F90000F920FB60F9211242F933F934F935F93AD
:100FA0006F937F938F939F93AF93BF93EF93FF9331
:100FB000E091AC01F091AD01309749F0A685B7857D
:100FC0008585968D91FF14C09C918923A1F4FF9192
:100FD000EF91BF91AF919F918F917F916F915F91B1
:100FE0004F913F912F910F900FBE0F901F9018952A
:100FF0009C91892361F7A389B4899C918589809507
:1010000089238C93868997890197F1F7608D718D7B
:10101000A685B785558538E020E0CB010197F1F72B
:10102000822F90E095958795282F4C91452309F0C4
:101030002068315091F7868D81FD20958091AB011C
:1010400090E001968F7399273091AA01381799F093
:10105000A091AB01B0E0A659BE4F2C938093AB0199
:10106000828D938D0197F1F7A389B4898C9195892D
:10107000892B8C93ACCF868D8160868FF1CF1092B7
:10108000CF011092CE0188EE93E0A0E0B0E0809313
:10109000D0019093D101A093D201B093D3018CE100
:1010A00091E09093CD018093CC0185EC90E09093FA
:1010B000D9018093D80184EC90E09093DB01809378
:1010C000DA0180EC90E09093DD018093DC0181EC0B
:1010D00090E09093DF018093DE0182EC90E09093AA
:1010E000E1018093E00186EC90E09093E30180932E
:1010F000E2011092E5011092E6011092E7011092D0
:10110000E8011092AF021092B6021092BD02109246
:10111000BE021092BF021092C00281E08093BC0216
:101120008093B9021092BA0292E09093BB0280932E
:10113000AE0281E290E09093B3028093B2020E94EB
:10114000680F9093B8028093B702009709F4D0C05B
:1011500021E2FC0111922A95E9F78BE090E090934F
:10116000B1028093B00285E090E09093B502809345
:10117000B4028091AF02882341F061E085E00E94D3
:10118000B40160E085E00E946801E4E6F1E0E491EA
:10119000F0E0EE0FFF1FEB5AFE4F85919491909374
:1011A000C2028093C102E6E4F1E0E491E093C3025D
:1011B000109292021092910288EE93E0A0E0B0E0CB
:1011C0008093930290939402A0939502B093960219
:1011D0008EE291E09093900280938F021092A6028B
:1011E0001092A5021092A8021092A7021092AA02D1
:1011F0001092A9021092AC021092AB026091AD0263
:101200006E7F6D7F6093AD026695617081E06827A7
:101210008BE00E94680161E08BE00E94B401ECE485
:10122000F1E0E491E0939F02EAE6F1E0E491F0E07E
:10123000EE0FFF1FEB5AFE4F859194919093A10200
:101240008093A00260E08AE00E94B4018091AD0228
:1012500081FD04C061E08AE00E9468018AE0809319
:101260009B02EBE4F1E0E491E0939C02E9E6F1E01B
:10127000E491F0E0EE0FFF1FE95CFE4F2591349101
:1012800030939E0220939D0244EF51E060E070E0B5
:1012900040936F02509370026093710270937202D8
:1012A000EEE0F1E0ADE7B2E001900D928A95E1F752
:1012B0001092870282E08093880210928D02109231
:1012C0008E028FEF8093C4021092C6021092C50264
:1012D0001092D0021092CF028FEF9FEFDC0180932B
:1012E000CB029093CC02A093CD02B093CE0208958E
:1012F0001092B3021092B2021092B1021092B00298
:1013000032CF789484B5826084BD84B5816084BD19
:1013100085B5826085BD85B5816085BD80916E0093
:10132000816080936E0010928100809181008260C4
:101330008093810080918100816080938100809101
:1013400080008160809380008091B10084608093F0
:10135000B1008091B00081608093B00080917A00EC
:10136000846080937A0080917A00826080937A0012
:1013700080917A00816080937A0080917A00806801
:1013800080937A001092C100E091DC01F091DD01C0
:1013900082E08083E091D801F091D9011082E09140
:1013A000DA01F091DB0180E180831092E401E091A9
:1013B000E001F091E10186E08083E091DE01F091AF
:1013C000DF01808180618083E091DE01F091DF01A7
:1013D000808188608083E091DE01F091DF0180816F
:1013E00080688083E091DE01F091DF0180818F7D54
:1013F00080831092AA021092A9021092A802109261
:10140000A7021092A6021092A5028DE991E0909396
:10141000AC028093AB0290919B02963108F047C0DA
:101420002DEB30E03093A6022093A5022BE931E0AA
:101430003093A8022093A7022CE231E03093AA0255
:101440002093A9022091680084E0983048F031E0B0
:101450009E3008F430E081E001C0880F3A95EAF749
:10146000822B809368002DE630E0983050F02BE618
:1014700030E09E3030F02CE630E0963110F030E075
:1014800020E03093A3022093A202292F30E098306D
:1014900008F084C081E001C0880F9A95EAF7809334
:1014A000A4028091AB029091AC020197F1F7809178
:1014B000A9029091AA02892B49F1E091AC01F09127
:1014C000AD0122E0EF38F20709F1309739F0A38936
:1014D000B4899C918589809589238C938091AD02F4
:1014E0008E7F8093AD021092AB011092AA018FE81B
:1014F00092E09093AD018093AC01E091A202F09153
:10150000A30280819091A402892B808360E08EE009
:101510000E94B4018FE391E00E9482068CE391E087
:101520000E9482068EEF90E00E9405078DEC90E00D
:101530000E9405078FE892E090936A028093690207
:1015400081E08093810270E060E08CE00E942D04D5
:1015500060ED77E080E090E00E94870468EC70E046
:1015600080E090E00E94DD0210928D02809189025D
:10157000843009F18930F9F08CEB90E00E94050786
:101580008BE990E00E9405078EE790E00E94050736
:1015900060E070E0CB010E94DD02FACF9E3040F4A3
:1015A0002850310981E001C0880F2A95EAF777CFEA
:1015B0002E503109F7CF6091B602663029F12091A3
:1015C000B7023091B8026150C9F070E08FEF95E03A
:1015D0000E94330FF9014091B2025091B302CF0142
:1015E000821B930B8417950760F44081469FC001CE
:1015F000479F900D112490833196EDCF70E060E00D
:10160000E9CF86E08093B6028091B4029091B50252
:1016100097FD08C061E00E94B40160E08091B402CF
:101620000E94680181E08093AF020E940A0288E66E
:1016300090E00E9405070E9457012BE130E0DC0199
:101640000E94610F2FEF33E040E050E00E94E30E74
:101650002093BF013093C001622F70E086E00E94AA
:101660002D0461E070E083E00E942D043BE1632ED5
:1016700040E0E42E40E0F42E7724739452E3C52E2C
:10168000D12C0E9410030E9410034B015C013CEA24
:1016900083163DE09306A104B104B9F48BE491E014
:1016A0000E9482060E9410034AE00E948F068CE38B
:1016B00091E00E94820640E05FEF6FEF70E083E010
:1016C00090E00E94E6000E940A020E94100368381F
:1016D000734181059105F0F18091B0019091B101C4
:1016E000092E000CAA0BBB0BA5019401281B390B7A
:1016F0004A0B5B0BDA01C9018D329140A105B1059E
:1017000048F1C091AE01D091AF018091B0029091AB
:10171000B1028C179D07F0F09092B1018092B00158
:101720004FEF5FEF6FEF70E0CE010E94E6000E9486
:101730000A0240E050E0BA01CE0101970E94E600A3
:101740000E940A02CE0101969093AF018093AE01F0
:101750000E94D3060E9410034B015C01DC01CB0107
:101760008C599143A109B10985389C41A105B10566
:1017700008F0FEC0D501C401885C9243A109B109FB
:10178000893E9340A105B10560F0D501C4018058A0
:101790009E43A109B109893E9340A105B10508F016
:1017A00076C08091B7019091B801092E000CAA0B68
:1017B000BB0BA5019401281B390B4A0B5B0BDA010B
:1017C000C901893C9105A105B10508F447C0C09144
:1017D0000201D09103019092B8018092B701C33009
:1017E000D10509F465C1C230D10509F452C1C13037
:1017F000D10581F440E05FEF6FEF70E082E090E0B0
:101800000E94E60040E05FEF6FEF70E081E090E063
:101810000E94E6000E940A02C230D10509F464C1A8
:10182000C130D10509F453C1209771F440E050E074
:10183000BA0182E090E00E94E60040E050E0BA0188
:1018400081E090E00E94E6000E940A021C161D063C
:1018500064F42197D0930301C093020180910201A7
:10186000909103011816190694F030E8831A3EE3AC
:10187000930AA108B10849EC84169104A104B104AB
:1018800030F483E090E090930301809302010E9482
:1018900010030091B3011091B4012091B501309172
:1018A000B601601B710B820B930B693271058105C8
:1018B000910508F45DC00E9410036093B30170931A
:1018C000B4018093B5019093B6018091B20181116A
:1018D0002DC080910001909101010E94D306C0911A
:1018E0000001D09101012A96D0930101C09300011B
:1018F0008C2F90E0B0E0A0E0BC0155274427BA2F20
:10190000A92F982F8827482B592B6A2B7B2B8AE0ED
:1019100090E00E94E6000E940A02CF3FD10514F039
:101920007092B2018091B201882311F1C09100013F
:10193000D09101012A97D0930101C09300018C2F0F
:1019400090E0B0E0A0E0BC0155274427BA2FA92FB2
:10195000982F8827482B592B6A2B7B2B8AE090E005
:101960000E94E6000E940A02E89714F41092B20165
:101970000E941003683032E573078105910531F04C
:10198000683A41E674078105910541F41092BE0161
:101990001092BD01D0920701C09206018B019C01FB
:1019A00000521E4421093109093E13402105310529
:1019B000A8F08B019C0104501B4521093109093E07
:1019C00013402105310550F0685779468109910986
:1019D000693E73408105910508F03BC10E941003E8
:1019E0000091B9011091BA012091BB013091BC0165
:1019F000601B710B820B930B6031710581059105A2
:101A000008F427C10E9410036093B9017093BA01D2
:101A10008093BB019093BC018091BD018111C7C02F
:101A2000C0910601D09107012A96D0930701C09377
:101A300006015090BE01552009F47EC0CF3FD1056C
:101A400011F00CF0AAC08C2E912CB12CA12C5401B9
:101A50009924882400910401109105010230110598
:101A600009F456C00130110509F44BC0B501A401B9
:101A700082E090E00115110509F447C0023011051C
:101A800009F04BC0B501A40187E090E00E94E60098
:101A900084C040E05FEF6FEF70E085E090E00E946F
:101AA000E60040E05FEF6FEF70E084E090E0B0CEE2
:101AB00040E05FEF6FEF70E088E090E00E94E600AA
:101AC00040E05FEF6FEF70E087E090E0A1CE40E094
:101AD00050E0BA0185E090E00E94E60040E050E06E
:101AE000BA0184E090E0AECE40E050E0BA0188E078
:101AF00090E00E94E60040E050E0BA0187E090E00C
:101B0000A1CEB501A40185E090E00E94E600B6CF29
:101B1000B501A40188E090E0F8CF0130110529F467
:101B2000B501A40184E090E0B1CF012BB1F5B5017E
:101B3000A40181E090E0AACF8C2F90E0B0E0A0E07B
:101B40005C01992488244427582F692F7A2F842AEE
:101B5000952AA62AB72A8C2A992AAA2ABB2A009152
:101B60000401109105010330110509F4EDC00230A4
:101B7000110509F4E2C0B501A40182E090E0013052
:101B8000110509F4DEC00330110509F47BCF0230E2
:101B9000110531F20130110551F20E940A02CF3FC6
:101BA000D1050CF456C0511054C07092BD01009183
:101BB0000601109107010A501109109307010093C3
:101BC0000601802F90E0B0E0A0E05C019924882419
:101BD0004427582F692F7A2F842A952AA62AB72AB4
:101BE000802A992AAA2ABB2AC0910401D091050112
:101BF000C330D10509F4B4C0C230D10509F4A9C07D
:101C0000B501A40182E090E0C130D10509F4A5C07E
:101C1000B501A40187E090E0C330D10551F084E024
:101C200090E0C230D10529F0C130D10521F481E026
:101C300090E00E94E6000E940A02083311054CF46D
:101C40001092BD017092BE012197D0930501C093FF
:101C500004010E9410030091C1011091C201012EE4
:101C6000000C220B330B601B710B820B930B693E34
:101C700073408105910508F454C00E9410037093CD
:101C8000C2016093C1010E945701AC01649EC00172
:101C9000659E900D112497FF02C081509C4F892FA3
:101CA000990F990B859585952091BF013091C001C1
:101CB00082179307B1F10E9457019C01629EC001F7
:101CC000639E900D112497FF02C081509C4F892F75
:101CD000990F990B85958595BC01772786E00E9421
:101CE0002D0470E060E083E40E942D0460E070E069
:101CF000CB010E9487048823C1F110928D0280914C
:101D00008B0290918C029093C0018093BF018AE571
:101D100091E00E9482068091BF019091C0010E94D3
:101D2000D306E114F10409F4ACCC0E942E058823FB
:101D300009F4A7CC0E940000A4CCB501A40185E061
:101D400090E00E94E6001FCFB501A40188E090E07A
:101D5000F8CFB501A40185E090E00E94E60058CFDD
:101D6000B501A40188E090E0F8CF8FEF9FEFCBCFD3
:101D70008EE291E09093900280938F028091AC016B
:101D80009091AD018F58924071F4E091A202F091D0
:101D9000A30290818091A402809589238083109270
:101DA000AD011092AC018091B7029091B8020E94EF
:101DB00004108091B4029091B50297FD03C060E0D9
:101DC0000C94B4010895052E97FB1EF400940E9414
:101DD000FA0E57FD07D00E94020F07FC03D04EF405
:101DE0000C94FA0E50954095309521953F4F4F4FEA
:101DF0005F4F089590958095709561957F4F8F4FB7
:101E00009F4F0895A1E21A2EAA1BBB1BFD010DC016
:101E1000AA1FBB1FEE1FFF1FA217B307E407F5079A
:101E200020F0A21BB30BE40BF50B661F771F881F76
:101E3000991F1A9469F760957095809590959B010C
:101E4000AC01BD01CF010895A29FB001B39FC001B5
:101E5000A39F700D811D1124911DB29F700D811DD6
:101E60001124911D0895AA1BBB1B51E107C0AA1F95
:101E7000BB1FA617B70710F0A61BB70B881F991F2B
:101E80005A95A9F780959095BC01CD01089597FBCF
:101E9000072E16F4009407D077FD09D00E94330F67
:101EA00007FC05D03EF4909581959F4F089570955D
:101EB00061957F4F0895EE0FFF1F0590F491E02D7F
:101EC00009940E94240FB7FF0895821B930B089575
:101ED0000F931F93CF93DF938230910510F482E02C
:101EE00090E0E091D302F091D40230E020E0B0E045
:101EF000A0E0309799F42115310509F44AC0281B58
:101F0000390B24303105D8F58A819B816115710523
:101F100089F1FB0193838283FE0111C040815181CD
:101F20000281138148175907E0F04817590799F4BF
:101F3000109761F012960C93129713961C93329699
:101F4000CF01DF91CF911F910F9108950093D3029C
:101F50001093D402F4CF2115310551F042175307E5
:101F600038F0A901DB019A01BD01DF01F801C1CF01
:101F7000EF01F9CF9093D4028093D302CDCFFE012D
:101F8000E20FF31F81939193225031093983288303
:101F9000D7CF2091D1023091D202232B41F420914E
:101FA0000A0130910B013093D2022093D10220918B
:101FB0000801309109012115310541F42DB73EB7D3
:101FC00040910C0150910D01241B350BE091D10281
:101FD000F091D202E217F307A0F42E1B3F0B281753
:101FE000390778F0AC014E5F5F4F2417350748F092
:101FF0004E0F5F1F5093D2024093D1028193919371
:102000009FCFF0E0E0E09CCFCF93DF930097E9F023
:10201000FC01329713821282A091D302B091D402B4
:10202000ED0130E020E01097A1F420813181820F92
:10203000931F2091D1023091D2022817390709F05D
:1020400061C0F093D202E093D102DF91CF91089565
:10205000EA01CE17DF07E8F54A815B819E01411551
:102060005105B1F7E901FB83EA8349915991C40F06
:10207000D51FEC17FD0761F4808191810296840FD2
:10208000951FE90199838883828193819B838A8349
:10209000F0E0E0E012968D919C9113970097B9F5CE
:1020A0002D913C911197CD010296820F931F2091A3
:1020B000D1023091D2022817390739F6309751F5FD
:1020C0001092D4021092D302B093D202A093D10204
:1020D000BCCFD383C28340815181840F951FC81721
:1020E000D90761F44E5F5F4F88819981480F591F6E
:1020F000518340838A819B8193838283211531059B
:1021000009F0B0CFF093D402E093D3029ECFFD014B
:10211000DC01C0CF13821282D7CF10E0CBEBD0E02E
:1021200004C0FE010E945B0F2196CC3BD107C9F78A
:04213000F894FFCF51
:1021340032000300030032000000D50280007EFF5D
:1021440006000100000000EF000000006405C40464
:10215400F104B10522050005140500000000EA059C
:10216400C4047F06E90546065E06D1050D0A005340
:1021740074617274696E672E2E2E006D696C6C69C1
:1021840020313030302121213A006368616E676567
:0A2194006420766F6C756D653A00EB
:00000001FF
