:100000000C94CB000C94F3000C94F3000C942C078C
:100010000C942C070C942C070C94F3000C94F30014
:100020000C94F3000C94F3000C94F3000C94F30084
:100030000C94F3000C94F3000C94F3000C94F30074
:100040000C948A060C94F3000C94FA060C94D406D3
:100050000C94F3000C94F3000C94F3000C94F30054
:100060000C94F3000C94F30005A84CCDB2D44EB917
:100070003836A9020C50B9918688083CA6AAAA2A4B
:10008000BE000000803F4446506C61796572204D8F
:10009000696E69206F6E6C696E652E00322E506C31
:1000A0006561736520696E7365727420746865207C
:1000B000534420636172642100312E506C6561737A
:1000C00065207265636865636B2074686520636F83
:1000D0006E6E656374696F6E2100556E61626C654A
:1000E00020746F20626567696E3A00496E697469B1
:1000F000616C697A696E67204446506C61796572FB
:10010000202E2E2E20284D61792074616B652033BE
:100110007E35207365636F6E647329004446526FA9
:10012000626F74204446506C61796572204D696E2F
:10013000692044656D6F0000000000240027002A3C
:100140000000000008000201000003040700000096
:10015000000000000000000000230026002900012C
:10016000020408102040800102040810200102044B
:1001700008102000000000250028002B00040404C3
:100180000404040404020202020202030303030340
:100190000300A407C90B11241FBECFEFD8E0DEBFB8
:1001A000CDBF11E0A0E0B1E0ECEAFFE102C00590B4
:1001B0000D92A435B107D9F722E0A4E5B1E001C062
:1001C0001D92A03BB207E1F710E0CAECD0E004C0FA
:1001D0002197FE010E946C0CC93CD107C9F70E940F
:1001E000E6080C94C90F0C94000080E480937C0016
:1001F00080917A00806480937A0080917A0086FDF5
:10020000FCCF8091780090917900089590E0FC01F6
:10021000EF5BFE4F2491FC01E15AFE4F3491FC014B
:10022000E358FE4FE491EE23C9F0222339F0233046
:1002300001F1A8F4213019F1223029F1F0E0EE0F9C
:10024000FF1FED58FE4FA591B4918FB7F894EC9134
:10025000611126C030953E233C938FBF089527300F
:10026000A9F02830C9F0243049F7809180008F7DB3
:1002700003C0809180008F7780938000DFCF84B5AA
:100280008F7784BDDBCF84B58F7DFBCF8091B000AD
:100290008F778093B000D2CF8091B0008F7DF9CF5F
:1002A0003E2BDACFCF93DF9390E0FC01E15AFE4F73
:1002B000249183589E4FFC0184918823D1F090E0D3
:1002C000880F991FFC01E95CFE4FA591B491FC01D8
:1002D000ED58FE4FC591D49161110EC09FB7F894AF
:1002E0008C91E22FE0958E238C932881E223E88382
:1002F0009FBFDF91CF9108958FB7F894EC91E22BD7
:10030000EC938FBFF6CF3FB7F8948091A301909103
:10031000A401A091A501B091A60126B5A89B05C096
:100320002F3F19F00196A11DB11D3FBFBA2FA92F74
:10033000982F8827BC01CD01620F711D811D911D71
:1003400042E0660F771F881F991F4A95D1F70895DD
:100350000F931F93CF93DF93CDB7DEB729970FB6D7
:10036000F894DEBF0FBECDBF0E94830100919802BA
:100370001091990220919A0230919B0260177107A7
:100380008207930740F460939802709399028093D8
:100390009A0290939B0200919802109199022091E9
:1003A0009A0230919B02601B710B820B930B6C3293
:1003B000714081059105C0F2F89480918D02909171
:1003C0008E029A838983E0919202F0919302DF0179
:1003D00011968081898790918902E0919C02F09129
:1003E0009D0280919E02992309F445C09081982B2B
:1003F00098879081809589238F838F818C8388E073
:100400008B8358856F8149853B812C8189819A81B5
:10041000508347FD252F3A952083262F39F0441F1E
:1004200000C000006083000000C0F2CF38E04D91B2
:1004300060830000019761F7F0939D02E0939C02B6
:1004400049873B832C839A83898378940E94830114
:10045000609398027093990280939A0290939B0202
:1004600029960FB6F894DEBF0FBECDBFDF91CF91B6
:100470001F910F9108959081982B98879081809576
:1004800089238F838F818E8388E08D8358856F8148
:1004900049853D812E8189819A81508347FD252F91
:1004A00000C000C0208300C000C000C000C000C069
:1004B00060830000262F3A9541F0441F000000C0E1
:1004C00000C000C000C000C0E8CF38E04D9100C0BF
:1004D000608300C0019709F7F0939D02E0939C02AE
:1004E00049873D832E83AFCF8F929F92AF92BF9269
:1004F000CF92DF92EF92FF926B017C010E94830109
:100500004B015C01C114D104E104F104B9F00E9473
:100510008301681979098A099B09683E734081053E
:10052000910580F321E0C21AD108E108F10888EEB4
:10053000880E83E0981EA11CB11CE4CFFF90EF90C1
:10054000DF90CF90BF90AF909F908F9008952FB77E
:10055000F89460919F017091A0018091A101909108
:10056000A2012FBF08950F931F9380914402909191
:100570004502DC01ED91FC910084F185E02D0995A7
:10058000892B09F4D7C060E070E0CB010E947402AF
:10059000209162028091440290914502DC01ED912C
:1005A000FC910284F385E02D21110BC00995809305
:1005B0004E028E37D1F6809162028F5F8093620285
:1005C000D4CF099590916202E92FF0E0EC5BFD4FEA
:1005D00082879230B9F09930D9F09130A9F48F3FE9
:1005E00099F01092620281E0809364021092670297
:1005F00010926602809368021092690280E01F9157
:100600000F910895863069F79F5F90936202ADCF96
:100610008F3E39F72091500280914F02280F3327E7
:10062000331FE0915102C9018E0F911D209152029A
:10063000280F392F311D4091530250E0240F351FF0
:100640008091540290E06091550270E0762F662709
:10065000F09156026F0F711D280F391F31952195AA
:1006600031096217730709F0BCCF10926202E134BE
:1006700019F4109269022FC0E0936502542F4427A9
:10068000840F951F9093670280936602EA53E631C8
:1006900008F046C0F0E0E15BFC4F0C946C0C7C036E
:1006A00084038E0365038E036E038C0390038E0315
:1006B0008E038E038E038E038E038E038E039003B0
:1006C0008E038E038E038E038E0385E08093640277
:1006D00081E0809368028091680291CF80FF02C020
:1006E00089E0F4CF81FF02C084E0F0CF83709927C6
:1006F000892B89F38AE0EACF80FF02C087E0E6CF4A
:1007000081FFE9CF82E0E2CF80FF02C088E0DECF48
:1007100081FFE1CF83E0DACF86E0D8CF8BE0D6CF80
:1007200081E08093640210926702109266028093C7
:1007300068029FCF80916902882369F20E94A70214
:1007400000914602109147022091480230914902DF
:10075000601B710B820B930B00914A0210914B02AC
:1007600020914C0230914D02601771078207930768
:1007700008F4B1CF109262021092640210926702E4
:100780001092660281E036CF80935B02272F30E023
:1007900070935D0260935E0240915A0290915902FB
:1007A000490F5527551F840F952F911D40915C02CD
:1007B000840F911D820F931F680F792F711D719502
:1007C0006195710970935F0260936002442361F048
:1007D00080916902882341F060E070E0CB010E94C3
:1007E00074020E94B302F4CF8091440290914502BA
:1007F000DC01ED91FC910280F381E02D4AE050E0B4
:1008000068E572E009950E94A70260934602709322
:100810004702809348029093490280915C0291E0E4
:10082000811101C090E090936902811106C06AE0D5
:1008300070E080E090E00C94740208958F929F9293
:10084000AF92BF92CF92DF92EF92FF92CF936B0164
:100850007C010E94A7024B015C01C114D104E10498
:10086000F10441F4C0904A02D0904B02E0904C0257
:10087000F0904D020E94B302C82F811111C00E9456
:10088000A702681979098A099B09C616D706E806DE
:10089000F90630F060E070E0CB010E947402EACF0C
:1008A0008C2FCF91FF90EF90DF90CF90BF90AF90C3
:1008B0009F908F900895AF92BF92CF92DF92EF9268
:1008C000FF920F931F93CF93DF936C017B018B01FA
:1008D000040F151FEB015E01AE18BF08C017D1074A
:1008E00059F06991D601ED91FC910190F081E02DD4
:1008F000C6010995892B79F7C501DF91CF911F9129
:100900000F91FF90EF90DF90CF90BF90AF90089540
:10091000FC01538D448D252F30E0842F90E0821B05
:10092000930B541710F0CF96089501970895FC018A
:10093000918D828D981761F0A28DAE0FBF2FB11DE2
:100940005D968C91928D9F5F9F73928F90E008953A
:100950008FEF9FEF0895FC01918D828D981731F0F4
:10096000828DE80FF11D858D90E008958FEF9FEF48
:100970000895FC01918D228D892F90E0805C9F4F1E
:10098000821B91098F739927089587EA91E00E944D
:10099000B90421E0892B09F420E0822F089580E03A
:1009A00090E0892B29F00E94C50481110C9400006D
:1009B0000895FC01A48DA80FB92FB11DA35ABF4FF4
:1009C0002C91848D90E001968F739927848FA6894E
:1009D000B7892C93A089B1898C91837080648C93A2
:1009E000938D848D981306C00288F389E02D808151
:1009F0008F7D80830895EF92FF920F931F93CF9383
:100A0000DF93EC0181E0888F9B8D8C8D98131AC049
:100A1000E889F989808185FF15C09FB7F894EE8930
:100A2000FF896083E889F98980818370806480838D
:100A30009FBF81E090E0DF91CF911F910F91FF90D8
:100A4000EF900895F62E0B8D10E00F5F1F4F0F7380
:100A50001127E02E8C8D8E110CC00FB607FCFACF3B
:100A6000E889F989808185FFF5CFCE010E94D904FC
:100A7000F1CFEB8DEC0FFD2FF11DE35AFF4FF0820C
:100A80009FB7F8940B8FEA89FB8980818062CFCF72
:100A9000CF93DF93EC01888D8823B9F0AA89BB89B5
:100AA000E889F9898C9185FD03C0808186FD0DC0A0
:100AB0000FB607FCF7CF8C9185FFF2CF808185FFC1
:100AC000EDCFCE010E94D904E9CFDF91CF910895F7
:100AD00020919601309197012817390771F4909170
:100AE000940180919501981741F0E0919401F0E014
:100AF000EC5AFE4F808190E008958FEF9FEF0895AC
:100B00000895EF92FF920F931F93CF93DF93DC0131
:100B10005C96ED90FC905D97E114F10479F481E02E
:100B200090E013969C938E93129790E080E0DF9173
:100B3000CF911F910F91FF90EF9008955196ED91F5
:100B4000FC91529750968C915097982F90950FB793
:100B50005E962C915E97122F127021FD6095F8948D
:100B60002081112319F1282B2083E7012197F1F728
:100B700028E0462F50E0308160FF1AC0382B3083C8
:100B8000E7012197F1F7BA0175956795215089F72B
:100B9000112381F08081892380830FBF5C968D9122
:100BA0009C910197F1F781E090E0C1CF2923DCCF40
:100BB0003923E5CF9081892BEFCF20919601309199
:100BC00097012817390771F48091950120919401BC
:100BD00090E0805C9F4F821B910960E470E00E946E
:100BE000580C089590E080E008952091960130918E
:100BF000970128173907B9F49091940180919501D4
:100C0000981789F0E0919401F0E0EC5AFE4F808152
:100C10002091940130E02F5F3F4F2F7333272093B3
:100C2000940190E008958FEF9FEF089590E080E0A9
:100C30000895FC0101900020E9F73197AF01481BAE
:100C4000590BBC0187EA91E00C945B048F929F9250
:100C5000AF92BF920F931F93CF93DF93CDB7DEB7C1
:100C6000A1970FB6F894DEBF0FBECDBF19A24230D8
:100C700008F44AE08E010F5D1F4F842E912CB12C99
:100C8000A12CA50194010E94130CE62FB901CA0101
:100C9000EA30F4F4E05DD801EE938D01232B242B90
:100CA000252B79F790E080E0109719F0CD010E9494
:100CB0001906A1960FB6F894DEBF0FBECDBFDF9127
:100CC000CF911F910F91BF90AF909F908F900895FB
:100CD000E95CE1CF0F931F93CF93DF938C01D0E0BA
:100CE000C0E0F801EC0FFD1F6491662341F087EA34
:100CF00091E00E94FB04892B11F02196F2CF84E34E
:100D000091E00E9419068C0F9D1FDF91CF911F91DA
:100D10000F9108951F920F920FB60F9211242F93E7
:100D20003F938F939F93AF93BF9380919F01909137
:100D3000A001A091A101B091A20130919E0123E0F8
:100D4000230F2D3758F50196A11DB11D20939E014B
:100D500080939F019093A001A093A101B093A20161
:100D60008091A3019091A401A091A501B091A60149
:100D70000196A11DB11D8093A3019093A401A0939E
:100D8000A501B093A601BF91AF919F918F913F9123
:100D90002F910F900FBE0F901F90189526E8230FEC
:100DA0000296A11DB11DD2CF1F920F920FB60F92C6
:100DB00011242F933F934F935F936F937F938F9360
:100DC0009F93AF93BF93EF93FF9387EA91E00E94C5
:100DD000D904FF91EF91BF91AF919F918F917F9136
:100DE0006F915F914F913F912F910F900FBE0F9098
:100DF0001F9018951F920F920FB60F9211242F93E8
:100E00008F939F93EF93FF93E091B701F091B80117
:100E10008081E091BD01F091BE0182FD1BC09081F7
:100E20008091C0018F5F8F732091C101821741F0C3
:100E3000E091C001F0E0E955FE4F958F8093C0012D
:100E4000FF91EF919F918F912F910F900FBE0F9077
:100E50001F9018958081F4CF1F920F920FB60F92BA
:100E600011242F933F934F935F936F937F938F93AF
:100E70009F93AF93BF93EF93FF93E0919601F0910F
:100E80009701309749F0A685B7858585968D91FFA6
:100E900014C09C918923A1F4FF91EF91BF91AF9170
:100EA0009F918F917F916F915F914F913F912F9182
:100EB0000F900FBE0F901F9018959C91892361F79A
:100EC000A389B4899C918589809589238C9386898F
:100ED00097890197F1F7608D718DA685B785558546
:100EE00038E020E0CB010197F1F7822F90E0959553
:100EF0008795282F4C91452309F02068315091F7B0
:100F0000868D81FD20958091950190E001968F73EB
:100F1000992730919401381799F0A0919501B0E08C
:100F2000AC5ABE4F2C9380939501828D938D01977F
:100F3000F1F7A389B4898C919589892B8C93ACCFD7
:100F4000868D8160868FF1CF1092AA011092A9013F
:100F500088EE93E0A0E0B0E08093AB019093AC0109
:100F6000A093AD01B093AE0184E191E09093A8010C
:100F70008093A70185EC90E09093B4018093B30136
:100F800084EC90E09093B6018093B50180EC90E002
:100F90009093B8018093B70181EC90E09093BA01EF
:100FA0008093B90182EC90E09093BC018093BB01E7
:100FB00086EC90E09093BE018093BD011092C00139
:100FC0001092C1011092C2011092C30110928A02C4
:100FD00010929102109298021092990210929A0225
:100FE00010929B0281E0809397028093940210926A
:100FF000950292E0909396028093890281E290E0BC
:1010000090938E0280938D020E94A40E909393027F
:1010100080939202009709F4D0C021E2FC01119262
:101020002A95E9F78BE090E090938C0280938B02F5
:1010300085E090E09093900280938F0280918A02E5
:10104000882341F061E085E00E94520160E085E084
:101050000E940601E2E8F1E0E491F0E0EE0FFF1FEC
:10106000ED58FE4F8591949190939D0280939C0240
:10107000E4E6F1E0E491E0939E0210926D0210929A
:101080006C0288EE93E0A0E0B0E080936E02909353
:101090006F02A0937002B093710286E291E0909388
:1010A0006B0280936A021092810210928002109269
:1010B0008302109282021092850210928402109292
:1010C000870210928602609188026E7F6D7F609326
:1010D00088026695617081E068278BE00E940601B6
:1010E00061E08BE00E945201EAE6F1E0E491E093D6
:1010F0007A02E8E8F1E0E491F0E0EE0FFF1FED582E
:10110000FE4F8591949190937C0280937B0260E0E6
:101110008AE00E9452018091880281FD04C061E052
:101120008AE00E9406018AE080937602E9E6F1E017
:10113000E491E0937702E7E8F1E0E491F0E0EE0F6C
:10114000FF1FEB5AFE4F2591349130937902209383
:10115000780244EF51E060E070E040934A0250931F
:101160004B0260934C0270934D02E6E0F1E0A8E57B
:10117000B2E001900D928A95E1F71092620282E04E
:101180008093630210926802109269028FEF80933D
:101190009F021092A1021092A0021092AB02109234
:1011A000AA028FEF9FEFDC018093A6029093A70223
:1011B000A093A802B093A902089510928E021092F3
:1011C0008D0210928C0210928B0232CF789484B5EB
:1011D000826084BD84B5816084BD85B5826085BD33
:1011E00085B5816085BD80916E00816080936E00C1
:1011F00010928100809181008260809381008091B3
:101200008100816080938100809180008160809363
:1012100080008091B10084608093B1008091B00023
:1012200081608093B00080917A00846080937A001E
:1012300080917A00826080937A0080917A00816048
:1012400080937A0080917A00806880937A0010926F
:10125000C100E091B701F091B80182E08083E09194
:10126000B301F091B4011082E091B501F091B601A3
:1012700080E180831092BF01E091BB01F091BC013D
:1012800086E08083E091B901F091BA0180818061AC
:101290008083E091B901F091BA01808188608083F8
:1012A000E091B901F091BA01808180688083E0917A
:1012B000B901F091BA0180818F7D808310928502FF
:1012C0001092840210928302109282021092810284
:1012D000109280028DE991E09093870280938602BC
:1012E00090917602963108F047C02DEB30E03093B4
:1012F0008102209380022BE931E030938302209316
:1013000082022CE231E03093850220938402209106
:10131000680084E0983048F031E09E3008F430E016
:1013200081E001C0880F3A95EAF7822B809368002C
:101330002DE630E0983050F02BE630E09E3030F073
:101340002CE630E0963110F030E020E030937E0261
:1013500020937D02292F30E0983008F084C081E08E
:1013600001C0880F9A95EAF780937F0280918602E8
:10137000909187020197F1F7809184029091850204
:10138000892B49F1E0919601F091970122E0EA362C
:10139000F20709F1309739F0A389B4899C918589C6
:1013A000809589238C93809188028E7F8093880218
:1013B00010929501109294018AE692E09093970121
:1013C00080939601E0917D02F0917E028081909160
:1013D0007F02892B808360E08EE00E94520187E3C8
:1013E00091E00E94190684E391E00E9419068CE1C5
:1013F00091E00E946A068BEE90E00E946A068AE6FF
:1014000092E0909345028093440281E080935C02D5
:1014100070E060E08CE00E94C40360ED77E080E063
:1014200090E00E941E0468EC70E080E090E00E9472
:1014300074021092680280916402843009F189304C
:10144000F9F08AED90E00E946A0689EB90E00E9434
:101450006A068CE990E00E946A0660E070E0CB01C9
:101460000E947402FACF9E3040F42850310981E086
:1014700001C0880F2A95EAF777CF2E503109F7CFB0
:1014800060919102663029F120919202309193028D
:101490006150C9F070E08FEF95E00E94440CF901B3
:1014A00040918D0250918E02CF01821B930B8417C5
:1014B000950760F44081469FC001479F900D11241D
:1014C00090833196EDCF70E060E0E9CF86E08093C5
:1014D000910280918F029091900297FD08C061E087
:1014E0000E94520160E080918F020E94060181E01B
:1014F00080938A028091920290919302892B11F03D
:101500000E94A80186E890E00E946A060E94F50009
:101510002BE130E0DC010E94720C2FEF33E040E061
:1015200050E00E94F40B20939A0130939B01622FAC
:1015300070E086E00E94C40361E070E083E00E94F6
:10154000C4031BE1C0E0D0E00E94A7026B017C0154
:10155000DC01CB0184569243A109B1098D3B9B412B
:10156000A105B10508F07DC0C701B6010E94210D9B
:101570002EE233EE4DE45CE30E94EE0D0E94E60C99
:1015800020E030E04EEF52E40E94EE0D20E030E02B
:1015900040E053E40E947A0C0E94EB0C7093990196
:1015A000609398014AE0C701B6010E94260684E3D1
:1015B00091E00E94190680918B0290918C020B970A
:1015C00008F447C04091980150E070E060E0DA0113
:1015D00099278827762F652F542F4427842B952B06
:1015E000A62BB72BAD0166277727892F9A2FAB2F14
:1015F000BB27382F20919102222371F0E22EF12C8B
:10160000E49EF001E59EF00DF49EF00D11244F2FA5
:10161000289FC0011124392FE091970280919202F6
:101620009091930220919402E213AAC04E96E09109
:101630009402E80FF92FF11D4083E0919502E80F25
:10164000F92FF11D308320919602820F911DFC012C
:1016500010828091920290919302892B11F00E9446
:10166000A8010E94A702C0909C01D0909D010D2C62
:10167000000CEE08FF086C197D098E099F09633381
:1016800071058105910508F470C00E94A70270934E
:101690009D0160939C010E94F5009C01129FC00176
:1016A000139F900D112497FF02C081509C4F892FEA
:1016B000990F990B8595859520919A0130919B0101
:1016C0008217930709F451C00E94F500FC011E9F88
:1016D000C0011F9F900D112497FF02C081509C4FA5
:1016E000892F990F990B85958595BC01772786E001
:1016F0000E94C40370E060E083E40E94C40360E0E1
:1017000070E0CB010E941E04882309F43FC01092B0
:101710006802809166029091670290939B0180938A
:101720009A0183E491E00E941906C0909A01D0903A
:101730009B010D2C000CEE08FF084AE0C701B60122
:10174000F7FE0DC06DE287EA91E00E94FB04662778
:101750007727CB016C197D098E099F094AE00E9409
:10176000260684E391E00E941906209709F4ECCE46
:101770000E94C504882309F4E7CE0E940000E4CE4D
:101780008896E80FF92FF11D108251CF8FEF9FEF50
:10179000C4CF86E291E090936B0280936A028091BD
:1017A0009601909197018A56924071F4E0917D02E2
:1017B000F0917E02908180917F02809589238083C1
:1017C000109297011092960180919202909193024B
:1017D0000E94400F80918F029091900297FD03C06C
:1017E00060E00C9452010895052E97FB1EF40094BE
:1017F0000E940B0C57FD07D00E94130C07FC03D06E
:101800004EF40C940B0C50954095309521953F4F1C
:101810004F4F5F4F089590958095709561957F4FDC
:101820008F4F9F4F0895A1E21A2EAA1BBB1BFD01EB
:101830000DC0AA1FBB1FEE1FFF1FA217B307E407AF
:10184000F50720F0A21BB30BE40BF50B661F771F07
:10185000881F991F1A9469F76095709580959095E7
:101860009B01AC01BD01CF010895A29FB001B39FC0
:10187000C001A39F700D811D1124911DB29F700D99
:10188000811D1124911D0895AA1BBB1B51E107C0A6
:10189000AA1FBB1FA617B70710F0A61BB70B881F00
:1018A000991F5A95A9F780959095BC01CD0108958F
:1018B00097FB072E16F4009407D077FD09D00E94FD
:1018C000440C07FC05D03EF4909581959F4F0895F8
:1018D000709561957F4F0895EE0FFF1F0590F4916D
:1018E000E02D09940E94350CB7FF0895821B930BDD
:1018F00008955058BB27AA270E94910C0C94A00D64
:101900000E94670D38F00E946E0D20F039F49F3F61
:1019100019F426F40C94640D0EF4E095E7FB0C9496
:101920005E0DE92F0E94C50D58F3BA1762077307C1
:101930008407950720F079F4A6F50C94E70D0EF4D2
:10194000E0950B2EBA2FA02D0B01B90190010C01CF
:10195000CA01A0011124FF27591B99F0593F50F4E7
:10196000503E68F11A16F040A22F232F342F44273F
:10197000585FF3CF469537952795A795F040539537
:10198000C9F77EF41F16BA0B620B730B840BBAF007
:101990009150A1F0FF0FBB1F661F771F881FC2F772
:1019A0000EC0BA0F621F731F841F48F48795779586
:1019B0006795B795F7959E3F08F0B0CF9395880F40
:1019C00008F09927EE0F9795879508950E94770D57
:1019D000E3950C94B10D0E94F20C6894B1110C9433
:1019E000E80D08950E94CD0D88F09F5798F0B92F0B
:1019F0009927B751B0F0E1F0660F771F881F991F44
:101A00001AF0BA95C9F714C0B13091F00E94E70DF1
:101A1000B1E008950C94E70D672F782F8827B85F01
:101A200039F0B93FCCF3869577956795B395D9F79B
:101A30003EF490958095709561957F4F8F4F9F4FA5
:101A40000895E89409C097FB3EF4909580957095B1
:101A500061957F4F8F4F9F4F9923A9F0F92F96E9FA
:101A6000BB279395F695879577956795B795F1116F
:101A7000F8CFFAF4BB0F11F460FF1BC06F5F7F4F0C
:101A80008F4F9F4F16C0882311F096E911C077231E
:101A900021F09EE8872F762F05C0662371F096E827
:101AA000862F70E060E02AF09A95660F771F881FF6
:101AB000DAF7880F9695879597F9089597F99F67B4
:101AC00080E870E060E008959FEF80EC08950024C6
:101AD0000A941616170618060906089500240A9493
:101AE000121613061406050608950C94640D0E9440
:101AF000CD0DD8F3E894E0E0BB279F57F0F02AED36
:101B00003FE049EC06C0EE0FBB0F661F771F881F32
:101B100028F0B23A62077307840728F0B25A620BC2
:101B2000730B840BE3959A9572F7803830F49A958D
:101B3000BB0F661F771F881FD2F790480C945D0E6D
:101B4000092E0394000C11F4882352F0BB0F40F4CB
:101B5000BF2B11F460FF04C06F5F7F4F8F4F9F4F0B
:101B60000895EF93E0FF07C0A2EA2AED3FE049ECB9
:101B70005FEB0E94910C0E94A00D0F90039401FC5A
:101B80009058E8E6F0E00C94690E57FD9058440F29
:101B9000551F59F05F3F71F04795880F97FB991FCC
:101BA00061F09F3F79F08795089512161306140689
:101BB000551FF2CF4695F1DF08C016161706180616
:101BC000991FF1CF86957105610508940895E894F1
:101BD000BB2766277727CB0197F908950E94010E4E
:101BE0000C94A00D0E94670D38F00E946E0D20F03D
:101BF000952311F00C945E0D0C94640D11240C943B
:101C0000E80D0E94C50D70F3959FC1F3950F50E04C
:101C1000551F629FF001729FBB27F00DB11D639F9E
:101C2000AA27F00DB11DAA1F649F6627B00DA11D44
:101C3000661F829F2227B00DA11D621F739FB00DEA
:101C4000A11D621F839FA00D611D221F749F33275A
:101C5000A00D611D231F849F600D211D822F762FF3
:101C60006A2F11249F5750409AF0F1F088234AF0D0
:101C7000EE0FFF1FBB1F661F771F881F915050403C
:101C8000A9F79E3F510580F00C945E0D0C94E80D71
:101C90005F3FE4F3983ED4F3869577956795B795C3
:101CA000F795E7959F5FC1F7FE2B880F911D9695DD
:101CB000879597F908959F3F31F0915020F48795CB
:101CC00077956795B795880F911D9695879597F9A4
:101CD00008959F938F937F936F93FF93EF939B014F
:101CE000AC010E94EE0DEF91FF910E947D0E2F91AD
:101CF0003F914F915F910C94EE0DDF93CF931F9323
:101D00000F93FF92EF92DF927B018C01689406C0E3
:101D1000DA2EEF010E94010EFE01E894A5912591B3
:101D2000359145915591A6F3EF010E94910CFE016A
:101D30009701A801DA9469F7DF90EF90FF900F9177
:101D40001F91CF91DF9108950F931F93CF93DF934E
:101D50008230910510F482E090E0E091AE02F091C3
:101D6000AF0230E020E0B0E0A0E0309799F4211518
:101D7000310509F44AC0281B390B24303105D8F548
:101D80008A819B816115710589F1FB0193838283AF
:101D9000FE0111C04081518102811381481759070A
:101DA000E0F04817590799F4109761F012960C93D8
:101DB000129713961C933296CF01DF91CF911F910A
:101DC0000F9108950093AE021093AF02F4CF211546
:101DD000310551F04217530738F0A901DB019A0190
:101DE000BD01DF01F801C1CFEF01F9CF9093AF0240
:101DF0008093AE02CDCFFE01E20FF31F819391934A
:101E00002250310939832883D7CF2091AC023091F9
:101E1000AD02232B41F42091020130910301309354
:101E2000AD022093AC0220910001309101012115F7
:101E3000310541F42DB73EB74091040150910501A1
:101E4000241B350BE091AC02F091AD02E217F307D1
:101E5000A0F42E1B3F0B2817390778F0AC014E5F1A
:101E60005F4F2417350748F04E0F5F1F5093AD02A8
:101E70004093AC02819391939FCFF0E0E0E09CCF40
:101E8000CF93DF930097E9F0FC013297138212821F
:101E9000A091AE02B091AF02ED0130E020E01097CA
:101EA000A1F420813181820F931F2091AC023091E7
:101EB000AD022817390709F061C0F093AD02E09335
:101EC000AC02DF91CF910895EA01CE17DF07E8F564
:101ED0004A815B819E0141155105B1F7E901FB8300
:101EE000EA8349915991C40FD51FEC17FD0761F49E
:101EF000808191810296840F951FE90199838883DF
:101F0000828193819B838A83F0E0E0E012968D9139
:101F10009C9113970097B9F52D913C911197CD01A4
:101F20000296820F931F2091AC023091AD022817C8
:101F3000390739F6309751F51092AF021092AE0280
:101F4000B093AD02A093AC02BCCFD383C2834081D7
:101F50005181840F951FC817D90761F44E5F5F4FF9
:101F600088819981480F591F518340838A819B81C1
:101F7000938382832115310509F0B0CFF093AF022E
:101F8000E093AE029ECFFD01DC01C0CF138212822E
:101F9000D7CF10E0CAECD0E004C0FE010E946C0C68
:0C1FA0002196CB3CD107C9F7F894FFCF85
:101FAC000000B00280007EFF06000100000000EF80
:101FBC0000000000FB045B0488044805B904970486
:101FCC00AB040000000081055B0416068005DD05EE
:101FDC00F50568050D0A005374617274696E672EFD
:101FEC002E2E006368616E67656420766F6C756D6C
:041FFC00653A000042
:00000001FF
