:100000000C94BC000C94E4000C94E4000C940808DC
:100010000C9408080C9408080C94E4000C94E40078
:100020000C94E4000C94E4000C94E4000C94E400C0
:100030000C94E4000C94E4000C94E4000C94E400B0
:100040000C9466070C94E4000C94D6070C94B0074B
:100050000C94E4000C94E4000C94E4000C94E40090
:100060000C94E4000C94E4004446506C6179657291
:10007000204D696E69206F6E6C696E652E00322EA0
:10008000506C6561736520696E7365727420746865
:100090006520534420636172642100312E506C65E9
:1000A000617365207265636865636B2074686520A1
:1000B000636F6E6E656374696F6E2100556E616269
:1000C0006C6520746F20626567696E3A00496E69DD
:1000D0007469616C697A696E67204446506C617915
:1000E0006572202E2E2E20284D61792074616B655B
:1000F00020337E35207365636F6E64732900444638
:10010000526F626F74204446506C61796572204D65
:10011000696E692044656D6F0000000000240027AF
:10012000002A00000000080002010000030407008C
:10013000000000000000000000000023002600294D
:100140000001020408102040800102040810200170
:10015000020408102000000000250028002B0004E5
:10016000040404040404040202020202020303035E
:10017000030303008008D11011241FBECFEFD8E085
:10018000DEBFCDBF11E0A0E0B1E0E4EDF6E202C0D9
:1001900005900D92AE36B107D9F722E0AEE6B1E098
:1001A00001C01D92A93DB207E1F710E0CBEBD0E012
:1001B00004C02197FE010E942B12CA3BD107C9F748
:1001C0000E94C2090C945D130C9400008F929F92C0
:1001D000AF92BF92CF92DF92EF92FF92CF93209196
:1001E000B4023091B50282179307E8F54B01AA24B7
:1001F000BB24C82DC52ED62EE72EFF24BC2DA42F40
:100200002091BA02222361F0829E40011124C92D5F
:100210002C9D60011124BD2D249FF0011124AF2FCE
:10022000E091C002E090BB02F090BC023091BD02B0
:10023000E31323C09C01220F331F820F931F8E0DE7
:100240009F1DE091BD02E80FF92FF11DC083E091E1
:10025000BE02E80FF92FF11DB0832091BF02820F7B
:10026000911DFC01A083CF91FF90EF90DF90CF9084
:10027000BF90AF909F908F900895880F991F880F1F
:10028000991F8E0D9F1D472F5527662777272223FD
:1002900049F030E0249F7001259FF00C349FF00C52
:1002A00011244F2DE80FF92FF11D4083CACF80E4B0
:1002B00080937C0080917A00806480937A008091A2
:1002C0007A0086FDFCCF80917800909179000895A6
:1002D000DC019091BA02992361F0699FB001112469
:1002E000672F949FA0011124452F929F9001112404
:1002F000232F3091C002E091BB02F091BC028091AB
:10030000BD0238131AC0CD01880F991F8A0F9B1F99
:100310008E0F9F1FE091BD02E80FF92FF11D608342
:10032000E091BE02E80FF92FF11D40833091BF022A
:10033000830F911DFC0120830895CD01880F991F23
:10034000880F991F8E0F9F1FFC01E30FF11D108274
:10035000E1CF90E0FC01ED5DFE4F2491FC01EF5BED
:10036000FE4F3491FC01E15AFE4FE491EE23C9F0B7
:10037000222339F0233001F1A8F4213019F1223081
:1003800029F1F0E0EE0FFF1FEB5AFE4FA591B4915B
:100390008FB7F894EC91611126C030953E233C93C1
:1003A0008FBF08952730A9F02830C9F0243049F7CD
:1003B000809180008F7D03C0809180008F77809333
:1003C0008000DFCF84B58F7784BDDBCF84B58F7D90
:1003D000FBCF8091B0008F778093B000D2CF809117
:1003E000B0008F7DF9CF3E2BDACFCF93DF9390E033
:1003F000FC01EF5BFE4F2491815A9E4FFC018491DA
:100400008823D1F090E0880F991FFC01E75EFE4F32
:10041000A591B491FC01EB5AFE4FC591D4916111A5
:100420000EC09FB7F8948C91E22FE0958E238C93A9
:100430002881E223E8839FBFDF91CF9108958FB792
:10044000F894EC91E22BEC938FBFF6CF3FB7F89482
:100450008091CC019091CD01A091CE01B091CF01BE
:1004600026B5A89B05C02F3F19F00196A11DB11D0F
:100470003FBFBA2FA92F982F8827BC01CD01620F4B
:10048000711D811D911D42E0660F771F881F991F06
:100490004A95D1F708950F931F93CF93DF93CDB76C
:1004A000DEB729970FB6F894DEBF0FBECDBF80919F
:1004B000BB029091BC02892B09F47CC00E942602E9
:1004C0000091C1021091C2022091C3023091C40276
:1004D000601771078207930740F46093C10270931D
:1004E000C2028093C3029093C4020091C102109192
:1004F000C2022091C3023091C402601B710B820BB7
:10050000930B6C32714081059105C0F2F894809193
:10051000B6029091B7029A838983E091BB02F09171
:10052000BC02DF011196808189879091B202E0912F
:10053000C502F091C6028091C702992309F445C013
:100540009081982B98879081809589238F838F81C4
:100550008C8388E08B8358856F8149853B812C8112
:1005600089819A81508347FD252F3A952083262F34
:1005700039F0441F00C000006083000000C0F2CFCB
:1005800038E04D9160830000019761F7F093C60257
:10059000E093C50249873B832C839A8389837894AF
:1005A0000E9426026093C1027093C2028093C3022C
:1005B0009093C40229960FB6F894DEBF0FBECDBF4C
:1005C000DF91CF911F910F9108959081982B98877B
:1005D0009081809589238F838F818E8388E08D839E
:1005E00058856F8149853D812E8189819A8150830B
:1005F00047FD252F00C000C0208300C000C000C000
:1006000000C000C060830000262F3A9541F0441FCF
:10061000000000C000C000C000C000C0E8CF38E04B
:100620004D9100C0608300C0019709F7F093C602A6
:10063000E093C50249873D832E83AFCF8F929F926F
:10064000AF92BF92CF92DF92EF92FF926B017C014B
:100650000E9426024B015C01C114D104E104F104A3
:10066000B9F00E942602681979098A099B09683E37
:1006700073408105910580F321E0C21AD108E10899
:10068000F10888EE880E83E0981EA11CB11CE4CF0F
:10069000FF90EF90DF90CF90BF90AF909F908F90A2
:1006A00008952FB7F8946091C8017091C9018091A5
:1006B000CA019091CB012FBF08950F931F93809192
:1006C0006D0290916E02DC01ED91FC910084F18548
:1006D000E02D0995892B09F4D7C060E070E0CB01CB
:1006E0000E941E0320918B0280916D0290916E02F8
:1006F000DC01ED91FC910284F385E02D21110BC00A
:100700000995809377028E37D1F680918B028F5FA7
:1007100080938B02D4CF099590918B02E92FF0E062
:10072000E359FD4F82879230B9F09930D9F091307A
:10073000A9F48F3F99F010928B0281E080938D0293
:100740001092900210928F02809391021092920266
:1007500080E01F910F910895863069F79F5F909315
:100760008B02ADCF8F3E39F72091790280917802CC
:10077000280F3327331FE0917A02C9018E0F911D94
:1007800020917B02280F392F311D40917C0250E0CF
:10079000240F351F80917D0290E060917E0270E011
:1007A000762F6627F0917F026F0F711D280F391F7A
:1007B0003195219531096217730709F0BCCF10926A
:1007C0008B02E13419F4109292022FC0E0938E0252
:1007D000542F4427840F951F9093900280938F028B
:1007E000EA53E63108F046C0F0E0E750FC4F0C94C5
:1007F0002B1226042E0438040F043804180436047F
:100800003A04380438043804380438043804380406
:1008100038043A043804380438043804380485E0CD
:1008200080938D0281E0809391028091910291CF1B
:1008300080FF02C089E0F4CF81FF02C084E0F0CFE6
:1008400083709927892B89F38AE0EACF80FF02C061
:1008500087E0E6CF81FFE9CF82E0E2CF80FF02C0F0
:1008600088E0DECF81FFE1CF83E0DACF86E0D8CF2A
:100870008BE0D6CF81E080938D021092900210928F
:100880008F02809391029FCF80919202882369F218
:100890000E94510300916F02109170022091710229
:1008A00030917202601B710B820B930B00917302EB
:1008B00010917402209175023091760260177107D1
:1008C0008207930708F4B1CF10928B0210928D0229
:1008D0001092900210928F0281E036CF80938402B2
:1008E000272F30E070938602609387024091830245
:1008F00090918202490F5527551F840F952F911D06
:1009000040918502840F911D820F931F680F792FEC
:10091000711D7195619571097093880260938902C8
:10092000442361F080919202882341F060E070E0FE
:10093000CB010E941E030E945D03F4CF80916D02E3
:1009400090916E02DC01ED91FC910280F381E02D2B
:100950004AE050E061E872E009950E94510360931B
:100960006F02709370028093710290937202809173
:10097000850291E0811101C090E090939202811173
:1009800006C06AE070E080E090E00C941E030895D9
:100990008F929F92AF92BF92CF92DF92EF92FF928F
:1009A000CF936B017C010E9451034B015C01C11488
:1009B000D104E104F10441F4C0907302D0907402B8
:1009C000E0907502F09076020E945D03C82F8111BD
:1009D00011C00E945103681979098A099B09C6163A
:1009E000D706E806F90630F060E070E0CB010E941F
:1009F0001E03EACF8C2FCF91FF90EF90DF90CF9026
:100A0000BF90AF909F908F900895AF92BF92CF927A
:100A1000DF92EF92FF920F931F93CF93DF936C01BE
:100A20007B018B01040F151FEB015E01AE18BF089F
:100A3000C017D10759F06991D601ED91FC91019051
:100A4000F081E02DC6010995892B79F7C501DF9169
:100A5000CF911F910F91FF90EF90DF90CF90BF90BB
:100A6000AF900895FC01538D448D252F30E0842FE5
:100A700090E0821B930B541710F0CF9608950197C6
:100A80000895FC01918D828D981761F0A28DAE0FB3
:100A9000BF2FB11D5D968C91928D9F5F9F73928F3A
:100AA00090E008958FEF9FEF0895FC01918D828D66
:100AB000981731F0828DE80FF11D858D90E0089533
:100AC0008FEF9FEF0895FC01918D228D892F90E08B
:100AD000805C9F4F821B91098F739927089580ED49
:100AE00091E00E94630521E0892B09F420E0822F28
:100AF000089580E090E0892B29F00E946F05811114
:100B00000C9400000895FC01A48DA80FB92FB11D0D
:100B1000A35ABF4F2C91848D90E001968F73992733
:100B2000848FA689B7892C93A089B1898C91837011
:100B300080648C93938D848D981306C00288F3890A
:100B4000E02D80818F7D80830895EF92FF920F9337
:100B50001F93CF93DF93EC0181E0888F9B8D8C8D69
:100B600098131AC0E889F989808185FF15C09FB75D
:100B7000F894EE89FF896083E889F9898081837020
:100B8000806480839FBF81E090E0DF91CF911F91CF
:100B90000F91FF90EF900895F62E0B8D10E00F5FF0
:100BA0001F4F0F731127E02E8C8D8E110CC00FB6C6
:100BB00007FCFACFE889F989808185FFF5CFCE015E
:100BC0000E948305F1CFEB8DEC0FFD2FF11DE35A51
:100BD000FF4FF0829FB7F8940B8FEA89FB898081E1
:100BE0008062CFCFCF93DF93EC01888D8823B9F05B
:100BF000AA89BB89E889F9898C9185FD03C0808128
:100C000086FD0DC00FB607FCF7CF8C9185FFF2CFA4
:100C1000808185FFEDCFCE010E948305E9CFDF9172
:100C2000CF9108952091B0013091B1012817390773
:100C300071F49091AE018091AF01981741F0E0916D
:100C4000AE01F0E0E259FE4F808190E008958FEF11
:100C50009FEF08950895EF92FF920F931F93CF9304
:100C6000DF93DC015C96ED90FC905D97E114F1045C
:100C700079F481E090E013969C938E93129790E024
:100C800080E0DF91CF911F910F91FF90EF90089539
:100C90005196ED91FC91529750968C915097982FC8
:100CA00090950FB75E962C915E97122F127021FDD2
:100CB0006095F8942081112319F1282B2083E701F6
:100CC0002197F1F728E0462F50E0308160FF1AC0ED
:100CD000382B3083E7012197F1F7BA0175956795B5
:100CE000215089F7112381F08081892380830FBFF0
:100CF0005C968D919C910197F1F781E090E0C1CFD6
:100D00002923DCCF3923E5CF9081892BEFCF2091A8
:100D1000B0013091B1012817390771F48091AF010A
:100D20002091AE0190E0805C9F4F821B910960E4AE
:100D300070E00E941712089590E080E008952091DD
:100D4000B0013091B10128173907B9F49091AE0183
:100D50008091AF01981789F0E091AE01F0E0E2597F
:100D6000FE4F80812091AE0130E02F5F3F4F2F7307
:100D700033272093AE0190E008958FEF9FEF089501
:100D800090E080E00895FC0101900020E9F73197A0
:100D9000AF01481B590BBC0180ED91E00C94050597
:100DA0008F929F92AF92BF920F931F93CF93DF9337
:100DB000CDB7DEB7A1970FB6F894DEBF0FBECDBF9B
:100DC00019A2423008F44AE08E010F5D1F4F842EB5
:100DD000912CB12CA12CA50194010E94D211E62FD7
:100DE000B901CA01EA30F4F4E05DD801EE938D0157
:100DF000232B242B252B79F790E080E0109719F016
:100E0000CD010E94C306A1960FB6F894DEBF0FBEB7
:100E1000CDBFDF91CF911F910F91BF90AF909F9069
:100E20008F900895E95CE1CFCF92DF92EF92FF922D
:100E3000CF93DF936C01990FEE08FF08F7FE1FC0F8
:100E40006DE280ED91E00E94A505EC016627772711
:100E5000CB016C197D098E099F094AE00E94D006DA
:100E6000C80FD91F80E491E00E94C3068C0F9D1F1C
:100E7000DF91CF91FF90EF90DF90CF9008954AE0FF
:100E8000C701B6010E94D006EC01ECCF0F931F936F
:100E9000CF93DF938C01D0E0C0E0F801EC0FFD1F91
:100EA0006491662341F080ED91E00E94A505892BB5
:100EB00011F02196F2CF80E491E00E94C3068C0FDE
:100EC0009D1FDF91CF911F910F9108951F920F9257
:100ED0000FB60F9211242F933F938F939F93AF934D
:100EE000BF938091C8019091C901A091CA01B091AE
:100EF000CB013091C70123E0230F2D3758F5019620
:100F0000A11DB11D2093C7018093C8019093C90111
:100F1000A093CA01B093CB018091CC019091CD01F7
:100F2000A091CE01B091CF010196A11DB11D80937A
:100F3000CC019093CD01A093CE01B093CF01BF918E
:100F4000AF919F918F913F912F910F900FBE0F9076
:100F50001F90189526E8230F0296A11DB11DD2CF30
:100F60001F920F920FB60F9211242F933F934F931E
:100F70005F936F937F938F939F93AF93BF93EF9301
:100F8000FF9380ED91E00E948305FF91EF91BF9167
:100F9000AF919F918F917F916F915F914F913F9111
:100FA0002F910F900FBE0F901F9018951F920F92C8
:100FB0000FB60F9211242F938F939F93EF93FF936C
:100FC000E091E001F091E1018081E091E601F09192
:100FD000E70182FD1BC090818091E9018F5F8F73D3
:100FE0002091EA01821741F0E091E901F0E0E0533D
:100FF000FE4F958F8093E901FF91EF919F918F9123
:101000002F910F900FBE0F901F9018958081F4CFF5
:101010001F920F920FB60F9211242F933F934F936D
:101020005F936F937F938F939F93AF93BF93EF9350
:10103000FF93E091B001F091B101309749F0A6859E
:10104000B7858585968D91FF14C09C918923A1F465
:10105000FF91EF91BF91AF919F918F917F916F9190
:101060005F914F913F912F910F900FBE0F901F9066
:1010700018959C91892361F7A389B4899C918589EE
:10108000809589238C93868997890197F1F7608DE4
:10109000718DA685B785558538E020E0CB01019795
:1010A000F1F7822F90E095958795282F4C91452355
:1010B00009F02068315091F7868D81FD209580914F
:1010C000AF0190E001968F7399273091AE013817E8
:1010D00099F0A091AF01B0E0A259BE4F2C9380933C
:1010E000AF01828D938D0197F1F7A389B4898C911B
:1010F0009589892B8C93ACCF868D8160868FF1CFBB
:101100001092D3011092D20188EE93E0A0E0B0E0FB
:101110008093D4019093D501A093D601B093D701C9
:1011200080E291E09093D1018093D00185EC90E032
:101130009093DD018093DC0184EC90E09093DF01DB
:101140008093DE0180EC90E09093E1018093E001D8
:1011500081EC90E09093E3018093E20182EC90E0D7
:101160009093E5018093E40186EC90E09093E70191
:101170008093E6011092E9011092EA011092EB01CE
:101180001092EC011092B3021092BA021092C102B6
:101190001092C2021092C3021092C40281E08093A6
:1011A000C0028093BD021092BE0292E09093BF02F3
:1011B0008093B20281E290E09093B7028093B602EE
:1011C0000E9438129093BC028093BB02009709F4EE
:1011D000D0C021E2FC0111922A95E9F78BE090E062
:1011E0009093B5028093B40285E090E09093B902A9
:1011F0008093B8028091B302882341F061E085E0DA
:101200000E94F50160E085E00E94A901E4E6F1E0BA
:10121000E491F0E0EE0FFF1FEB5AFE4F85919491A1
:101220009093C6028093C502E6E4F1E0E491E09376
:10123000C702109296021092950288EE93E0A0E009
:10124000B0E08093970290939802A0939902B09394
:101250009A0282E391E09093940280939302109219
:10126000AA021092A9021092AC021092AB02109244
:10127000AE021092AD021092B0021092AF026091D5
:10128000B1026E7F6D7F6093B1026695617081E0FF
:1012900068278BE00E94A90161E08BE00E94F501C4
:1012A000ECE4F1E0E491E093A302EAE6F1E0E491FA
:1012B000F0E0EE0FFF1FEB5AFE4F85919491909353
:1012C000A5028093A40260E08AE00E94F50180916B
:1012D000B10281FD04C061E08AE00E94A9018AE0B8
:1012E00080939F02EBE4F1E0E491E093A002E9E651
:1012F000F1E0E491F0E0EE0FFF1FE95CFE4F259175
:1013000034913093A2022093A10244EF51E060E0B7
:1013100070E040937302509374026093750270936F
:101320007602E2E1F1E0A1E8B2E001900D928A9547
:10133000E1F710928B0282E080938C02109291026E
:10134000109292028FEF8093C8021092CA021092FC
:10135000C9021092D4021092D3028FEF9FEFDC01EA
:101360008093CF029093D002A093D102B093D20287
:1013700008951092B7021092B6021092B502109220
:10138000B40232CF789484B5826084BD84B5816024
:1013900084BD85B5826085BD85B5816085BD809140
:1013A0006E00816080936E001092810080918100B8
:1013B00082608093810080918100816080938100B0
:1013C000809180008160809380008091B100846072
:1013D0008093B1008091B00081608093B0008091D3
:1013E0007A00846080937A0080917A008260809392
:1013F0007A0080917A00816080937A0080917A00EF
:10140000806880937A001092C100E091E001F09131
:10141000E10182E08083E091DC01F091DD01108246
:10142000E091DE01F091DF0180E180831092E8011C
:10143000E091E401F091E50186E08083E091E20132
:10144000F091E301808180618083E091E201F0917D
:10145000E301808188608083E091E201F091E30103
:10146000808180688083E091E201F091E3018081D6
:101470008F7D80831092AE021092AD021092AC026A
:101480001092AB021092AA021092A9028DE991E08B
:101490009093B0028093AF0290919F02963108F032
:1014A00047C02DEB30E03093AA022093A9022BE92C
:1014B00031E03093AC022093AB022CE231E0309368
:1014C000AE022093AD022091680084E0983048F08D
:1014D00031E09E3008F430E081E001C0880F3A9599
:1014E000EAF7822B809368002DE630E0983050F0C8
:1014F0002BE630E09E3030F02CE630E0963110F0F4
:1015000030E020E03093A7022093A602292F30E09C
:10151000983008F084C081E001C0880F9A95EAF7FE
:101520008093A8028091AF029091B0020197F1F7E9
:101530008091AD029091AE02892B49F1E091B0010A
:10154000F091B10122E0E339F20709F1309739F067
:10155000A389B4899C918589809589238C938091F6
:10156000B1028E7F8093B1021092AF011092AE0152
:1015700083E992E09093B1018093B001E091A602DB
:10158000F091A70280819091A802892B808360E06E
:101590008EE00E94F50183E491E00E94C30680E49E
:1015A00091E00E94C3068EEF90E00E9446078DEC0A
:1015B00090E00E94460783E992E090936E02809348
:1015C0006D0281E08093850270E060E08CE00E9413
:1015D0006E0460ED77E080E090E00E94C80468EC63
:1015E00070E080E090E00E941E03109291028091D2
:1015F0008D02843009F18930F9F08CEB90E00E9483
:1016000046078BE990E00E9446078EE790E00E9433
:10161000460760E070E0CB010E941E03FACF9E30C7
:1016200040F42850310981E001C0880F2A95EAF77B
:1016300077CF2E503109F7CF6091BA02663029F189
:101640002091BB023091BC026150C9F070E08FEF75
:1016500095E00E940312F9014091B6025091B70241
:10166000CF01821B930B8417950760F44081469F3E
:10167000C001479F900D112490833196EDCF70E00B
:1016800060E0E9CF86E08093BA028091B802909141
:10169000B90297FD08C061E00E94F50160E0809109
:1016A000B8020E94A90181E08093B3020E944B021C
:1016B00088E690E00E9446070E9457012BE130E047
:1016C000DC010E9431122FEF33E040E050E00E9435
:1016D000A0112093C3013093C401622F70E086E013
:1016E0000E946E0461E070E083E00E946E040E943C
:1016F00051034B015C010E9451036B017C013CEAE8
:10170000C3163DE0D306E104F104B9F48FE491E09F
:101710000E94C3060E9451034AE00E94D00680E462
:1017200091E00E94C30640E05FEF6FEF70E083E05E
:1017300090E00E94E6000E944B020E94510368382C
:10174000734181059105F0F18091B4019091B5014B
:10175000092E000CAA0BBB0BA7019601281B390B05
:101760004A0B5B0BDA01C9018D329140A105B1052D
:1017700048F1C091B201D091B3018091B40290912F
:10178000B5028C179D07F0F0D092B501C092B4015C
:101790004FEF5FEF6FEF70E0CE010E94E6000E9416
:1017A0004B0240E050E0BA01CE0101970E94E600F2
:1017B0000E944B02CE0101969093B3018093B20137
:1017C0000E9414070E9451036B017C01DC01CB01D4
:1017D0008C599143A109B10985389C41A105B105F6
:1017E00008F0FFC0D701C601885C9243A109B10986
:1017F000893E9340A105B10560F0D701C60180582C
:101800009E43A109B109893E9340A105B10508F0A5
:1018100076C08091BB019091BC01092E000CAA0BEF
:10182000BB0BA7019601281B390B4A0B5B0BDA0196
:10183000C901893C9105A105B10508F447C0C091D3
:101840000201D0910301D092BC01C092BB01C33010
:10185000D10509F489C1C230D10509F476C1C1307E
:10186000D10581F440E05FEF6FEF70E082E090E03F
:101870000E94E60040E05FEF6FEF70E081E090E0F3
:101880000E94E6000E944B02C230D10509F488C1D3
:10189000C130D10509F477C1209771F440E050E0E0
:1018A000BA0182E090E00E94E60040E050E0BA0118
:1018B00081E090E00E94E6000E944B021C161D068B
:1018C00064F42197D0930301C09302018091020137
:1018D000909103011816190694F030E8C31A3EE3FC
:1018E000D30AE108F10849ECC416D104E104F1047B
:1018F00030F483E090E090930301809302010E9412
:1019000051030091B7011091B8012091B9013091B4
:10191000BA01601B710B820B930B69327105810553
:10192000910508F45EC00E9451036093B701709363
:10193000B8018093B9019093BA018091B6018111E9
:101940002EC080910001909101010E941407C09166
:101950000001D09101012A96D0930101C0930001AA
:101960008C2F90E0B0E0A0E0BC0155274427BA2FAF
:10197000A92F982F8827482B592B6A2B7B2B8AE07D
:1019800090E00E94E6000E944B02CF3FD1051CF080
:1019900081E08093B6018091B601882311F1C09156
:1019A0000001D09101012A97D0930101C093000159
:1019B0008C2F90E0B0E0A0E0BC0155274427BA2F5F
:1019C000A92F982F8827482B592B6A2B7B2B8AE02D
:1019D00090E00E94E6000E944B02E89714F41092F7
:1019E000B6010E945103683022E572078105910516
:1019F00061F0683A31E673078105910531F068348A
:101A000041E774078105910551F41092C2011092CB
:101A1000C10122E330E030930701209306018B01DE
:101A20009C0100521E4421093109093E1340210541
:101A3000310500F18B019C0104501B45210931093E
:101A4000093E134021053105A8F08B019C01085780
:101A5000194621093109093E13402105310550F08D
:101A60006452774781099109693E73408105910568
:101A700008F0ADC10E9451030091BD011091BE015B
:101A80002091BF013091C001601B710B820B930B41
:101A9000603171058105910508F499C10E945103D7
:101AA0006093BD017093BE018093BF019093C0010C
:101AB0008091C101811126C1009106011091070199
:101AC000065F1F4F10930701009306016090C2014B
:101AD000662009F499C00F3F110511F00CF007C101
:101AE000C02ED12CF12CE12C7601DD24CC24C09128
:101AF0000401D0910501C230D10509F463C0C130A1
:101B0000D10509F45AC0209779F0CF3FDC0791F452
:101B1000B701A60188E090E00E94E600B701A601A7
:101B200085E090E00E94E600B701A60182E090E027
:101B30000E94E600C230D10509F049C0B701A601F4
:101B400087E090E00E94E600D2C040E05FEF6FEFD8
:101B500070E085E090E00E94E60040E05FEF6FEF0C
:101B600070E084E090E08CCE40E05FEF6FEF70E0DB
:101B700088E090E00E94E60040E05FEF6FEF70E0E9
:101B800087E090E07DCE40E050E0BA0185E090E053
:101B90000E94E60040E050E0BA0184E090E08ACE86
:101BA00040E050E0BA0188E090E00E94E60040E0AA
:101BB00050E0BA0187E090E07DCEB701A60185E054
:101BC00090E0B6CFB701A60188E090E0B1CFB701B1
:101BD000A601C130D10509F484C0209729F4B701CA
:101BE000A60181E090E0AECF219609F080C0B70158
:101BF000A60187E090E00E94E600B701A60184E01C
:101C000090E00E94E600EBCF802F90E0B0E0A0E0F3
:101C10007C01DD24CC244427582F692F7A2FC42A35
:101C2000D52AE62AF72AC02AD92AEA2AFB2AC0910D
:101C30000401D0910501C330D10509F443C0C2307D
:101C4000D105A1F1C130D10529F1209791F4B70157
:101C5000A60188E090E00E94E600B701A60185E0B9
:101C600090E00E94E600B701A60182E090E00E94A9
:101C7000E600C330D10509F461CFC230D10529F5A2
:101C8000B701A60184E090E00E94E60040E050E049
:101C9000BA0156CFB701A60182E090E00E94E600AB
:101CA00040E050E0BA0185E090E0E1CFB701A60145
:101CB00085E090E00E94E60040E050E0BA0188E054
:101CC00090E0D5CFB701A601FACFC130D10561F4BC
:101CD000B701A60181E090E00E94E60040E050E0FC
:101CE000BA0184E090E02ECFCD2B09F480CF0E9482
:101CF0004B020F3F11050CF46AC0611068C081E00F
:101D00008093C10100910601109107010A50110949
:101D10001093070100930601802F90E0B0E0A0E04F
:101D20007C01DD24CC244427582F692F7A2FC42A24
:101D3000D52AE62AF72AC02AD92AEA2AFB2AC091FC
:101D40000401D0910501C330D10509F4CFC0C230E0
:101D5000D10509F4C6C0C130D10571F0209791F4C6
:101D6000B701A60188E090E00E94E600B701A60155
:101D700085E090E00E94E600B701A60182E090E0D5
:101D80000E94E600B701A60187E090E0C330D105CC
:101D900069F084E090E0C230D10541F0C130D10556
:101DA00009F0A9C0B701A60181E090E00E94E60019
:101DB0000E944B020833110554F41092C10181E0D6
:101DC0008093C2012197D0930501C093040150EB89
:101DD000851A51E8950AA108B10881E2881683E0C6
:101DE0009806A104B10408F0F5C0F12CE12C10E034
:101DF00000E00E9448112AE030E040E050E00E94FC
:101E0000A01166307105810591050CF4B5C0609094
:101E1000B4027090B502212C312C21010615170552
:101E200008F081C02091C0024091BD028091BB02A8
:101E30009091BC028090BA02A22FB0E06091BE02E5
:101E400070E0E091BF02F0E024133CC1A801440F10
:101E5000551F400F511F840F951FA80FB91F3C91AC
:101E6000DC01A60FB71FDC91E80FF91FD080882096
:101E700009F44FC0912CB12CA12C632F70E0762F68
:101E80006627072E000C880B990BA50194010E9470
:101E9000D2112901332422246D2F70E0762F66277A
:101EA000072E000C880B990BA50194010E94D211FA
:101EB000542F432F322F2227222A332A442A552AED
:101EC0006D2D70E0762F6627072E000C880B990B7E
:101ED000A50194010E94D211222A332A442A552AAC
:101EE00022C0B701A60185E090E04ACFB701A60164
:101EF00088E090E045CF209709F05ACF87E090E046
:101F00000E94E600B701A60184E090E00E94E6008E
:101F100049CF2D2E312C512C412C542C432C322CBA
:101F20002224432A2D28A20166277727BB24A52C2B
:101F3000942C832C382D222D60E04B3030F0EEE1D4
:101F40004E9FC0011124642F691B40E03B3030F0EC
:101F50003EE1839EC0011124482D491B2B3008F41B
:101F60001BC15EE1259FC0011124291B0615170521
:101F700018F4C8010E9468010F5F1F4F0B30110554
:101F800009F037CF8701E70164970B30110568F43A
:101F90008091B4029091B5020817190730F420EE31
:101FA00044E067E9C8010E946801015011090C175B
:101FB0001D0759F70E944B026AE070E080E090E054
:101FC0000E941E038FEFE81AF80A96E1E916F10461
:101FD00009F00DCF0E9451030091C5011091C60177
:101FE000012E000C220B330B601B710B820B930B29
:101FF000693E73408105910508F457C00E94510362
:102000007093C6016093C5010E9457012BE1AC019A
:10201000249FC001259F900D112497FF02C081507D
:102020009C4F892F990F990B859585952091C30118
:102030003091C40182179307C1F10E9457012BE12F
:10204000AC01249FC001259F900D112497FF02C071
:1020500081509C4F892F990F990B85958595BC01CF
:10206000772786E00E946E0470E060E083E40E94BF
:102070006E0460E070E0CB010E94C804882309F47C
:102080008DC01092910280918F0290919002909356
:10209000C4018093C3018EE591E00E94C306809144
:1020A000C3019091C4010E94140780E090E0892B45
:1020B00009F41DCB0E946F05882309F418CB0E94F8
:1020C000000015CB9801220F331F220F331F820F00
:1020D000931FA80FB91F3C91DC01A40FB11DCC9137
:1020E000DC01A60FB71FDC90E80FF91FC080882025
:1020F00009F447C0912CB12CA12C632F70E0762FEE
:102100006627072E000C880B990BA50194010E94ED
:10211000D211522E4424332422246C2F70E0762FC7
:102120006627072E000C880B990BA50194010E94CD
:10213000D211A90133272227222A332A442A552AD9
:102140006C2D70E0762F6627072E000C880B990BFC
:10215000A50194010E94D211222A332A442A552A29
:102160006D2D70E0762F6627072E000C880B990BDB
:10217000A50194010E94D211542F432F322F222700
:10218000ABCE2C2E312C512C412C21013324222476
:10219000532A2C283D28C7CE20E0E8CE8FEF9FEFB2
:1021A00076CF82E391E090939402809393028091A2
:1021B000B0019091B1018359924071F4E091A6026F
:1021C000F091A70290818091A80280958923808355
:1021D0001092B1011092B0018091BB029091BC02AB
:1021E0000E94D4128091B8029091B90297FD03C069
:1021F00060E00C94F50108958F929F92AF92BF9288
:10220000CF92DF92EF92FF92CF93DF93EC01688140
:1022100079818A819B81611571058105910521F480
:1022200064E279ED8BE597E02DE133EF41E050E09A
:102230000E94A01149015A019B01AC01A7EAB1E437
:102240000E94BF116B017C01ACEEB4EFA5019401BB
:102250000E94CD11C60ED71EE81EF91EF7FE06C05D
:1022600081E0C81AD108E10880E8F80AC882D9825A
:10227000EA82FB82C701B6019F77DF91CF91FF9081
:10228000EF90DF90CF90BF90AF909F908F90089588
:102290008F929F92AF92BF92CF92DF92EF92FF9276
:1022A000609108017091090180910A0190910B01E0
:1022B000611571058105910521F464E279ED8BE5E5
:1022C00097E02DE133EF41E050E00E94A011490179
:1022D0005A019B01AC01A7EAB1E40E94BF116B0156
:1022E0007C01ACEEB4EFA50194010E94CD11C60EA5
:1022F000D71EE81EF91EF7FE06C081E0C81AD108F5
:10230000E10880E8F80AC0920801D0920901E09241
:102310000A01F0920B01C701B6019F77FF90EF9081
:10232000DF90CF90BF90AF909F908F900895609373
:1023300008017093090180930A0190930B0108959D
:10234000052E97FB1EF400940E94B71157FD07D08D
:102350000E94D21107FC03D04EF40C94B711509593
:102360004095309521953F4F4F4F5F4F0895909581
:102370008095709561957F4F8F4F9F4F08950E9474
:10238000F411A59F900DB49F900DA49F800D911DF9
:1023900011240895B7FF0C94BF110E94BF11821B36
:1023A000930B0895A1E21A2EAA1BBB1BFD010DC0C1
:1023B000AA1FBB1FEE1FFF1FA217B307E407F507F5
:1023C00020F0A21BB30BE40BF50B661F771F881FD1
:1023D000991F1A9469F760957095809590959B0167
:1023E000AC01BD01CF010895A29FB001B39FC00110
:1023F000A39F700D811D1124911DB29F700D811D31
:102400001124911D0895AA1BBB1B51E107C0AA1FEF
:10241000BB1FA617B70710F0A61BB70B881F991F85
:102420005A95A9F780959095BC01CD01089597FB29
:10243000072E16F4009407D077FD09D00E940312EE
:1024400007FC05D03EF4909581959F4F08957095B7
:1024500061957F4F0895EE0FFF1F0590F491E02DD9
:1024600009940E94F411B7FF0895821B930B0895FD
:102470000F931F93CF93DF938230910510F482E086
:1024800090E0E091D702F091D80230E020E0B0E097
:10249000A0E0309799F42115310509F44AC0281BB2
:1024A000390B24303105D8F58A819B81611571057E
:1024B00089F1FB0193838283FE0111C04081518128
:1024C0000281138148175907E0F04817590799F41A
:1024D000109761F012960C93129713961C933296F4
:1024E000CF01DF91CF911F910F9108950093D702F3
:1024F0001093D802F4CF2115310551F0421753073C
:1025000038F0A901DB019A01BD01DF01F801C1CF5B
:10251000EF01F9CF9093D8028093D702CDCFFE017F
:10252000E20FF31F8193919322503109398328835D
:10253000D7CF2091D5023091D602232B41F42091A0
:102540000E0130910F013093D6022093D5022091D5
:102550000C0130910D012115310541F42DB73EB725
:102560004091100150911101241B350BE091D502CF
:10257000F091D602E217F307A0F42E1B3F0B2817A9
:10258000390778F0AC014E5F5F4F2417350748F0EC
:102590004E0F5F1F5093D6024093D50281939193C3
:1025A0009FCFF0E0E0E09CCFCF93DF930097E9F07E
:1025B000FC01329713821282A091D702B091D80207
:1025C000ED0130E020E01097A1F420813181820FED
:1025D000931F2091D5023091D6022817390709F0B0
:1025E00061C0F093D602E093D502DF91CF910895B8
:1025F000EA01CE17DF07E8F54A815B819E014115AC
:102600005105B1F7E901FB83EA8349915991C40F60
:10261000D51FEC17FD0761F4808191810296840F2C
:10262000951FE90199838883828193819B838A83A3
:10263000F0E0E0E012968D919C9113970097B9F528
:102640002D913C911197CD010296820F931F2091FD
:10265000D5023091D6022817390739F6309751F54F
:102660001092D8021092D702B093D602A093D5024E
:10267000BCCFD383C28340815181840F951FC8177B
:10268000D90761F44E5F5F4F88819981480F591FC8
:10269000518340838A819B819383828321153105F5
:1026A00009F0B0CFF093D802E093D7029ECFFD019E
:1026B000DC01C0CF13821282D7CF10E0CBEBD0E089
:1026C00004C0FE010E942B122196CC3BD107C9F712
:0426D000F894FFCFAC
:1026D4003200030003003200010000000000D902B0
:1026E40080007EFF06000100000000EF00000000F3
:1026F400A50505053205F2056305410555050000EC
:1027040000002B060505C0062A0687069F0612064A
:102714000D0A005374617274696E672E2E2E006D5B
:10272400696C6C6920313030302121213A006368B2
:0E273400616E67656420766F6C756D653A00A6
:00000001FF
