:100000000C94BC000C94E4000C94E4000C943F09A4
:100010000C943F090C943F090C94E4000C94E40008
:100020000C94E4000C94E4000C94E4000C94E400C0
:100030000C94E4000C94E4000C94E4000C94E400B0
:100040000C949D080C94E4000C940D090C94E708A2
:100050000C94E4000C94E4000C94E4000C94E40090
:100060000C94E4000C94E4004446506C6179657291
:10007000204D696E69206F6E6C696E652E00322EA0
:10008000506C6561736520696E7365727420746865
:100090006520534420636172642100312E506C65E9
:1000A000617365207265636865636B2074686520A1
:1000B000636F6E6E656374696F6E2100556E616269
:1000C0006C6520746F20626567696E3A00496E69DD
:1000D0007469616C697A696E67204446506C617915
:1000E0006572202E2E2E20284D61792074616B655B
:1000F00020337E35207365636F6E64732900444638
:10010000526F626F74204446506C61796572204D65
:10011000696E692044656D6F0000000000240027AF
:10012000002A00000000080002010000030407008C
:10013000000000000000000000000023002600294D
:100140000001020408102040800102040810200170
:10015000020408102000000000250028002B0004E5
:10016000040404040404040202020202020303035E
:1001700003030300B709E71311241FBECFEFD8E034
:10018000DEBFCDBF12E0A0E0B1E0E0E0FDE202C0E2
:1001900005900D92A832B107D9F723E0A8E2B2E0AA
:1001A00001C01D92A03BB207E1F710E0CBEBD0E01D
:1001B00004C02197FE010E944115CA3BD107C9F72F
:1001C0000E94F90A0C9473160C9400008F929F926F
:1001D000AF92BF92CF92DF92EF92FF92CF93209196
:1001E0008B0330918C0382179307E8F54B01AA2407
:1001F000BB24C82DC52ED62EE72EFF24BC2DA42F40
:1002000020919103222361F0829E40011124C92D87
:100210002C9D60011124BD2D249FF0011124AF2FCE
:10022000E0919703E0909203F09093033091940350
:10023000E31323C09C01220F331F820F931F8E0DE7
:100240009F1DE0919403E80FF92FF11DC083E09109
:100250009503E80FF92FF11DB08320919603820FCB
:10026000911DFC01A083CF91FF90EF90DF90CF9084
:10027000BF90AF909F908F900895880F991F880F1F
:10028000991F8E0D9F1D472F5527662777272223FD
:1002900049F030E0249F7001259FF00C349FF00C52
:1002A00011244F2DE80FF92FF11D4083CACFE091A3
:1002B0008B03F0918C038E179F0798F53091910373
:1002C000332361F0639FB0011124672F349FA00195
:1002D0001124452F329F90011124232F3091970331
:1002E000E0919203F09193035091940335131AC057
:1002F000DC01AA0FBB1F8A0F9B1F8E0F9F1FE0916F
:100300009403E80FF92FF11D6083E0919503E80F46
:10031000F92FF11D408330919603830F911DFC014D
:1003200020830895880F991F880F991F8E0F9F1F94
:10033000FC01E30FF11D1082E2CF90E0FC01ED5DC6
:10034000FE4F2491FC01EF5BFE4F3491FC01E15A1A
:10035000FE4FE491EE23C9F0222339F0233001F15E
:10036000A8F4213019F1223029F1F0E0EE0FFF1F3F
:10037000EB5AFE4FA591B4918FB7F894EC916111AF
:1003800026C030953E233C938FBF08952730A9F0B7
:100390002830C9F0243049F7809180008F7D03C058
:1003A000809180008F7780938000DFCF84B58F7736
:1003B00084BDDBCF84B58F7DFBCF8091B0008F777C
:1003C0008093B000D2CF8091B0008F7DF9CF3E2BCB
:1003D000DACFCF93DF9390E0FC01EF5BFE4F2491E7
:1003E000815A9E4FFC0184918823D1F090E0880FC0
:1003F000991FFC01E75EFE4FA591B491FC01EB5AF9
:10040000FE4FC591D49161110EC09FB7F8948C91A5
:10041000E22FE0958E238C932881E223E8839FBF0F
:10042000DF91CF9108958FB7F894EC91E22BEC9384
:100430008FBFF6CF3FB7F8948091A3029091A402AA
:10044000A091A502B091A60226B5A89B05C02F3F9A
:1004500019F00196A11DB11D3FBFBA2FA92F982FEA
:100460008827BC01CD01620F711D811D911D42E0E5
:10047000660F771F881F991F4A95D1F708950F932C
:100480001F93CF93DF93CDB7DEB729970FB6F894BC
:10049000DEBF0FBECDBF8091920390919303892B55
:1004A00009F47CC00E941A020091980310919903EC
:1004B00020919A0330919B0360177107820793077D
:1004C00040F4609398037093990380939A039093F8
:1004D0009B03009198031091990320919A03309106
:1004E0009B03601B710B820B930B6C327140810577
:1004F0009105C0F2F89480918D0390918E039A83B8
:100500008983E0919203F0919303DF01119680813A
:10051000898790918903E0919C03F0919D038091DC
:100520009E03992309F445C09081982B9887908168
:10053000809589238F838F818C8388E08B83588576
:100540006F8149853B812C8189819A81508347FD48
:10055000252F3A952083262F39F0441F00C0000034
:100560006083000000C0F2CF38E04D91608300004E
:10057000019761F7F0939D03E0939C0349873B83C8
:100580002C839A83898378940E941A02609398033B
:100590007093990380939A0390939B0329960FB6C7
:1005A000F894DEBF0FBECDBFDF91CF911F910F91A9
:1005B00008959081982B98879081809589238F83C7
:1005C0008F818E8388E08D8358856F8149853D8139
:1005D0002E8189819A81508347FD252F00C000C05C
:1005E000208300C000C000C000C000C060830000C5
:1005F000262F3A9541F0441F000000C000C000C003
:1006000000C000C0E8CF38E04D9100C0608300C05A
:10061000019709F7F0939D03E0939C0349873D837D
:100620002E83AFCF8F929F92AF92BF92CF92DF92E5
:10063000EF92FF926B017C010E941A024B015C0158
:10064000C114D104E104F104B9F00E941A0268193E
:1006500079098A099B09683E73408105910580F3F9
:1006600021E0C21AD108E108F10888EE880E83E083
:10067000981EA11CB11CE4CFFF90EF90DF90CF90AB
:10068000BF90AF909F908F9008952FB7F89460918E
:100690009F027091A0028091A1029091A2022FBFAF
:1006A00008950F931F938091440390914503DC01BB
:1006B000ED91FC910084F185E02D0995892B09F4D9
:1006C000D7C060E070E0CB010E941203209162036A
:1006D0008091440390914503DC01ED91FC910284EB
:1006E000F385E02D21110BC0099580934E038E37C1
:1006F000D1F6809162038F5F80936203D4CF099516
:1007000090916203E92FF0E0EC5BFC4F828792301E
:10071000B9F09930D9F09130A9F48F3F99F0109247
:10072000620381E080936403109267031092660372
:10073000809368031092690380E01F910F910895E0
:10074000863069F79F5F90936203ADCF8F3E39F794
:100750002091500380914F03280F3327331FE091DE
:100760005103C9018E0F911D20915203280F392F7B
:10077000311D4091530350E0240F351F80915403E5
:1007800090E06091550370E0762F6627F091560354
:100790006F0F711D280F391F31952195310962178F
:1007A000730709F0BCCF10926203E13419F4109280
:1007B00069032FC0E0936503542F4427840F951FCE
:1007C0009093670380936603EA53E63108F046C0CE
:1007D000F0E0E351FC4F0C9441151A0422042C0460
:1007E00003042C040C042A042E042C042C042C04D2
:1007F0002C042C042C042C042C042E042C042C0477
:100800002C042C042C0485E08093640381E0809305
:1008100068038091680391CF80FF02C089E0F4CF24
:1008200081FF02C084E0F0CF83709927892B89F380
:100830008AE0EACF80FF02C087E0E6CF81FFE9CF00
:1008400082E0E2CF80FF02C088E0DECF81FFE1CF0F
:1008500083E0DACF86E0D8CF8BE0D6CF81E08093FB
:1008600064031092670310926603809368039FCF1E
:1008700080916903882369F20E9445030091460331
:10088000109147032091480330914903601B710B7D
:10089000820B930B00914A0310914B0320914C0360
:1008A00030914D03601771078207930708F4B1CFA9
:1008B0001092620310926403109267031092660311
:1008C00081E036CF80935B03272F30E070935D0388
:1008D00060935E0340915A0390915903490F552745
:1008E000551F840F952F911D40915C03840F911D1E
:1008F000820F931F680F792F711D71956195710992
:1009000070935F0360936003442361F080916903F7
:10091000882341F060E070E0CB010E9412030E9446
:100920005103F4CF8091440390914503DC01ED9194
:10093000FC910280F381E02D4AE050E068E573E02D
:1009400009950E9445036093460370934703809383
:1009500048039093490380915C0391E0811101C0A9
:1009600090E090936903811106C06AE070E080E036
:1009700090E00C9412030895AF92BF92CF92DF9251
:10098000EF92FF920F931F93CF93DF936C017B0144
:100990008B01040F151FEB015E01AE18BF08C017D5
:1009A000D10759F06991D601ED91FC910190F08148
:1009B000E02DC6010995892B79F7C501DF91CF910B
:1009C0001F910F91FF90EF90DF90CF90BF90AF906D
:1009D0000895FC01538D448D252F30E0842F90E045
:1009E000821B930B541710F0CF960895019708952A
:1009F000FC01918D828D981761F0A28DAE0FBF2FF3
:100A0000B11D5D968C91928D9F5F9F73928F90E048
:100A100008958FEF9FEF0895FC01918D828D9817B7
:100A200031F0828DE80FF11D858D90E008958FEFF4
:100A30009FEF0895FC01918D228D892F90E0805CBD
:100A40009F4F821B91098F739927089587EA92E03F
:100A50000E941A0521E0892B09F420E0822F0895D5
:100A600080E090E0892B29F00E94260581110C94EA
:100A700000000895FC01A48DA80FB92FB11DA35A41
:100A8000BF4F2C91848D90E001968F739927848FAE
:100A9000A689B7892C93A089B1898C9183708064D1
:100AA0008C93938D848D981306C00288F389E02D72
:100AB00080818F7D80830895EF92FF920F931F9323
:100AC000CF93DF93EC0181E0888F9B8D8C8D981301
:100AD0001AC0E889F989808185FF15C09FB7F8940D
:100AE000EE89FF896083E889F98980818370806459
:100AF00080839FBF81E090E0DF91CF911F910F91A4
:100B0000FF90EF900895F62E0B8D10E00F5F1F4FB2
:100B10000F731127E02E8C8D8E110CC00FB607FCC1
:100B2000FACFE889F989808185FFF5CFCE010E944F
:100B30003A05F1CFEB8DEC0FFD2FF11DE35AFF4F7E
:100B4000F0829FB7F8940B8FEA89FB8980818062DD
:100B5000CFCFCF93DF93EC01888D8823B9F0AA899A
:100B6000BB89E889F9898C9185FD03C0808186FD68
:100B70000DC00FB607FCF7CF8C9185FFF2CF8081B7
:100B800085FFEDCFCE010E943A05E9CFDF91CF91ED
:100B9000089520916E0230916F022817390771F481
:100BA00090916C0280916D02981741F0E0916C0277
:100BB000F0E0E45DFD4F808190E008958FEF9FEFBE
:100BC00008950895EF92FF920F931F93CF93DF93B1
:100BD000DC015C96ED90FC905D97E114F10479F4F2
:100BE00081E090E013969C938E93129790E080E0C2
:100BF000DF91CF911F910F91FF90EF900895519643
:100C0000ED91FC91529750968C915097982F90951A
:100C10000FB75E962C915E97122F127021FD609592
:100C2000F8942081112319F1282B2083E7012197C3
:100C3000F1F728E0462F50E0308160FF1AC0382BD2
:100C40003083E7012197F1F7BA0175956795215037
:100C500089F7112381F08081892380830FBF5C96FF
:100C60008D919C910197F1F781E090E0C1CF29230C
:100C7000DCCF3923E5CF9081892BEFCF20916E0215
:100C800030916F022817390771F480916D0220911D
:100C90006C0290E0805C9F4F821B910960E470E0E1
:100CA0000E942D15089590E080E0089520916E0235
:100CB00030916F0228173907B9F490916C02809136
:100CC0006D02981789F0E0916C02F0E0E45DFD4F51
:100CD000808120916C0230E02F5F3F4F2F733327CC
:100CE00020936C0290E008958FEF9FEF089590E0BD
:100CF00080E008954F925F926F927F928F929F92C1
:100D0000AF92BF92CF92DF92EF92FF920F931F9319
:100D1000CF93DF93EC01162F80918B0390918C037E
:100D200020E030E0A901C817D90708F069C0309168
:100D30009703209194038091920390919303809064
:100D40009103432F50E0A0919503B0E0E09196030A
:100D5000CE2ED12C321392C09E01220F331F2C0FA6
:100D60003D1F820F931F480F591FFA016081A80F82
:100D7000B91FFC90F601E80FF91F00818820B1F13E
:100D8000912CB12CA12C70E0762F6627072E000C39
:100D9000880B990BA50194010E94E8143901552490
:100DA00044246F2D70E0762F6627072E000C880BE9
:100DB000990BA50194010E94E814542F432F322F60
:100DC0002227422A532A642A752A602F70E0762F40
:100DD0006627072E000C880B990BA50194010E9431
:100DE000E81424293529462957290AC02F2D30E037
:100DF00050E040E0542F432F322F2227462B202B48
:100E0000CA01AA27BB27C32ED42EE52EFF247C2D92
:100E100060E08B3048F0819FA001112457FF02C091
:100E200041505F4F682F651B40E07B3048F0C19E0A
:100E3000C001112497FF02C081509F4F4C2D491BC8
:100E40002B3008F486C0219FC001112497FF02C0F7
:100E500081509F4F291BCE01DF91CF911F910F91A0
:100E6000FF90EF90DF90CF90BF90AF909F908F90CA
:100E70007F906F905F904F900C945701BE01660F6A
:100E8000771F660F771F860F971F480F591FFA01AC
:100E90006081280F392F311DF901E080A80FB91F9B
:100EA0000C91F601E80FF91FF080882009F446C084
:100EB000912CB12CA12C70E0762F6627072E000C08
:100EC000880B990BA50194010E94E814722E6624E8
:100ED000552444246E2D70E0762F6627072E000CD3
:100EE000880B990BA50194010E94E814A9013327EE
:100EF0002227422A532A642A752A6F2D70E0762F02
:100F00006627072E000C880B990BA50194010E94FF
:100F1000E814422A532A642A752A602F70E0762F3B
:100F20006627072E000C880B990BA50194010E94DF
:100F3000E814542F432F322F222753CF2E2D30E089
:100F400050E040E0A90133272227562B2F29302BD0
:100F500057CF20E080CFFC0101900020E9F73197C6
:100F6000AF01481B590BBC0187EA92E00C94BC040A
:100F70008F929F92AF92BF920F931F93CF93DF9365
:100F8000CDB7DEB7A1970FB6F894DEBF0FBECDBFC9
:100F900019A2423008F44AE08E010F5D1F4F842EE3
:100FA000912CB12CA12CA50194010E94E814E62FEC
:100FB000B901CA01EA30F4F4E05DD801EE938D0185
:100FC000232B242B252B79F790E080E0109719F044
:100FD000CD010E94AB07A1960FB6F894DEBF0FBEFD
:100FE000CDBFDF91CF911F910F91BF90AF909F9098
:100FF0008F900895E95CE1CFCF92DF92EF92FF925C
:10100000CF93DF936C01990FEE08FF08F7FE1FC026
:101010006DE287EA92E00E945C05EC016627772783
:10102000CB016C197D098E099F094AE00E94B8071F
:10103000C80FD91F8AE092E00E94AB078C0F9D1F5A
:10104000DF91CF91FF90EF90DF90CF9008954AE02D
:10105000C701B6010E94B807EC01ECCF0F931F93B4
:10106000CF93DF938C01D0E0C0E0F801EC0FFD1FBF
:101070006491662341F087EA92E00E945C05892B27
:1010800011F02196F2CF8AE092E00E94AB078C0F1C
:101090009D1FDF91CF911F910F910895CF92DF9205
:1010A000EF92FF920F931F93CF930091280210911C
:1010B000290220912A0230912B026B017C01C01A77
:1010C000D10AE20AF30A97018601033011052105CE
:1010D000310558F1C42F6093280270932902809340
:1010E0002A0290932B020E945E142AE030E040E036
:1010F00050E00E94B6146630710581059105ACF090
:101100000E945E1422E430E040E050E00E94B614F9
:10111000CB016C2F0E947A06CF911F910F91FF9007
:10112000EF90DF90CF900C943F02CF911F910F91E1
:10113000FF90EF90DF90CF9008951F920F920FB61F
:101140000F9211242F933F938F939F93AF93BF934D
:1011500080919F029091A002A091A102B091A20261
:1011600030919E0223E0230F2D3758F50196A11DE3
:10117000B11D20939E0280939F029093A002A093A2
:10118000A102B093A2028091A3029091A402A09127
:10119000A502B091A6020196A11DB11D8093A302E4
:1011A0009093A402A093A502B093A602BF91AF9121
:1011B0009F918F913F912F910F900FBE0F901F9095
:1011C000189526E8230F0296A11DB11DD2CF1F92BC
:1011D0000F920FB60F9211242F933F934F935F936B
:1011E0006F937F938F939F93AF93BF93EF93FF93EF
:1011F00087EA92E00E943A05FF91EF91BF91AF918B
:101200009F918F917F916F915F914F913F912F911E
:101210000F900FBE0F901F9018951F920F920FB650
:101220000F9211242F938F939F93EF93FF93E0914D
:10123000B702F091B8028081E091BD02F091BE0248
:1012400082FD1BC090818091C0028F5F8F732091BF
:10125000C102821741F0E091C002F0E0E955FD4F74
:10126000958F8093C002FF91EF919F918F912F9165
:101270000F900FBE0F901F9018958081F4CF1F9292
:101280000F920FB60F9211242F933F934F935F93BA
:101290006F937F938F939F93AF93BF93EF93FF933E
:1012A000E0916E02F0916F02309749F0A685B78504
:1012B0008585968D91FF14C09C918923A1F4FF919F
:1012C000EF91BF91AF919F918F917F916F915F91BE
:1012D0004F913F912F910F900FBE0F901F90189537
:1012E0009C91892361F7A389B4899C918589809514
:1012F00089238C93868997890197F1F7608D718D89
:10130000A685B785558538E020E0CB010197F1F738
:10131000822F90E095958795282F4C91452309F0D1
:101320002068315091F7868D81FD209580916D0266
:1013300090E001968F73992730916C02381799F0DD
:10134000A0916D02B0E0A45DBD4F2C9380936D021F
:10135000828D938D0197F1F7A389B4898C9195893A
:10136000892B8C93ACCF868D8160868FF1CF1092C4
:10137000AA021092A90288EE93E0A0E0B0E0809368
:10138000AB029093AC02A093AD02B093AE028AEE92
:1013900091E09093A8028093A70285EC90E090934F
:1013A000B4028093B30284EC90E09093B6028093F1
:1013B000B50280EC90E09093B8028093B70281EC84
:1013C00090E09093BA028093B90282EC90E09093FF
:1013D000BC028093BB0226EC30E03093BE02209327
:1013E000BD021092C0021092C1021092C20210926D
:1013F000C30210928A0310929103109298031092E4
:10140000990310929A0310929B0381E080939703B3
:10141000809394031092950392E0909396038093A7
:10142000890330938E0320938D0386EC90E00E9415
:1014300047159093930380939203009709F4D0C0CB
:1014400026ECFC0111922A95E9F782E490E0909352
:101450008C0380938B0385E090E0909390038093BE
:101460008F0380918A03882341F061E085E00E9428
:10147000E90160E085E00E949D01E4E6F1E0E4918D
:10148000F0E0EE0FFF1FEB5AFE4F85919491909381
:101490009D0380939C03E6E4F1E0E491E0939E03D6
:1014A00010926D0310926C0388EE93E0A0E0B0E020
:1014B00080936E0390936F03A0937003B0937103B6
:1014C0008CEF91E090936B0380936A0310928103F9
:1014D000109280031092830310928203109285036E
:1014E0001092840310928703109286036091880300
:1014F0006E7F6D7F609388036695617081E06827D9
:101500008BE00E949D0161E08BE00E94E901ECE428
:10151000F1E0E491E0937A03EAE6F1E0E491F0E0AF
:10152000EE0FFF1FEB5AFE4F8591949190937C0331
:1015300080937B0360E08AE00E94E9018091880348
:1015400081FD04C061E08AE00E949D018AE08093F1
:101550007603EBE4F1E0E491E0937703E9E6F1E070
:10156000E491F0E0EE0FFF1FE95CFE4F259134910E
:10157000309379032093780344EF51E060E070E00A
:1015800040934A0350934B0360934C0370934D0375
:10159000E6E1F1E0A8E5B3E001900D928A95E1F76C
:1015A0001092620382E080936303109268031092AA
:1015B00069038FEF80939F031092A1031092A00301
:1015C0001092AB031092AA038FEF9FEFDC01809380
:1015D000A6039093A703A093A803B093A90308952B
:1015E00010928E0310928D0310928C0310928B0335
:1015F00032CFCF93DF93CDB7DEB762970FB6F894B3
:10160000DEBF0FBECDBF789484B5826084BD84B543
:10161000816084BD85B5826085BD85B5816085BDED
:1016200080916E00816080936E00109281008091A5
:10163000810082608093810080918100816080932D
:101640008100809180008160809380008091B10052
:1016500084608093B1008091B00081608093B0007D
:1016600080917A00846080937A0080917A00826011
:1016700080937A0080917A00816080937A008091D3
:101680007A00806880937A001092C100E091B702DE
:10169000F091B80282E08083E091B302F091B4024D
:1016A0001082E091B502F091B60280E18083109241
:1016B000BF02E091BB02F091BC0286E08083E09122
:1016C000B902F091BA02808180618083E091B90211
:1016D000F091BA02808188608083E091B902F09134
:1016E000BA02808180688083E091B902F091BA02E9
:1016F00080818F7D808310928503109284031092E5
:1017000083031092820310928103109280038DE96B
:1017100091E09093870380938603909176039631AE
:1017200008F047C02DEB30E0309381032093800315
:101730002BE931E030938303209382032CE231E0E4
:1017400030938503209384032091680084E09830CF
:1017500048F031E09E3008F430E081E001C0880FAD
:101760003A95EAF7822B809368002DE630E09830B6
:1017700050F02BE630E09E3030F02CE630E0963131
:1017800010F030E020E030937E0320937D03292F7A
:1017900030E0983008F077C081E001C0880F9A955A
:1017A000EAF780937F0380918603909187030197E6
:1017B000F1F78091840390918503892B49F1E091A1
:1017C0006E02F0916F0223E0EA36F20709F13097DA
:1017D00039F0A389B4899C918589809589238C935C
:1017E000809188038E7F8093880310926D021092FF
:1017F0006C028AE693E090936F0280936E02E09110
:101800007D03F0917E03808190917F03892B8083FB
:1018100060E08EE00E94E9018DE092E00E94AB075B
:101820008AE092E00E94AB078EEF90E00E942E08C3
:101830008DEC90E00E942E088AE693E09093450399
:101840008093440381E080935C0370E060E08CE06F
:101850000E9462040E9445036B017C010E945103B7
:1018600081111EC00E9445036C197D098E099F09D4
:10187000613D77408105910598F460E070E0CB010F
:101880000E941203EBCF9E3040F42850310981E0D2
:1018900001C0880F2A95EAF784CF2E503109F7CF7F
:1018A00068EC70E080E090E00E9412031092680300
:1018B000809164038430A1F0893091F08CEB90E04A
:1018C0000E942E088BE990E00E942E088EE790E09F
:1018D0000E942E0860E070E0CB010E941203FACF54
:1018E00060919103663029F1209192033091930326
:1018F0006150C9F070E08FEF95E00E941915F90171
:1019000040918D0350918E03CF01821B930B84175E
:10191000950760F44081469FC001479F900D1124B8
:1019200090833196EDCF70E060E0E9CF86E0809360
:10193000910380918F039091900397FD08C061E01F
:101940000E94E90160E080918F030E949D0181E087
:1019500080938A030E943F0288E690E00E942E084E
:1019600062E170E086E00E94620461E070E083E082
:101970000E946204332433940E9445036D837E8366
:101980008F8398870E9445036B017C014CEAC41643
:101990004DE0D406E104F104B9F489E192E00E943B
:1019A000AB070E9445034AE00E94B8078AE092E034
:1019B0000E94AB074FEF5FEF6FEF70E090E080E0C9
:1019C0000E94E6000E943F020E944503683873416E
:1019D0008105910508F442C08091720290917302D2
:1019E000092E000CAA0BBB0B26013701481A590A15
:1019F0006A0A7B0AD301C20184379105A105B105AA
:101A000068F180918B0390918C0303970091700291
:101A1000109171028017910708F1D0927302C09261
:101A200072028017910739F04FEF5FEF6FEF70E0B0
:101A3000C8010E94E6000E943F0240E050E0BA0167
:101A4000C80101970E94E6000E943F02C80101966A
:101A500090937102809370020E94FC070E944503DC
:101A60006B017C01DC01CB018C599143A109B109C7
:101A700085389C41A105B10508F0BDC1D701C6015B
:101A8000885C9243A109B109813D9740A105B10548
:101A900008F053C08091840290918502A091860243
:101AA000B091870226013701481A590A6A0A7B0A4F
:101AB000D301C2014097A105B10508F43EC0C09210
:101AC0008402D0928502E0928602F09287024091D1
:101AD00006015091070180918302811107C53A01E7
:101AE0002AE0620E711C7092070160920601862D39
:101AF00090E0B0E0A0E05C0199248824BA2FA92FDF
:101B0000982F8827882A992AAA2ABB2A00E511E05B
:101B1000B501A401D8018D919D918D010E94E6002F
:101B2000E8E6F1E0E017F10799F70E943F02F5EFD0
:101B30006F16710414F030928302D701C6018C5BDA
:101B40009443A109B109813D9740A105B10508F071
:101B500053C080917F0290918002A0918102B09148
:101B6000820226013701481A590A6A0A7B0AD30100
:101B7000C2014097A105B10508F43EC0C0927F02A2
:101B8000D0928002E0928102F092820240910401A0
:101B90005091050180917E028111D3C43A0125E064
:101BA000620E711C7092050160920401862D90E016
:101BB000B0E0A0E05C0199248824BA2FA92F982FC7
:101BC0008827882A992AAA2ABB2A08E311E0B501A6
:101BD000A401D8018D919D918D010E94E600E0E560
:101BE000F1E0E017F10799F70E943F02F5EF6F1659
:101BF000710414F030927E02D701C601805B9643D7
:101C0000A109B109813D9740A105B10508F051C076
:101C100080917A0290917B02A0917C02B0917D022A
:101C200026013701481A590A6A0A7B0AD301C20100
:101C30004097A105B105E8F1C0927A02D0927B02EB
:101C4000E0927C02F0927D024091020150910301EA
:101C5000809179028111A0C45A0125E0A20EB11C25
:101C6000B0920301A09202018A2D90E0B0E0A0E0C2
:101C70007C01DD24CC24BA2FA92F982F8827C82ACD
:101C8000D92AEA2AFB2A00E211E0B701A601D8010D
:101C90008D919D918D010E94E600B1E008331B07F4
:101CA000A1F70E943F02E5EFAE16B10414F03092A6
:101CB00079020E94450300917502109176022091ED
:101CC000770230917802601B710B820B930B6932A3
:101CD00071058105910508F48EC00E94450360934B
:101CE00075027093760280937702909378028091C8
:101CF0007402811145C080910001909101010E9400
:101D0000FC070091000110910101065F1F4F109325
:101D1000010100930001802F90E0B0E0A0E07C0181
:101D2000DD24CC24BA2FA92F982F8827C82AD92A96
:101D3000EA2AFB2A80918B0390918C03B701A601BC
:101D400001970E94E60080918B0390918C03B7016C
:101D5000A60102970E94E60080918B0390918C036C
:101D6000B701A60103970E94E6000E943F020F3FC1
:101D7000110514F030927402809174028823D9F115
:101D800000910001109101010A5011091093010105
:101D900000930001802F90E0B0E0A0E07C01DD2402
:101DA000CC24BA2FA92F982F8827C82AD92AEA2A03
:101DB000FB2A80918B0390918C03B701A6010197B8
:101DC0000E94E60080918B0390918C03B701A601DD
:101DD00002970E94E60080918B0390918C03B701DB
:101DE000A60103970E94E6000E943F0208331105F6
:101DF00014F4109274020E9445036B017C01F8E018
:101E0000CF16F2E5DF06E104F10471F028EAC2160C
:101E100021E6D206E104F10439F038E4C31631E7D3
:101E2000D306E104F10451F4109295021092940249
:101E300042E350E050930B0140930A01D701C601E1
:101E400088569244A109B109813B9643A105B10589
:101E500008F05AC00E94450300919002109191022F
:101E60002091920230919302601B710B820B930BB5
:101E7000653671058105910508F446C00E94450349
:101E800060939002709391028093920290939302D8
:101E90000E945E1424E230E040E050E00E94B6145C
:101EA000660F771F62567E4FDB01AD90BC902FEF1F
:101EB0004FEF6FEFC5010E9457010E943F020E9441
:101EC000450300918C0210918D0220918E02309179
:101ED0008F02601B710B820B930B653671058105B8
:101EE000910590F00E94450360938C0270938D02DF
:101EF00080938E0290938F0220E040E060E0C50165
:101F00000E9457010E943F02D701C601845F9C4492
:101F1000A109B10985319540A105B10520F1D7018D
:101F2000C6018C539A45A109B109813B9440A10592
:101F3000B105C8F0D701C6018C549846A109B10972
:101F400085319540A105B10570F038EFC31A35E72A
:101F5000D30AE108F10845E1C41645E0D406E104DE
:101F6000F10408F0ADC00E94450300918802109171
:101F7000890220918A0230918B02601B710B820BC7
:101F8000930B603171058105910508F499C00E9499
:101F90004503609388027093890280938A0290932C
:101FA0008B0280919402811143C080900A0190902D
:101FB0000B015AE0850E911C90920B0180920A0150
:101FC000B0909502BB2009F43CC38FEF88169104B2
:101FD00009F01CF5C82CD12CF12CE12C7601DD2464
:101FE000CC24712C612C80910801909109018230E0
:101FF000910509F0FCC2F301EE0FFF1FE457FE4FFD
:10200000B701A601808191810E94E600BFEF6B1AA3
:102010007B0AE9E06E16710431F70E943F02FFEF80
:102020008F1691040CF44CC0B1104AC03092940247
:10203000E0900A01F0900B012AE0E21AF108F09218
:102040000B01E0920A018E2D90E0B0E0A0E05C016F
:10205000992488244427582F692F7A2F842A952A77
:10206000A62AB72A8E28992AAA2ABB2AD12CC12CA3
:1020700000910801109109010330110509F042C3D4
:10208000B501A401F601E457FE4F808191810E94C1
:10209000E60032E0C30ED11C42E1C416D10441F780
:1020A0000E943F0258E3E516F10454F410929402A2
:1020B0003092950201501109109309010093080113
:1020C0008D819E81AF81B8858C509B47A109B10954
:1020D00087349540A105B105D0F59EE7C92ED12CD6
:1020E00010E000E00E945E142AE030E040E050E0A2
:1020F0000E94B614663071058105910524F06AE0EE
:10210000C8010E947A060F5F1F4F0F33110551F768
:102110007601F8E0EF1AF10886010F33110530F46B
:1021200020E04FEF6FEFC8010E94570101501109E5
:10213000E016F10691F70E943F0261E070E080E056
:1021400090E00E94120321E0C21AD10849F68D8165
:102150009E81AF81B885885E9048A109B1098D3212
:102160009C44A105B10508F05DC00E9445036B01C8
:102170007C010E945E144B015C010E945E14698325
:102180007A838B839C830E945E14409096025090C9
:1021900097026090980270909902A7019601241905
:1021A0003509460957092335334041055105D0F11A
:1021B000C0929602D0929702E0929802F092990211
:1021C0002FEF30E040E050E00E94B614162F6981F6
:1021D0007A818B819C812FEF30E040E050E00E94BB
:1021E000B614062FC501B4012FEF30E040E050E0F7
:1021F0000E94B614F62ED12CC12C212F402F6F2D0A
:10220000C6010E9457010E943F0263E070E080E037
:1022100090E00E941203BFEFCB1ADB0AEFE3CE1669
:10222000D10459F78D819E81AF81B8858C5F904D27
:10223000A109B10981379741A105B10530F40E9488
:10224000450342E350E00E944E088D819E81AF819C
:10225000B88580569A4EA109B10981379741A105E9
:10226000B10508F07FC00E945E142CE231E040E02E
:1022700050E00E94B6149B01AC012C593F4F4F4FC8
:102280005F4F29833A834B835C838AE0682E712CED
:102290000E945E146D877E878F87988B0E945E14E4
:1022A0004B015C010E945E146B017C010E945E1474
:1022B00069877A878B879C876D857E858F859889CE
:1022C0002FEF30E040E050E00E94B614262EC5010A
:1022D000B4012FEF30E040E050E00E94B614162F1A
:1022E000C701B6012FEF30E040E050E00E94B61485
:1022F000062F69857A858B859C852FE330E040E049
:1023000050E00E94B614CB01222D412F602F0E9475
:1023100057010E943F0231E0631A710809F0B8CFFB
:102320000E945E142AE530E040E050E00E94B614BE
:10233000665F7F4F8F4F9F4F0E94120340918D0326
:1023400050918E0370E060E080919203909193032E
:102350000E946C160E943F0269817A818B819C8168
:102360000E9412038D819E81AF81B885805D91406E
:10237000A140B109893E9340A105B10508F0EBC128
:10238000D12CC12C10E000E00E945E142AE030E065
:1023900040E050E00E94B614663071058105910559
:1023A00024F06FE0C8010E947A060F5F1F4F0F33C1
:1023B000110551F7860176015FE0E51AF1080F3348
:1023C000110530F424ED41E26EEDC8010E94570181
:1023D00001501109E016F10691F70E943F026FE0EB
:1023E00070E080E090E00E9412038FEFC81AD80AD4
:1023F0009EE7C916D10431F68D819E81AF81B885E3
:102400009351A140B1098D3B9B41A105B10508F055
:10241000CAC10E94450300919A0210919B0220912B
:102420009C0230919D022B013C01401A510A620A24
:10243000730A93018201053F11402105310508F41B
:1024400048C060939A0270939B0280939C02909381
:102450009D02712C612C0E945E144B015C010E9454
:102460005E146B017C010E945E146D837E838F83FA
:102470009887C501B4012FEF30E040E050E00E94A2
:10248000B614162FC701B6012FEF30E040E050E040
:102490000E94B614062F6D817E818F8198852FEF63
:1024A00030E040E050E00E94B614212F402FC301DD
:1024B0000E94570165E070E080E090E00E94120306
:1024C0005FEF651A750A8FE36816710421F60E94A2
:1024D0003F0240E050E0452B09F44ECA0E94260519
:1024E000882309F447CA0E94000044CA48325105B3
:1024F0000CF423CB4A505109509307014093060135
:10250000842F90E0B0E0A0E05C0199248824BA2FE9
:10251000A92F982F8827882A992AAA2ABB2A00E55A
:1025200011E0B501A401D8018D919D918D010E940A
:10253000E600E8E6F1E0E017F10799F70E943F02B4
:10254000FCCA483251050CF457CB45505109509301
:10255000050140930401842F90E0B0E0A0E05C010D
:1025600099248824BA2FA92F982F8827882A992A56
:10257000AA2ABB2A08E311E0B501A401D8018D9174
:102580009D918D010E94E600E0E5F1E0E017F10782
:1025900099F70E943F0230CB483251050CF489CBA9
:1025A0004A5051095093030140930201842F90E057
:1025B000B0E0A0E07C01DD24CC24BA2FA92F982F15
:1025C0008827C82AD92AEA2AFB2A00E211E0B701A3
:1025D000A601D8018D919D918D010E94E600E8E34E
:1025E000F1E0E017F10799F70E943F0262CB8130DA
:1025F000910531F4F301EE0FFF1FE658FE4F00CDB9
:10260000F301EE0FFF1F0097C9F0019609F0FECC11
:102610008301000F111FF801E457FE4FB701A60117
:10262000808191810E94E600F801E658FE4FB701D3
:10263000A601808191810E94E600F801E859FE4FD1
:10264000DFCC882D90E0B0E0A0E07C01DD24CC243C
:102650004427582F692F7A2FC42AD52AE62AF72A29
:10266000C828D92AEA2AFB2A10E000E08091080154
:1026700090910901B701A6018330910569F082307C
:102680009105B9F4F801E658FE4F808191810E94CE
:10269000E60040E050E0BA01F801E457FE4F8081C7
:1026A00091810E94E6000E5F1F4F02311105F1F685
:1026B000B4CC8130910571F4F801E859FE4F808166
:1026C00091810E94E60040E050E0BA01F801E6582E
:1026D000FE4FE5CF892B39F7F801E457FE4F808193
:1026E00091810E94E600B701A601F801E658FE4F6D
:1026F000808191810E94E600B701A601F801E859A6
:10270000FE4FCDCF0230110531F4B501A401F60121
:10271000E658FE4FBACC0130110531F4B501A401E1
:10272000F601E859FE4FB1CC0115110509F0B1CC05
:10273000B501A401F601E457FE4F808191810E940A
:10274000E600B501A401F601E658FE4F80819181B3
:102750000E94E600E3CF4D805E806F80788424E99C
:1027600042162BE0520621E06206710408F444CEC2
:1027700040E05FEF6FEF70E081E490E00E94E600E0
:1027800040E05FEF6FEF70E080E490E00E94E600D1
:1027900040E05FEF6FEF70E08FE390E00E94E600B3
:1027A0000E943F0229CE4D805E806F80788420EBAE
:1027B000421620E3520621E06206710408F489CE35
:1027C0000E94450345E050E00E944E0882CE8CEF07
:1027D00091E090936B0380936A0380916E029091D5
:1027E0006F028A56934071F4E0917D03F0917E036D
:1027F000908180917F0380958923808310926F025E
:1028000010926E0280919203909193030E94E315BF
:1028100080918F039091900397FD03C060E00C942A
:10282000E90108958F929F92AF92BF92CF92DF926B
:10283000EF92FF92CF93DF93EC01688179818A81D7
:102840009B81611571058105910521F464E279EDA3
:102850008BE597E02DE133EF41E050E00E94B614A4
:1028600049015A019B01AC01A7EAB1E40E94D514C9
:102870006B017C01ACEEB4EFA50194010E94E3145E
:10288000C60ED71EE81EF91EF7FE06C081E0C81A64
:10289000D108E10880E8F80AC882D982EA82FB827E
:1028A000C701B6019F77DF91CF91FF90EF90DF9046
:1028B000CF90BF90AF909F908F9008958F929F92EE
:1028C000AF92BF92CF92DF92EF92FF9260910C0194
:1028D00070910D0180910E0190910F0161157105AC
:1028E0008105910521F464E279ED8BE597E02DE116
:1028F00033EF41E050E00E94B61449015A019B01B8
:10290000AC01A7EAB1E40E94D5146B017C01ACEEE6
:10291000B4EFA50194010E94E314C60ED71EE81E71
:10292000F91EF7FE06C081E0C81AD108E10880E868
:10293000F80AC0920C01D0920D01E0920E01F092C3
:102940000F01C701B6019F77FF90EF90DF90CF9006
:10295000BF90AF909F908F90089560930C017093FB
:102960000D0180930E0190930F010895052E97FBA2
:102970001EF400940E94CD1457FD07D00E94E81465
:1029800007FC03D04EF40C94CD145095409530952F
:1029900021953F4F4F4F5F4F0895909580957095CB
:1029A00061957F4F8F4F9F4F08950E940A15A59FF5
:1029B000900DB49F900DA49F800D911D112408953A
:1029C000B7FF0C94D5140E94D514821B930B089565
:1029D000A1E21A2EAA1BBB1BFD010DC0AA1FBB1F23
:1029E000EE1FFF1FA217B307E407F50720F0A21B95
:1029F000B30BE40BF50B661F771F881F991F1A9402
:102A000069F760957095809590959B01AC01BD012B
:102A1000CF010895A29FB001B39FC001A39F700D85
:102A2000811D1124911DB29F700D811D1124911DD6
:102A30000895AA1BBB1B51E107C0AA1FBB1FA61705
:102A4000B70710F0A61BB70B881F991F5A95A9F757
:102A500080959095BC01CD01089597FB072E16F443
:102A6000009407D077FD09D00E94191507FC05D006
:102A70003EF4909581959F4F0895709561957F4F95
:102A80000895EE0FFF1F0590F491E02D09940F9328
:102A90001F93CF93DF938230910510F482E090E092
:102AA000E091AE03F091AF0330E020E0B0E0A0E0B1
:102AB000309799F42115310509F44AC0281B390BC8
:102AC00024303105D8F58A819B816115710589F122
:102AD000FB0193838283FE0111C0408151810281F9
:102AE000138148175907E0F04817590799F41097D0
:102AF00061F012960C93129713961C933296CF01A5
:102B0000DF91CF911F910F9108950093AE03109321
:102B1000AF03F4CF2115310551F04217530738F0B8
:102B2000A901DB019A01BD01DF01F801C1CFEF016D
:102B3000F9CF9093AF038093AE03CDCFFE01E20FA8
:102B4000F31F819391932250310939832883D7CF82
:102B50002091AC033091AD03232B41F4209112015D
:102B6000309113013093AD032093AC0320911001F9
:102B7000309111012115310541F42DB73EB7409137
:102B8000140150911501241B350BE091AC03F09119
:102B9000AD03E217F307A0F42E1B3F0B28173907EC
:102BA00078F0AC014E5F5F4F2417350748F04E0FA9
:102BB0005F1F5093AD034093AC03819391939FCFDC
:102BC000F0E0E0E09CCFCF93DF930097E9F0FC01C9
:102BD000329713821282A091AE03B091AF03ED0140
:102BE00030E020E01097A1F420813181820F931F03
:102BF0002091AC033091AD032817390709F061C06B
:102C0000F093AD03E093AC03DF91CF910895EA0117
:102C1000CE17DF07E8F54A815B819E01411551051A
:102C2000B1F7E901FB83EA8349915991C40FD51F9C
:102C3000EC17FD0761F4808191810296840F951F46
:102C4000E90199838883828193819B838A83F0E061
:102C5000E0E012968D919C9113970097B9F52D9114
:102C60003C911197CD010296820F931F2091AC03E6
:102C70003091AD032817390739F6309751F5109286
:102C8000AF031092AE03B093AD03A093AC03BCCFDF
:102C9000D383C28340815181840F951FC817D90700
:102CA00061F44E5F5F4F88819981480F591F5183AE
:102CB00040838A819B81938382832115310509F0AA
:102CC000B0CFF093AF03E093AE039ECFFD01DC01E4
:102CD000C0CF13821282D7CFDC0101C06D93415067
:102CE0005040E0F7089510E0CBEBD0E004C0FE01C7
:102CF0000E9441152196CC3BD107C9F7F894FFCF2C
:102D000032002800280028000300320001000000E3
:102D10000000B00380007EFF06000100000000EF0D
:102D20000000010002000300040005000600070087
:102D3000080009000A000B00150016001700180013
:102D400019001A001B001C001D001E001F0020009F
:102D50002A002B002C002D002E002F003000310007
:102D600032003300340035000C000D000E000F005F
:102D70001000110012001300140021002200230093
:102D800024002500260027002800290036003700EF
:102D9000380039003A003B003C003D003E00000096
:102DA00001000200030004000500060007000800FF
:102DB00009000A000B001500160017001800190082
:102DC0001A001B001C001D001E001F0020002A000E
:102DD0002B002C002D002E002F003000310032007F
:102DE000330034003500000000005C05BC04E90439
:102DF000A9051A05F8040C0500000000E205BC0452
:102E00007706E1053E065606C9050D0A00537461B2
:102E10007274696E672E2E2E006D696C6C6920319C
:082E20003030302121213A007D
:00000001FF
