:100000000C94BC000C94E4000C94E4000C940A09D9
:100010000C940A090C940A090C94E4000C94E40072
:100020000C94E4000C94E4000C94E4000C94E400C0
:100030000C94E4000C94E4000C94E4000C94E400B0
:100040000C9468080C94E4000C94D8080C94B20842
:100050000C94E4000C94E4000C94E4000C94E40090
:100060000C94E4000C94E4004446506C6179657291
:10007000204D696E69206F6E6C696E652E00322EA0
:10008000506C6561736520696E7365727420746865
:100090006520534420636172642100312E506C65E9
:1000A000617365207265636865636B2074686520A1
:1000B000636F6E6E656374696F6E2100556E616269
:1000C0006C6520746F20626567696E3A00496E69DD
:1000D0007469616C697A696E67204446506C617915
:1000E0006572202E2E2E20284D61792074616B655B
:1000F00020337E35207365636F6E64732900444638
:10010000526F626F74204446506C61796572204D65
:10011000696E692044656D6F0000000000240027AF
:10012000002A00000000080002010000030407008C
:10013000000000000000000000000023002600294D
:100140000001020408102040800102040810200170
:10015000020408102000000000250028002B0004E5
:10016000040404040404040202020202020303035E
:10017000030303008209341611241FBECFEFD8E019
:10018000DEBFCDBF11E0A0E0B1E0EAE9F1E302C0DB
:1001900005900D92A43FB107D9F723E0A4EFB1E099
:1001A00001C01D92A038B207E1F710E0CBEBD0E020
:1001B00004C02197FE010E948E17CA3BD107C9F7E0
:1001C0000E94C40A0C94C0180C9400008F929F9255
:1001D000AF92BF92CF92DF92EF92FF92CF93209196
:1001E0005B0330915C0382179307E8F54B01AA2467
:1001F000BB24C82DC52ED62EE72EFF24BC2DA42F40
:1002000020916103222361F0829E40011124C92DB7
:100210002C9D60011124BD2D249FF0011124AF2FCE
:10022000E0916703E0906203F09063033091640310
:10023000E31323C09C01220F331F820F931F8E0DE7
:100240009F1DE0916403E80FF92FF11DC083E09139
:100250006503E80FF92FF11DB08320916603820F2B
:10026000911DFC01A083CF91FF90EF90DF90CF9084
:10027000BF90AF909F908F900895880F991F880F1F
:10028000991F8E0D9F1D472F5527662777272223FD
:1002900049F030E0249F7001259FF00C349FF00C52
:1002A00011244F2DE80FF92FF11D4083CACFE091A3
:1002B0005B03F0915C038E179F0798F53091610303
:1002C000332361F0639FB0011124672F349FA00195
:1002D0001124452F329F90011124232F3091670361
:1002E000E0916203F09163035091640335131AC0E7
:1002F000DC01AA0FBB1F8A0F9B1F8E0F9F1FE0916F
:100300006403E80FF92FF11D6083E0916503E80FA6
:10031000F92FF11D408330916603830F911DFC017D
:1003200020830895880F991F880F991F8E0F9F1F94
:10033000FC01E30FF11D1082E2CF90E0FC01ED5DC6
:10034000FE4F2491FC01EF5BFE4F3491FC01E15A1A
:10035000FE4FE491EE23C9F0222339F0233001F15E
:10036000A8F4213019F1223029F1F0E0EE0FFF1F3F
:10037000EB5AFE4FA591B4918FB7F894EC916111AF
:1003800026C030953E233C938FBF08952730A9F0B7
:100390002830C9F0243049F7809180008F7D03C058
:1003A000809180008F7780938000DFCF84B58F7736
:1003B00084BDDBCF84B58F7DFBCF8091B0008F777C
:1003C0008093B000D2CF8091B0008F7DF9CF3E2BCB
:1003D000DACFCF93DF9390E0FC01EF5BFE4F2491E7
:1003E000815A9E4FFC0184918823D1F090E0880FC0
:1003F000991FFC01E75EFE4FA591B491FC01EB5AF9
:10040000FE4FC591D49161110EC09FB7F8948C91A5
:10041000E22FE0958E238C932881E223E8839FBF0F
:10042000DF91CF9108958FB7F894EC91E22BEC9384
:100430008FBFF6CF8E3008F08E5087708064809327
:100440007C0080917A00806480937A0080917A00A9
:1004500086FDFCCF809178009091790008953FB798
:10046000F8948091730290917402A0917502B091FA
:10047000760226B5A89B05C02F3F19F00196A11D55
:10048000B11D3FBFBA2FA92F982F8827BC01CD01DE
:10049000620F711D811D911D42E0660F771F881F3D
:1004A000991F4A95D1F708950F931F93CF93DF9328
:1004B000CDB7DEB729970FB6F894DEBF0FBECDBF1C
:1004C0008091620390916303892B09F47CC00E94A0
:1004D0002F02009168031091690320916A03309103
:1004E0006B03601771078207930740F460936803FA
:1004F0007093690380936A0390936B030091680380
:100500001091690320916A0330916B03601B710B9A
:10051000820B930B6C32714081059105C0F2F89407
:1005200080915D0390915E039A838983E0916203D9
:10053000F0916303DF0111968081898790915903BF
:10054000E0916C03F0916D0380916E03992309F49F
:1005500045C09081982B98879081809589238F83BF
:100560008F818C8388E08B8358856F8149853B819F
:100570002C8189819A81508347FD252F3A952083CC
:10058000262F39F0441F00C000006083000000C027
:10059000F2CF38E04D9160830000019761F7F0934E
:1005A0006D03E0936C0349873B832C839A83898393
:1005B00078940E942F02609368037093690380937C
:1005C0006A0390936B0329960FB6F894DEBF0FBEB3
:1005D000CDBFDF91CF911F910F9108959081982BFE
:1005E00098879081809589238F838F818E8388E07F
:1005F0008D8358856F8149853D812E8189819A81BE
:10060000508347FD252F00C000C0208300C000C0DC
:1006100000C000C000C060830000262F3A9541F062
:10062000441F000000C000C000C000C000C0E8CFF0
:1006300038E04D9100C0608300C0019709F7F09346
:100640006D03E0936C0349873D832E83AFCF8F9278
:100650009F92AF92BF92CF92DF92EF92FF926B0187
:100660007C010E942F024B015C01C114D104E10402
:10067000F104B9F00E942F02681979098A099B09CF
:10068000683E73408105910580F321E0C21AD108CC
:10069000E108F10888EE880E83E0981EA11CB11CC9
:1006A000E4CFFF90EF90DF90CF90BF90AF909F90FE
:1006B0008F9008952FB7F89460916F027091700237
:1006C00080917102909172022FBF08950F931F9332
:1006D0008091140390911503DC01ED91FC9100844D
:1006E000F185E02D0995892B09F4D7C060E070E011
:1006F000CB010E9427032091320380911403909133
:100700001503DC01ED91FC910284F385E02D2111AC
:100710000BC0099580931E038E37D1F6809132036A
:100720008F5F80933203D4CF099590913203E92FE4
:10073000F0E0EC5EFC4F82879230B9F09930D9F04E
:100740009130A9F48F3F99F01092320381E08093A9
:1007500034031092370310923603809338031092BB
:10076000390380E01F910F910895863069F79F5FEC
:1007700090933203ADCF8F3E39F7209120038091C3
:100780001F03280F3327331FE0912103C9018E0F68
:10079000911D20912203280F392F311D40912303F1
:1007A00050E0240F351F8091240390E060912503D1
:1007B00070E0762F6627F09126036F0F711D280FCA
:1007C000391F3195219531096217730709F0BCCFA4
:1007D00010923203E13419F4109239032FC0E093E0
:1007E0003503542F4427840F951F9093370380932C
:1007F0003603EA53E63108F046C0F0E0EE5FFB4F07
:100800000C948E172F04370441041804410421046A
:100810003F044304410441044104410441044104B0
:10082000410441044304410441044104410441049E
:1008300085E08093340381E080933803809138030E
:1008400091CF80FF02C089E0F4CF81FF02C084E035
:10085000F0CF83709927892B89F38AE0EACF80FF54
:1008600002C087E0E6CF81FFE9CF82E0E2CF80FFE0
:1008700002C088E0DECF81FFE1CF83E0DACF86E0FF
:10088000D8CF8BE0D6CF81E080933403109237032A
:1008900010923603809338039FCF809139038823C9
:1008A00069F20E945A0300911603109117032091D8
:1008B000180330911903601B710B820B930B00918D
:1008C0001A0310911B0320911C0330911D03601724
:1008D00071078207930708F4B1CF10923203109288
:1008E0003403109237031092360381E036CF8093A1
:1008F0002B0310922D0360932E0320912A039091D5
:100900002903290F3327331F820F932F911D209125
:100910002C03820F911D680F791F719561957109E4
:1009200070932F0360933003222361F08091390389
:10093000882341F060E070E0CB010E9427030E9411
:100940006603F4CF8091140390911503DC01ED91BF
:10095000FC910280F381E02D4AE050E068E273E010
:1009600009950E945A0360931603709317038093AE
:1009700018039093190380912C0391E0811101C019
:1009800090E090933903811106C06AE070E080E046
:1009900090E00C9427030895AF92BF92CF92DF921C
:1009A000EF92FF920F931F93CF93DF936C017B0124
:1009B0008B01040F151FEB015E01AE18BF08C017B5
:1009C000D10759F06991D601ED91FC910190F08128
:1009D000E02DC6010995892B79F7C501DF91CF91EB
:1009E0001F910F91FF90EF90DF90CF90BF90AF904D
:1009F0000895FC01538D448D252F30E0842F90E025
:100A0000821B930B541710F0CF9608950197089509
:100A1000FC01918D828D981761F0A28DAE0FBF2FD2
:100A2000B11D5D968C91928D9F5F9F73928F90E028
:100A300008958FEF9FEF0895FC01918D828D981797
:100A400031F0828DE80FF11D858D90E008958FEFD4
:100A50009FEF0895FC01918D228D892F90E0805C9D
:100A60009F4F821B91098F739927089587E792E022
:100A70000E942A0521E0892B09F420E0822F0895A5
:100A800080E090E0892B29F00E94360581110C94BA
:100A900000000895FC01A48DA80FB92FB11DA35A21
:100AA000BF4F2C91848D90E001968F739927848F8E
:100AB000A689B7892C93A089B1898C9183708064B1
:100AC0008C93938D848D981306C00288F389E02D52
:100AD00080818F7D80830895EF92FF920F931F9303
:100AE000CF93DF93EC0181E0888F9B8D8C8D9813E1
:100AF0001AC0E889F989808185FF15C09FB7F894ED
:100B0000EE89FF896083E889F98980818370806438
:100B100080839FBF81E090E0DF91CF911F910F9183
:100B2000FF90EF900895F62E0B8D10E00F5F1F4F92
:100B30000F731127E02E8C8D8E110CC00FB607FCA1
:100B4000FACFE889F989808185FFF5CFCE010E942F
:100B50004A05F1CFEB8DEC0FFD2FF11DE35AFF4F4E
:100B6000F0829FB7F8940B8FEA89FB8980818062BD
:100B7000CFCFCF93DF93EC01888D8823B9F0AA897A
:100B8000BB89E889F9898C9185FD03C0808186FD48
:100B90000DC00FB607FCF7CF8C9185FFF2CF808197
:100BA00085FFEDCFCE010E944A05E9CFDF91CF91BD
:100BB000089520913602309137022817390771F4D1
:100BC0009091340280913502981741F0E0913402FF
:100BD000F0E0EC50FE4F808190E008958FEF9FEFA2
:100BE00008950895EF92FF920F931F93CF93DF9391
:100BF000DC015C96ED90FC905D97E114F10479F4D2
:100C000081E090E013969C938E93129790E080E0A1
:100C1000DF91CF911F910F91FF90EF900895519622
:100C2000ED91FC91529750968C915097982F9095FA
:100C30000FB75E962C915E97122F127021FD609572
:100C4000F8942081112319F1282B2083E7012197A3
:100C5000F1F728E0462F50E0308160FF1AC0382BB2
:100C60003083E7012197F1F7BA0175956795215017
:100C700089F7112381F08081892380830FBF5C96DF
:100C80008D919C910197F1F781E090E0C1CF2923EC
:100C9000DCCF3923E5CF9081892BEFCF209136022D
:100CA000309137022817390771F48091350220916D
:100CB000340290E0805C9F4F821B910960E470E0F9
:100CC0000E947A17089590E080E0089520913602FE
:100CD0003091370228173907B9F490913402809186
:100CE0003502981789F0E0913402F0E0EC50FE4FA5
:100CF00080812091340230E02F5F3F4F2F733327E4
:100D00002093340290E008958FEF9FEF089590E0D4
:100D100080E008954F925F926F927F928F929F92A0
:100D2000AF92BF92CF92DF92EF92FF920F931F93F9
:100D3000CF93DF93EC01162F80915B0390915C03BE
:100D400020E030E0A901C817D90708F069C0309148
:100D50006703209164038091620390916303809004
:100D60006103432F50E0A0916503B0E0E09166037A
:100D7000CE2ED12C321392C09E01220F331F2C0F86
:100D80003D1F820F931F480F591FFA016081A80F62
:100D9000B91FFC90F601E80FF91F00818820B1F11E
:100DA000912CB12CA12C70E0762F6627072E000C19
:100DB000880B990BA50194010E9435173901552420
:100DC00044246F2D70E0762F6627072E000C880BC9
:100DD000990BA50194010E943517542F432F322FF0
:100DE0002227422A532A642A752A602F70E0762F20
:100DF0006627072E000C880B990BA50194010E9411
:100E0000351724293529462957290AC02F2D30E0C6
:100E100050E040E0542F432F322F2227462B202B27
:100E2000CA01AA27BB27C32ED42EE52EFF247C2D72
:100E300060E08B3048F0819FA001112457FF02C071
:100E400041505F4F682F651B40E07B3048F0C19EEA
:100E5000C001112497FF02C081509F4F4C2D491BA8
:100E60002B3008F486C0219FC001112497FF02C0D7
:100E700081509F4F291BCE01DF91CF911F910F9180
:100E8000FF90EF90DF90CF90BF90AF909F908F90AA
:100E90007F906F905F904F900C945701BE01660F4A
:100EA000771F660F771F860F971F480F591FFA018C
:100EB0006081280F392F311DF901E080A80FB91F7B
:100EC0000C91F601E80FF91FF080882009F446C064
:100ED000912CB12CA12C70E0762F6627072E000CE8
:100EE000880B990BA50194010E943517722E662478
:100EF000552444246E2D70E0762F6627072E000CB3
:100F0000880B990BA50194010E943517A90133277D
:100F10002227422A532A642A752A6F2D70E0762FE1
:100F20006627072E000C880B990BA50194010E94DF
:100F30003517422A532A642A752A602F70E0762FCB
:100F40006627072E000C880B990BA50194010E94BF
:100F50003517542F432F322F222753CF2E2D30E019
:100F600050E040E0A90133272227562B2F29302BB0
:100F700057CF20E080CFE9E5F3E04481558170E070
:100F800060E0818592850C94B918FC0101900020E5
:100F9000E9F73197AF01481B590BBC0187E792E095
:100FA0000C94CC048F929F92AF92BF920F931F9399
:100FB000CF93DF93CDB7DEB7A1970FB6F894DEBF1E
:100FC0000FBECDBF19A2423008F44AE08E010F5D7A
:100FD0001F4F842E912CB12CA12CA50194010E94AD
:100FE0003517E62FB901CA01EA30F4F4E05DD80103
:100FF000EE938D01232B242B252B79F790E080E0B5
:10100000109719F0CD010E94C507A1960FB6F8946C
:10101000DEBF0FBECDBFDF91CF911F910F91BF906B
:10102000AF909F908F900895E95CE1CFCF92DF92CF
:10103000EF92FF92CF93DF936C01990FEE08FF08B8
:10104000F7FE1FC06DE287E792E00E946C05EC019D
:1010500066277727CB016C197D098E099F094AE025
:101060000E94D207C80FD91F86ED91E00E94C507E4
:101070008C0F9D1FDF91CF91FF90EF90DF90CF906D
:1010800008954AE0C701B6010E94D207EC01ECCFF7
:101090000F931F93CF93DF938C01D0E0C0E0F80152
:1010A000EC0FFD1F6491662341F087E792E00E94F8
:1010B0006C05892B11F02196F2CF86ED91E00E940C
:1010C000C5078C0F9D1FDF91CF911F910F91089540
:1010D0001F920F920FB60F9211242F933F938F936D
:1010E0009F93AF93BF9380916F0290917002A091F4
:1010F0007102B091720230916E0223E0230F2D37FE
:1011000058F50196A11DB11D20936E0280936F02C8
:1011100090937002A0937102B09372028091730257
:1011200090917402A0917502B09176020196A11D72
:10113000B11D8093730290937402A0937502B093D3
:101140007602BF91AF919F918F913F912F910F9018
:101150000FBE0F901F90189526E8230F0296A11D31
:10116000B11DD2CF1F920F920FB60F9211242F9361
:101170003F934F935F936F937F938F939F93AF931F
:10118000BF93EF93FF9387E792E00E944A05FF9198
:10119000EF91BF91AF919F918F917F916F915F91EF
:1011A0004F913F912F910F900FBE0F901F90189568
:1011B0001F920F920FB60F9211242F938F939F932C
:1011C000EF93FF93E0918702F09188028081E09194
:1011D0008D02F0918E0282FD1BC090818091900261
:1011E0008F5F8F7320919102821741F0E0919002FE
:1011F000F0E0E958FD4F958F80939002FF91EF91B9
:101200009F918F912F910F900FBE0F901F90189567
:101210008081F4CF1F920F920FB60F9211242F935B
:101220003F934F935F936F937F938F939F93AF936E
:10123000BF93EF93FF93E0913602F091370230971E
:1012400049F0A685B7858585968D91FF14C09C9140
:101250008923A1F4FF91EF91BF91AF919F918F915D
:101260007F916F915F914F913F912F910F900FBEA2
:101270000F901F9018959C91892361F7A389B489D9
:101280009C918589809589238C938689978901977C
:10129000F1F7608D718DA685B785558538E020E022
:1012A000CB010197F1F7822F90E095958795282F34
:1012B0004C91452309F02068315091F7868D81FDCE
:1012C00020958091350290E001968F739927309197
:1012D0003402381799F0A0913502B0E0AC50BE4FFF
:1012E0002C9380933502828D938D0197F1F7A3891A
:1012F000B4898C919589892B8C93ACCF868D816034
:10130000868FF1CF10927A021092790288EE93E0E4
:10131000A0E0B0E080937B0290937C02A0937D02DA
:10132000B0937E0286EB91E09093780280937702EF
:1013300085EC90E0909384028093830284EC90E0AB
:10134000909386028093850280EC90E090938802CF
:101350008093870281EC90E090938A0280938902C7
:1013600082EC90E090938C0280938B0286EC90E06C
:1013700090938E0280938D021092900210929102AF
:10138000109292021092930210925A0310926103EB
:10139000109268031092690310926A0310926B0313
:1013A00081E080936703809364031092650392E069
:1013B000909366038093590385E790E090935E03D2
:1013C00080935D030E94941790936303809362035C
:1013D000009709F4D0C025E7FC0111922A95E9F79E
:1013E00087E290E090935C0380935B0385E090E05C
:1013F0009093600380935F0380915A03882341F0A8
:1014000061E085E00E94E90160E085E00E949D01C5
:10141000E4E6F1E0E491F0E0EE0FFF1FEB5AFE4F3F
:101420008591949190936D0380936C03E6E4F1E0D1
:10143000E491E0936E0310923D0310923C0388EE1A
:1014400093E0A0E0B0E080933E0390933F03A0932D
:101450004003B093410388EC91E090933B03809369
:101460003A031092510310925003109253031092BA
:101470005203109255031092540310925703109286
:101480005603609158036E7F6D7F60935803669595
:10149000617081E0682783E00E949D0161E083E044
:1014A0000E94E901E4E4F1E0E491E0934A03E2E61A
:1014B000F1E0E491F0E0EE0FFF1FEB5AFE4F859153
:1014C000949190934C0380934B0360E082E00E94E0
:1014D000E9018091580381FD04C061E082E00E942F
:1014E0009D0182E080934603E3E4F1E0E491E09320
:1014F0004703E1E6F1E0E491F0E0EE0FFF1FE95C65
:10150000FE4F25913491309349032093480344EFD3
:1015100051E060E070E040931A0350931B03609326
:101520001C0370931D039AE0E8E1F1E0A8E2B3E048
:1015300001900D929A95E1F7109232038093330354
:1015400010923803109239038FEF80936F0310923B
:1015500071031092700310927B0310927A038FEF45
:101560009FEFDC018093760390937703A093780339
:10157000B0937903089510925E0310925D03109268
:101580005C0310925B0332CFCF93DF93CDB7DEB70E
:1015900062970FB6F894DEBF0FBECDBF789484B5C6
:1015A000826084BD84B5816084BD85B5826085BD5F
:1015B00085B5816085BD80916E00816080936E00ED
:1015C00010928100809181008260809381008091DF
:1015D0008100816080938100809180008160809390
:1015E00080008091B10084608093B1008091B00050
:1015F00081608093B00080917A00846080937A004B
:1016000080917A00826080937A0080917A00816074
:1016100080937A0080917A00806880937A0010929B
:10162000C100E0918702F091880282E08083E0911E
:101630008302F09184021082E0918502F09186028B
:1016400080E1808310928F02E0918B02F0918C02F6
:1016500086E08083E0918902F0918A028081806136
:101660008083E0918902F0918A0280818860808382
:10167000E0918902F0918A02808180688083E09104
:101680008902F0918A0280818F7D808310925503B8
:10169000109254031092530310925203109251036C
:1016A000109250038DE991E0909357038093560375
:1016B00090914603963108F047C02DEB30E030930F
:1016C0005103209350032BE931E0309353032093CF
:1016D00052032CE231E030935503209354032091C0
:1016E000680084E0983048F031E09E3008F430E043
:1016F00081E001C0880F3A95EAF7822B8093680059
:101700002DE630E0983050F02BE630E09E3030F09F
:101710002CE630E0963110F030E020E030934E03BC
:1017200020934D03292F30E0983008F07FC081E0EE
:1017300001C0880F9A95EAF780934F038091560372
:10174000909157030197F1F78091540390915503BD
:10175000892B49F1E0913602F091370223E0EA3318
:10176000F20709F1309739F0A389B4899C918589F2
:10177000809589238C93809158038E7F80935803A2
:1017800010923502109234028AE393E0909337026C
:1017900080933602E0914D03F0914E038081909149
:1017A0004F03892B808361E089E00E94E90160E0BA
:1017B0008EE00E94E90160E089E00E949D0189EDD0
:1017C00091E00E94C50786ED91E00E94C5078EEF6B
:1017D00090E00E9448088DEC90E00E9448088AE35F
:1017E00093E0909315038093140381E080932C037E
:1017F00070E060E08CE00E9477040E945A036B0165
:101800007C010E94660381111EC00E945A036C195C
:101810007D098E099F09613D77408105910598F406
:1018200060E070E0CB010E942703EBCF9E3040F4D4
:101830002850310981E001C0880F2A95EAF77CCF52
:101840002E503109F7CF68EC70E080E090E00E9404
:10185000270310923803809134038430A1F089303B
:1018600091F08CEB90E00E9448088BE990E00E9498
:1018700048088EE790E00E94480860E070E0CB01E5
:101880000E942703FACF60916103663021F1209115
:10189000620330916303615070E0C1F08FEF95E017
:1018A0000E946617F90140915D0350915E03CF01DC
:1018B000821B930B8417950758F44081469FC00103
:1018C000479F900D112490833196EDCF60E0EACFD1
:1018D00086E0809361030E94BB0780915F03909133
:1018E000600397FD08C061E00E94E90160E080911B
:1018F0005F030E949D0181E080935A030E9454027D
:1019000088E690E00E9448086AE070E086E00E9465
:10191000770461E070E081E10E947704332433941E
:101920000E945A032B013C010E945A036B017C0167
:101930004CEAC4164DE0D406E104F104B9F485EE96
:1019400091E00E94C5070E945A034AE00E94D20714
:1019500086ED91E00E94C5074FEF5FEF6FEF70E0FB
:1019600090E080E00E94E6000E9454020E945A0328
:10197000683873418105910508F446C080913A02A8
:1019800090913B02092E000CAA0BBB0B460157019C
:10199000881A990AAA0ABB0AD501C401833D910598
:1019A000A105B10588F180915B0390915C030397D9
:1019B000A0903802B0903902BA82A9828A159B059C
:1019C00018F1D0923B02C0923A028A159B0539F079
:1019D0004FEF5FEF6FEF70E0C5010E94E6000E94DD
:1019E000540240E050E0BA0189819A8101970E9437
:1019F000E6000E94540289819A81019690933902EF
:101A0000809338020E9416080E945A036B017C01E1
:101A1000DC01CB018C599143A109B10985389C4166
:101A2000A105B10508F0CAC1D701C601885C92437F
:101A3000A109B109813D9740A105B10508F057C042
:101A40008091470290914802A0914902B0914A02C8
:101A500046015701881A990AAA0ABB0AD501C4018E
:101A60004097A105B10508F442C0C0924702D09248
:101A70004802E0924902F0924A02A0900601B0901A
:101A80000701BA82A98280914602811182C795011D
:101A9000265F3F4F3A832983309307012093060145
:101AA000822F90E0B0E0A0E05C0199248824BA2F56
:101AB000A92F982F8827882A992AAA2ABB2A02E5C3
:101AC00011E0B501A401D8018D919D918D010E9475
:101AD000E600EAE6F1E0E017F10799F70E94540208
:101AE00029813A81253F310514F030924602D70111
:101AF000C6018C5B9443A109B109813D9740A105C2
:101B0000B10508F057C08091420290914302A09124
:101B10004402B091450246015701881A990AAA0A5F
:101B2000BB0AD501C4014097A105B10508F442C024
:101B3000C0924202D0924302E0924402F0924502E7
:101B4000A0900401B0900501BA82A982809141025F
:101B5000811152C795012B5F3F4F3A832983309300
:101B6000050120930401822F90E0B0E0A0E05C0129
:101B700099248824BA2FA92F982F8827882A992A50
:101B8000AA2ABB2A0AE311E0B501A401D8018D916C
:101B90009D918D010E94E600E2E5F1E0E017F1077A
:101BA00099F70E94540229813A81253F310514F0AA
:101BB00030924102D701C601805B9643A109B10969
:101BC000813D9740A105B10508F056C080913D02C6
:101BD00090913E02A0913F02B09140024601570110
:101BE000881A990AAA0ABB0AD501C4014097A1051F
:101BF000B10508F441C0C0923D02D0923E02E0928D
:101C00003F02F0924002A0900201B0900301BA821C
:101C1000A98280913C02811122C795012B5F3F4F21
:101C20003A8329833093030120930201822F90E0AD
:101C3000B0E0A0E07C01DD24CC24BA2FA92F982F9E
:101C40008827C82AD92AEA2AFB2A02E211E0B7012A
:101C5000A601D8018D919D918D010E94E600B1E011
:101C60000A331B07A1F70E945402E981FA81E53F7C
:101C7000F10514F030923C020E945A030091660272
:101C8000109167022091680230916902601B710B0C
:101C9000820B930B693271058105910508F48EC0A2
:101CA0000E945A03609366027093670280936802F1
:101CB0009093690280916502811141C0A09000015A
:101CC000B09001019501265F3F4F3A8329833093FD
:101CD000010120930001822F90E0B0E0A0E07C01A0
:101CE000DD24CC24BA2FA92F982F8827C82AD92AD7
:101CF000EA2AFB2A80915B0390915C03B701A6015D
:101D000001970E94E60080915B0390915C03B7010C
:101D1000A60102970E94E60080915B0390915C030C
:101D2000B701A60103970E94E6000E945402498170
:101D30005A814F3F51050CF441C0309265028091A9
:101D40000001909101010A979A8389839093010180
:101D500080930001E9818E2F90E0B0E0A0E07C014B
:101D6000DD24CC24BA2FA92F982F8827C82AD92A56
:101D7000EA2AFB2A80915B0390915C03B701A601DC
:101D800001970E94E60080915B0390915C03B7018C
:101D9000A60102970E94E60080915B0390915C038C
:101DA000B701A60103970E94E6000E945402298110
:101DB0003A812833310514F4109265020E945A03C7
:101DC0006B017C0138E0C31632E5D306E104F1046F
:101DD00071F048EAC41641E6D406E104F10439F092
:101DE00058E4C51651E7D506E104F10451F4109208
:101DF00058021092570282E390E090930B01809377
:101E00000A01D701C60188569244A109B109813B54
:101E10009643A105B10508F05EC00E945A030091E7
:101E20005302109154022091550230915602601BCA
:101E3000710B820B930B653671058105910508F4D2
:101E40004AC00E945A0360935302709354028093D5
:101E50005502909356020E94AB1624E230E040E017
:101E600050E00E940317660F771F66597E4FDB0113
:101E70000D90BC91A02DBA83A9832FEF4FEF6FEF88
:101E8000CD010E9457010E9454020E945A03009102
:101E90004F02109150022091510230915202601B6A
:101EA000710B820B930B653671058105910598F0D6
:101EB0000E945A0360934F02709350028093510224
:101EC0009093520220E040E060E089819A810E9474
:101ED00057010E945402D701C601845F9C44A109A6
:101EE000B10985319540A105B10520F1D701C601A1
:101EF0008C539A45A109B109813B9440A105B105D4
:101F0000C8F0D701C6018C549846A109B1098531A2
:101F10009540A105B10570F038EFC31A35E7D30A33
:101F2000E108F10845E1C41645E0D406E104F104F6
:101F300008F0B2C00E945A0300914B0210914C026B
:101F400020914D0230914E02601B710B820B930B5E
:101F5000603171058105910508F49EC00E945A0305
:101F600060934B0270934C0280934D0290934E020B
:101F700080915702811147C000910A0110910B0115
:101F8000065F1F4F10930B0100930A01B090580297
:101F9000BB2009F4C2C50F3F110509F054F5802F8D
:101FA00090E0B0E0A0E07C01DD24CC24BA2FA92F82
:101FB000982F8827C82AD92AEA2AFB2A1A82198246
:101FC00080910801909109018230910509F07AC54C
:101FD000B701A601E981FA81EE5AFE4F8081918115
:101FE0000E94E60089819A8102969A8389834297AA
:101FF00039F70E9454020F3F11050CF44DC0B11087
:102000004BC030925702E0900A01F0900B01BAE009
:10201000EB1AF108F0920B01E0920A018E2D90E08C
:10202000B0E0A0E05C01992488244427582F692F50
:102030007A2F842A952AA62AB72A8E28992AAA2A8C
:10204000BB2A1A82198200910801109109010330FC
:10205000110509F0CCC5B501A401E981FA81EE5A58
:10206000FE4F808191810E94E600E981FA813296DB
:10207000FA83E983729739F70E945402F8E3EF1666
:10208000F10454F410925702309258020150110991
:102090001093090100930801D301C2018C509B47A2
:1020A000A109B10987349540A105B10508F040C0E8
:1020B00048E450E05A83498310E000E00E94AB16E8
:1020C0002AE030E040E050E00E94031766307105DE
:1020D0008105910524F06AE0C8010E948A060F5F1D
:1020E0001F4F0432110551F7E980FA8058E0E51AD4
:1020F000F10809811A810432110530F420E04FEF14
:102100006FEFC8010E945701015011090E151F05FC
:1021100091F70E9454026AE070E080E090E00E9433
:10212000270389819A8101979A838983892B21F6D4
:10213000A3019201285E3048410951092F87388B4D
:10214000498B5A8B2D323C444105510508F071C032
:102150000E945A036B017C010E94AB166D837E8343
:102160008F8398870E94AB1669837A838B839C83C5
:102170000E94AB168090590290905A02A0905B0288
:10218000B0905C02A7019601281939094A095B0938
:102190002335334041055105E0F1C0925902D092F8
:1021A0005A02E0925B02F0925C022FEF30E040E0D6
:1021B00050E00E940317162F69817A818B819C81E0
:1021C0002FEF30E040E050E00E940317062F6D81B2
:1021D0007E818F8198852FEF30E040E050E00E94B3
:1021E0000317F62ED12CC12C212F402F6F2DC601A5
:1021F0000E9457010E94540263E070E080E090E08A
:102200000E942703BFEFCB1ADB0AE4E2CE16D1040B
:1022100059F78F849888A988BA8829E582162BE116
:102220009206A104B10408F40FC560E089E00E94A1
:102230009D01D301C2018C5F904DA109B109813785
:102240009741A105B105D0F50E945A0300915D02A6
:1022500010915E0220915F02309160024B015C019F
:10226000801A910AA20AB30A95018401033011056C
:102270002105310518F160935D0270935E02809331
:102280005F02909360020E94AB162AE030E040E0CB
:1022900050E00E940317663071058105910574F0C6
:1022A0000E94AB1627E230E040E050E00E940317A6
:1022B000CB0162E30E948A060E945402D301C2014C
:1022C0008851964FA109B10981379741A105B10500
:1022D00008F079C00E94AB1626E831E040E050E0FB
:1022E0000E9403179B01AC01265F3F4F4F4F5F4F8A
:1022F00029833A834B835C834AE050E05E874D87B5
:102300000E94AB1669877A878B879C870E94AB16E1
:102310004B015C010E94AB166B017C010E94AB1665
:102320006D837E838F83988769857A858B859C856D
:102330002FEF30E040E050E00E940317262EC50149
:10234000B4012FEF30E040E050E00E940317162F59
:10235000C701B6012FEF30E040E050E00E940317C4
:10236000062F6D817E818F81988524E230E040E0E8
:1023700050E00E940317CB01222D412F602F0E94B5
:1023800057010E9454028D859E8501979E878D87F7
:10239000892B09F0B5CF0E94AB162AE530E040E06A
:1023A00050E00E940317665F7F4F8F4F9F4F0E9440
:1023B00027030E94BB070E94540269817A818B81A6
:1023C0009C810E942703D301C20188589D40A140EF
:1023D000B109893E9340A105B10508F03FC01A82BA
:1023E000198210E000E00E94AB162AE030E040E0E5
:1023F00050E00E940317663071058105910524F0B5
:102400006FE0C8010E948A060F5F1F4F043211055A
:1024100051F709811A817801FFE0EF1AF1080432BF
:10242000110530F424ED41E26EEDC8010E94570120
:1024300001501109E016F10691F70E94540269E17A
:1024400070E080E090E00E94270329813A812F5FAD
:102450003F4F3A8329832834310519F6D301C2014D
:1024600088509A41A140B10985359442A105B10532
:1024700040F048EE44164AE7540641E06406710411
:10248000D0F040E05FEF6FEF70E086E290E00E94F6
:10249000E60040E05FEF6FEF70E085E290E00E94C1
:1024A000E60040E05FEF6FEF70E084E290E00E94B2
:1024B000E6000E945402D301C20188549042A14018
:1024C000B1098D3E9C42A105B10508F05BC00E9498
:1024D0005A030091610210916202209163023091CF
:1024E00064024B015C01801A910AA20AB30A9501A9
:1024F0008401053F11402105310508F443C0609374
:1025000061027093620280936302909364021E8260
:102510001D820E94AB164B015C010E94AB166B0141
:102520007C010E94AB1669837A838B839C83C501EF
:10253000B4012FEF30E040E050E00E940317162F67
:10254000C701B6012FEF30E040E050E00E940317D2
:10255000062F69817A818B819C812FEF30E040E0EA
:1025600050E00E940317212F402F8D819E810E94F1
:1025700057018D819E8101969E838D83849749F6B4
:102580000E945402D301C20184539D44A140B10969
:1025900081369940A105B10510F40E94BB07D30113
:1025A000C20184599645A140B10985319540A105E4
:1025B000B10508F059C01AE6E12E11E0F12E10E045
:1025C00000E02AE631E03A8329830E94AB162AE034
:1025D00030E040E050E00E9403176630710581054D
:1025E00091053CF065E0A981BA818D919C910E9492
:1025F0008A06E981FA813296FA83E983B2EB8B2E5F
:10260000B1E09B2E8E169F0601F71A8219828981EE
:102610009A81800F911F849768F4E981FA81EE0F07
:10262000FF1FEE0DFF1D2FEF4FEF6FEF80819181A8
:102630000E94570129813A81215031093A83298327
:10264000263F3F4F21F70E94540268E270E080E08D
:1026500090E00E9427030F5F1F4F52E0E50EF11C30
:102660000834110509F0ADCFD301C201885A9B454A
:10267000A140B10989329342A105B10508F013C107
:102680000E945A030E945A03009166021091670249
:102690002091680230916902601B710B820B930BD1
:1026A0006B3071058105910508F496C00E945A03AC
:1026B0006093660270936702809368029093690248
:1026C00080916502811145C080900C0190900D01B0
:1026D0009401265F3F4F3A83298330930D01209365
:1026E0000C01822F90E0B0E0A0E07C01DD24CC243E
:1026F0004427582F692F7A2FC42AD52AE62AF72A89
:10270000C22AD92AEA2AFB2A80915B0390915C03B2
:10271000B701A60101970E94E60080915B039091AA
:102720005C03B701A60102970E94E60080915B035B
:1027300090915C03B701A60103970E94E6000E94F6
:10274000540249815A814F3F51050CF445C03092E3
:10275000650280910C0190910D010A979A838983FB
:1027600090930D0180930C01E9818E2F90E0B0E0F1
:10277000A0E07C01DD24CC244427582F692F7A2F38
:10278000C42AD52AE62AF72ACE2AD92AEA2AFB2AF7
:1027900080915B0390915C03B701A60101970E94B1
:1027A000E60080915B0390915C03B701A60102975C
:1027B0000E94E60080915B0390915C03B701A60143
:1027C00003970E94E6000E94540229813A8128332F
:1027D000310514F4109265020E945A0300916A02B6
:1027E00010916B0220916C0230916D02601B710B95
:1027F000820B930B653671058105910508F453C072
:102800000E945A0360936A0270936B0280936C0279
:1028100090936D020E94AB166B017C010E94AB1677
:102820006D837E838F8398870E94AB164B015C017A
:102830000E94AB1669837A838B839C836D817E8132
:102840008F8198852FEF30E040E050E00E94031721
:102850006987C501B4012FEF30E040E050E00E94ED
:1028600003176D8369817A818B819C812FEF30E022
:1028700040E050E00E940317162FC701B60124E282
:1028800030E040E050E00E940317FB01EE0FFF1F15
:10289000E659FE4F29854D81612F808191810E94EB
:1028A00057010E9454028EE00E941A020E941608EC
:1028B00030ED43163EE7530631E06306710408F439
:1028C00056C08EE00E941A028D3092400CF4C9C1AD
:1028D0000E94AB166B017C010E94AB164B015C01A0
:1028E0000E94AB16A0915B03B0915C03BA83A983ED
:1028F0001097D9F1949720F0E4E2F0E0FA83E983AD
:102900002FEF30E040E050E00E9403173B015524D8
:102910004424442455247724C501B4012FEF30E02A
:1029200040E050E00E940317982F872F762F6627EC
:1029300088279927462A572A682A792AC701B60183
:102940002FEF30E040E050E00E940317462A10E0ED
:1029500000E0B301A201C8010E94E6000F5F1F4F13
:1029600089809A8080169106A1F70E94540280E027
:10297000A82E80E0B82EAB2811F40C94900C0E9485
:102980003605882311F40C948E0C0E9400000C94E0
:102990008E0C49815A81483251050CF4A8C84A501E
:1029A00051095093070140930601842F90E0B0E055
:1029B000A0E05C0199248824BA2FA92F982F88279A
:1029C000882A992AAA2ABB2A82E591E09A838983D8
:1029D000B501A401A981BA818D919D91BA83A98382
:1029E0000E94E600EAE6F1E029813A81E217F30766
:1029F00079F70E9454027BC849815A8148325105B7
:102A00000CF4D8C845505109509305014093040176
:102A1000842F90E0B0E0A0E05C0199248824BA2FD4
:102A2000A92F982F8827882A992AAA2ABB2A8AE3BD
:102A300091E09A838983B501A401A981BA818D911E
:102A40009D91BA83A9830E94E600E2E5F1E0298125
:102A50003A81E217F30779F70E945402ABC8298143
:102A60003A81283231050CF407C92A5031093093D4
:102A7000030120930201822F90E0B0E0A0E07C01EE
:102A8000DD24CC24BA2FA92F982F8827C82AD92A29
:102A9000EA2AFB2A42E251E05A834983B701A601A0
:102AA000A981BA818D919D91BA83A9830E94E60084
:102AB000EAE3F1E089809A80E815F90579F70E9448
:102AC0005402DAC88130910539F4B701A601E981D1
:102AD000FA81E65CFE4F82CA009739F4B701A6017D
:102AE000E981FA81EE5DFE4F79CA019609F07ACA52
:102AF000B701A601E981FA81EE5AFE4F80819181EA
:102B00000E94E600B701A601E981FA81E65CFE4F6A
:102B1000808191810E94E600E1CF802F90E0B0E0BB
:102B2000A0E07C01DD24CC244427582F692F7A2F84
:102B3000C42AD52AE62AF72AC02AD92AEA2AFB2A51
:102B40001A8219828091080190910901B701A601AA
:102B50008330910571F082309105D9F4E981FA81D1
:102B6000E65CFE4F808191810E94E60040E050E0EB
:102B7000BA01E981FA81EE5AFE4F808191810E946B
:102B8000E600A981BA811296BA83A9835297D1F639
:102B900030CA8130910581F4E981FA81EE5DFE4F02
:102BA000808191810E94E60040E050E0BA01E98115
:102BB000FA81E65CFE4FE1CF892B19F7E981FA81B2
:102BC000EE5AFE4F808191810E94E600B701A60176
:102BD000E981FA81E65CFE4F808191810E94E600E6
:102BE000B701A601E981FA81EE5DFE4FC6CF023042
:102BF000110539F4B501A401E981FA81E65CFE4FC3
:102C000030CA0130110539F4B501A401E981FA8116
:102C1000EE5DFE4F26CA0115110509F026CAB50161
:102C2000A401E981FA81EE5AFE4F808191810E94D0
:102C3000E600B501A401E981FA81E65CFE4F8081DE
:102C400091810E94E600E0CF61E089E00E949D0151
:102C500030E443163CE953066104710409F0E9CA03
:102C6000E4CA0E94BB0781CE88EC91E090933B03BD
:102C700080933A0380913602909137028A539340B1
:102C800071F4E0914D03F0914E03908180914F03D8
:102C900080958923808310923702109236028091AA
:102CA0006203909163030E94301880915F039091BA
:102CB000600397FD03C060E00C94E90108958F92D2
:102CC0009F92AF92BF92CF92DF92EF92FF92CF93FB
:102CD000DF93EC01688179818A819B81611571059F
:102CE0008105910521F464E279ED8BE597E02DE112
:102CF00033EF41E050E00E94031749015A019B0164
:102D0000AC01A7EAB1E40E9422176B017C01ACEE92
:102D1000B4EFA50194010E943017C60ED71EE81E1D
:102D2000F91EF7FE06C081E0C81AD108E10880E864
:102D3000F80AC882D982EA82FB82C701B6019F776E
:102D4000DF91CF91FF90EF90DF90CF90BF90AF9049
:102D50009F908F9008958F929F92AF92BF92CF9243
:102D6000DF92EF92FF9260910E0170910F018091BE
:102D7000100190911101611571058105910521F4F2
:102D800064E279ED8BE597E02DE133EF41E050E02F
:102D90000E94031749015A019B01AC01A7EAB1E463
:102DA0000E9422176B017C01ACEEB4EFA5019401E7
:102DB0000E943017C60ED71EE81EF91EF7FE06C089
:102DC00081E0C81AD108E10880E8F80AC0920E0133
:102DD000D0920F01E0921001F0921101C701B601EB
:102DE0009F77FF90EF90DF90CF90BF90AF909F9034
:102DF0008F90089560930E0170930F0180931001DE
:102E0000909311010895052E97FB1EF400940E94E3
:102E10001A1757FD07D00E94351707FC03D04EF450
:102E20000C941A1750954095309521953F4F4F4F70
:102E30005F4F089590958095709561957F4F8F4F66
:102E40009F4F08950E945717A59F900DB49F900D16
:102E5000A49F800D911D11240895B7FF0C94221793
:102E60000E942217821B930B0895A1E21A2EAA1B1F
:102E7000BB1BFD010DC0AA1FBB1FEE1FFF1FA2172A
:102E8000B307E407F50720F0A21BB30BE40BF50B27
:102E9000661F771F881F991F1A9469F760957095B0
:102EA000809590959B01AC01BD01CF010895A29F33
:102EB000B001B39FC001A39F700D811D1124911D0E
:102EC000B29F700D811D1124911D0895AA1BBB1B7B
:102ED00051E107C0AA1FBB1FA617B70710F0A61B1A
:102EE000B70B881F991F5A95A9F780959095BC013B
:102EF000CD01089597FB072E16F4009407D077FDB7
:102F000009D00E94661707FC05D03EF49095819584
:102F10009F4F0895709561957F4F0895EE0FFF1FA5
:102F20000590F491E02D09940F931F93CF93DF93B5
:102F30008230910510F482E090E0E0917E03F09100
:102F40007F0330E020E0B0E0A0E0309799F4211555
:102F5000310509F44AC0281B390B24303105D8F556
:102F60008A819B816115710589F1FB0193838283BD
:102F7000FE0111C040815181028113814817590718
:102F8000E0F04817590799F4109761F012960C93E6
:102F9000129713961C933296CF01DF91CF911F9118
:102FA0000F91089500937E0310937F03F4CF2115B2
:102FB000310551F04217530738F0A901DB019A019E
:102FC000BD01DF01F801C1CFEF01F9CF90937F037D
:102FD00080937E03CDCFFE01E20FF31F8193919387
:102FE0002250310939832883D7CF20917C03309137
:102FF0007D03232B41F4209114013091150130936E
:103000007D0320937C03209112013091130121153F
:10301000310541F42DB73EB740911601509117018B
:10302000241B350BE0917C03F0917D03E217F3073D
:10303000A0F42E1B3F0B2817390778F0AC014E5F28
:103040005F4F2417350748F04E0F5F1F50937D03E5
:1030500040937C03819391939FCFF0E0E0E09CCF7D
:10306000CF93DF930097E9F0FC013297138212822D
:10307000A0917E03B0917F03ED0130E020E0109736
:10308000A1F420813181820F931F20917C03309124
:103090007D032817390709F061C0F0937D03E093A1
:1030A0007C03DF91CF910895EA01CE17DF07E8F5A1
:1030B0004A815B819E0141155105B1F7E901FB830E
:1030C000EA8349915991C40FD51FEC17FD0761F4AC
:1030D000808191810296840F951FE90199838883ED
:1030E000828193819B838A83F0E0E0E012968D9148
:1030F0009C9113970097B9F52D913C911197CD01B3
:103100000296820F931F20917C0330917D03281734
:10311000390739F6309751F510927F0310927E03EC
:10312000B0937D03A0937C03BCCFD383C283408143
:103130005181840F951FC817D90761F44E5F5F4F07
:1031400088819981480F591F518340838A819B81CF
:10315000938382832115310509F0B0CFF0937F036B
:10316000E0937E039ECFFD01DC01C0CF138212826B
:10317000D7CFDC0101C06D9341505040E0F7089576
:1031800010E0CBEBD0E004C0FE010E948E17219628
:0A319000CC3BD107C9F7F894FFCF3C
:10319A003200280028002800030032003200010013
:1031AA0000000000800380007EFF0600010000008E
:1031BA0000EF000001000200030004000500060001
:1031CA000700080009000A000B000C000D000E00A1
:1031DA000F00100011001200130014001500160051
:1031EA001700180019001A001B001C001D001E0001
:1031FA001F0020002100220023000000010002001D
:10320A0003000400050006000700080009000A0080
:10321A000B000C000D000E000F0010001100120030
:10322A0013001400150016001700180019001A00E0
:10323A001B001C001D001E001F0020002100220090
:10324A002300000000006C05CC04F904B9052A0526
:10325A0008051C0500000000F205CC048706F105EC
:10326A004E066606D9050D0A005374617274696EBA
:10327A00672E2E2E006D696C6C692031303030213A
:04328A0021213A00C4
:00000001FF
