:100000000C94BC000C94E4000C94E4000C94C7071E
:100010000C94C7070C94C7070C94E4000C94E400FC
:100020000C94E4000C94E4000C94E4000C94E400C0
:100030000C94E4000C94E4000C94E4000C94E400B0
:100040000C9425070C94E4000C9495070C946F070E
:100050000C94E4000C94E4000C94E4000C94E40090
:100060000C94E4000C94E4004446506C6179657291
:10007000204D696E69206F6E6C696E652E00322EA0
:10008000506C6561736520696E7365727420746865
:100090006520534420636172642100312E506C65E9
:1000A000617365207265636865636B2074686520A1
:1000B000636F6E6E656374696F6E2100556E616269
:1000C0006C6520746F20626567696E3A00496E69DD
:1000D0007469616C697A696E67204446506C617915
:1000E0006572202E2E2E20284D61792074616B655B
:1000F00020337E35207365636F6E64732900444638
:10010000526F626F74204446506C61796572204D65
:10011000696E692044656D6F0000000000240027AF
:10012000002A00000000080002010000030407008C
:10013000000000000000000000000023002600294D
:100140000001020408102040800102040810200170
:10015000020408102000000000250028002B0004E5
:10016000040404040404040202020202020303035E
:10017000030303003F083B0D11241FBECFEFD8E05F
:10018000DEBFCDBF11E0A0E0B1E0EAE3FEE102C0D6
:1001900005900D92A636B107D9F722E0A6E6B1E0A8
:1001A00001C01D92AB3CB207E1F710E0CBEBD0E011
:1001B00004C02197FE010E94DE0DCA3BD107C9F79A
:1001C0000E9481090C94100F0C9400008F929F9252
:1001D000AF92BF92CF92DF92EF92FF92CF93209196
:1001E000A6023091A70282179307E8F54B01AA24D3
:1001F000BB24C82DC52ED62EE72EFF24BC2DA42F40
:100200002091AC02222361F0829E40011124C92D6D
:100210002C9D60011124BD2D249FF0011124AF2FCE
:10022000E091B202E090AD02F090AE023091AF02E8
:10023000E31323C09C01220F331F820F931F8E0DE7
:100240009F1DE091AF02E80FF92FF11DC083E091EF
:10025000B002E80FF92FF11DB0832091B102820F97
:10026000911DFC01A083CF91FF90EF90DF90CF9084
:10027000BF90AF909F908F900895880F991F880F1F
:10028000991F8E0D9F1D472F5527662777272223FD
:1002900049F030E0249F7001259FF00C349FF00C52
:1002A00011244F2DE80FF92FF11D4083CACF80E4B0
:1002B00080937C0080917A00806480937A008091A2
:1002C0007A0086FDFCCF80917800909179000895A6
:1002D00090E0FC01ED5DFE4F2491FC01EF5BFE4FD1
:1002E0003491FC01E15AFE4FE491EE23C9F0222340
:1002F00039F0233001F1A8F4213019F1223029F12D
:10030000F0E0EE0FFF1FEB5AFE4FA591B4918FB7AF
:10031000F894EC91611126C030953E233C938FBF39
:1003200008952730A9F02830C9F0243049F780918A
:1003300080008F7D03C0809180008F778093800044
:10034000DFCF84B58F7784BDDBCF84B58F7DFBCFC6
:100350008091B0008F778093B000D2CF8091B000B1
:100360008F7DF9CF3E2BDACFCF93DF9390E0FC0166
:10037000EF5BFE4F2491815A9E4FFC0184918823AC
:10038000D1F090E0880F991FFC01E75EFE4FA59128
:10039000B491FC01EB5AFE4FC591D49161110EC08E
:1003A0009FB7F8948C91E22FE0958E238C9328814F
:1003B000E223E8839FBFDF91CF9108958FB7F89430
:1003C000EC91E22BEC938FBFF6CF3FB7F89480917E
:1003D000BE019091BF01A091C001B091C10126B5AD
:1003E000A89B05C02F3F19F00196A11DB11D3FBF6D
:1003F000BA2FA92F982F8827BC01CD01620F711D3C
:10040000811D911D42E0660F771F881F991F4A9535
:10041000D1F708950F931F93CF93DF93CDB7DEB736
:1004200029970FB6F894DEBF0FBECDBF8091AD0205
:100430009091AE02892B09F47CC00E94E5010091E5
:10044000B3021091B4022091B5023091B602601748
:1004500071078207930740F46093B3027093B4026C
:100460008093B5029093B6020091B3021091B4024A
:100470002091B5023091B602601B710B820B930B79
:100480006C32714081059105C0F2F8948091A80208
:100490009091A9029A838983E091AD02F091AE0216
:1004A000DF011196808189879091A402E091B702C3
:1004B000F091B8028091B902992309F445C0908166
:1004C000982B98879081809589238F838F818C8347
:1004D00088E08B8358856F8149853B812C81898198
:1004E0009A81508347FD252F3A952083262F39F096
:1004F000441F00C000006083000000C0F2CF38E05D
:100500004D9160830000019761F7F093B802E0938A
:10051000B70249873B832C839A83898378940E940E
:10052000E5016093B3027093B4028093B502909397
:10053000B60229960FB6F894DEBF0FBECDBFDF918D
:10054000CF911F910F9108959081982B988790815A
:10055000809589238F838F818E8388E08D83588552
:100560006F8149853D812E8189819A81508347FD24
:10057000252F00C000C0208300C000C000C000C004
:1005800000C060830000262F3A9541F0441F000010
:1005900000C000C000C000C000C0E8CF38E04D91EE
:1005A00000C0608300C0019709F7F093B802E093A0
:1005B000B70249873D832E83AFCF8F929F92AF9230
:1005C000BF92CF92DF92EF92FF926B017C010E946B
:1005D000E5014B015C01C114D104E104F104B9F05F
:1005E0000E94E501681979098A099B09683E7340F0
:1005F0008105910580F321E0C21AD108E108F108D4
:1006000088EE880E83E0981EA11CB11CE4CFFF90F9
:10061000EF90DF90CF90BF90AF909F908F90089514
:100620002FB7F8946091BA017091BB018091BC0121
:100630009091BD012FBF08950F931F9380915F028A
:1006400090916002DC01ED91FC910084F185E02D38
:100650000995892B09F4D7C060E070E0CB010E94B6
:10066000DD0220917D0280915F0290916002DC01A9
:10067000ED91FC910284F385E02D21110BC00995C9
:10068000809369028E37D1F680917D028F5F8093CF
:100690007D02D4CF099590917D02E92FF0E0E15AD7
:1006A000FD4F82879230B9F09930D9F09130A9F49A
:1006B0008F3F99F010927D0281E080937F0210922B
:1006C000820210928102809383021092840280E061
:1006D0001F910F910895863069F79F5F90937D0277
:1006E000ADCF8F3E39F720916B0280916A02280FBF
:1006F0003327331FE0916C02C9018E0F911D2091A9
:100700006D02280F392F311D40916E0250E0240FE9
:10071000351F80916F0290E06091700270E0762F3B
:100720006627F09171026F0F711D280F391F3195E7
:10073000219531096217730709F0BCCF10927D0231
:10074000E13419F4109284022FC0E0938002542FF8
:100750004427840F951F9093820280938102EA536D
:10076000E63108F046C0F0E0E854FC4F0C94DE0D92
:10077000E503ED03F703CE03F703D703F503F9030E
:10078000F703F703F703F703F703F703F703F70399
:10079000F903F703F703F703F703F70385E0809303
:1007A0007F0281E0809383028091830291CF80FF5A
:1007B00002C089E0F4CF81FF02C084E0F0CF8370F3
:1007C0009927892B89F38AE0EACF80FF02C087E06E
:1007D000E6CF81FFE9CF82E0E2CF80FF02C088E070
:1007E000DECF81FFE1CF83E0DACF86E0D8CF8BE0A8
:1007F000D6CF81E080937F02109282021092810214
:10080000809383029FCF80918402882369F20E94A3
:1008100010030091610210916202209163023091F5
:100820006402601B710B820B930B009165021091A7
:100830006602209167023091680260177107820793
:10084000930708F4B1CF10927D0210927F021092AC
:1008500082021092810281E036CF80937602272FA8
:1008600030E0709378026093790240917502909124
:100870007402490F5527551F840F952F911D4091E4
:100880007702840F911D820F931F680F792F711DBE
:1008900071956195710970937A0260937B0244238C
:1008A00061F080918402882341F060E070E0CB0128
:1008B0000E94DD020E941C03F4CF80915F029091A0
:1008C0006002DC01ED91FC910280F381E02D4AE0B1
:1008D00050E063E772E009950E94100360936102A3
:1008E0007093620280936302909364028091770216
:1008F00091E0811101C090E090938402811106C0C3
:100900006AE070E080E090E00C94DD0208958F9240
:100910009F92AF92BF92CF92DF92EF92FF92CF93CE
:100920006B017C010E9410034B015C01C114D104D6
:10093000E104F10441F4C0906502D0906602E090B9
:100940006702F09068020E941C03C82F811111C039
:100950000E941003681979098A099B09C616D706EF
:10096000E806F90630F060E070E0CB010E94DD029D
:10097000EACF8C2FCF91FF90EF90DF90CF90BF9078
:10098000AF909F908F900895AF92BF92CF92DF92D9
:10099000EF92FF920F931F93CF93DF936C017B0134
:1009A0008B01040F151FEB015E01AE18BF08C017C5
:1009B000D10759F06991D601ED91FC910190F08138
:1009C000E02DC6010995892B79F7C501DF91CF91FB
:1009D0001F910F91FF90EF90DF90CF90BF90AF905D
:1009E0000895FC01538D448D252F30E0842F90E035
:1009F000821B930B541710F0CF960895019708951A
:100A0000FC01918D828D981761F0A28DAE0FBF2FE2
:100A1000B11D5D968C91928D9F5F9F73928F90E038
:100A200008958FEF9FEF0895FC01918D828D9817A7
:100A300031F0828DE80FF11D858D90E008958FEFE4
:100A40009FEF0895FC01918D228D892F90E0805CAD
:100A50009F4F821B91098F739927089582EC91E033
:100A60000E94220521E0892B09F420E0822F0895BD
:100A700080E090E0892B29F00E942E0581110C94D2
:100A800000000895FC01A48DA80FB92FB11DA35A31
:100A9000BF4F2C91848D90E001968F739927848F9E
:100AA000A689B7892C93A089B1898C9183708064C1
:100AB0008C93938D848D981306C00288F389E02D62
:100AC00080818F7D80830895EF92FF920F931F9313
:100AD000CF93DF93EC0181E0888F9B8D8C8D9813F1
:100AE0001AC0E889F989808185FF15C09FB7F894FD
:100AF000EE89FF896083E889F98980818370806449
:100B000080839FBF81E090E0DF91CF911F910F9193
:100B1000FF90EF900895F62E0B8D10E00F5F1F4FA2
:100B20000F731127E02E8C8D8E110CC00FB607FCB1
:100B3000FACFE889F989808185FFF5CFCE010E943F
:100B40004205F1CFEB8DEC0FFD2FF11DE35AFF4F66
:100B5000F0829FB7F8940B8FEA89FB8980818062CD
:100B6000CFCFCF93DF93EC01888D8823B9F0AA898A
:100B7000BB89E889F9898C9185FD03C0808186FD58
:100B80000DC00FB607FCF7CF8C9185FFF2CF8081A7
:100B900085FFEDCFCE010E944205E9CFDF91CF91D5
:100BA00008952091A8013091A9012817390771F4FF
:100BB0009091A6018091A701981741F0E091A601BC
:100BC000F0E0EA59FE4F808190E008958FEF9FEFAB
:100BD00008950895EF92FF920F931F93CF93DF93A1
:100BE000DC015C96ED90FC905D97E114F10479F4E2
:100BF00081E090E013969C938E93129790E080E0B2
:100C0000DF91CF911F910F91FF90EF900895519632
:100C1000ED91FC91529750968C915097982F90950A
:100C20000FB75E962C915E97122F127021FD609582
:100C3000F8942081112319F1282B2083E7012197B3
:100C4000F1F728E0462F50E0308160FF1AC0382BC2
:100C50003083E7012197F1F7BA0175956795215027
:100C600089F7112381F08081892380830FBF5C96EF
:100C70008D919C910197F1F781E090E0C1CF2923FC
:100C8000DCCF3923E5CF9081892BEFCF2091A801CC
:100C90003091A9012817390771F48091A70120919B
:100CA000A60190E0805C9F4F821B910960E470E098
:100CB0000E94CA0D089590E080E008952091A80157
:100CC0003091A90128173907B9F49091A6018091B4
:100CD000A701981789F0E091A601F0E0EA59FE4FCC
:100CE00080812091A60130E02F5F3F4F2F73332783
:100CF0002093A60190E008958FEF9FEF089590E074
:100D000080E00895FC0101900020E9F73197AF01E0
:100D1000481B590BBC0182EC91E00C94C4048F92E7
:100D20009F92AF92BF920F931F93CF93DF93CDB754
:100D3000DEB7A1970FB6F894DEBF0FBECDBF19A2E4
:100D4000423008F44AE08E010F5D1F4F842E912C33
:100D5000B12CA12CA50194010E94850DE62FB901AB
:100D6000CA01EA30F4F4E05DD801EE938D01232B43
:100D7000242B252B79F790E080E0109719F0CD0116
:100D80000E948206A1960FB6F894DEBF0FBECDBFBB
:100D9000DF91CF911F910F91BF90AF909F908F9057
:100DA0000895E95CE1CFCF92DF92EF92FF92CF936B
:100DB000DF936C01990FEE08FF08F7FE1FC06DE28C
:100DC00082EC91E00E946405EC0166277727CB0155
:100DD0006C197D098E099F094AE00E948F06C80F91
:100DE000D91F88E391E00E9482068C0F9D1FDF913E
:100DF000CF91FF90EF90DF90CF9008954AE0C70128
:100E0000B6010E948F06EC01ECCF0F931F93CF9396
:100E1000DF938C01D0E0C0E0F801EC0FFD1F64917E
:100E2000662341F082EC91E00E946405892B11F069
:100E30002196F2CF88E391E00E9482068C0F9D1FDD
:100E4000DF91CF911F910F9108951F920F920FB6CE
:100E50000F9211242F933F938F939F93AF93BF9340
:100E60008091BA019091BB01A091BC01B091BD01EC
:100E70003091B90123E0230F2D3758F50196A11DBC
:100E8000B11D2093B9018093BA019093BB01A09347
:100E9000BC01B093BD018091BE019091BF01A091B2
:100EA000C001B091C1010196A11DB11D8093BE0189
:100EB0009093BF01A093C001B093C101BF91AF91C6
:100EC0009F918F913F912F910F900FBE0F901F9088
:100ED000189526E8230F0296A11DB11DD2CF1F92AF
:100EE0000F920FB60F9211242F933F934F935F935E
:100EF0006F937F938F939F93AF93BF93EF93FF93E2
:100F000082EC91E00E944205FF91EF91BF91AF9179
:100F10009F918F917F916F915F914F913F912F9111
:100F20000F900FBE0F901F9018951F920F920FB643
:100F30000F9211242F938F939F93EF93FF93E09140
:100F4000D201F091D3018081E091D801F091D901D3
:100F500082FD1BC090818091DB018F5F8F73209198
:100F6000DC01821741F0E091DB01F0E0EE53FE4F2F
:100F7000958F8093DB01FF91EF919F918F912F913E
:100F80000F900FBE0F901F9018958081F4CF1F9285
:100F90000F920FB60F9211242F933F934F935F93AD
:100FA0006F937F938F939F93AF93BF93EF93FF9331
:100FB000E091A801F091A901309749F0A685B78585
:100FC0008585968D91FF14C09C918923A1F4FF9192
:100FD000EF91BF91AF919F918F917F916F915F91B1
:100FE0004F913F912F910F900FBE0F901F9018952A
:100FF0009C91892361F7A389B4899C918589809507
:1010000089238C93868997890197F1F7608D718D7B
:10101000A685B785558538E020E0CB010197F1F72B
:10102000822F90E095958795282F4C91452309F0C4
:101030002068315091F7868D81FD20958091A70120
:1010400090E001968F7399273091A601381799F097
:10105000A091A701B0E0AA59BE4F2C938093A7019D
:10106000828D938D0197F1F7A389B4898C9195892D
:10107000892B8C93ACCF868D8160868FF1CF1092B7
:10108000C5011092C40188EE93E0A0E0B0E0809327
:10109000C6019093C701A093C801B093C90188E12C
:1010A00091E09093C3018093C20185EC90E090930E
:1010B000CF018093CE0184EC90E09093D101809396
:1010C000D00180EC90E09093D3018093D20181EC29
:1010D00090E09093D5018093D40182EC90E09093BE
:1010E000D7018093D60186EC90E09093D90180934C
:1010F000D8011092DB011092DC011092DD011092F8
:10110000DE011092A5021092AC021092B30210926E
:10111000B4021092B5021092B60281E08093B2023E
:101120008093AF021092B00292E09093B10280934C
:10113000A40281E290E09093A9028093A8020E9409
:10114000EB0D9093AE028093AD02009709F4D0C0EE
:1011500021E2FC0111922A95E9F78BE090E090934F
:10116000A7028093A60285E090E09093AB02809363
:10117000AA028091A502882341F061E085E00E94E7
:10118000B40160E085E00E946801E4E6F1E0E491EA
:10119000F0E0EE0FFF1FEB5AFE4F85919491909374
:1011A000B8028093B702E6E4F1E0E491E093B9027B
:1011B000109288021092870288EE93E0A0E0B0E0DF
:1011C0008093890290938A02A0938B02B0938C0241
:1011D0008AE291E0909386028093850210929C02AD
:1011E00010929B0210929E0210929D021092A002F9
:1011F00010929F021092A2021092A1026091A3028B
:101200006E7F6D7F6093A3026695617081E06827B1
:101210008BE00E94680161E08BE00E94B401ECE485
:10122000F1E0E491E0939502EAE6F1E0E491F0E088
:10123000EE0FFF1FEB5AFE4F85919491909397020A
:101240008093960260E08AE00E94B4018091A3023C
:1012500081FD04C061E08AE00E9468018AE0809319
:101260009102EBE4F1E0E491E0939202E9E6F1E02F
:10127000E491F0E0EE0FFF1FE95CFE4F2591349101
:10128000309394022093930244EF51E060E070E0C9
:101290004093650250936602609367027093680200
:1012A000EAE0F1E0A3E7B2E001900D928A95E1F760
:1012B00010927D0282E080937E021092830210924F
:1012C00084028FEF8093BA021092BC021092BB028C
:1012D0001092C6021092C5028FEF9FEFDC0180933F
:1012E000C1029093C202A093C302B093C4020895B6
:1012F0001092A9021092A8021092A7021092A602C0
:1013000032CF789484B5826084BD84B5816084BD19
:1013100085B5826085BD85B5816085BD80916E0093
:10132000816080936E0010928100809181008260C4
:101330008093810080918100816080938100809101
:1013400080008160809380008091B10084608093F0
:10135000B1008091B00081608093B00080917A00EC
:10136000846080937A0080917A00826080937A0012
:1013700080917A00816080937A0080917A00806801
:1013800080937A001092C100E091D201F091D301D4
:1013900082E08083E091CE01F091CF011082E09154
:1013A000D001F091D10180E180831092DA01E091C7
:1013B000D601F091D70186E08083E091D401F091CD
:1013C000D501808180618083E091D401F091D501C5
:1013D000808188608083E091D401F091D501808183
:1013E00080688083E091D401F091D50180818F7D68
:1013F00080831092A00210929F0210929E0210927F
:101400009D0210929C0210929B028DE991E09093B4
:10141000A2028093A10290919102963108F047C0F8
:101420002DEB30E030939C0220939B022BE931E0BE
:1014300030939E0220939D022CE231E03093A00273
:1014400020939F022091680084E0983048F031E0BA
:101450009E3008F430E081E001C0880F3A95EAF749
:10146000822B809368002DE630E0983050F02BE618
:1014700030E09E3030F02CE630E0963110F030E075
:1014800020E03093990220939802292F30E0983081
:1014900008F084C081E001C0880F9A95EAF7809334
:1014A0009A028091A1029091A2020197F1F7809196
:1014B0009F029091A002892B49F1E091A801F0913F
:1014C000A90122E0E538F20709F1309739F0A38944
:1014D000B4899C918589809589238C938091A302FE
:1014E0008E7F8093A3021092A7011092A60185E837
:1014F00092E09093A9018093A801E0919802F09165
:101500009902808190919A02892B808360E08EE01D
:101510000E94B4018BE391E00E94820688E391E08F
:101520000E9482068EEF90E00E9405078DEC90E00D
:101530000E94050785E892E09093600280935F0225
:1015400081E08093770270E060E08CE00E942D04DF
:1015500060ED77E080E090E00E94870468EC70E046
:1015600080E090E00E94DD021092830280917F0271
:10157000843009F18930F9F08CEB90E00E94050786
:101580008BE990E00E9405078EE790E00E94050736
:1015900060E070E0CB010E94DD02FACF9E3040F4A3
:1015A0002850310981E001C0880F2A95EAF777CFEA
:1015B0002E503109F7CF6091AC02663029F12091AD
:1015C000AD023091AE026150C9F070E08FEF95E04E
:1015D0000E94B60DF9014091A8025091A902CF01D5
:1015E000821B930B8417950760F44081469FC001CE
:1015F000479F900D112490833196EDCF70E060E00D
:10160000E9CF86E08093AC028091AA029091AB0270
:1016100097FD08C061E00E94B40160E08091AA02D9
:101620000E94680181E08093A5020E940A0288E678
:1016300090E00E9405070E9457012BE130E0DC0199
:101640000E94E40D2FEF33E040E050E00E94660D71
:101650002093B5013093B601622F70E086E00E94BE
:101660002D0461E070E083E00E942D043BE1F32E45
:1016700000E010E0EE24E3940E9410030E941003A7
:101680004B015C013CEA83163DE09306A104B104E2
:10169000B9F487E491E00E9482060E9410034AE0B8
:1016A0000E948F0688E391E00E94820640E05FEF8F
:1016B0006FEF70E083E090E00E94E6000E940A0273
:1016C0000E9410036838734181059105F0F1809103
:1016D000AC019091AD01092E000CAA0BBB0BA5012A
:1016E0009401281B390B4A0B5B0BDA01C9018D32BF
:1016F0009140A105B10548F1C091AA01D091AB017B
:101700008091A6029091A7028C179D07F0F090920D
:10171000AD018092AC014FEF5FEF6FEF70E0CE0153
:101720000E94E6000E940A0240E050E0BA01CE01A9
:1017300001970E94E6000E940A02CE010196909352
:10174000AB018093AA010E94D3060E9410034B01B3
:101750005C0142E3941AA108B10851E285165CE1EC
:101760009506A104B10408F0D6C0683C22E37207D4
:101770008105910508F45EC08090B3019090B4019A
:10178000092C000CAA08BB089B01AC0128193909D7
:101790004A095B0949015A0135E683169104A104FF
:1017A000B10408F447C07093B4016093B301C091D1
:1017B0000201D0910301C330D10509F430C1C23018
:1017C000D10509F41DC1C130D10581F440E05FEFBE
:1017D0006FEF70E082E090E00E94E60040E05FEF93
:1017E0006FEF70E081E090E00E94E6000E940A0244
:1017F000C230D10509F42FC1C130D10509F41EC191
:10180000209771F440E050E0BA0182E090E00E943D
:10181000E60040E050E0BA0181E090E00E94E6007E
:101820000E940A021C161D062CF42197D093030176
:10183000C09302010E9410038090AF019090B0010C
:10184000A090B101B090B201681979098A099B0989
:10185000693271058105910508F45DC00E9410038D
:101860006093AF017093B0018093B1019093B20186
:101870008091AE0181112DC08091000190910101F4
:101880000E94D306C0910001D09101012A96D09305
:101890000101C09300018C2F90E0B0E0A0E0BC01FA
:1018A00055274427BA2FA92F982F8827482B592B23
:1018B0006A2B7B2B8AE090E00E94E6000E940A02DD
:1018C000CF3FD10514F0E092AE018091AE018823A4
:1018D00011F1C0910001D09101012A97D09301012B
:1018E000C09300018C2F90E0B0E0A0E0BC01552730
:1018F0004427BA2FA92F982F8827482B592B6A2BBA
:101900007B2B8AE090E00E94E6000E940A02E897A2
:1019100014F41092AE010E9410038090B7019090D1
:10192000B801092C000CAA08BB08681979098A09B2
:101930009B09633371058105910508F455C00E9428
:1019400010037093B8016093B7010E9457019C0186
:10195000F29EC001F39E900D112497FF02C08150AA
:101960009C4F892F990F990B859585952091B501ED
:101970003091B60182179307B9F10E945701AC016B
:10198000F49EC001F59E900D112497FF02C0815076
:101990009C4F892F990F990B85958595BC017727C9
:1019A00086E00E942D0470E060E083E40E942D0434
:1019B00060E070E0CB010E948704882309F458C0DE
:1019C0001092830280918102909182029093B601DD
:1019D0008093B50186E591E00E9482068091B50171
:1019E0009091B6010E94D3060115110509F444CE69
:1019F0000E942E05882309F43FCE0E9400003CCEB1
:101A000040E05FEF6FEF70E085E090E00E94E6005D
:101A100040E05FEF6FEF70E084E090E0E5CE40E003
:101A20005FEF6FEF70E088E090E00E94E60040E03A
:101A30005FEF6FEF70E087E090E0D6CE40E050E0DF
:101A4000BA0185E090E00E94E60040E050E0BA0173
:101A500084E090E0E3CE40E050E0BA0188E090E01E
:101A60000E94E60040E050E0BA0187E090E0D6CE68
:101A70008FEF9FEFABCF8AE291E090938602809345
:101A800085028091A8019091A9018558924071F436
:101A9000E0919802F0919902908180919A0280954C
:101AA000892380831092A9011092A8018091AD0230
:101AB0009091AE020E94870E8091AA029091AB0293
:101AC00097FD03C060E00C94B4010895052E97FBC8
:101AD0001EF400940E947D0D57FD07D00E94850DD5
:101AE00007FC03D04EF40C947D0D50954095309535
:101AF00021953F4F4F4F5F4F08959095809570957A
:101B000061957F4F8F4F9F4F0895A1E21A2EAA1B18
:101B1000BB1BFD010DC0AA1FBB1FEE1FFF1FA2179D
:101B2000B307E407F50720F0A21BB30BE40BF50B9A
:101B3000661F771F881F991F1A9469F76095709523
:101B4000809590959B01AC01BD01CF010895A29FA6
:101B5000B001B39FC001A39F700D811D1124911D81
:101B6000B29F700D811D1124911D0895AA1BBB1BEE
:101B700051E107C0AA1FBB1FA617B70710F0A61B8D
:101B8000B70B881F991F5A95A9F780959095BC01AE
:101B9000CD01089597FB072E16F4009407D077FD2A
:101BA00009D00E94B60D07FC05D03EF490958195B2
:101BB0009F4F0895709561957F4F0895EE0FFF1F19
:101BC0000590F491E02D09940E94A70DB7FF0895A8
:101BD000821B930B08950F931F93CF93DF93823053
:101BE000910510F482E090E0E091C902F091CA0200
:101BF00030E020E0B0E0A0E0309799F42115310505
:101C000009F44AC0281B390B24303105D8F58A81E4
:101C10009B816115710589F1FB0193838283FE012C
:101C200011C0408151810281138148175907E0F0AA
:101C30004817590799F4109761F012960C93129770
:101C400013961C933296CF01DF91CF911F910F9184
:101C500008950093C9021093CA02F4CF21153105EB
:101C600051F04217530738F0A901DB019A01BD0179
:101C7000DF01F801C1CFEF01F9CF9093CA02809341
:101C8000C902CDCFFE01E20FF31F81939193225041
:101C9000310939832883D7CF2091C7023091C802F8
:101CA000232B41F420910601309107013093C802A3
:101CB0002093C702209104013091050121153105BF
:101CC00041F42DB73EB74091080150910901241B02
:101CD000350BE091C702F091C802E217F307A0F4B8
:101CE0002E1B3F0B2817390778F0AC014E5F5F4F72
:101CF0002417350748F04E0F5F1F5093C8024093DA
:101D0000C702819391939FCFF0E0E0E09CCFCF9307
:101D1000DF930097E9F0FC01329713821282A091C1
:101D2000C902B091CA02ED0130E020E01097A1F4A1
:101D300020813181820F931F2091C7023091C80208
:101D40002817390709F061C0F093C802E093C70271
:101D5000DF91CF910895EA01CE17DF07E8F54A81B8
:101D60005B819E0141155105B1F7E901FB83EA83CF
:101D700049915991C40FD51FEC17FD0761F480817B
:101D800091810296840F951FE9019983888382814E
:101D900093819B838A83F0E0E0E012968D919C9181
:101DA00013970097B9F52D913C911197CD010296AB
:101DB000820F931F2091C7023091C802281739075C
:101DC00039F6309751F51092CA021092C902B093B9
:101DD000C802A093C702BCCFD383C2834081518184
:101DE000840F951FC817D90761F44E5F5F4F888134
:101DF0009981480F591F518340838A819B81938326
:101E000082832115310509F0B0CFF093CA02E09327
:101E1000C9029ECFFD01DC01C0CF13821282D7CF51
:101E200010E0CBEBD0E004C0FE010E94DE0D219655
:0A1E3000CC3BD107C9F7F894FFCFAF
:101E3A00320003000000CB0280007EFF0600010092
:101E4A00000000EF000000006405C404F104B105BD
:101E5A0022050005140500000000EA05C4047F06F7
:101E6A00E90546065E06D1050D0A005374617274CF
:101E7A00696E672E2E2E006D696C6C6920313030C8
:101E8A00302121213A006368616E67656420766FAC
:061E9A006C756D653A0055
:00000001FF
