:100000000C94BC000C94E4000C94E4000C94510794
:100010000C9451070C9451070C94E4000C94E400E8
:100020000C94E4000C94E4000C94E4000C94E400C0
:100030000C94E4000C94E4000C94E4000C94E400B0
:100040000C94AF060C94E4000C941F070C94F90672
:100050000C94E4000C94E4000C94E4000C94E40090
:100060000C94E4000C94E4004446506C6179657291
:10007000204D696E69206F6E6C696E652E00322EA0
:10008000506C6561736520696E7365727420746865
:100090006520534420636172642100312E506C65E9
:1000A000617365207265636865636B2074686520A1
:1000B000636F6E6E656374696F6E2100556E616269
:1000C0006C6520746F20626567696E3A00496E69DD
:1000D0007469616C697A696E67204446506C617915
:1000E0006572202E2E2E20284D61792074616B655B
:1000F00020337E35207365636F6E64732900444638
:10010000526F626F74204446506C61796572204D65
:10011000696E692044656D6F0000000000240027AF
:10012000002A00000000080002010000030407008C
:10013000000000000000000000000023002600294D
:100140000001020408102040800102040810200170
:10015000020408102000000000250028002B0004E5
:10016000040404040404040202020202020303035E
:1001700003030300C907750D11241FBECFEFD8E09C
:10018000DEBFCDBF11E0A0E0B1E0EEEAFEE102C0CB
:1001900005900D92A835B107D9F722E0A8E5B1E0A6
:1001A00001C01D92A83BB207E1F710E0CBEBD0E015
:1001B00004C02197FE010E94180ECA3BD107C9F75F
:1001C0000E940B090C944A0F0C9400008F929F928E
:1001D000AF92BF92CF92DF92EF92FF92CF93209196
:1001E00093023091940282179307E8F54B01AA24F9
:1001F000BB24C82DC52ED62EE72EFF24BC2DA42F40
:1002000020919902222361F0829E40011124C92D80
:100210002C9D60011124BD2D249FF0011124AF2FCE
:10022000E0919F02E0909A02F0909B0230919C0234
:10023000E31323C09C01220F331F820F931F8E0DE7
:100240009F1DE0919C02E80FF92FF11DC083E09102
:100250009D02E80FF92FF11DB08320919E02820FBD
:10026000911DFC01A083CF91FF90EF90DF90CF9084
:10027000BF90AF909F908F900895880F991F880F1F
:10028000991F8E0D9F1D472F5527662777272223FD
:1002900049F030E0249F7001259FF00C349FF00C52
:1002A00011244F2DE80FF92FF11D4083CACF80E4B0
:1002B00080937C0080917A00806480937A008091A2
:1002C0007A0086FDFCCF80917800909179000895A6
:1002D00090E0FC01ED5DFE4F2491FC01EF5BFE4FD1
:1002E0003491FC01E15AFE4FE491EE23C9F0222340
:1002F00039F0233001F1A8F4213019F1223029F12D
:10030000F0E0EE0FFF1FEB5AFE4FA591B4918FB7AF
:10031000F894EC91611126C030953E233C938FBF39
:1003200008952730A9F02830C9F0243049F780918A
:1003300080008F7D03C0809180008F778093800044
:10034000DFCF84B58F7784BDDBCF84B58F7DFBCFC6
:100350008091B0008F778093B000D2CF8091B000B1
:100360008F7DF9CF3E2BDACFCF93DF9390E0FC0166
:10037000EF5BFE4F2491815A9E4FFC0184918823AC
:10038000D1F090E0880F991FFC01E75EFE4FA59128
:10039000B491FC01EB5AFE4FC591D49161110EC08E
:1003A0009FB7F8948C91E22FE0958E238C9328814F
:1003B000E223E8839FBFDF91CF9108958FB7F89430
:1003C000EC91E22BEC938FBFF6CF3FB7F89480917E
:1003D000AB019091AC01A091AD01B091AE0126B5F9
:1003E000A89B05C02F3F19F00196A11DB11D3FBF6D
:1003F000BA2FA92F982F8827BC01CD01620F711D3C
:10040000811D911D42E0660F771F881F991F4A9535
:10041000D1F708950F931F93CF93DF93CDB7DEB736
:1004200029970FB6F894DEBF0FBECDBF80919A0218
:1004300090919B02892B09F47CC00E94E5010091F8
:10044000A0021091A1022091A2023091A302601794
:1004500071078207930740F46093A0027093A10292
:100460008093A2029093A3020091A0021091A10296
:100470002091A2023091A302601B710B820B930B9F
:100480006C32714081059105C0F2F894809195021B
:10049000909196029A838983E0919A02F0919B024F
:1004A000DF0111968081898790919102E091A402E9
:1004B000F091A5028091A602992309F445C090818C
:1004C000982B98879081809589238F838F818C8347
:1004D00088E08B8358856F8149853B812C81898198
:1004E0009A81508347FD252F3A952083262F39F096
:1004F000441F00C000006083000000C0F2CF38E05D
:100500004D9160830000019761F7F093A502E0939D
:10051000A40249873B832C839A83898378940E9421
:10052000E5016093A0027093A1028093A2029093D0
:10053000A30229960FB6F894DEBF0FBECDBFDF91A0
:10054000CF911F910F9108959081982B988790815A
:10055000809589238F838F818E8388E08D83588552
:100560006F8149853D812E8189819A81508347FD24
:10057000252F00C000C0208300C000C000C000C004
:1005800000C060830000262F3A9541F0441F000010
:1005900000C000C000C000C000C0E8CF38E04D91EE
:1005A00000C0608300C0019709F7F093A502E093B3
:1005B000A40249873D832E83AFCF8F929F92AF9243
:1005C000BF92CF92DF92EF92FF926B017C010E946B
:1005D000E5014B015C01C114D104E104F104B9F05F
:1005E0000E94E501681979098A099B09683E7340F0
:1005F0008105910580F321E0C21AD108E108F108D4
:1006000088EE880E83E0981EA11CB11CE4CFFF90F9
:10061000EF90DF90CF90BF90AF909F908F90089514
:100620002FB7F8946091A7017091A8018091A9015A
:100630009091AA012FBF08950F931F9380914C02B0
:1006400090914D02DC01ED91FC910084F185E02D4B
:100650000995892B09F4D7C060E070E0CB010E94B6
:10066000DD0220916A0280914C0290914D02DC01E2
:10067000ED91FC910284F385E02D21110BC00995C9
:10068000809356028E37D1F680916A028F5F8093F5
:100690006A02D4CF099590916A02E92FF0E0E45BF9
:1006A000FD4F82879230B9F09930D9F09130A9F49A
:1006B0008F3F99F010926A0281E080936C02109251
:1006C0006F0210926E02809370021092710280E0AD
:1006D0001F910F910895863069F79F5F90936A028A
:1006E000ADCF8F3E39F72091580280915702280FE5
:1006F0003327331FE0915902C9018E0F911D2091BC
:100700005A02280F392F311D40915B0250E0240F0F
:10071000351F80915C0290E060915D0270E0762F61
:100720006627F0915E026F0F711D280F391F3195FA
:10073000219531096217730709F0BCCF10926A0244
:10074000E13419F4109271022FC0E0936D02542F1E
:100750004427840F951F90936F0280936E02EA5393
:10076000E63108F046C0F0E0E854FC4F0C94180E57
:10077000E503ED03F703CE03F703D703F503F9030E
:10078000F703F703F703F703F703F703F703F70399
:10079000F903F703F703F703F703F70385E0809303
:1007A0006C0281E0809370028091700291CF80FF93
:1007B00002C089E0F4CF81FF02C084E0F0CF8370F3
:1007C0009927892B89F38AE0EACF80FF02C087E06E
:1007D000E6CF81FFE9CF82E0E2CF80FF02C088E070
:1007E000DECF81FFE1CF83E0DACF86E0D8CF8BE0A8
:1007F000D6CF81E080936C0210926F0210926E024D
:10080000809370029FCF80917102882369F20E94C9
:10081000100300914E0210914F022091500230912E
:100820005102601B710B820B930B009152021091CD
:1008300053022091540230915502601771078207CC
:10084000930708F4B1CF10926A0210926C021092D2
:100850006F0210926E0281E036CF80936302272FE1
:1008600030E070936502609366024091620290915D
:100870006102490F5527551F840F952F911D4091F7
:100880006402840F911D820F931F680F792F711DD1
:1008900071956195710970936702609368024423B2
:1008A00061F080917102882341F060E070E0CB013B
:1008B0000E94DD020E941C03F4CF80914C029091B3
:1008C0004D02DC01ED91FC910280F381E02D4AE0C4
:1008D00050E060E672E009950E94100360934E02BA
:1008E00070934F0280935002909351028091640262
:1008F00091E0811101C090E090937102811106C0D6
:100900006AE070E080E090E00C94DD0208958F9240
:100910009F92AF92BF92CF92DF92EF92FF92CF93CE
:100920006B017C010E9410034B015C01C114D104D6
:10093000E104F10441F4C0905202D0905302E090DF
:100940005402F09055020E941C03C82F811111C05F
:100950000E941003681979098A099B09C616D706EF
:10096000E806F90630F060E070E0CB010E94DD029D
:10097000EACF8C2FCF91FF90EF90DF90CF90BF9078
:10098000AF909F908F900895AF92BF92CF92DF92D9
:10099000EF92FF920F931F93CF93DF936C017B0134
:1009A0008B01040F151FEB015E01AE18BF08C017C5
:1009B000D10759F06991D601ED91FC910190F08138
:1009C000E02DC6010995892B79F7C501DF91CF91FB
:1009D0001F910F91FF90EF90DF90CF90BF90AF905D
:1009E0000895FC01538D448D252F30E0842F90E035
:1009F000821B930B541710F0CF960895019708951A
:100A0000FC01918D828D981761F0A28DAE0FBF2FE2
:100A1000B11D5D968C91928D9F5F9F73928F90E038
:100A200008958FEF9FEF0895FC01918D828D9817A7
:100A300031F0828DE80FF11D858D90E008958FEFE4
:100A40009FEF0895FC01918D228D892F90E0805CAD
:100A50009F4F821B91098F73992708958FEA91E028
:100A60000E94220521E0892B09F420E0822F0895BD
:100A700080E090E0892B29F00E942E0581110C94D2
:100A800000000895FC01A48DA80FB92FB11DA35A31
:100A9000BF4F2C91848D90E001968F739927848F9E
:100AA000A689B7892C93A089B1898C9183708064C1
:100AB0008C93938D848D981306C00288F389E02D62
:100AC00080818F7D80830895EF92FF920F931F9313
:100AD000CF93DF93EC0181E0888F9B8D8C8D9813F1
:100AE0001AC0E889F989808185FF15C09FB7F894FD
:100AF000EE89FF896083E889F98980818370806449
:100B000080839FBF81E090E0DF91CF911F910F9193
:100B1000FF90EF900895F62E0B8D10E00F5F1F4FA2
:100B20000F731127E02E8C8D8E110CC00FB607FCB1
:100B3000FACFE889F989808185FFF5CFCE010E943F
:100B40004205F1CFEB8DEC0FFD2FF11DE35AFF4F66
:100B5000F0829FB7F8940B8FEA89FB8980818062CD
:100B6000CFCFCF93DF93EC01888D8823B9F0AA898A
:100B7000BB89E889F9898C9185FD03C0808186FD58
:100B80000DC00FB607FCF7CF8C9185FFF2CF8081A7
:100B900085FFEDCFCE010E944205E9CFDF91CF91D5
:100BA000089520919A0130919B012817390771F41B
:100BB0009091980180919901981741F0E0919801E6
:100BC000F0E0E85AFE4F808190E008958FEF9FEFAC
:100BD00008950895EF92FF920F931F93CF93DF93A1
:100BE000DC015C96ED90FC905D97E114F10479F4E2
:100BF00081E090E013969C938E93129790E080E0B2
:100C0000DF91CF911F910F91FF90EF900895519632
:100C1000ED91FC91529750968C915097982F90950A
:100C20000FB75E962C915E97122F127021FD609582
:100C3000F8942081112319F1282B2083E7012197B3
:100C4000F1F728E0462F50E0308160FF1AC0382BC2
:100C50003083E7012197F1F7BA0175956795215027
:100C600089F7112381F08081892380830FBF5C96EF
:100C70008D919C910197F1F781E090E0C1CF2923FC
:100C8000DCCF3923E5CF9081892BEFCF20919A01DA
:100C900030919B012817390771F4809199012091B7
:100CA000980190E0805C9F4F821B910960E470E0A6
:100CB0000E94040E089590E080E0089520919A012A
:100CC00030919B0128173907B9F4909198018091D0
:100CD0009901981789F0E0919801F0E0E85AFE4FE9
:100CE00080812091980130E02F5F3F4F2F73332791
:100CF0002093980190E008958FEF9FEF089590E082
:100D000080E00895FC0101900020E9F73197AF01E0
:100D1000481B590BBC018FEA91E00C94C4040F935B
:100D20001F93CF93DF938C01D0E0C0E0F801EC0F6C
:100D3000FD1F6491662341F08FEA91E00E946405F3
:100D4000892B11F02196F2CF88E391E00E94820670
:100D50008C0F9D1FDF91CF911F910F9108951F92CE
:100D60000F920FB60F9211242F933F938F939F935F
:100D7000AF93BF938091A7019091A801A091A90181
:100D8000B091AA013091A60123E0230F2D3758F529
:100D90000196A11DB11D2093A6018093A7019093F8
:100DA000A801A093A901B093AA018091AB019091F1
:100DB000AC01A091AD01B091AE010196A11DB11D94
:100DC0008093AB019093AC01A093AD01B093AE01C1
:100DD000BF91AF919F918F913F912F910F900FBE37
:100DE0000F901F90189526E8230F0296A11DB11DA4
:100DF000D2CF1F920F920FB60F9211242F933F93D1
:100E00004F935F936F937F938F939F93AF93BF9312
:100E1000EF93FF938FEA91E00E944205FF91EF91DB
:100E2000BF91AF919F918F917F916F915F914F9102
:100E30003F912F910F900FBE0F901F9018951F920A
:100E40000F920FB60F9211242F938F939F93EF93CE
:100E5000FF93E091BF01F091C0018081E091C50155
:100E6000F091C60182FD1BC090818091C8018F5F07
:100E70008F732091C901821741F0E091C801F0E021
:100E8000E155FE4F958F8093C801FF91EF919F919F
:100E90008F912F910F900FBE0F901F90189580810A
:100EA000F4CF1F920F920FB60F9211242F933F93FE
:100EB0004F935F936F937F938F939F93AF93BF9362
:100EC000EF93FF93E0919A01F0919B01309749F0E5
:100ED000A685B7858585968D91FF14C09C91892341
:100EE000A1F4FF91EF91BF91AF919F918F917F916D
:100EF0006F915F914F913F912F910F900FBE0F9087
:100F00001F9018959C91892361F7A389B4899C91BE
:100F10008589809589238C93868997890197F1F734
:100F2000608D718DA685B785558538E020E0CB01B1
:100F30000197F1F7822F90E095958795282F4C9196
:100F4000452309F02068315091F7868D81FD209569
:100F50008091990190E001968F73992730919801C3
:100F6000381799F0A0919901B0E0A85ABE4F2C9380
:100F700080939901828D938D0197F1F7A389B489AC
:100F80008C919589892B8C93ACCF868D8160868FCF
:100F9000F1CF1092B2011092B10188EE93E0A0E07F
:100FA000B0E08093B3019093B401A093B501B093E6
:100FB000B60188E191E09093B0018093AF0185EC98
:100FC00090E09093BC018093BB0184EC90E09093FF
:100FD000BE018093BD0180EC90E09093C0018093AE
:100FE000BF0181EC90E09093C2018093C10182EC3B
:100FF00090E09093C4018093C30186EC90E09093BD
:10100000C6018093C5011092C8011092C9011092C7
:10101000CA011092CB011092920210929902109282
:10102000A0021092A1021092A2021092A30281E0EB
:1010300080939F0280939C0210929D0292E0909375
:101040009E028093910281E290E0909396028093B9
:1010500095020E94250E90939B0280939A0200971E
:1010600009F4D0C021E2FC0111922A95E9F78BE046
:1010700090E0909394028093930285E090E09093A7
:1010800098028093970280919202882341F061E058
:1010900085E00E94B40160E085E00E946801E4E61A
:1010A000F1E0E491F0E0EE0FFF1FEB5AFE4F859167
:1010B00094919093A5028093A402E6E4F1E0E49178
:1010C000E093A602109275021092740288EE93E0EB
:1010D000A0E0B0E08093760290937702A09378022C
:1010E000B09379028AE291E0909373028093720246
:1010F000109289021092880210928B0210928A023A
:1011000010928D0210928C0210928F0210928E0219
:10111000609190026E7F6D7F609390026695617022
:1011200081E068278BE00E94680161E08BE00E940B
:10113000B401ECE4F1E0E491E0938202EAE6F1E04C
:10114000E491F0E0EE0FFF1FEB5AFE4F8591949172
:10115000909384028093830260E08AE00E94B4014D
:101160008091900281FD04C061E08AE00E946801E4
:101170008AE080937E02EBE4F1E0E491E0937F0269
:10118000E9E6F1E0E491F0E0EE0FFF1FE95CFE4FCD
:1011900025913491309381022093800244EF51E0F5
:1011A00060E070E040935202509353026093540207
:1011B00070935502EAE0F1E0A0E6B2E001900D92F2
:1011C0008A95E1F710926A0282E080936B02109296
:1011D0007002109271028FEF8093A7021092A90201
:1011E0001092A8021092B3021092B2028FEF9FEFFA
:1011F000DC018093AE029093AF02A093B002B09353
:10120000B1020895109296021092950210929402E3
:101210001092930232CFCF93DF93CDB7DEB7A29770
:101220000FB6F894DEBF0FBECDBF789484B5826050
:1012300084BD84B5816084BD85B5826085BD85B57A
:10124000816085BD80916E00816080936E001092F8
:101250008100809181008260809381008091810073
:101260008160809381008091800081608093800004
:101270008091B10084608093B1008091B000816062
:101280008093B00080917A00846080937A0080918E
:101290007A00826080937A0080917A0081608093E6
:1012A0007A0080917A00806880937A001092C10061
:1012B000E091BF01F091C00182E08083E091BB0129
:1012C000F091BC011082E091BD01F091BE0180E17E
:1012D00080831092C701E091C301F091C40186E0C0
:1012E0008083E091C101F091C2018081806180839F
:1012F000E091C101F091C201808188608083E0911A
:10130000C101F091C201808180688083E091C101B8
:10131000F091C20180818F7D808310928D021092A6
:101320008C0210928B0210928A0210928902109203
:1013300088028DE991E090938F0280938E029091C4
:101340007E02963108F047C02DEB30E030938902E1
:10135000209388022BE931E030938B0220938A029C
:101360002CE231E030938D0220938C0220916800B2
:1013700084E0983048F031E09E3008F430E081E0BD
:1013800001C0880F3A95EAF7822B809368002DE61A
:1013900030E0983050F02BE630E09E3030F02CE614
:1013A00030E0963110F030E020E030938602209358
:1013B0008502292F30E0983008F084C081E001C018
:1013C000880F9A95EAF78093870280918E02909118
:1013D0008F020197F1F780918C0290918D02892BF9
:1013E00049F1E0919A01F0919B0122E0E237F20786
:1013F00009F1309739F0A389B4899C91858980954A
:1014000089238C93809190028E7F8093900210921A
:1014100099011092980182E792E090939B0180934A
:101420009A01E0918502F091860280819091870275
:10143000892B808360E08EE00E94B4018BE391E011
:101440000E94820688E391E00E9482068EEF90E07F
:101450000E948F068DEC90E00E948F0682E792E05A
:1014600090934D0280934C0281E08093640270E07F
:1014700060E08CE00E942D0460ED77E080E090E079
:101480000E94870468EC70E080E090E00E94DD023A
:101490001092700280916C02843009F18930F9F069
:1014A0008CEB90E00E948F068BE990E00E948F0603
:1014B0008EE790E00E948F0660E070E0CB010E9412
:1014C000DD02FACF9E3040F42850310981E001C09E
:1014D000880F2A95EAF777CF2E503109F7CF609120
:1014E0009902663029F120919A0230919B02615055
:1014F000C9F070E08FEF95E00E94F00DF901409186
:10150000950250919602CF01821B930B8417950789
:1015100060F44081469FC001479F900D1124908345
:101520003196EDCF70E060E0E9CF86E080939902DC
:10153000809197029091980297FD08C061E00E9407
:10154000B40160E0809197020E94680181E080937D
:1015500092020E940A0288E690E00E948F060E9492
:1015600057012BE130E0DC010E941E0E2FEF33E02B
:1015700040E050E00E94A00D2093A2013093A3010F
:10158000622F70E086E00E942D0461E070E083E04D
:101590000E942D04AAE08A2E912CA12CB12CB2E33A
:1015A0002B2E312CF0E0CF2EF0E0DF2E0E94100326
:1015B0000E941003683032E573078105910561F0E0
:1015C000683A41E674078105910531F06834E1E736
:1015D0007E078105910541F41092A1011092A001AE
:1015E00030920301209202018B019C0100521E44A3
:1015F00021093109093E13402105310500F18B0114
:101600009C0104501B4521093109093E1340210565
:101610003105A8F08B019C010857194621093109B1
:10162000093E13402105310550F064527747810986
:101630009109693E73408105910508F07FC10E94C0
:10164000100300919C0110919D0120919E01309109
:101650009F01601B710B820B930B6031710581053B
:10166000910508F46BC10E94100360939C01709374
:101670009D0180939E0190939F018091A001811113
:10168000F4C0E0900201F09003012AE0E20EF11CA8
:10169000F0920301E09202013091A1013AA33323B9
:1016A00009F462C04FEFE416F10411F00CF0D0C061
:1016B0004E2C512C712C612C320155244424009164
:1016C0000001109101010230110551F101301105A5
:1016D00011F10115110579F00F3F100791F4B301D5
:1016E000A20188E090E00E94E600B301A20185E03B
:1016F00090E00E94E600B301A20182E090E00E9427
:10170000E6000230110589F4B301A20187E090E000
:101710000E94E6009DC0B301A20185E090E0EFCFFA
:10172000B301A20188E090E0EACFB301A201013049
:10173000110509F487C00115110529F4B301A201AF
:1017400081E090E0E5CF0F3F1F4F09F081C0B3016A
:10175000A20187E090E00E94E600B301A20184E0CC
:1017600090E00E94E600EACF8E2D90E0B0E0A0E08D
:101770003C01552444244427582F692F7A2F442AAA
:10178000552A662A772A4E28592A6A2A7B2A0091E6
:101790000001109101010330110509F444C0023029
:1017A0001105A9F10130110531F10115110591F46F
:1017B000B301A20188E090E00E94E600B301A2011B
:1017C00085E090E00E94E600B301A20182E090E093
:1017D0000E94E6000330110509F496CF023011058E
:1017E00029F5B301A20184E090E00E94E60040E008
:1017F00050E0BA018BCFB301A20182E090E00E94D9
:10180000E60040E050E0BA0185E090E0E1CFB301AE
:10181000A20185E090E00E94E60040E050E0BA01BD
:1018200088E090E0D5CFB301A201FACF01301105D5
:1018300061F4B301A20181E090E00E94E60040E083
:1018400050E0BA0184E090E063CF012B09F47FCF30
:101850000E940A02FFEFEF16F1040CF46FC02AA1F8
:1018600021116CC031E03093A001E0900201F090B2
:1018700003014AE0E41AF108F0920301E092020148
:101880008E2D90E0B0E0A0E03C0155244424442794
:10189000582F692F7A2F442A552A662A772A4E28EC
:1018A000592A6A2A7B2A0091000110910101033014
:1018B000110509F4EDC00230110509F4E4C001304E
:1018C000110579F00115110591F4B301A20188E029
:1018D00090E00E94E600B301A20185E090E00E9442
:1018E000E600B301A20182E090E00E94E600B301AD
:1018F000A20187E090E00330110569F084E090E0F8
:101900000230110541F00130110509F0C6C0B301E4
:10191000A20181E090E00E94E6000E940A0288E3B2
:10192000E816F1045CF41092A001E1E0E093A1015B
:101930000150110910930101009300010E9410034E
:101940000091A4011091A501012E000C220B330B74
:10195000601B710B820B930B693E734081059105EF
:1019600008F485C00E9410037093A5016093A40140
:101970000E9457014BE19C01429FC001439F900D83
:10198000112497FF02C081509C4F892F990F990B0A
:10199000859585952091A2013091A3018217930727
:1019A00009F465C00E9457012BE1FC012E9FC00184
:1019B0002F9F900D112497FF02C081509C4F892FBB
:1019C000990F990B85958595BC01772786E00E9434
:1019D0002D0470E060E083E40E942D0460E070E07C
:1019E000CB010E948704882309F466C0109270021C
:1019F00080916E0290916F029093A3018093A20157
:101A000087E491E00E9482064090A2015090A301D9
:101A1000052C000C6608770877FE51C06DE28FEA4E
:101A200091E00E94640522273327A9012419350972
:101A30004609570919A28E010F5D1F4FCA01B9014E
:101A4000A50194010E94BF0D605DF80162938F01B2
:101A5000211531054105510589F70115110519F0C9
:101A6000C8010E94820688E391E00E948206C114A8
:101A7000D10409F49BCD0E942E05882309F496CD4C
:101A80000E9400008FCDB301A20185E090E02DCF30
:101A9000B301A20188E090E028CF0115110509F0FB
:101AA0003CCF87E090E00E94E600B301A20184E011
:101AB00090E00E94E6002BCF8FEF9FEF9DCFA30118
:101AC000920119A28E010F5D1F4FCA01B901A50134
:101AD00094010E94BF0D605DF80162938F01211592
:101AE00031054105510589F7B8CF8AE291E090931D
:101AF00073028093720280919A0190919B018257A8
:101B0000924071F4E0918502F0918602908180917B
:101B1000870280958923808310929B0110929A01FD
:101B200080919A0290919B020E94C10E809197022F
:101B30009091980297FD03C060E00C94B401089561
:101B4000052E97FB1EF400940E94B70D57FD07D099
:101B50000E94BF0D07FC03D04EF40C94B70D5095B6
:101B60004095309521953F4F4F4F5F4F0895909589
:101B70008095709561957F4F8F4F9F4F0895A1E29B
:101B80001A2EAA1BBB1BFD010DC0AA1FBB1FEE1FF7
:101B9000FF1FA217B307E407F50720F0A21BB30B42
:101BA000E40BF50B661F771F881F991F1A9469F7BE
:101BB00060957095809590959B01AC01BD01CF011A
:101BC0000895A29FB001B39FC001A39F700D811D16
:101BD0001124911DB29F700D811D1124911D089536
:101BE000AA1BBB1B51E107C0AA1FBB1FA617B70743
:101BF00010F0A61BB70B881F991F5A95A9F780955F
:101C00009095BC01CD01089597FB072E16F4009422
:101C100007D077FD09D00E94F00D07FC05D03EF4F7
:101C2000909581959F4F0895709561957F4F089588
:101C3000EE0FFF1F0590F491E02D09940E94E10D35
:101C4000B7FF0895821B930B08950F931F93CF93B3
:101C5000DF938230910510F482E090E0E091B602CB
:101C6000F091B70230E020E0B0E0A0E0309799F4C6
:101C70002115310509F44AC0281B390B24303105E0
:101C8000D8F58A819B816115710589F1FB019383E8
:101C90008283FE0111C04081518102811381481766
:101CA0005907E0F04817590799F4109761F0129618
:101CB0000C93129713961C933296CF01DF91CF911C
:101CC0001F910F9108950093B6021093B702F4CFBD
:101CD0002115310551F04217530738F0A901DB01F6
:101CE0009A01BD01DF01F801C1CFEF01F9CF909357
:101CF000B7028093B602CDCFFE01E20FF31F8193AE
:101D000091932250310939832883D7CF2091B4028F
:101D10003091B502232B41F4209106013091070147
:101D20003093B5022093B402209104013091050153
:101D30002115310541F42DB73EB74091080150916E
:101D40000901241B350BE091B402F091B502E217B2
:101D5000F307A0F42E1B3F0B2817390778F0AC01CE
:101D60004E5F5F4F2417350748F04E0F5F1F5093AB
:101D7000B5024093B402819391939FCFF0E0E0E0ED
:101D80009CCFCF93DF930097E9F0FC013297138249
:101D90001282A091B602B091B702ED0130E020E0CE
:101DA0001097A1F420813181820F931F2091B402FA
:101DB0003091B5022817390709F061C0F093B502D8
:101DC000E093B402DF91CF910895EA01CE17DF07C7
:101DD000E8F54A815B819E0141155105B1F7E901A2
:101DE000FB83EA8349915991C40FD51FEC17FD0776
:101DF00061F4808191810296840F951FE901998396
:101E00008883828193819B838A83F0E0E0E012964D
:101E10008D919C9113970097B9F52D913C91119755
:101E2000CD010296820F931F2091B4023091B5022A
:101E30002817390739F6309751F51092B7021092EA
:101E4000B602B093B502A093B402BCCFD383C283D1
:101E500040815181840F951FC817D90761F44E5FE7
:101E60005F4F88819981480F591F518340838A8130
:101E70009B81938382832115310509F0B0CFF093C4
:101E8000B702E093B6029ECFFD01DC01C0CF138202
:101E90001282D7CF10E0CBEBD0E004C0FE010E944D
:0E1EA000180E2196CC3BD107C9F7F894FFCF5E
:101EAE00030032000000B80280007EFF0600010031
:101EBE00000000EF000000006405C404F104B10549
:101ECE0022050005140500000000EA05C4047F0683
:101EDE00E90546065E06D1050D0A0053746172745B
:101EEE00696E672E2E2E006368616E6765642076BC
:081EFE006F6C756D653A000080
:00000001FF
