:100000000C945E000C9486000C9486000C94860080
:100010000C9486000C9486000C9486000C94860048
:100020000C9486000C9486000C9486000C94860038
:100030000C9486000C9486000C9486000C94860028
:100040000C94C3030C9486000C9433040C940D049C
:100050000C9486000C9486000C9486000C94860008
:100060000C9486000C9486000000000024002700F9
:100070002A0000000008000201000003040700003D
:10008000000000000000010204081020408001026E
:1000900004081020010204081020000000002500C0
:1000A00028002B00040404040404040402020202D5
:1000B00002020303030303036504660611241FBE43
:1000C000CFEFD8E0DEBFCDBF11E0A0E0B1E0E4E8C3
:1000D000FFE002C005900D92A831B107D9F722E0E8
:1000E000A8E1B1E001C01D92A430B207E1F710E031
:1000F000CDE5D0E004C02197FE010E948A06CC35F0
:10010000D107C9F70E9445050C94B5070C9400006F
:1001100090E0FC01EE58FF4F2491FC01EA57FF4F9D
:100120003491FC01EC55FF4FE491EE23B9F022230A
:1001300039F02330F1F098F4213009F1223019F12F
:10014000F0E0EE0FFF1FE656FF4FA591B4918FB779
:10015000F894EC9130953E233C938FBF089527305F
:10016000A9F02830C9F0243059F7809180008F7DA4
:1001700003C0809180008F7780938000E1CF84B5A9
:100180008F7784BDDDCF84B58F7DFBCF8091B000AC
:100190008F778093B000D4CF8091B0008F7DF9CF5E
:1001A0008F929F92AF92BF92CF92DF92EF92FF9287
:1001B000CF934B01AA24BB24C82DC52ED62EE72EE3
:1001C000FF24BC2DA42F2091E501222361F0829E03
:1001D00040011124C92D2C9D60011124BD2D249FA7
:1001E000F0011124AF2FE091EB01E090E601F090D7
:1001F000E7013091E801E31323C09C01220F331F74
:10020000820F931F8E0D9F1DE091E801E80FF92FDB
:10021000F11DC083E091E901E80FF92FF11DB083D2
:100220002091EA01820F911DFC01A083CF91FF90E4
:10023000EF90DF90CF90BF90AF909F908F900895F8
:10024000880F991F880F991F8E0D9F1D472F5527C7
:1002500066277727222349F030E0249F7001259FED
:10026000F00C349FF00C11244F2DE80FF92FF11DE5
:100270004083CACFCF93DF9390E0FC01EA57FF4F52
:1002800024918C559F4FFC0184918823D1F090E0FC
:10029000880F991FFC01E859FF4FA591B491FC010B
:1002A000E656FF4FC591D49161110EC09FB7F894E7
:1002B0008C91E22FE0958E238C932881E223E883B2
:1002C0009FBFDF91CF9108958FB7F894EC91E22B07
:1002D000EC938FBFF6CF3FB7F894809122019091B5
:1002E0002301A0912401B091250126B5A89B05C04A
:1002F0002F3F19F00196A11DB11D3FBFBA2FA92FA5
:10030000982F8827BC01CD01620F711D811D911DA1
:1003100042E0660F771F881F991F4A95D1F708950D
:100320000F931F93CF93DF93CDB7DEB729970FB607
:10033000F894DEBF0FBECDBF8091E6019091E7013A
:10034000892B09F47CC00E946B010091EC01109193
:10035000ED012091EE013091EF01601771078207E6
:10036000930740F46093EC017093ED018093EE01EC
:100370009093EF010091EC011091ED012091EE01BD
:100380003091EF01601B710B820B930B6C3271404B
:1003900081059105C0F2F8948091E1019091E2010C
:1003A0009A838983E091E601F091E701DF011196DC
:1003B000808189879091DD01E091F001F091F10158
:1003C0008091F201992309F445C09081982B988778
:1003D0009081809589238F838F818C8388E08B83A4
:1003E00058856F8149853B812C8189819A81508311
:1003F00047FD252F3A952083262F39F0441F00C052
:1004000000006083000000C0F2CF38E04D916083AF
:100410000000019761F7F093F101E093F001498743
:100420003B832C839A83898378940E946B01609329
:10043000EC017093ED018093EE019093EF0129960A
:100440000FB6F894DEBF0FBECDBFDF91CF911F91E5
:100450000F9108959081982B98879081809589239A
:100460008F838F818E8388E08D8358856F81498546
:100470003D812E8189819A81508347FD252F00C0BF
:1004800000C0208300C000C000C000C000C0608366
:100490000000262F3A9541F0441F000000C000C024
:1004A00000C000C000C0E8CF38E04D9100C06083BC
:1004B00000C0019709F7F093F101E093F00149873B
:1004C0003D832E83AFCFAF92BF92CF92DF92EF9258
:1004D000FF920F931F93CF93DF936C017B018B01EE
:1004E000040F151FEB015E01AE18BF08C017D1073E
:1004F00059F06991D601ED91FC910190F081E02DC8
:10050000C6010995892B79F7C501DF91CF911F911C
:100510000F91FF90EF90DF90CF90BF90AF90089534
:10052000FC01538D448D252F30E0842F90E0821BF9
:10053000930B541710F0CF96089501970895FC017E
:10054000918D828D981761F0A28DAE0FBF2FB11DD6
:100550005D968C91928D9F5F9F73928F90E008952E
:100560008FEF9FEF0895FC01918D828D981731F0E8
:10057000828DE80FF11D858D90E008958FEF9FEF3C
:100580000895FC01918D228D892F90E0805C9F4F12
:10059000821B91098F739927089586E291E00E944A
:1005A000C10221E0892B09F420E0822F089580E028
:1005B00090E0892B29F00E94CD0281110C9400005B
:1005C0000895FC01A48DA80FB92FB11DA35ABF4FE8
:1005D0002C91848D90E001968F739927848FA68942
:1005E000B7892C93A089B1898C91837080648C9396
:1005F000938D848D981306C00288F389E02D808145
:100600008F7D80830895EF92FF920F931F93CF9376
:10061000DF93EC0181E0888F9B8D8C8D98131AC03D
:10062000E889F989808185FF15C09FB7F894EE8924
:10063000FF896083E889F989808183708064808381
:100640009FBF81E090E0DF91CF911F910F91FF90CC
:10065000EF900895F62E0B8D10E00F5F1F4F0F7374
:100660001127E02E8C8D8E110CC00FB607FCFACF2F
:10067000E889F989808185FFF5CFCE010E94E102EA
:10068000F1CFEB8DEC0FFD2FF11DE35AFF4FF08200
:100690009FB7F8940B8FEA89FB8980818062CFCF66
:1006A000CF93DF93EC01888D8823B9F0AA89BB89A9
:1006B000E889F9898C9185FD03C0808186FD0DC094
:1006C0000FB607FCF7CF8C9185FFF2CF808185FFB5
:1006D000EDCFCE010E94E102E9CFDF91CF910895E5
:1006E0000F931F93FC012FB7F89480911E019091F6
:1006F0001F01A0912001B09121012FBF438154819E
:10070000658176818C019D01041B150B260B370B2F
:10071000B901A801433351056105710588F183834F
:100720009483A583B683878190852281211120C07F
:1007300044968F3F91051CF49087878306C08FEF06
:1007400090E09087878381E08283808191812091EE
:10075000DF013091E0018217930730F4478150E0C8
:1007600070E060E00E94D0001F910F910C94900106
:1007700044971816190604F3108617821282E5CFE3
:100780001F910F9108951F920F920FB60F9211248F
:100790002F933F938F939F93AF93BF9380911E01AD
:1007A00090911F01A0912001B091210130911D0174
:1007B00023E0230F2D3758F50196A11DB11D20937D
:1007C0001D0180931E0190931F01A0932001B093FF
:1007D00021018091220190912301A0912401B091E7
:1007E00025010196A11DB11D809322019093230143
:1007F000A0932401B0932501BF91AF919F918F9158
:100800003F912F910F900FBE0F901F90189526E8E3
:10081000230F0296A11DB11DD2CF1F920F920FB6CA
:100820000F9211242F933F934F935F936F937F9376
:100830008F939F93AF93BF93EF93FF9386E291E0E3
:100840000E94E102FF91EF91BF91AF919F918F9133
:100850007F916F915F914F913F912F910F900FBEBC
:100860000F901F9018951F920F920FB60F921124A0
:100870002F938F939F93EF93FF93E0913601F09125
:1008800037018081E0913C01F0913D0182FD1BC068
:10089000908180913F018F5F8F732091400182177B
:1008A00041F0E0913F01F0E0EA5DFE4F958F8093CB
:1008B0003F01FF91EF919F918F912F910F900FBE6C
:1008C0000F901F9018958081F4CF109229011092FB
:1008D000280188EE93E0A0E0B0E080932A01909395
:1008E0002B01A0932C01B0932D018AE091E090930D
:1008F00027018093260185EC90E09093330180934B
:10090000320184EC90E0909335018093340180ECC7
:1009100090E0909337018093360181EC90E09093C2
:1009200039018093380182EC90E090933B018093F1
:100930003A0186EC90E090933D0180933C01109247
:100940003F01109240011092410110924201109219
:10095000DE011092E5011092EC011092ED0110926F
:10096000EE011092EF0181E08093EB018093E801AA
:100970001092E90192E09093EA018093DD0181E217
:1009800090E09093E2018093E1010E9490069093A1
:10099000E7018093E601009709F46EC021E2FC01B3
:1009A00011922A95E9F78BE090E09093E001809313
:1009B000DF0185E090E09093E4018093E301809172
:1009C000DE01882339F061E085E00E943A0185E08C
:1009D0000E948800E9EAF0E0E491F0E0EE0FFF1FEA
:1009E000E656FF4F859194919093F1018093F00129
:1009F000EBE8F0E0E491E093F20185E090E0909381
:100A0000D1018093D0011092D2011092D3011092A3
:100A1000D4011092D5011092D6011092D8011092F3
:100A2000D70186E090E09093C4018093C3011092B7
:100A3000C5011092C6011092C7011092C801109210
:100A4000C9011092CB011092CA018FEF8093F3017C
:100A50001092F5011092F4011092FF011092FE0124
:100A60008FEF9FEFDC018093FA019093FB01A0933D
:100A7000FC01B093FD0108951092E2011092E10192
:100A80001092E0011092DF0194CF789484B58260D7
:100A900084BD84B5816084BD85B5826085BD85B522
:100AA000816085BD80916E00816080936E001092A0
:100AB000810080918100826080938100809181001B
:100AC00081608093810080918000816080938000AC
:100AD0008091B10084608093B1008091B00081600A
:100AE0008093B00080917A00846080937A00809136
:100AF0007A00826080937A0080917A00816080938E
:100B00007A0080917A00806880937A001092C10008
:100B10008091E3019091E40197FD07C061E00E949C
:100B20003A018091E3010E94880081E08093DE0118
:100B30000E9490016091E501663029F12091E60163
:100B40003091E7016150C9F070E08FEF95E00E94AD
:100B50007606F9014091E1015091E201CF01821B3B
:100B6000930B8417950760F44081469FC001479F0F
:100B7000900D112490833196EDCF70E060E0E9CFC5
:100B800086E08093E501E0913601F091370182E043
:100B90008083E0913201F09133011082E0913401C1
:100BA000F091350180E1808310923E01E0913A019D
:100BB000F0913B0186E08083E0913801F0913901AA
:100BC000808180618083E0913801F09139018081DA
:100BD00088608083E0913801F091390180818068DC
:100BE0008083E0913801F091390180818F7D80838D
:100BF000C0E0D0E011E02FB7F89480911E019091F1
:100C00001F01A0912001B09121012FBFAC01BD01B6
:100C1000405A5F40610971094936524461057105C6
:100C200098F54091190150911A0160911B01709142
:100C30001C016C017D01C41AD50AE60AF70AB70146
:100C4000A601493E534061057105F0F080931901FA
:100C500090931A01A0931B01B0931C018091DF01B6
:100C60009091E00120911801211121C00B9740F0D3
:100C700040E050E06FEF70E08AE090E00E94D0002A
:100C80000E9490011093180180ED91E00E94700382
:100C900083EC91E00E947003209709F4ACCF0E948E
:100CA000CD02882309F4A7CF0E940000A4CF0B97A0
:100CB00040F04FEF5FEF6FEF70E08AE090E00E944E
:100CC000D0000E94900110921801DECF8091E601C1
:100CD0009091E7010E942C078091E3019091E4013B
:100CE00097FD03C060E00C943A010895AA1BBB1B5A
:100CF00051E107C0AA1FBB1FA617B70710F0A61B1C
:100D0000B70B881F991F5A95A9F780959095BC013C
:100D1000CD010895EE0FFF1F0590F491E02D099489
:100D20000F931F93CF93DF938230910510F482E0ED
:100D300090E0E0910202F091030230E020E0B0E0A8
:100D4000A0E0309799F42115310509F44AC0281B19
:100D5000390B24303105D8F58A819B8161157105E5
:100D600089F1FB0193838283FE0111C0408151818F
:100D70000281138148175907E0F04817590799F481
:100D8000109761F012960C93129713961C9332965B
:100D9000CF01DF91CF911F910F910895009302022F
:100DA00010930302F4CF2115310551F04217530778
:100DB00038F0A901DB019A01BD01DF01F801C1CFC3
:100DC000EF01F9CF9093030280930202CDCFFE0191
:100DD000E20FF31F819391932250310939832883C5
:100DE000D7CF2091000230910102232B41F42091B2
:100DF00002013091030130930102209300022091FF
:100E00000001309101012115310541F42DB73EB7A4
:100E10004091040150910501241B350BE091000223
:100E2000F0910102E217F307A0F42E1B3F0B2817E5
:100E3000390778F0AC014E5F5F4F2417350748F053
:100E40004E0F5F1F509301024093000281939193D4
:100E50009FCFF0E0E0E09CCFCF93DF930097E9F0E5
:100E6000FC01329713821282A0910202B091030218
:100E7000ED0130E020E01097A1F420813181820F54
:100E8000931F20910002309101022817390709F0C1
:100E900061C0F0930102E0930002DF91CF910895C9
:100EA000EA01CE17DF07E8F54A815B819E01411513
:100EB0005105B1F7E901FB83EA8349915991C40FC8
:100EC000D51FEC17FD0761F4808191810296840F94
:100ED000951FE90199838883828193819B838A830B
:100EE000F0E0E0E012968D919C9113970097B9F590
:100EF0002D913C911197CD010296820F931F209165
:100F00000002309101022817390739F6309751F560
:100F10001092030210920202B0930102A093000209
:100F2000BCCFD383C28340815181840F951FC817E2
:100F3000D90761F44E5F5F4F88819981480F591F2F
:100F4000518340838A819B8193838283211531055C
:100F500009F0B0CFF0930302E09302029ECFFD01AF
:100F6000DC01C0CF13821282D7CF10E0CDE5D0E0F4
:100F700004C0FE010E948A062196CE35D107C9F72A
:040F8000F894FFCF13
:100F840000000402800000000000030363029002DA
:080F94005003C1029F02B302E9
:00000001FF
