:100000000C94BC000C94E4000C94E4000C94BE0826
:100010000C94BE080C94BE080C94E4000C94E4000C
:100020000C94E4000C94E4000C94E4000C94E400C0
:100030000C94E4000C94E4000C94E4000C94E400B0
:100040000C941C080C94E4000C948C080C94660826
:100050000C94E4000C94E4000C94E4000C94E40090
:100060000C94E4000C94E4004446506C6179657291
:10007000204D696E69206F6E6C696E652E00322EA0
:10008000506C6561736520696E7365727420746865
:100090006520534420636172642100312E506C65E9
:1000A000617365207265636865636B2074686520A1
:1000B000636F6E6E656374696F6E2100556E616269
:1000C0006C6520746F20626567696E3A00496E69DD
:1000D0007469616C697A696E67204446506C617915
:1000E0006572202E2E2E20284D61792074616B655B
:1000F00020337E35207365636F6E64732900444638
:10010000526F626F74204446506C61796572204D65
:10011000696E692044656D6F0000000000240027AF
:10012000002A00000000080002010000030407008C
:10013000000000000000000000000023002600294D
:100140000001020408102040800102040810200170
:10015000020408102000000000250028002B0004E5
:10016000040404040404040202020202020303035E
:10017000030303003609E51511241FBECFEFD8E0B5
:10018000DEBFCDBF12E0A0E0B1E0ECEFF0E302C0D3
:1001900005900D92A036B107D9F723E0A0E6B2E0B2
:1001A00001C01D92A03FB207E1F710E0CBEBD0E019
:1001B00004C02197FE010E943F17CA3BD107C9F72F
:1001C0000E94780A0C9471180C9400008F929F92F0
:1001D000AF92BF92CF92DF92EF92FF92CF93209196
:1001E000CB033091CC0382179307E8F54B01AA2487
:1001F000BB24C82DC52ED62EE72EFF24BC2DA42F40
:100200002091D103222361F0829E40011124C92D47
:100210002C9D60011124BD2D249FF0011124AF2FCE
:10022000E091D703E090D203F090D3033091D40350
:10023000E31323C09C01220F331F820F931F8E0DE7
:100240009F1DE091D403E80FF92FF11DC083E091C9
:10025000D503E80FF92FF11DB0832091D603820F4B
:10026000911DFC01A083CF91FF90EF90DF90CF9084
:10027000BF90AF909F908F900895880F991F880F1F
:10028000991F8E0D9F1D472F5527662777272223FD
:1002900049F030E0249F7001259FF00C349FF00C52
:1002A00011244F2DE80FF92FF11D4083CACFE091A3
:1002B000CB03F091CC038E179F0798F53091D103B3
:1002C000332361F0639FB0011124672F349FA00195
:1002D0001124452F329F90011124232F3091D703F1
:1002E000E091D203F091D3035091D40335131AC097
:1002F000DC01AA0FBB1F8A0F9B1F8E0F9F1FE0916F
:10030000D403E80FF92FF11D6083E091D503E80FC6
:10031000F92FF11D40833091D603830F911DFC010D
:1003200020830895880F991F880F991F8E0F9F1F94
:10033000FC01E30FF11D1082E2CF90E0FC01ED5DC6
:10034000FE4F2491FC01EF5BFE4F3491FC01E15A1A
:10035000FE4FE491EE23C9F0222339F0233001F15E
:10036000A8F4213019F1223029F1F0E0EE0FFF1F3F
:10037000EB5AFE4FA591B4918FB7F894EC916111AF
:1003800026C030953E233C938FBF08952730A9F0B7
:100390002830C9F0243049F7809180008F7D03C058
:1003A000809180008F7780938000DFCF84B58F7736
:1003B00084BDDBCF84B58F7DFBCF8091B0008F777C
:1003C0008093B000D2CF8091B0008F7DF9CF3E2BCB
:1003D000DACFCF93DF9390E0FC01EF5BFE4F2491E7
:1003E000815A9E4FFC0184918823D1F090E0880FC0
:1003F000991FFC01E75EFE4FA591B491FC01EB5AF9
:10040000FE4FC591D49161110EC09FB7F8948C91A5
:10041000E22FE0958E238C932881E223E8839FBF0F
:10042000DF91CF9108958FB7F894EC91E22BEC9384
:100430008FBFF6CF3FB7F8948091E3029091E4022A
:10044000A091E502B091E60226B5A89B05C02F3F1A
:1004500019F00196A11DB11D3FBFBA2FA92F982FEA
:100460008827BC01CD01620F711D811D911D42E0E5
:10047000660F771F881F991F4A95D1F708950F932C
:100480001F93CF93DF93CDB7DEB729970FB6F894BC
:10049000DEBF0FBECDBF8091D2039091D303892BD5
:1004A00009F47CC00E941A020091D8031091D9036C
:1004B0002091DA033091DB036017710782079307FD
:1004C00040F46093D8037093D9038093DA03909338
:1004D000DB030091D8031091D9032091DA03309106
:1004E000DB03601B710B820B930B6C327140810537
:1004F0009105C0F2F8948091CD039091CE039A8338
:100500008983E091D203F091D303DF0111968081BA
:1005100089879091C903E091DC03F091DD0380911C
:10052000DE03992309F445C09081982B9887908128
:10053000809589238F838F818C8388E08B83588576
:100540006F8149853B812C8189819A81508347FD48
:10055000252F3A952083262F39F0441F00C0000034
:100560006083000000C0F2CF38E04D91608300004E
:10057000019761F7F093DD03E093DC0349873B8348
:100580002C839A83898378940E941A026093D803FB
:100590007093D9038093DA039093DB0329960FB607
:1005A000F894DEBF0FBECDBFDF91CF911F910F91A9
:1005B00008959081982B98879081809589238F83C7
:1005C0008F818E8388E08D8358856F8149853D8139
:1005D0002E8189819A81508347FD252F00C000C05C
:1005E000208300C000C000C000C000C060830000C5
:1005F000262F3A9541F0441F000000C000C000C003
:1006000000C000C0E8CF38E04D9100C0608300C05A
:10061000019709F7F093DD03E093DC0349873D83FD
:100620002E83AFCF8F929F92AF92BF92CF92DF92E5
:10063000EF92FF926B017C010E941A024B015C0158
:10064000C114D104E104F104B9F00E941A0268193E
:1006500079098A099B09683E73408105910580F3F9
:1006600021E0C21AD108E108F10888EE880E83E083
:10067000981EA11CB11CE4CFFF90EF90DF90CF90AB
:10068000BF90AF909F908F9008952FB7F89460918E
:10069000DF027091E0028091E1029091E2022FBFAF
:1006A00008950F931F938091840390918503DC013B
:1006B000ED91FC910084F185E02D0995892B09F4D9
:1006C000D7C060E070E0CB010E9412032091A2032A
:1006D0008091840390918503DC01ED91FC9102846B
:1006E000F385E02D21110BC0099580938E038E3781
:1006F000D1F68091A2038F5F8093A203D4CF099596
:100700009091A203E92FF0E0EC57FC4F82879230E2
:10071000B9F09930D9F09130A9F48F3F99F0109247
:10072000A20381E08093A4031092A7031092A60372
:100730008093A8031092A90380E01F910F91089560
:10074000863069F79F5F9093A203ADCF8F3E39F754
:100750002091900380918F03280F3327331FE0915E
:100760009103C9018E0F911D20919203280F392FFB
:10077000311D4091930350E0240F351F8091940365
:1007800090E06091950370E0762F6627F0919603D4
:100790006F0F711D280F391F31952195310962178F
:1007A000730709F0BCCF1092A203E13419F4109240
:1007B000A9032FC0E093A503542F4427840F951F4E
:1007C0009093A7038093A603EA53E63108F046C04E
:1007D000F0E0E351FC4F0C943F171A0422042C0460
:1007E00003042C040C042A042E042C042C042C04D2
:1007F0002C042C042C042C042C042E042C042C0477
:100800002C042C042C0485E08093A40381E08093C5
:10081000A8038091A80391CF80FF02C089E0F4CFA4
:1008200081FF02C084E0F0CF83709927892B89F380
:100830008AE0EACF80FF02C087E0E6CF81FFE9CF00
:1008400082E0E2CF80FF02C088E0DECF81FFE1CF0F
:1008500083E0DACF86E0D8CF8BE0D6CF81E08093FB
:10086000A4031092A7031092A6038093A8039FCF1E
:100870008091A903882369F20E94450300918603B1
:10088000109187032091880330918903601B710BBD
:10089000820B930B00918A0310918B0320918C03A0
:1008A00030918D03601771078207930708F4B1CF69
:1008B0001092A2031092A4031092A7031092A60311
:1008C00081E036CF80939B03272F30E070939D0308
:1008D00060939E0340919A0390919903490F552785
:1008E000551F840F952F911D40919C03840F911DDE
:1008F000820F931F680F792F711D71956195710992
:1009000070939F036093A003442361F08091A90337
:10091000882341F060E070E0CB010E9412030E9446
:100920005103F4CF8091840390918503DC01ED9114
:10093000FC910280F381E02D4AE050E068E973E029
:1009400009950E9445036093860370938703809303
:1009500088039093890380919C0391E0811101C0E9
:1009600090E09093A903811106C06AE070E080E0F6
:1009700090E00C9412030895AF92BF92CF92DF9251
:10098000EF92FF920F931F93CF93DF936C017B0144
:100990008B01040F151FEB015E01AE18BF08C017D5
:1009A000D10759F06991D601ED91FC910190F08148
:1009B000E02DC6010995892B79F7C501DF91CF910B
:1009C0001F910F91FF90EF90DF90CF90BF90AF906D
:1009D0000895FC01538D448D252F30E0842F90E045
:1009E000821B930B541710F0CF960895019708952A
:1009F000FC01918D828D981761F0A28DAE0FBF2FF3
:100A0000B11D5D968C91928D9F5F9F73928F90E048
:100A100008958FEF9FEF0895FC01918D828D9817B7
:100A200031F0828DE80FF11D858D90E008958FEFF4
:100A30009FEF0895FC01918D228D892F90E0805CBD
:100A40009F4F821B91098F739927089587EE92E03B
:100A50000E941A0521E0892B09F420E0822F0895D5
:100A600080E090E0892B29F00E94260581110C94EA
:100A700000000895FC01A48DA80FB92FB11DA35A41
:100A8000BF4F2C91848D90E001968F739927848FAE
:100A9000A689B7892C93A089B1898C9183708064D1
:100AA0008C93938D848D981306C00288F389E02D72
:100AB00080818F7D80830895EF92FF920F931F9323
:100AC000CF93DF93EC0181E0888F9B8D8C8D981301
:100AD0001AC0E889F989808185FF15C09FB7F8940D
:100AE000EE89FF896083E889F98980818370806459
:100AF00080839FBF81E090E0DF91CF911F910F91A4
:100B0000FF90EF900895F62E0B8D10E00F5F1F4FB2
:100B10000F731127E02E8C8D8E110CC00FB607FCC1
:100B2000FACFE889F989808185FFF5CFCE010E944F
:100B30003A05F1CFEB8DEC0FFD2FF11DE35AFF4F7E
:100B4000F0829FB7F8940B8FEA89FB8980818062DD
:100B5000CFCFCF93DF93EC01888D8823B9F0AA899A
:100B6000BB89E889F9898C9185FD03C0808186FD68
:100B70000DC00FB607FCF7CF8C9185FFF2CF8081B7
:100B800085FFEDCFCE010E943A05E9CFDF91CF91ED
:100B900008952091A2023091A3022817390771F419
:100BA0009091A0028091A102981741F0E091A002DB
:100BB000F0E0E05AFD4F808190E008958FEF9FEFC5
:100BC00008950895EF92FF920F931F93CF93DF93B1
:100BD000DC015C96ED90FC905D97E114F10479F4F2
:100BE00081E090E013969C938E93129790E080E0C2
:100BF000DF91CF911F910F91FF90EF900895519643
:100C0000ED91FC91529750968C915097982F90951A
:100C10000FB75E962C915E97122F127021FD609592
:100C2000F8942081112319F1282B2083E7012197C3
:100C3000F1F728E0462F50E0308160FF1AC0382BD2
:100C40003083E7012197F1F7BA0175956795215037
:100C500089F7112381F08081892380830FBF5C96FF
:100C60008D919C910197F1F781E090E0C1CF29230C
:100C7000DCCF3923E5CF9081892BEFCF2091A202E1
:100C80003091A3022817390771F48091A1022091B5
:100C9000A00290E0805C9F4F821B910960E470E0AD
:100CA0000E942B17089590E080E008952091A20201
:100CB0003091A30228173907B9F49091A0028091CE
:100CC000A102981789F0E091A002F0E0E05AFD4FF0
:100CD00080812091A00230E02F5F3F4F2F73332798
:100CE0002093A00290E008958FEF9FEF089590E089
:100CF00080E008954F925F926F927F928F929F92C1
:100D0000AF92BF92CF92DF92EF92FF920F931F9319
:100D1000CF93DF93EC01162F8091CB039091CC03FE
:100D200020E030E0A901C817D90708F069C0309168
:100D3000D7032091D4038091D2039091D303809064
:100D4000D103432F50E0A091D503B0E0E091D6034A
:100D5000CE2ED12C321392C09E01220F331F2C0FA6
:100D60003D1F820F931F480F591FFA016081A80F82
:100D7000B91FFC90F601E80FF91F00818820B1F13E
:100D8000912CB12CA12C70E0762F6627072E000C39
:100D9000880B990BA50194010E94E6163901552490
:100DA00044246F2D70E0762F6627072E000C880BE9
:100DB000990BA50194010E94E616542F432F322F60
:100DC0002227422A532A642A752A602F70E0762F40
:100DD0006627072E000C880B990BA50194010E9431
:100DE000E61624293529462957290AC02F2D30E037
:100DF00050E040E0542F432F322F2227462B202B48
:100E0000CA01AA27BB27C32ED42EE52EFF247C2D92
:100E100060E08B3048F0819FA001112457FF02C091
:100E200041505F4F682F651B40E07B3048F0C19E0A
:100E3000C001112497FF02C081509F4F4C2D491BC8
:100E40002B3008F486C0219FC001112497FF02C0F7
:100E500081509F4F291BCE01DF91CF911F910F91A0
:100E6000FF90EF90DF90CF90BF90AF909F908F90CA
:100E70007F906F905F904F900C945701BE01660F6A
:100E8000771F660F771F860F971F480F591FFA01AC
:100E90006081280F392F311DF901E080A80FB91F9B
:100EA0000C91F601E80FF91FF080882009F446C084
:100EB000912CB12CA12C70E0762F6627072E000C08
:100EC000880B990BA50194010E94E616722E6624E8
:100ED000552444246E2D70E0762F6627072E000CD3
:100EE000880B990BA50194010E94E616A9013327EE
:100EF0002227422A532A642A752A6F2D70E0762F02
:100F00006627072E000C880B990BA50194010E94FF
:100F1000E616422A532A642A752A602F70E0762F3B
:100F20006627072E000C880B990BA50194010E94DF
:100F3000E616542F432F322F222753CF2E2D30E089
:100F400050E040E0A90133272227562B2F29302BD0
:100F500057CF20E080CFFC0101900020E9F73197C6
:100F6000AF01481B590BBC0187EE92E00C94BC0406
:100F70008F929F92AF92BF920F931F93CF93DF9365
:100F8000CDB7DEB7A1970FB6F894DEBF0FBECDBFC9
:100F900019A2423008F44AE08E010F5D1F4F842EE3
:100FA000912CB12CA12CA50194010E94E616E62FEC
:100FB000B901CA01EA30F4F4E05DD801EE938D0185
:100FC000232B242B252B79F790E080E0109719F044
:100FD000CD010E94AB07A1960FB6F894DEBF0FBEFD
:100FE000CDBFDF91CF911F910F91BF90AF909F9098
:100FF0008F900895E95CE1CF0F931F93CF93DF9318
:101000008C01D0E0C0E0F801EC0FFD1F6491662375
:1010100041F087EE92E00E945C05892B11F0219649
:10102000F2CF82E492E00E94AB078C0F9D1FDF910C
:10103000CF911F910F9108951F920F920FB60F92AB
:1010400011242F933F938F939F93AF93BF938091DE
:10105000DF029091E002A091E102B091E2023091B2
:10106000DE0223E0230F2D3758F50196A11DB11D97
:101070002093DE028093DF029093E002A093E102CE
:10108000B093E2028091E3029091E402A091E50224
:10109000B091E6020196A11DB11D8093E3029093E9
:1010A000E402A093E502B093E602BF91AF919F9155
:1010B0008F913F912F910F900FBE0F901F90189519
:1010C00026E8230F0296A11DB11DD2CF1F920F92C9
:1010D0000FB60F9211242F933F934F935F936F930B
:1010E0007F938F939F93AF93BF93EF93FF9387EE7D
:1010F00092E00E943A05FF91EF91BF91AF919F91CD
:101100008F917F916F915F914F913F912F910F90B0
:101110000FBE0F901F9018951F920F920FB60F924F
:1011200011242F938F939F93EF93FF93E091F702F6
:10113000F091F8028081E091FD02F091FE0282FDC3
:101140001BC09081809100038F5F8F7320910103FA
:10115000821741F0E0910003F0E0E951FD4F958FD7
:1011600080930003FF91EF919F918F912F910F90AA
:101170000FBE0F901F9018958081F4CF1F920F9291
:101180000FB60F9211242F933F934F935F936F935A
:101190007F938F939F93AF93BF93EF93FF93E091D0
:1011A000A202F091A302309749F0A685B785858504
:1011B000968D91FF14C09C918923A1F4FF91EF912A
:1011C000BF91AF919F918F917F916F915F914F915F
:1011D0003F912F910F900FBE0F901F9018959C91EB
:1011E000892361F7A389B4899C9185898095892396
:1011F0008C93868997890197F1F7608D718DA6850B
:10120000B785558538E020E0CB010197F1F7822FB3
:1012100090E095958795282F4C91452309F02068FB
:10122000315091F7868D81FD20958091A10290E04B
:1012300001968F7399273091A002381799F0A091E9
:10124000A102B0E0A05ABD4F2C938093A102828DE1
:10125000938D0197F1F7A389B4898C919589892B96
:101260008C93ACCF868D8160868FF1CF1092EA028D
:101270001092E90288EE93E0A0E0B0E08093EB02E8
:101280009093EC02A093ED02B093EE0282E292E022
:101290009093E8028093E70285EC90E09093F4024B
:1012A0008093F30284EC90E09093F6028093F50231
:1012B00080EC90E09093F8028093F70281EC90E04C
:1012C0009093FA028093F90282EC90E09093FC02F2
:1012D0008093FB0226EC30E03093FE022093FD0267
:1012E0001092000310920103109202031092030364
:1012F0001092CA031092D1031092D8031092D9030E
:101300001092DA031092DB0381E08093D70380937D
:10131000D4031092D50392E09093D6038093C9032F
:101320003093CE032093CD0386EC90E00E944517C6
:101330009093D3038093D203009709F4D0C026EC96
:10134000FC0111922A95E9F782E490E09093CC0396
:101350008093CB0385E090E09093D0038093CF03FC
:101360008091CA03882341F061E085E00E94E90191
:1013700060E085E00E949D01E4E6F1E0E491F0E0A8
:10138000EE0FFF1FEB5AFE4F859194919093DD0372
:101390008093DC03E6E4F1E0E491E093DE03109255
:1013A000AD031092AC0388EE93E0A0E0B0E0809330
:1013B000AE039093AF03A093B003B093B10384E363
:1013C00092E09093AB038093AA031092C103109212
:1013D000C0031092C3031092C2031092C50310926F
:1013E000C4031092C7031092C6036091C8036E7FB6
:1013F0006D7F6093C8036695617081E068278BE01C
:101400000E949D0161E08BE00E94E901ECE4F1E0C3
:10141000E491E093BA03EAE6F1E0E491F0E0EE0F44
:10142000FF1FEB5AFE4F859194919093BC038093DC
:10143000BB0360E08AE00E94E9018091C80381FD5E
:1014400004C061E08AE00E949D018AE08093B603B7
:10145000EBE4F1E0E491E093B703E9E6F1E0E49135
:10146000F0E0EE0FFF1FE95CFE4F259134913093C1
:10147000B9032093B80344EF51E060E070E040937B
:101480008A0350938B0360938C0370938D03E8E180
:10149000F1E0A8E9B3E001900D928A95E1F710928E
:1014A000A20382E08093A3031092A8031092A903E1
:1014B0008FEF8093DF031092E1031092E00310920C
:1014C000EB031092EA038FEF9FEFDC018093E603BA
:1014D0009093E703A093E803B093E9030895109273
:1014E000CE031092CD031092CC031092CB0332CFD7
:1014F000CF93DF93CDB7DEB766970FB6F894DEBF14
:101500000FBECDBF789484B5826084BD84B5816000
:1015100084BD85B5826085BD85B5816085BD8091BE
:101520006E00816080936E00109281008091810036
:10153000826080938100809181008160809381002E
:10154000809180008160809380008091B1008460F0
:101550008093B1008091B00081608093B000809151
:101560007A00846080937A0080917A008260809310
:101570007A0080917A00816080937A0080917A006D
:10158000806880937A001092C100E091F702F09198
:10159000F80282E08083E091F302F091F40210827D
:1015A000E091F502F091F60280E180831092FF0253
:1015B000E091FB02F091FC0286E08083E091F90269
:1015C000F091FA02808180618083E091F902F091CC
:1015D000FA02808188608083E091F902F091FA023A
:1015E000808180688083E091F902F091FA02808125
:1015F0008F7D80831092C5031092C4031092C303A1
:101600001092C2031092C1031092C0038DE991E0C1
:101610009093C7038093C6039091B603963108F068
:1016200047C02DEB30E03093C1032093C0032BE97A
:1016300031E03093C3032093C2032CE231E03093B6
:10164000C5032093C4032091680084E0983048F0DB
:1016500031E09E3008F430E081E001C0880F3A9517
:10166000EAF7822B809368002DE630E0983050F046
:101670002BE630E09E3030F02CE630E0963110F072
:1016800030E020E03093BE032093BD03292F30E0EB
:10169000983008F083C081E001C0880F9A95EAF77E
:1016A0008093BF038091C6039091C7030197F1F720
:1016B0008091C4039091C503892B49F1E091A20266
:1016C000F091A30223E0EA3AF20709F1309739F0EA
:1016D000A389B4899C918589809589238C93809175
:1016E000C8038E7F8093C8031092A1021092A002BB
:1016F0008AEA93E09093A3028093A202E091BD0353
:10170000F091BE0380819091BF03892B808361E0BB
:1017100089E00E94E90160E089E00E949D0160E0AB
:1017200082E00E94E90160E08EE00E94E90185E428
:1017300092E00E94AB0782E492E00E94AB078EEF3A
:1017400090E00E94FC078DEC90E00E94FC078AEA82
:1017500093E0909385038093840381E080939C03BE
:1017600070E060E08CE00E9462040E9445036B011F
:101770007C010E94510381111EC00E9445036C1917
:101780007D098E099F09613D77408105910598F497
:1017900060E070E0CB010E941203EBCF9E3040F47A
:1017A0002850310981E001C0880F2A95EAF778CFE7
:1017B0002E503109F7CF68EC70E080E090E00E9495
:1017C00012031092A8038091A4038430A1F0893001
:1017D00091F08CEB90E00E94FC078BE990E00E9476
:1017E000FC078EE790E00E94FC0760E070E0CB0110
:1017F0000E941203FACF6091D103663021F120914B
:10180000D2033091D303615070E0C1F08FEF95E0C7
:101810000E941717F9014091CD035091CE03CF01DB
:10182000821B930B8417950758F44081469FC00193
:10183000479F900D112490833196EDCF60E0EACF61
:1018400086E08093D1038091CF039091D00397FDE0
:1018500008C061E00E94E90160E08091CF030E942E
:101860009D0181E08093CA030E943F0288E690E0D8
:101870000E94FC0762E170E086E00E94620461E081
:1018800070E083E00E946204412C512C32014A94A2
:101890008AE3282E81E0382E0E9445036D837E83E3
:1018A0008F8398870E9445034B015C014CEA8416A4
:1018B0004DE09406A104B104B9F481E592E00E94E0
:1018C000AB070E9445034AE00E94B80782E492E019
:1018D0000E94AB074FEF5FEF6FEF70E090E080E0AA
:1018E0000E94E6000E943F020E944503683873414F
:1018F0008105910508F464C08091A6029091A70229
:10190000092E000CAA0BBB0B75016401C81AD90A79
:10191000EA0AFB0AD701C60184379105A105B10582
:1019200008F44EC08091CB039091CC030397E090D4
:10193000A402F090A502FA82E9828E159F0508F4B0
:101940003FC09092A7028092A6028E159F0539F0A3
:101950004FEF5FEF6FEF70E0C7010E94E6000E945B
:101960003F0240E050E0BA0189819A8101970E94CC
:10197000E6000E943F02C980DA802FEFC21AD20A25
:10198000D092A502C092A4020D2C000CEE08FF0814
:101990004AE0C701B601F7FE0DC06DE287EE92E0A6
:1019A0000E945C0566277727CB016C197D098E099B
:1019B0009F094AE00E94B80782E492E00E94AB07C8
:1019C0000E9445036B017C01DC01CB018C599143E2
:1019D000A109B10985389C41A105B10508F0CCC128
:1019E000D701C601885C9243A109B109813D9740A6
:1019F000A105B10508F057C08091B3029091B402DF
:101A0000A091B502B091B60246015701881A990A11
:101A1000AA0ABB0AD501C4014097A105B10508F483
:101A200042C0C092B302D092B402E092B502F092EA
:101A3000B602A0900601B0900701BA82A9828091F7
:101A4000B202811155C79501265F3F4F3A83298322
:101A50003093070120930601822F90E0B0E0A0E0D0
:101A60005C0199248824BA2FA92F982F8827882AC7
:101A7000992AAA2ABB2A02E511E0B501A401D801DE
:101A80008D919D918D010E94E600B1E00A361B0701
:101A9000A1F70E943F02E981FA81E53FF1051CF0C0
:101AA00081E08093B202D701C6018C5B9443A10907
:101AB000B109813D9740A105B10508F058C080915A
:101AC000AE029091AF02A091B002B091B102460176
:101AD0005701881A990AAA0ABB0AD501C40140977E
:101AE000A105B10508F443C0C092AE02D092AF0286
:101AF000E092B002F092B102A0900401B090050112
:101B0000BA82A9828091AD02811125C795012B5F10
:101B10003F4F3A8329833093050120930401822F9C
:101B200090E0B0E0A0E05C0199248824BA2FA92FAE
:101B3000982F8827882A992AAA2ABB2A0AE311E023
:101B4000B501A401D8018D919D918D010E94E600FF
:101B5000E2E5F1E0E017F10799F70E943F022981E1
:101B60003A81253F31051CF081E08093AD02D70119
:101B7000C601805B9643A109B109813D9740A1054B
:101B8000B10508F056C08091A9029091AA02A091D7
:101B9000AB02B091AC0246015701881A990AAA0A11
:101BA000BB0AD501C4014097A105B10508F441C0A5
:101BB000C092A902D092AA02E092AB02F092AC02CB
:101BC000A0900201B0900301BA82A9828091A8027C
:101BD0008111F2C695012B5F3F4F3A8329833093E1
:101BE000030120930201822F90E0B0E0A0E07C018D
:101BF000DD24CC24BA2FA92F982F8827C82AD92AC8
:101C0000EA2AFB2A02E211E0B701A601D8018D9170
:101C10009D918D010E94E60020163106A9F70E94D1
:101C20003F02E981FA81E53FF1051CF081E08093F4
:101C3000A8020E9445030091D2021091D302209184
:101C4000D4023091D502601B710B820B930B693269
:101C500071058105910508F48FC00E9445036093CA
:101C6000D2027093D3028093D4029093D5028091D4
:101C7000D102811142C0A0900001B09001019501F4
:101C8000265F3F4F3A83298330930101209300015F
:101C9000822F90E0B0E0A0E07C01DD24CC24BA2FBC
:101CA000A92F982F8827C82AD92AEA2AFB2A8091A7
:101CB000CB039091CC03B701A60101970E94E600E7
:101CC0008091CB039091CC03B701A60102970E94AB
:101CD000E6008091CB039091CC03B701A601039756
:101CE0000E94E6000E943F0249815A814F3F510500
:101CF0000CF442C081E08093D10280910001909168
:101D000001010A979A8389839093010180930001CE
:101D1000E9818E2F90E0B0E0A0E07C01DD24CC24AE
:101D2000BA2FA92F982F8827C82AD92AEA2AFB2A4E
:101D30008091CB039091CC03B701A60101970E943B
:101D4000E6008091CB039091CC03B701A6010297E6
:101D50000E94E6008091CB039091CC03B701A601CD
:101D600003970E94E6000E943F0229813A812833AE
:101D7000310514F41092D1020E9445036B017C01DD
:101D800038E0C31632E5D306E104F10471F048EA05
:101D9000C41641E6D406E104F10439F058E4C5164E
:101DA00051E7D506E104F10451F41092C4021092F7
:101DB000C30282E390E090930B0180930A01D70164
:101DC000C60188569244A109B109813B9643A105F9
:101DD000B10508F05EC00E9445030091BF0210915A
:101DE000C0022091C1023091C202601B710B820BB4
:101DF000930B653671058105910508F44AC00E9470
:101E000045036093BF027093C0028093C102909318
:101E1000C2020E945C1624E230E040E050E00E94E2
:101E2000B416660F771F60567E4FDB010D90BC9194
:101E3000A02DBA83A9832FEF4FEF6FEFCD010E9442
:101E400057010E943F020E9445030091BB0210917E
:101E5000BC022091BD023091BE02601B710B820B4F
:101E6000930B653671058105910598F00E94450335
:101E70006093BB027093BC028093BD029093BE023C
:101E800020E040E060E089819A810E9457010E9431
:101E90003F02D701C601845F9C44A109B109853185
:101EA0009540A105B10520F1D701C6018C539A4593
:101EB000A109B109813B9440A105B105C8F0D70142
:101EC000C6018C549846A109B10985319540A105F8
:101ED000B10570F038EFC31A35E7D30AE108F1080D
:101EE00045E1C41645E0D406E104F10408F0B1C0B0
:101EF0000E9445030091B7021091B8022091B902E7
:101F00003091BA02601B710B820B930B603171052B
:101F10008105910508F49DC00E9445036093B702B6
:101F20007093B8028093B9029093BA028091C30271
:101F3000811145C080900A0190900B015AE0850EF6
:101F4000911C90920B0180920A01B090C402BB20B8
:101F500009F491C58FEF8816910409F024F5C82C77
:101F6000D12CF12CE12C7601DD24CC241A821982AB
:101F700080910801909109018230910509F04DC5C9
:101F8000E981FA81EE0FFF1FE257FE4FB701A6016C
:101F9000808191810E94E600E981FA813196FA837D
:101FA000E983399729F70E943F023FEF8316910496
:101FB0000CF44FC0B1104DC081E08093C302E0909B
:101FC0000A01F0900B014AE0E41AF108F0920B01CB
:101FD000E0920A018E2D90E0B0E0A0E05C0199242F
:101FE00088244427582F692F7A2F842A952AA62AD5
:101FF000B72A8E28992AAA2ABB2A1A821982009106
:102000000801109109010330110509F0A0C5B501BF
:10201000A401E981FA81E257FE4F808191810E94FB
:10202000E60089819A8102969A838983429739F7DB
:102030000E943F0298E3E916F1045CF41092C30297
:1020400081E08093C40201501109109309010093AB
:1020500008018D819E81AF81B8858C509B47A10975
:10206000B10987349540A105B10508F041C02EE7BC
:1020700030E03A83298310E000E00E945C162AE0F9
:1020800030E040E050E00E94B416663071058105F2
:10209000910524F06AE0C8010E947A060F5F1F4F85
:1020A0000F33110551F7E980FA8038E0E31AF1089F
:1020B00009811A810F33110530F420E04FEF6FEFE3
:1020C000C8010E945701015011090E151F0591F713
:1020D0000E943F0261E070E080E090E00E94120305
:1020E00049815A81415051095A834983452B19F638
:1020F0008D819E81AF81B885885E9048A109B10924
:102100008B8B9C8BAD8BBE8B8D329C44A105B10516
:1021100008F06BC00E9445036B017C010E945C16B5
:1021200069877A878B879C870E945C1669837A838C
:102130008B839C830E945C168090C5029090C6029F
:10214000A090C702B090C802A701960128193909CA
:102150004A095B092335334041055105B0F1C0926E
:10216000C502D092C602E092C702F092C802A30153
:1021700092010E94B416162F69817A818B819C810D
:10218000A30192010E94B416062F69857A858B857A
:102190009C85A30192010E94B416F62ED12CC12C6D
:1021A000212F402F6F2DC6010E9457010E943F0230
:1021B00063E070E080E090E00E941203BFEFCB1A72
:1021C000DB0AEFE3CE16D10459F78B889C88AD88E3
:1021D000BE8821E1821627E29206A104B10408F428
:1021E000E3C460E089E00E949D018D819E81AF8102
:1021F000B8858C5F904DA109B10981379741A10540
:10220000B105D0F50E9445030091C9021091CA02A0
:102210002091CB023091CC024B015C01801A910AD3
:10222000A20AB30A95018401033011052105310585
:1022300018F16093C9027093CA028093CB02909305
:10224000CC020E945C162AE030E040E050E00E94A0
:10225000B416663071058105910574F00E945C1614
:1022600022E430E040E050E00E94B416CB0162E38B
:102270000E947A060E943F028D819E81AF81B885BF
:1022800080569A4EA109B10981379741A105B10540
:1022900008F07DC00E945C1626E831E040E050E086
:1022A0000E94B4169B01AC01265F3F4F4F4F5F4F1A
:1022B00029833A834B835C834AE050E05A8B498BF5
:1022C0000E945C166D877E878F87988B0E945C16B4
:1022D0004B015C010E945C166B017C010E945C1644
:1022E00069877A878B879C876D857E858F8598899E
:1022F000A30192010E94B4166D87C501B401A30128
:1023000092010E94B416162FC701B601A3019201D3
:102310000E94B416062F69857A858B859C852FE3EC
:1023200030E040E050E00E94B416CB012D85412FF3
:10233000602F0E9457010E943F0289899A89019764
:102340009A8B898B892B09F0BBCF0E945C162AE5FA
:1023500030E040E050E00E94B416665F7F4F8F4F40
:102360009F4F0E9412034091CD035091CE0370E025
:1023700060E08091D2039091D3030E946A180E947A
:102380003F0269817A818B819C810E9412038D8139
:102390009E81AF81B885805D9140A140B109893EA1
:1023A0009340A105B10508F03FC01A82198210E0E0
:1023B00000E00E945C162AE030E040E050E00E941D
:1023C000B416663071058105910524F06FE0C801EF
:1023D0000E947A060F5F1F4F0F33110551F70981D5
:1023E0001A817801FFE0EF1AF1080F33110530F47C
:1023F00024ED41E26EEDC8010E9457010150110920
:10240000E016F10691F70E943F026FE070E080E075
:1024100090E00E94120329813A812F5F3F4F3A8357
:1024200029832E37310519F68D819E81AF81B885BC
:1024300088569A40A140B10985359442A105B1055D
:10244000D0F440E05FEF6FEF70E081E490E00E9435
:10245000E60040E05FEF6FEF70E080E490E00E9404
:10246000E60040E05FEF6FEF70E08FE390E00E94E6
:10247000E6000E943F028D819E81AF81B8858C5914
:102480009241A140B10989359B41A105B10508F0F0
:1024900054C00E9445030091CD021091CE022091BC
:1024A000CF023091D0024B015C01801A910AA20A3E
:1024B000B30A95018401053F114021053105E8F17A
:1024C0006093CD027093CE028093CF029093D0029E
:1024D0001A8619860E945C164B015C010E945C16EC
:1024E0006B017C010E945C1669837A838B839C83D9
:1024F000C501B401A30192010E94B416162FC701B1
:10250000B601A30192010E94B416062F69817A8157
:102510008B819C81A30192010E94B416212F402F30
:1025200089859A850E94570189859A8501969A879F
:102530008987CF9779F60E943F028D819E81AF8176
:10254000B88588559E42A140B10989329A40A105BB
:10255000B10560F44091CD035091CE0370E060E08E
:102560008091D2039091D3030E946A188D819E813D
:10257000AF81B88584579A43A140B1098D3D9540FC
:10258000A105B10508F055C078EEE72E71E0F72EF1
:1025900010E000E028EE31E03A8329830E945C16C7
:1025A0002AE030E040E050E00E94B4166630710549
:1025B000810591053CF065E0A981BA818D919C91DE
:1025C0000E947A06E981FA813296FA83E983EE5114
:1025D000F24021F71A82198289819A81800F911F16
:1025E0004B9768F4E981FA81EE0FFF1FEE0DFF1D96
:1025F0002FEF4FEF6FEF808191810E94570149814A
:102600005A81415051095A834983463F5F4F21F710
:102610000E943F0268E270E080E090E00E941203B6
:102620000F5F1F4F92E0E90EF11C0633110509F010
:10263000B1CF8D819E81AF81B88588569C43A140E2
:10264000B109813E9E42A105B10508F041C10E9439
:1026500045030E9445030091D2021091D3022091BC
:10266000D4023091D502601B710B820B930B6B303F
:1026700071058105910508F497C00E944503609398
:10268000D2027093D3028093D4029093D5028091AA
:10269000D102811146C080900C0190900D019401EF
:1026A000265F3F4F3A83298330930D0120930C011D
:1026B000822F90E0B0E0A0E07C01DD24CC24442710
:1026C000582F692F7A2FC42AD52AE62AF72AC22A38
:1026D000D92AEA2AFB2A8091CB039091CC03B70137
:1026E000A60101970E94E6008091CB039091CC0354
:1026F000B701A60102970E94E6008091CB0390915A
:10270000CC03B701A60103970E94E6000E943F0296
:1027100049815A814F3F51050CF446C081E08093B6
:10272000D10280910C0190910D010A979A838983BF
:1027300090930D0180930C01E9818E2F90E0B0E021
:10274000A0E07C01DD24CC244427582F692F7A2F68
:10275000C42AD52AE62AF72ACE2AD92AEA2AFB2A27
:102760008091CB039091CC03B701A60101970E9401
:10277000E6008091CB039091CC03B701A6010297AC
:102780000E94E6008091CB039091CC03B701A60193
:1027900003970E94E6000E943F0229813A81283374
:1027A000310514F41092D1020E9445030091D60223
:1027B0001091D7022091D8023091D902601B710B81
:1027C000820B930B653671058105910508F44DC0A8
:1027D0000E9445036093D6027093D7028093D8027B
:1027E0009093D9020E945C166B017C010E945C16DA
:1027F00069837A838B839C830E945C164B015C0106
:102800000E945C166D837E838F83988769817A81AD
:102810008B819C81A30192010E94B4166987C50136
:10282000B401A30192010E94B41669836D817E8177
:102830008F819885A30192010E94B416162FC701BB
:10284000B60124E230E040E050E00E94B416FB0103
:10285000EE0FFF1FE056FE4F29854981612F8081D1
:1028600091810E9457010E943F020E9445030091FE
:10287000DA021091DB022091DC023091DD02601B54
:10288000710B820B930B653671058105910500F183
:102890000E9445036093DA027093DB028093DC02AE
:1028A0009093DD020E945C162BE130E040E050E0A6
:1028B0000E94B416660F771FFB01E851FE4F20E01F
:1028C00040E06FEF808191810E9457010E943F029A
:1028D00040E050E0452B11F40C944C0C0E9426056E
:1028E000882311F40C94480C0E9400000C94480CAE
:1028F00029813A81283231050CF4D5C82A50310992
:102900003093070120930601822F90E0B0E0A0E011
:102910005C0199248824BA2FA92F982F8827882A08
:10292000992AAA2ABB2A42E551E05A834983B50174
:10293000A401A981BA818D919D91BA83A9830E9436
:10294000E600EAE6F1E029813A81E217F30779F738
:102950000E943F02A8C849815A81483251050CF4AF
:1029600006C9455051095093050140930401842F35
:1029700090E0B0E0A0E05C0199248824BA2FA92F50
:10298000982F8827882A992AAA2ABB2A8AE391E0C5
:102990009A838983B501A401A981BA818D919D9102
:1029A000BA83A9830E94E600E981FA81E255F140E9
:1029B00089F70E943F02DBC829813A81283231051C
:1029C0000CF437C92A5031093093030120930201D6
:1029D000822F90E0B0E0A0E07C01DD24CC24BA2F6F
:1029E000A92F982F8827C82AD92AEA2AFB2A42E247
:1029F00051E05A834983B701A601A981BA818D911B
:102A00009D91BA83A9830E94E60089809A80281448
:102A1000390489F70E943F020CC98130910539F4CD
:102A2000E981FA81EE0FFF1FE458FE4FAFCA00970D
:102A300039F4E981FA81EE0FFF1FE659FE4FA6CA6D
:102A4000019609F0A9CA09811A81000F111FF80126
:102A5000E257FE4FB701A601808191810E94E600F6
:102A6000F801E458FE4FB701A601808191810E94D0
:102A7000E600F801E2CF882D90E0B0E0A0E07C0114
:102A8000DD24CC244427582F692F7A2FC42AD52A35
:102A9000E62AF72AC828D92AEA2AFB2A1A821982A2
:102AA0008091080190910901B701A6018330910539
:102AB00071F082309105E9F4E981FA81E458FE4F22
:102AC000808191810E94E60040E050E0BA01E981F6
:102AD000FA81E257FE4F808191810E94E6002981B0
:102AE0003A812E5F3F4F3A83298322313105C1F667
:102AF0005ACA8130910581F4E981FA81E659FE4F85
:102B0000808191810E94E60040E050E0BA01E981B5
:102B1000FA81E458FE4FDFCF892B09F7E981FA816A
:102B2000E257FE4F808191810E94E600B701A60125
:102B3000E981FA81E458FE4F808191810E94E6008C
:102B4000B701A601E981FA81E659FE4FC4CF0230F0
:102B5000110539F4B501A401E981FA81E458FE4F69
:102B60005CCA0130110539F4B501A401E981FA818B
:102B7000E659FE4F52CA0115110509F052CAB501B6
:102B8000A401E981FA81E257FE4F808191810E9480
:102B9000E600B501A401E981FA81E458FE4F808185
:102BA00091810E94E600E0CF61E089E00E949D01F2
:102BB0008D809E80AF80B88420E7821624E992063B
:102BC000A104B10408F411CB0CCB84E392E0909300
:102BD000AB038093AA038091A2029091A3028A5A28
:102BE000934071F4E091BD03F091BE039081809118
:102BF000BF038095892380831092A3021092A202C2
:102C00008091D2039091D3030E94E1178091CF036A
:102C10009091D00397FD03C060E00C94E901089502
:102C20008F929F92AF92BF92CF92DF92EF92FF92DC
:102C3000CF93DF93EC01688179818A819B81611553
:102C400071058105910521F464E279ED8BE597E04A
:102C50002DE133EF41E050E00E94B41649015A01E2
:102C60009B01AC01A7EAB1E40E94D3166B017C0181
:102C7000ACEEB4EFA50194010E94E116C60ED71E7A
:102C8000E81EF91EF7FE06C081E0C81AD108E10867
:102C900080E8F80AC882D982EA82FB82C701B601BD
:102CA0009F77DF91CF91FF90EF90DF90CF90BF9013
:102CB000AF909F908F9008958F929F92AF92BF9206
:102CC000CF92DF92EF92FF9260910E0170910F010F
:102CD0008091100190911101611571058105910597
:102CE00021F464E279ED8BE597E02DE133EF41E0EB
:102CF00050E00E94B41649015A019B01AC01A7EAB9
:102D0000B1E40E94D3166B017C01ACEEB4EFA501D7
:102D100094010E94E116C60ED71EE81EF91EF7FEAA
:102D200006C081E0C81AD108E10880E8F80AC0921C
:102D30000E01D0920F01E0921001F0921101C70133
:102D4000B6019F77FF90EF90DF90CF90BF90AF904C
:102D50009F908F90089560930E0170930F01809360
:102D60001001909311010895052E97FB1EF4009415
:102D70000E94CB1657FD07D00E94E61607FC03D031
:102D80004EF40C94CB1650954095309521953F4FBD
:102D90004F4F5F4F089590958095709561957F4F47
:102DA0008F4F9F4F08950E940817A59F900DB49FC5
:102DB000900DA49F800D911D11240895B7FF0C94D0
:102DC000D3160E94D316821B930B0895A1E21A2EEC
:102DD000AA1BBB1BFD010DC0AA1FBB1FEE1FFF1FBF
:102DE000A217B307E407F50720F0A21BB30BE40B0F
:102DF000F50B661F771F881F991F1A9469F7609556
:102E00007095809590959B01AC01BD01CF0108950F
:102E1000A29FB001B39FC001A39F700D811D11241B
:102E2000911DB29F700D811D1124911D0895AA1B43
:102E3000BB1B51E107C0AA1FBB1FA617B70710F0A5
:102E4000A61BB70B881F991F5A95A9F780959095D7
:102E5000BC01CD01089597FB072E16F4009407D00E
:102E600077FD09D00E94171707FC05D03EF4909516
:102E700081959F4F0895709561957F4F0895EE0F4E
:102E8000FF1F0590F491E02D09940F931F93CF93AA
:102E9000DF938230910510F482E090E0E091EE0340
:102EA000F091EF0330E020E0B0E0A0E0309799F43B
:102EB0002115310509F44AC0281B390B243031058E
:102EC000D8F58A819B816115710589F1FB01938396
:102ED0008283FE0111C04081518102811381481714
:102EE0005907E0F04817590799F4109761F01296C6
:102EF0000C93129713961C933296CF01DF91CF91CA
:102F00001F910F9108950093EE031093EF03F4CFF8
:102F10002115310551F04217530738F0A901DB01A3
:102F20009A01BD01DF01F801C1CFEF01F9CF909304
:102F3000EF038093EE03CDCFFE01E20FF31F8193E9
:102F400091932250310939832883D7CF2091EC0304
:102F50003091ED03232B41F42091140130911501A0
:102F60003093ED032093EC03209112013091130173
:102F70002115310541F42DB73EB74091160150910E
:102F80001701241B350BE091EC03F091ED03E217E0
:102F9000F307A0F42E1B3F0B2817390778F0AC017C
:102FA0004E5F5F4F2417350748F04E0F5F1F509359
:102FB000ED034093EC03819391939FCFF0E0E0E029
:102FC0009CCFCF93DF930097E9F0FC0132971382F7
:102FD0001282A091EE03B091EF03ED0130E020E00A
:102FE0001097A1F420813181820F931F2091EC036F
:102FF0003091ED032817390709F061C0F093ED0314
:10300000E093EC03DF91CF910895EA01CE17DF073B
:10301000E8F54A815B819E0141155105B1F7E9014F
:10302000FB83EA8349915991C40FD51FEC17FD0723
:1030300061F4808191810296840F951FE901998343
:103040008883828193819B838A83F0E0E0E01296FB
:103050008D919C9113970097B9F52D913C91119703
:10306000CD010296820F931F2091EC033091ED0366
:103070002817390739F6309751F51092EF0310925F
:10308000EE03B093ED03A093EC03BCCFD383C283D4
:1030900040815181840F951FC817D90761F44E5F95
:1030A0005F4F88819981480F591F518340838A81DE
:1030B0009B81938382832115310509F0B0CFF09372
:1030C000EF03E093EE039ECFFD01DC01C0CF13823E
:1030D0001282D7CFDC0101C06D9341505040E0F720
:1030E000089510E0CBEBD0E004C0FE010E943F1732
:0C30F0002196CC3BD107C9F7F894FFCF24
:1030FC0032002800280028000300320032000100B2
:10310C0000000000F00380007EFF060001000000BC
:10311C0000EF00000100020003000400050006009F
:10312C000700080009000A000B0015001600170024
:10313C00180019001A001B001C001D001E001F00A7
:10314C0020002A002B002C002D002E002F00300018
:10315C00310032003300340035000C000D000E003D
:10316C000F001000110012001300140021002200A7
:10317C002300240025002600270028002900360003
:10318C003700380039003A003B003C003D003E005F
:10319C000000010002000300040005000600070007
:1031AC00080009000A000B00150016001700180093
:1031BC0019001A001B001C001D001E001F0020001F
:1031CC002A002B002C002D002E002F003000310087
:1031DC0032003300340035000C000D000E000F00DF
:1031EC001000110012001300140021002200230013
:1031FC00240025002600270028002900360037006F
:10320C00380039003A003B003C003D003E00000015
:10321C0000005C05BC04E904A9051A05F8040C05BA
:10322C0000000000E205BC047706E1053E065606E8
:10323C00C9050D0A005374617274696E672E2E2EC7
:10324C00006D696C6C6920313030302121213A00DD
:00000001FF
