:100000000C9463000C948B000C948B000C945B0498
:100010000C945B040C945B040C948B000C948B008C
:100020000C948B000C948B000C948B000C948B0024
:100030000C948B000C948B000C948B000C948B0014
:100040000C94B9030C948B000C9429040C940304B5
:100050000C948B000C948B000C948B000C948B00F4
:100060000C948B000C948B000000000024002700EF
:100070002A0000000008000201000003040700003D
:1000800000000000000000000000230026002900FE
:10009000010204081020408001020408102001021F
:1000A0000408102000000000250028002B00040494
:1000B0000404040404040202020202020303030310
:1000C0000303D304140811241FBECFEFD8E0DEBF12
:1000D000CDBF11E0A0E0B1E0EEE3F3E102C0059096
:1000E0000D92A434B107D9F722E0A4E4B1E001C035
:1000F0001D92AE39B207E1F710E0C2E6D0E004C0CD
:100100002197FE010E946708C136D107C9F70E94F6
:1001100015060C9492090C94000090E0FC01EE5836
:10012000FF4F2491FC01E057FF4F3491FC01E25551
:10013000FF4FE491EE23C9F0222339F0233001F17F
:10014000A8F4213019F1223029F1F0E0EE0FFF1F61
:10015000EC55FF4FA591B4918FB7F894EC916111D4
:1001600026C030953E233C938FBF08952730A9F0D9
:100170002830C9F0243049F7809180008F7D03C07A
:10018000809180008F7780938000DFCF84B58F7758
:1001900084BDDBCF84B58F7DFBCF8091B0008F779E
:1001A0008093B000D2CF8091B0008F7DF9CF3E2BED
:1001B000DACFCF93DF9390E0FC01E057FF4F24911B
:1001C00082559F4FFC0184918823D1F090E0880FE5
:1001D000991FFC01E859FF4FA591B491FC01EC5522
:1001E000FF4FC591D49161110EC09FB7F8948C91C7
:1001F000E22FE0958E238C932881E223E8839FBF32
:10020000DF91CF9108958FB7F894EC91E22BEC93A6
:100210008FBFF6CF3FB7F8948091910190919201F2
:10022000A0919301B091940126B5A89B05C02F3FE2
:1002300019F00196A11DB11D3FBFBA2FA92F982F0C
:100240008827BC01CD01620F711D811D911D42E007
:10025000660F771F881F991F4A95D1F708950F934E
:100260001F93CF93DF93CDB7DEB729970FB6F894DE
:10027000DEBF0FBECDBF0E940A0100918602109121
:1002800087022091880230918902601771078207E6
:10029000930740F4609386027093870280938802EC
:1002A0009093890200918602109187022091880222
:1002B00030918902601B710B820B930B6C32714081
:1002C00081059105C0F2F89480917B0290917C02A7
:1002D0009A838983E0918002F0918102DF01119677
:1002E0008081898790917702E0918A02F0918B0258
:1002F00080918C02992309F445C09081982B9887AE
:100300009081809589238F838F818C8388E08B8374
:1003100058856F8149853B812C8189819A815083E1
:1003200047FD252F3A952083262F39F0441F00C022
:1003300000006083000000C0F2CF38E04D91608380
:100340000000019761F7F0938B02E0938A024987DE
:100350003B832C839A83898378940E940A0160935B
:10036000860270938702809388029093890229966F
:100370000FB6F894DEBF0FBECDBFDF91CF911F91B6
:100380000F9108959081982B98879081809589236B
:100390008F838F818E8388E08D8358856F81498517
:1003A0003D812E8189819A81508347FD252F00C090
:1003B00000C0208300C000C000C000C000C0608337
:1003C0000000262F3A9541F0441F000000C000C0F5
:1003D00000C000C000C0E8CF38E04D9100C060838D
:1003E00000C0019709F7F0938B02E0938A024987D6
:1003F0003D832E83AFCFAF92BF92CF92DF92EF9229
:10040000FF920F931F93CF93DF936C017B018B01BE
:10041000040F151FEB015E01AE18BF08C017D1070E
:1004200059F06991D601ED91FC910190F081E02D98
:10043000C6010995892B79F7C501DF91CF911F91ED
:100440000F91FF90EF90DF90CF90BF90AF90089505
:10045000FC01538D448D252F30E0842F90E0821BCA
:10046000930B541710F0CF96089501970895FC014F
:10047000918D828D981761F0A28DAE0FBF2FB11DA7
:100480005D968C91928D9F5F9F73928F90E00895FF
:100490008FEF9FEF0895FC01918D828D981731F0B9
:1004A000828DE80FF11D858D90E008958FEF9FEF0D
:1004B0000895FC01918D228D892F90E0805C9F4FE3
:1004C000821B91098F739927089585E991E00E9415
:1004D000590221E0892B09F420E0822F089580E061
:1004E00090E0892B29F00E94650281110C94000094
:1004F0000895FC01A48DA80FB92FB11DA35ABF4FB9
:100500002C91848D90E001968F739927848FA68912
:10051000B7892C93A089B1898C91837080648C9366
:10052000938D848D981306C00288F389E02D808115
:100530008F7D80830895EF92FF920F931F93CF9347
:10054000DF93EC0181E0888F9B8D8C8D98131AC00E
:10055000E889F989808185FF15C09FB7F894EE89F5
:10056000FF896083E889F989808183708064808352
:100570009FBF81E090E0DF91CF911F910F91FF909D
:10058000EF900895F62E0B8D10E00F5F1F4F0F7345
:100590001127E02E8C8D8E110CC00FB607FCFACF00
:1005A000E889F989808185FFF5CFCE010E94790223
:1005B000F1CFEB8DEC0FFD2FF11DE35AFF4FF082D1
:1005C0009FB7F8940B8FEA89FB8980818062CFCF37
:1005D000CF93DF93EC01888D8823B9F0AA89BB897A
:1005E000E889F9898C9185FD03C0808186FD0DC065
:1005F0000FB607FCF7CF8C9185FFF2CF808185FF86
:10060000EDCFCE010E947902E9CFDF91CF9108951D
:1006100020918601309187012817390771F4909154
:10062000840180918501981741F0E0918401F0E008
:10063000EC5BFE4F808190E008958FEF9FEF08956F
:100640000895EF92FF920F931F93CF93DF93DC01F6
:100650005C96ED90FC905D97E114F10479F481E0F3
:1006600090E013969C938E93129790E080E0DF9138
:10067000CF911F910F91FF90EF9008955196ED91BA
:10068000FC91529750968C915097982F90950FB758
:100690005E962C915E97122F127021FD6095F89452
:1006A0002081112319F1282B2083E7012197F1F7ED
:1006B00028E0462F50E0308160FF1AC0382B30838D
:1006C000E7012197F1F7BA0175956795215089F7F0
:1006D000112381F08081892380830FBF5C968D91E7
:1006E0009C910197F1F781E090E0C1CF2923DCCF05
:1006F0003923E5CF9081892BEFCF2091860130916E
:1007000087012817390771F48091850120918401B0
:1007100090E0805C9F4F821B910960E470E00E9432
:100720005308089590E080E008952091860130916B
:10073000870128173907B9F49091840180918501C8
:10074000981789F0E0918401F0E0EC5BFE4F808126
:100750002091840130E02F5F3F4F2F733327209388
:10076000840190E008958FEF9FEF089590E080E07E
:1007700008951F920F920FB60F9211242F933F935B
:100780008F939F93AF93BF9380918D0190918E0132
:10079000A0918F01B091900130918C0123E0230F43
:1007A0002D3758F50196A11DB11D20938C01809322
:1007B0008D0190938E01A0938F01B0939001809151
:1007C000910190919201A0919301B09194010196B1
:1007D000A11DB11D8093910190939201A09393016B
:1007E000B0939401BF91AF919F918F913F912F91C1
:1007F0000F900FBE0F901F90189526E8230F0296BA
:10080000A11DB11DD2CF1F920F920FB60F921124CE
:100810002F933F934F935F936F937F938F939F9308
:10082000AF93BF93EF93FF9385E991E00E94790224
:10083000FF91EF91BF91AF919F918F917F916F91B8
:100840005F914F913F912F910F900FBE0F901F908E
:1008500018951F920F920FB60F9211242F938F931A
:100860009F93EF93FF93E091A501F091A601808102
:10087000E091AB01F091AC0182FD1BC090818091B1
:10088000AE018F5F8F732091AF01821741F0E0912D
:10089000AE01F0E0EB56FE4F958F8093AE01FF91D5
:1008A000EF919F918F912F910F900FBE0F901F90FE
:1008B00018958081F4CF1F920F920FB60F921124DA
:1008C0002F933F934F935F936F937F938F939F9358
:1008D000AF93BF93EF93FF93E0918601F09187016F
:1008E000309749F0A685B7858585968D91FF14C010
:1008F0009C918923A1F4FF91EF91BF91AF919F91BA
:100900008F917F916F915F914F913F912F910F90B8
:100910000FBE0F901F9018959C91892361F7A389B2
:10092000B4899C918589809589238C938689978940
:100930000197F1F7608D718DA685B785558538E0F3
:1009400020E0CB010197F1F7822F90E095958795F4
:10095000282F4C91452309F02068315091F7868D5E
:1009600081FD20958091850190E001968F739927F4
:1009700030918401381799F0A0918501B0E0AC5B0B
:10098000BE4F2C9380938501828D938D0197F1F753
:10099000A389B4898C919589892B8C93ACCF868D52
:1009A0008160868FF1CF109298011092970188EEA6
:1009B00093E0A0E0B0E08093990190939A01A09316
:1009C0009B01B0939C0184E191E090939601809308
:1009D000950185EC90E09093A2018093A10184ECB5
:1009E00090E09093A4018093A30180EC90E0909319
:1009F000A6018093A50181EC90E09093A8018093DB
:100A0000A70182EC90E09093AA018093A90186EC63
:100A100090E09093AC018093AB011092AE011092E4
:100A2000AF011092B0011092B101109278021092B1
:100A30007F02109286021092870210928802109212
:100A4000890281E080938502809382021092830262
:100A500092E0909384028093770281E290E09093F9
:100A60007C0280937B020E946D08909381028093A8
:100A70008002009709F4D0C021E2FC0111922A956E
:100A8000E9F78BE090E090937A028093790285E019
:100A900090E090937E0280937D028091780288237B
:100AA00041F061E085E00E94D90060E085E00E94AD
:100AB0008D00E3EBF0E0E491F0E0EE0FFF1FEC556A
:100AC000FF4F8591949190938B0280938A02E5E980
:100AD000F0E0E491E0938C0210925B0210925A02D3
:100AE00088EE93E0A0E0B0E080935C0290935D021A
:100AF000A0935E02B0935F0286E291E09093590268
:100B00008093580210926F0210926E02109271023E
:100B1000109270021092730210927202109275027B
:100B200010927402609176026E7F6D7F6093760200
:100B30006695617081E068278BE00E948D0061E01E
:100B40008BE00E94D900EBE9F0E0E491E0936802C9
:100B5000E9EBF0E0E491F0E0EE0FFF1FEC55FF4F02
:100B60008591949190936A028093690260E08AE093
:100B70000E94D9008091760281FD04C061E08AE084
:100B80000E948D008AE080936402EAE9F0E0E4913B
:100B9000E0936502E8EBF0E0E491F0E0EE0FFF1F78
:100BA000EA57FF4F259134913093670220936602F4
:100BB00044EF51E060E070E0409338025093390216
:100BC00060933A0270933B02E6E0F1E0A6E4B2E003
:100BD00001900D928A95E1F71092500282E0809385
:100BE000510210925602109257028FEF80938D029D
:100BF00010928F0210928E02109299021092980217
:100C00008FEF9FEFDC018093940290939502A09365
:100C10009602B0939702089510927C0210927B0284
:100C200010927A021092790232CF789484B5826061
:100C300084BD84B5816084BD85B5826085BD85B580
:100C4000816085BD80916E00816080936E001092FE
:100C50008100809181008260809381008091810079
:100C6000816080938100809180008160809380000A
:100C70008091B10084608093B1008091B000816068
:100C80008093B00080917A00846080937A00809194
:100C90007A00826080937A0080917A0081608093EC
:100CA0007A0080917A00806880937A001092C10067
:100CB000E091A501F091A60182E08083E091A1017D
:100CC000F091A2011082E091A301F091A40180E1D2
:100CD00080831092AD01E091A901F091AA0186E014
:100CE0008083E091A701F091A801808180618083D9
:100CF000E091A701F091A801808188608083E09154
:100D0000A701F091A801808180688083E091A7010C
:100D1000F091A80180818F7D8083109273021092E0
:100D20007202109271021092700210926F02109271
:100D30006E028DE991E09093750280937402909118
:100D40006402963108F047C02DEB30E030936F021B
:100D500020936E022BE931E03093710220937002F0
:100D60002CE231E0309373022093720220916800EC
:100D700084E0983048F031E09E3008F430E081E0C3
:100D800001C0880F3A95EAF7822B809368002DE620
:100D900030E0983050F02BE630E09E3030F02CE61A
:100DA00030E0963110F030E020E030936C02209378
:100DB0006B02292F30E0983008F073C081E001C049
:100DC000880F9A95EAF780936D0280917402909152
:100DD00075020197F1F78091720290917302892B4D
:100DE00049F1E0918601F091870122E0E835F207B0
:100DF00009F1309739F0A389B4899C918589809550
:100E000089238C93809176028E7F80937602109254
:100E100085011092840188E592E090938701809388
:100E20008601E0916B02F0916C02808190916D02DD
:100E3000892B808360E08EE00E94D9004BE050E077
:100E400064E371E085E991E00E94FB0142E050E03B
:100E500060E471E085E991E00E94FB0160917F020E
:100E6000663091F12091800230918102615031F120
:100E700070E08FEF95E00E943F08F90140917B02FE
:100E800050917C02CF01821B930B84179507C8F405
:100E90004081469FC001479F900D11249083319659
:100EA000EDCF9E3040F42850310981E001C0880F19
:100EB0002A95EAF788CF2E503109F7CF70E060E02D
:100EC000DCCF86E080937F0280917D0290917E024C
:100ED00097FD08C061E00E94D90060E080917D022A
:100EE0000E948D0081E08093780280918002909131
:100EF0008102892B11F00E942F01FF24FA9400E057
:100F000010E08FB7F89440918D0150918E0160915F
:100F10008F01709190018FBF2FB7F89480918D0150
:100F200090918E01A0918F01B09190012FBF4091BF
:100F30008A0150918B01052E000C660B770B841BE8
:100F4000950BA60BB70B853F9140A105B10508F4A1
:100F500053C02FB7F89480918D0190918E01A0918C
:100F60008F01B09190012FBF90938B0180938A01E4
:100F7000C0918801D09189018091790290917A0283
:100F8000C817D90760F580917F024FEF882321F0C1
:100F90008F9DC0011124492FE0918502809180022C
:100FA0009091810220918202E21332C09E01220FB1
:100FB000331F2C0F3D1F820F931FE0918202E80F19
:100FC000F92FF11D1082E0918302E80FF92FF11D36
:100FD000108220918402820F911DFC014083809138
:100FE000800290918102892B11F00E942F0121969D
:100FF000D0938901C09388010115110509F481CFAF
:101000000E946502882309F47CCF0E94000079CFFA
:101010009E01220F331F220F331F820F931FE80FF1
:10102000F92FF11D1082C9CF86E291E09093590209
:101030008093580280918601909187018855924053
:1010400071F4E0916B02F0916C02908180916D02DD
:101050008095892380831092870110928601809168
:101060008002909181020E94090980917D029091F5
:101070007E0297FD03C060E00C94D9000895AA1B7E
:10108000BB1B51E107C0AA1FBB1FA617B70710F073
:10109000A61BB70B881F991F5A95A9F780959095A5
:1010A000BC01CD01089597FB072E16F4009407D0DC
:1010B00077FD09D00E943F0807FC05D03EF49095CB
:1010C00081959F4F0895709561957F4F0895EE0F1C
:1010D000FF1F0590F491E02D09940F931F93CF9378
:1010E000DF938230910510F482E090E0E0919C0261
:1010F000F0919D0230E020E0B0E0A0E0309799F45C
:101100002115310509F44AC0281B390B243031055B
:10111000D8F58A819B816115710589F1FB01938363
:101120008283FE0111C040815181028113814817E1
:101130005907E0F04817590799F4109761F0129693
:101140000C93129713961C933296CF01DF91CF9197
:101150001F910F91089500939C0210939D02F4CF6C
:101160002115310551F04217530738F0A901DB0171
:101170009A01BD01DF01F801C1CFEF01F9CF9093D2
:101180009D0280939C02CDCFFE01E20FF31F81935D
:1011900091932250310939832883D7CF20919A0225
:1011A00030919B02232B41F42091020130910301E5
:1011B00030939B0220939A0220910001309101010B
:1011C0002115310541F42DB73EB7409104015091EE
:1011D0000501241B350BE0919A02F0919B02E21766
:1011E000F307A0F42E1B3F0B2817390778F0AC014A
:1011F0004E5F5F4F2417350748F04E0F5F1F509327
:101200009B0240939A02819391939FCFF0E0E0E09C
:101210009CCFCF93DF930097E9F0FC0132971382C4
:101220001282A0919C02B0919D02ED0130E020E07D
:101230001097A1F420813181820F931F20919A028F
:1012400030919B022817390709F061C0F0939B0287
:10125000E0939A02DF91CF910895EA01CE17DF075C
:10126000E8F54A815B819E0141155105B1F7E9011D
:10127000FB83EA8349915991C40FD51FEC17FD07F1
:1012800061F4808191810296840F951FE901998311
:101290008883828193819B838A83F0E0E0E01296C9
:1012A0008D919C9113970097B9F52D913C911197D1
:1012B000CD010296820F931F20919A0230919B02DA
:1012C0002817390739F6309751F510929D02109280
:1012D0009C02B0939B02A0939A02BCCFD383C2839B
:1012E00040815181840F951FC817D90761F44E5F63
:1012F0005F4F88819981480F591F518340838A81AC
:101300009B81938382832115310509F0B0CFF0933F
:101310009D02E0939C029ECFFD01DC01C0CF1382B1
:101320001282D7CF10E0C2E6D0E004C0FE010E94D6
:0E13300067082196C336D107C9F7F894FFCF9E
:10133E0000009E0280007EFF06000100000000EF0C
:10134E00000000009B02FB012802E802590237024E
:10135E004B02000000002103FB01B60320037D03B6
:10136E00950308035374617274696E672E2E2E00F6
:04137E000D0A000054
:00000001FF
