:100000000C94BC000C94E4000C94E4000C94BE0529
:100010000C94BE050C94BE050C94E4000C94E40012
:100020000C94E4000C94E4000C94E4000C94E400C0
:100030000C94E4000C94E4000C94E4000C94E400B0
:100040000C941C050C94E4000C948C050C9466052F
:100050000C94E4000C94E4000C94E4000C94E40090
:100060000C94E4000C94E4004446506C6179657291
:10007000204D696E69206F6E6C696E652E00322EA0
:10008000506C6561736520696E7365727420746865
:100090006520534420636172642100312E506C65E9
:1000A000617365207265636865636B2074686520A1
:1000B000636F6E6E656374696F6E2100556E616269
:1000C0006C6520746F20626567696E3A00496E69DD
:1000D0007469616C697A696E67204446506C617915
:1000E0006572202E2E2E20284D61792074616B655B
:1000F00020337E35207365636F6E64732900444638
:10010000526F626F74204446506C61796572204D65
:10011000696E692044656D6F0000000000240027AF
:10012000002A00000000080002010000030407008C
:10013000000000000000000000000023002600294D
:100140000000000000250028002B00040404040423
:100150000404040202020202020303030303030174
:10016000020408102040800102040810200102044B
:100170000810200082065F0911241FBECFEFD8E0CF
:10018000DEBFCDBF11E0A0E0B1E0EAE1F4E102C0E2
:1001900005900D92A233B107D9F722E0A2E3B1E0B6
:1001A00001C01D92AE36B207E1F710E0CBEBD0E014
:1001B00004C02197FE010E94DF09CA3BD107C9F79D
:1001C0000E9460070C94000A0C940000CF93DF9308
:1001D00090E0FC01E15AFE4F2491855B9E4FFC01AB
:1001E00084918823D1F090E0880F991FFC01E75E8D
:1001F000FE4FA591B491FC01EF5BFE4FC591D491E8
:1002000061110EC09FB7F8948C91E22FE0958E2378
:100210008C932881E223E8839FBFDF91CF910895DB
:100220008FB7F894EC91E22BEC938FBFF6CF3FB7EA
:10023000F8948091770190917801A0917901B09123
:100240007A0126B5A89B05C02F3F19F00196A11D84
:10025000B11D3FBFBA2FA92F982F8827BC01CD0110
:10026000620F711D811D911D42E0660F771F881F6F
:10027000991F4A95D1F708958F929F92AF92BF929E
:10028000CF92DF92EF92FF926B017C010E941701E7
:100290004B015C01C114D104E104F104B9F00E94E6
:1002A0001701681979098A099B09683E734081051D
:1002B000910580F321E0C21AD108E108F10888EE27
:1002C000880E83E0981EA11CB11CE4CFFF90EF9034
:1002D000DF90CF90BF90AF909F908F9008958091C6
:1002E0001C0290911D02DC01ED91FC910084F185CE
:1002F000E02D0995892B09F4D5C060E070E0CB01B1
:100300000E943C0120913A0280911C0290911D02B2
:10031000DC01ED91FC910284F385E02D21110BC0ED
:100320000995809326028E37D1F680913A028F5F2D
:1003300080933A02D4CF099590913A02E92FF0E0E8
:10034000E45EFD4F82879230A9F09930C9F0913078
:1003500099F48F3F89F010923A0281E080933C0239
:1003600010923F0210923E0280934002109241028E
:1003700080E00895863079F79F5F90933A02AFCF7F
:100380008F3E49F72091280280912702280F3327BA
:10039000331FE0912902C9018E0F911D20912A027D
:1003A000280F392F311D40912B0250E0240F351FAB
:1003B00080912C0290E060912D0270E0762F6627EC
:1003C000F0912E026F0F711D280F391F3195219565
:1003D00031096217730709F0BECF10923A02E13477
:1003E00019F4109241022FC0E0933D02542F44278C
:1003F000840F951F90933F0280933E02EA53E631AB
:1004000008F046C0F0E0E95FFD4F0C94DF093402CC
:100410003C0246021D0246022602440248024602EF
:10042000460246024602460246024602460248028A
:100430004602460246024602460285E080933C029E
:1004400081E08093400280914002089580FF02C0C5
:1004500089E0F4CF81FF02C084E0F0CF8370992758
:10046000892B89F38AE0EACF80FF02C087E0E6CFDC
:1004700081FFE9CF82E0E2CF80FF02C088E0DECFDB
:1004800081FFE1CF83E0DACF86E0D8CF8BE0D6CF13
:1004900081E080933C0210923F0210923E028093D2
:1004A00040029FCF80914102882369F22FB7F894D0
:1004B00080917B0190917C01A0917D01B0917E01A2
:1004C0002FBF40911E0250911F0260912002709137
:1004D0002102841B950BA60BB70B40912202509171
:1004E0002302609124027091250284179507A607C4
:1004F000B70708F4A8CF10923A0210923C0210926B
:100500003F0210923E0281E02FCF80933302272FCB
:1005100030E0709335026093360240913202909140
:100520003102490F5527551F840F952F911D40917A
:100530003402840F911D820F931F680F792F711D54
:100540007195619571097093370260933802442365
:1005500061F080914102882341F060E070E0CB01BE
:100560000E943C010E946F01F4CF80911C02909187
:100570001D02DC01ED91FC910280F381E02D4AE047
:1005800050E060E372E009952FB7F89480917B0109
:1005900090917C01A0917D01B0917E012FBF80934D
:1005A0001E0290931F02A0932002B093210280911B
:1005B000340291E0811101C090E0909341028111D9
:1005C00006C06AE070E080E090E00C943C01089581
:1005D0008F929F92AF92BF92CF92DF92EF92FF9253
:1005E0006B017C018FB7F89480907B0190907C0127
:1005F000A0907D01B0907E018FBFC114D104E104B1
:10060000F10441F4C0902202D0902302E090240231
:10061000F09025020E946F0181111AC09FB7F894D3
:1006200040917B0150917C0160917D0170917E0130
:100630009FBF481959096A097B09C416D506E60601
:10064000F70630F060E070E0CB010E943C01E2CFA1
:10065000FF90EF90DF90CF90BF90AF909F908F90E2
:100660000895AF92BF92CF92DF92EF92FF920F93D5
:100670001F93CF93DF936C017B018B01040F151F38
:10068000EB015E01AE18BF08C017D10759F06991A0
:10069000D601ED91FC910190F081E02DC601099504
:1006A000892B79F7C501DF91CF911F910F91FF90B1
:1006B000EF90DF90CF90BF90AF900895FC01538DE5
:1006C000448D252F30E0842F90E0821B930B54172C
:1006D00010F0CF96089501970895FC01918D828DB9
:1006E000981761F0A28DAE0FBF2FB11D5D968C9152
:1006F000928D9F5F9F73928F90E008958FEF9FEF91
:100700000895FC01918D828D981731F0828DE80F4C
:10071000F11D858D90E008958FEF9FEF0895FC0106
:10072000918D228D892F90E0805C9F4F821B9109D3
:100730008F73992708958FE791E00E948F0321E03E
:10074000892B09F420E0822F089580E090E0892B26
:1007500029F00E949B0381110C9400000895FC0174
:10076000A48DA80FB92FB11DA35ABF4F2C91848D12
:1007700090E001968F739927848FA689B7892C936F
:10078000A089B1898C91837080648C93938D848DC2
:10079000981306C00288F389E02D80818F7D8083C5
:1007A0000895EF92FF920F931F93CF93DF93EC0185
:1007B00081E0888F9B8D8C8D98131AC0E889F98908
:1007C000808185FF15C09FB7F894EE89FF8960830B
:1007D000E889F98980818370806480839FBF81E08C
:1007E00090E0DF91CF911F910F91FF90EF900895CE
:1007F000F62E0B8D10E00F5F1F4F0F731127E02EA9
:100800008C8D8E110CC00FB607FCFACFE889F989E0
:10081000808185FFF5CFCE010E94AF03F1CFEB8D34
:10082000EC0FFD2FF11DE35AFF4FF0829FB7F894B4
:100830000B8FEA89FB8980818062CFCFCF93DF93D2
:10084000EC01888D8823B9F0AA89BB89E889F989E8
:100850008C9185FD03C0808186FD0DC00FB607FC1D
:10086000F7CF8C9185FFF2CF808185FFEDCFCE0150
:100870000E94AF03E9CFDF91CF91089520917401D9
:10088000309175012817390771F4909172018091A8
:100890007301981741F0E0917201F0E0EE5CFE4FB9
:1008A000808190E008958FEF9FEF08950895EF9273
:1008B000FF920F931F93CF93DF93DC015C96ED9033
:1008C000FC905D97E114F10479F481E090E01396D7
:1008D0009C938E93129790E080E0DF91CF911F91CF
:1008E0000F91FF90EF9008955196ED91FC915297E2
:1008F00050968C915097982F90950FB75E962C91AB
:100900005E97122F127021FD6095F89420811123BB
:1009100019F1282B2083E7012197F1F728E0462FD2
:1009200050E0308160FF1AC0382B3083E7012197F7
:10093000F1F7BA0175956795215089F7112381F078
:100940008081892380830FBF5C968D919C91019754
:10095000F1F781E090E0C1CF2923DCCF3923E5CF47
:100960009081892BEFCF2091740130917501281768
:10097000390771F4809173012091720190E0805CDD
:100980009F4F821B910960E470E00E94CB0908959B
:1009900090E080E00895209174013091750128174E
:1009A0003907B9F49091720180917301981789F019
:1009B000E0917201F0E0EE5CFE4F808120917201C7
:1009C00030E02F5F3F4F2F7333272093720190E069
:1009D00008958FEF9FEF089590E080E00895FC0167
:1009E00001900020E9F73197AF01481B590BBC017A
:1009F0008FE791E00C9431030F931F93CF93DF9314
:100A00008C01D0E0C0E0F801EC0FFD1F649166237B
:100A100041F08FE791E00E94D103892B11F02196DC
:100A2000F2CF8EE291E00E94EF048C0F9D1FDF91C8
:100A3000CF911F910F9108951F920F920FB60F92B1
:100A400011242F933F938F939F93AF93BF938091E4
:100A50007B0190917C01A0917D01B0917E0130914C
:100A6000760123E0230F2D3758F50196A11DB11D06
:100A70002093760180937B0190937C01A0937D016C
:100A8000B0937E018091770190917801A0917901D6
:100A9000B0917A010196A11DB11D809377019093C9
:100AA0007801A0937901B0937A01BF91AF919F91A2
:100AB0008F913F912F910F900FBE0F901F9018951F
:100AC00026E8230F0296A11DB11DD2CF1F920F92CF
:100AD0000FB60F9211242F933F934F935F936F9311
:100AE0007F938F939F93AF93BF93EF93FF938FE782
:100AF00091E00E94AF03FF91EF91BF91AF919F9161
:100B00008F917F916F915F914F913F912F910F90B6
:100B10000FBE0F901F9018951F920F920FB60F9255
:100B200011242F938F939F93EF93FF93E0918F0165
:100B3000F09190018081E0919501F091960182FD04
:100B40001BC09081809198018F5F8F7320919901D4
:100B5000821741F0E0919801F0E0E158FE4F958F47
:100B600080939801FF91EF919F918F912F910F901A
:100B70000FBE0F901F9018958081F4CF1F920F9297
:100B80000FB60F9211242F933F934F935F936F9360
:100B90007F938F939F93AF93BF93EF93FF93E091D6
:100BA0007401F0917501309749F0A685B785858568
:100BB000968D91FF14C09C918923A1F4FF91EF9130
:100BC000BF91AF919F918F917F916F915F914F9165
:100BD0003F912F910F900FBE0F901F9018959C91F1
:100BE000892361F7A389B4899C918589809589239C
:100BF0008C93868997890197F1F7608D718DA68511
:100C0000B785558538E020E0CB010197F1F7822FB9
:100C100090E095958795282F4C91452309F0206801
:100C2000315091F7868D81FD20958091730190E080
:100C300001968F73992730917201381799F0A0911E
:100C40007301B0E0AE5CBE4F2C9380937301828D34
:100C5000938D0197F1F7A389B4898C919589892B9C
:100C60008C93ACCF868D8160868FF1CF90E0FC01B4
:100C7000ED5DFE4F2491FC01E15AFE4F3491FC01E1
:100C8000E55BFE4FE491EE23C9F0222339F02330D7
:100C900001F1A8F4213019F1223029F1F0E0EE0F32
:100CA000FF1FEF5BFE4FA591B4918FB7F894EC91C5
:100CB000611126C030953E233C938FBF08952730A5
:100CC000A9F02830C9F0243049F7809180008F7D49
:100CD00003C0809180008F7780938000DFCF84B540
:100CE0008F7784BDDBCF84B58F7DFBCF8091B00043
:100CF0008F778093B000D2CF8091B0008F7DF9CFF5
:100D00003E2BDACF109282011092810188EE93E09F
:100D1000A0E0B0E08093830190938401A0938501CB
:100D2000B09386012EE031E03093800120937F0163
:100D300025EC30E030938C0120938B0124EC30E0E3
:100D400030938E0120938D0120EC30E030939001A0
:100D500020938F0121EC30E0309392012093910198
:100D600022EC30E0309394012093930126EC30E0A4
:100D70003093960120939501109298011092990159
:100D800010929A0110929B01109245021092440217
:100D90008093460290934702A0934802B093490281
:100DA00080E291E0909343028093420210925902B4
:100DB0001092580210925B0210925A0210925D0239
:100DC00010925C0210925F0210925E0260916002CB
:100DD0006E7F6D7F609360026695617081E0682729
:100DE0008BE00E94360661E08BE00E94E600EAE6B6
:100DF000F1E0E491E0935202E6E5F1E0E491F0E005
:100E0000EE0FFF1FEF5BFE4F85919491909354027C
:100E10008093530260E08AE00E94E60080916002C5
:100E200081FD04C061E08AE00E9436068AE080937A
:100E30004E02E9E6F1E0E491E0934F02E5E5F1E0EE
:100E4000E491F0E0EE0FFF1FE95CFE4F2591349135
:100E5000309351022093500244EF51E060E070E083
:100E60004093220250932302609324027093250240
:100E7000E0E0F1E0A0E3B2E001900D928A95E1F7A5
:100E800010923A0282E080933B021092400210924C
:100E900041028FEF8093610210926302109262020E
:100EA00010926D0210926C028FEF9FEFDC01809325
:100EB000680290936902A0936A02B0936B0208954E
:100EC000CF93DF93CDB7DEB7A1970FB6F894DEBF0F
:100ED0000FBECDBF789484B5826084BD84B5816037
:100EE00084BD85B5826085BD85B5816085BD8091F5
:100EF0006E00816080936E0010928100809181006D
:100F00008260809381008091810081608093810064
:100F1000809180008160809380008091B100846026
:100F20008093B1008091B00081608093B000809187
:100F30007A00846080937A0080917A008260809346
:100F40007A0080917A00816080937A0080917A00A3
:100F5000806880937A001092C100E0918F01F09137
:100F6000900182E08083E0918B01F0918C011082EE
:100F7000E0918D01F0918E0180E1808310929701C4
:100F8000E0919301F091940186E08083E0919101DA
:100F9000F0919201808180618083E0919101F091D4
:100FA0009201808188608083E0919101F0919201AB
:100FB000808180688083E0919101F091920180812D
:100FC0008F7D808310925D0210925C0210925B0212
:100FD00010925A0210925902109258028DE991E033
:100FE00090935F0280935E0290914E02963108F0DA
:100FF00047C02DEB30E030935902209358022BE983
:1010000031E030935B0220935A022CE231E03093BE
:101010005D0220935C022091680084E0983048F0E3
:1010200031E09E3008F430E081E001C0880F3A954D
:10103000EAF7822B809368002DE630E0983050F07C
:101040002BE630E09E3030F02CE630E0963110F0A8
:1010500030E020E03093560220935502292F30E0F3
:10106000983008F080C081E001C0880F9A95EAF7B7
:101070008093570280915E0290915F020197F1F791
:1010800080915C0290915D02892B49F1E09174019D
:10109000F091750182E0E234F80709F1309739F0F8
:1010A000A389B4899C918589809589238C938091AB
:1010B00060028E7F80936002109273011092720121
:1010C00082E492E09093750180937401E09155025F
:1010D000F0915602808190915702892B808360E0C5
:1010E0008EE00E94E6008EE291E00E94EF048EEF17
:1010F00090E00E94FC048DEC90E00E94FC0482E4ED
:1011000092E090931D0280931C0281E08093340250
:1011100070E060E08CE00E94850260ED77E080E0A6
:1011200090E00E94E80268EC70E080E090E00E94AD
:101130003C011092400280913C02843009F18930D8
:10114000F9F08CEB90E00E94FC048BE990E00E94A7
:10115000FC048EE790E00E94FC0460E070E0CB01AC
:101160000E943C01FACF9E3040F42850310981E0C2
:1011700001C0880F2A95EAF77BCF2E503109F7CFAF
:1011800088E690E00E94FC046BE170E086E00E943B
:10119000850264E070E083E00E94850280E4382EDE
:1011A00044244A9493E0592E612C712C2AE0C22EDB
:1011B000D12CE12CF12C30927C0080917A0080645B
:1011C00080937A0080917A0086FDFCCF8091780030
:1011D000A0917900BA2FA82F2BE130E00E94E509F9
:1011E000A30192010E947B09622F70E086E00E94B9
:1011F000850270E060E083E40E94850260E070E0B8
:10120000CB010E94E8022FEF3FEF882331F01092CC
:10121000400220913E0230913F024901330FAA085B
:10122000BB08B7FE36C06DE28FE791E00E94D103A4
:1012300022273327A901281939094A095B0919A26C
:101240008E010F5D1F4FCA01B901A70196010E94CF
:101250009A09605DF80162938F01211531054105FE
:10126000510589F70115110519F0C8010E94EF0415
:101270008EE291E00E94EF0480E090E0892B09F477
:101280009ACF0E949B03882309F495CF0E94000007
:1012900092CFA501940119A28E010F5D1F4FCA01C3
:1012A000B901A70196010E949A09605DF801629355
:1012B0008F01211531054105510589F7D3CF80E212
:1012C00091E0909343028093420280917401909147
:1012D00075018254924071F4E0915502F0915602EA
:1012E00090818091570280958923808310927501A7
:1012F000109274010895052E97FB1EF400940E942D
:10130000920957FD07D00E949A0907FC03D04EF4BA
:101310000C94920950954095309521953F4F4F4F31
:101320005F4F089590958095709561957F4F8F4F91
:101330009F4F0895A1E21A2EAA1BBB1BFD010DC0F1
:10134000AA1FBB1FEE1FFF1FA217B307E407F50775
:1013500020F0A21BB30BE40BF50B661F771F881F51
:10136000991F1A9469F760957095809590959B01E7
:10137000AC01BD01CF010895A29FB001B39FC00190
:10138000A39F700D811D1124911DB29F700D811DB1
:101390001124911D089597FB072E16F4009407D091
:1013A00077FD09D00E94EC0907FC05D03EF490952A
:1013B00081959F4F0895709561957F4F0895EE0F29
:1013C000FF1F0590F491E02D09940E94BC09B7FF1E
:1013D0000895821B930B0895AA1BBB1B51E107C004
:1013E000AA1FBB1FA617B70710F0A61BB70B881FB5
:1013F000991F5A95A9F780959095BC01CD01089544
:1014000010E0CBEBD0E004C0FE010E94DF09219682
:0A141000CC3BD107C9F7F894FFCFD9
:10141A007EFF06000100000000EF00000000D1037B
:10142A0031035E031E048F036D0381030000000075
:10143A0057043103EC045604B304CB043E040D0AEA
:02144A000000A0
:00000001FF
