:100000000C945E000C9486000C9486000C94860080
:100010000C9486000C9486000C9486000C94860048
:100020000C9486000C9486000C9486000C94860038
:100030000C9486000C9486000C9486000C94860028
:100040000C944E020C9486000C9486000C9486004E
:100050000C9486000C9486000C9486000C94860008
:100060000C9486000C9486000000000024002700F9
:100070002A0000000008000201000003040700003D
:10008000000000000000010204081020408001026E
:1000900004081020010204081020000000002500C0
:1000A00028002B00040404040404040402020202D5
:1000B00002020303030303039802000411241FBE7A
:1000C000CFEFD8E0DEBFCDBF21E0A6E0B1E001C0B8
:1000D0001D92A633B207E1F711E0A0E0B1E0E8EB32
:1000E000FAE002C005900D92A630B107D9F710E0F2
:1000F000CDE5D0E004C02197FE010E942404CC3558
:10010000D107C9F70E940E030C944F050C94000010
:1001100090E0FC01EE58FF4F2491FC01EA57FF4F9D
:100120003491FC01EC55FF4FE491EE23B9F022230A
:1001300039F02330F1F098F4213009F1223019F12F
:10014000F0E0EE0FFF1FE656FF4FA591B4918FB779
:10015000F894EC9130953E233C938FBF089527305F
:10016000A9F02830C9F0243059F7809180008F7DA4
:1001700003C0809180008F7780938000E1CF84B5A9
:100180008F7784BDDDCF84B58F7DFBCF8091B000AC
:100190008F778093B000D4CF8091B0008F7DF9CF5E
:1001A000CF92DF92EF92FF920F931F938B01222742
:1001B0003327C52ED62EE72EFF244C2D5091170144
:1001C000552371F0E52FF0E0E09FB001E19F700D45
:1001D000F09F700D1124072F5C9D600111244D2D9F
:1001E000E0911D01209118013091190150911A01DF
:1001F000E51320C0BC01660F771F860F971F820F83
:10020000931FE0911A01E80FF92FF11D0083E0918F
:100210001B01E80FF92FF11D408320911C01820F73
:10022000911DFC0110821F910F91FF90EF90DF90C4
:10023000CF900895880F991F880F991F820F931FE1
:10024000E80FF92FF11D1082DCCFCF93DF9390E000
:10025000FC01EA57FF4F24918C559F4FFC0184917C
:100260008823D1F090E0880F991FFC01E859FF4FD7
:10027000A591B491FC01E656FF4FC591D49161114F
:100280000EC09FB7F8948C91E22FE0958E238C934B
:100290002881E223E8839FBFDF91CF9108958FB734
:1002A000F894EC91E22BEC938FBFF6CF3FB7F89424
:1002B00080910B0190910C01A0910D01B0910E0164
:1002C00026B5A89B05C02F3F19F00196A11DB11DB1
:1002D0003FBFBA2FA92F982F8827BC01CD01620FED
:1002E000711D811D911D42E0660F771F881F991FA8
:1002F0004A95D1F708950F931F93CF93DF93CDB70E
:10030000DEB729970FB6F894DEBF0FBECDBF809140
:10031000180190911901892B09F47CC00E945601A3
:1003200000911E0110911F012091200130912101A7
:10033000601771078207930740F460931E01709362
:100340001F01809320019093210100911E011091C3
:100350001F012091200130912101601B710B820B44
:10036000930B6C32714081059105C0F2F894809135
:100370001301909114019A838983E0911801F091FF
:100380001901DF0111968081898790910F01E09119
:100390002201F091230180912401992309F445C0A1
:1003A0009081982B98879081809589238F838F8166
:1003B0008C8388E08B8358856F8149853B812C81B4
:1003C00089819A81508347FD252F3A952083262FD6
:1003D00039F0441F00C000006083000000C0F2CF6D
:1003E00038E04D9160830000019761F7F09323019D
:1003F000E093220149873B832C839A8389837894F5
:100400000E94560160931E0170931F01809320018A
:100410009093210129960FB6F894DEBF0FBECDBF91
:10042000DF91CF911F910F9108959081982B98871C
:100430009081809589238F838F818E8388E08D833F
:1004400058856F8149853D812E8189819A815083AC
:1004500047FD252F00C000C0208300C000C000C0A1
:1004600000C000C060830000262F3A9541F0441F71
:10047000000000C000C000C000C000C0E8CF38E0ED
:100480004D9100C0608300C0019709F7F0932301EC
:10049000E093220149873D832E83AFCF1F920F92B5
:1004A0000FB60F9211242F933F938F939F93AF9387
:1004B000BF938091070190910801A0910901B0912B
:1004C0000A013091060123E0230F2D3758F50196DC
:1004D000A11DB11D2093060180930701909308018F
:1004E000A0930901B0930A0180910B0190910C0136
:1004F000A0910D01B0910E010196A11DB11D809337
:100500000B0190930C01A0930D01B0930E01BF91CC
:10051000AF919F918F913F912F910F900FBE0F90B0
:100520001F90189526E8230F0296A11DB11DD2CF6A
:10053000109210011092170110921E0110921F01CB
:10054000109220011092210181E080931D0180937F
:100550001A0110921B0192E090931C0180930F01ED
:1005600081E290E090931401809313010E942A0489
:100570009093190180931801009709F446C021E275
:10058000FC0111922A95E9F78BE090E0909312011B
:100590008093110185E090E09093160180931501FE
:1005A00080911001882339F061E085E00E942501E7
:1005B00085E00E948800E9EAF0E0E491F0E0EE0FC7
:1005C000FF1FE656FF4F85919491909323018093EE
:1005D0002201EBE8F0E0E491E09324018FEF8093B7
:1005E00025011092270110922601109231011092DC
:1005F00030018FEF9FEFDC0180932C0190932D0150
:10060000A0932E01B0932F0108951092140110921F
:1006100013011092120110921101BCCF789484B58D
:10062000826084BD84B5816084BD85B5826085BDEE
:1006300085B5816085BD80916E00816080936E007C
:10064000109281008091810082608093810080916E
:10065000810081608093810080918000816080931F
:1006600080008091B10084608093B1008091B000DF
:1006700081608093B00080917A00846080937A00DA
:1006800080917A00826080937A0080917A00816004
:1006900080937A0080917A00806880937A0010922B
:1006A000C100809115019091160197FD07C061E08E
:1006B0000E942501809115010E94880081E08093AD
:1006C00010010E947B01609117016B3029F120918C
:1006D0001801309119016150C9F070E08FEF9AE074
:1006E0000E941004F9014091130150911401CF01AF
:1006F000821B930B8417950760F44081469FC001CD
:10070000479F900D112490833196EDCF70E060E00B
:10071000E9CF8BE08093170130E0832E30E0932EF9
:1007200010E000E0F12CE12CD12CC12C80911101C2
:1007300090911201C816D90640F5A7010F2C000CA4
:10074000660B770BBA0155274427C801012E000C10
:10075000AA0BBB0BBA2FA92F982F8827482B592BF0
:100760006A2B7B2BC6010E94D0000E947B018FEF79
:10077000C81AD80AE70107C0C1E0D0E00E3711055A
:100780006CF4D12CC12C7E01D1CFE7012196EF284A
:1007900099F30F5F1F4FCE37D10581F76E010D2EF4
:1007A000000CEE08FF087601DD24CC240F3F100773
:1007B00001F126013701502AB12CA12C80911101A1
:1007C00090911201A816B90658F4B301A201C5010F
:1007D0000E94D0000E947B018FEFA81AB80AEECFCA
:1007E000209739F001501109219781E0E81AF108AA
:1007F000DDCF8114910409F493CF0E94000090CFC3
:1008000080911801909119010E94C60480911501F0
:100810009091160197FD03C060E00C9425010895A6
:10082000AA1BBB1B51E107C0AA1FBB1FA617B70716
:1008300010F0A61BB70B881F991F5A95A9F7809532
:100840009095BC01CD010895EE0FFF1F0590F49126
:10085000E02D09940F931F93CF93DF93823091057E
:1008600010F482E090E0E0913401F091350130E045
:1008700020E0B0E0A0E0309799F42115310509F4AB
:100880004AC0281B390B24303105D8F58A819B8159
:100890006115710589F1FB0193838283FE0111C00B
:1008A000408151810281138148175907E0F04817B0
:1008B000590799F4109761F012960C9312971396BA
:1008C0001C933296CF01DF91CF911F910F91089524
:1008D0000093340110933501F4CF2115310551F007
:1008E0004217530738F0A901DB019A01BD01DF016E
:1008F000F801C1CFEF01F9CF909335018093340116
:10090000CDCFFE01E20FF31F819391932250310965
:1009100039832883D7CF2091320130913301232BA3
:1009200041F420910201309103013093330120936F
:10093000320120910001309101012115310541F46E
:100940002DB73EB74091040150910501241B350B92
:10095000E0913201F0913301E217F307A0F42E1B6E
:100960003F0B2817390778F0AC014E5F5F4F241713
:10097000350748F04E0F5F1F50933301409332010B
:10098000819391939FCFF0E0E0E09CCFCF93DF93F2
:100990000097E9F0FC01329713821282A091340192
:1009A000B0913501ED0130E020E01097A1F42081F5
:1009B0003181820F931F209132013091330128172A
:1009C000390709F061C0F0933301E0933201DF9100
:1009D000CF910895EA01CE17DF07E8F54A815B81E0
:1009E0009E0141155105B1F7E901FB83EA83499165
:1009F0005991C40FD51FEC17FD0761F480819181D7
:100A00000296840F951FE9019983888382819381DF
:100A10009B838A83F0E0E0E012968D919C9113977E
:100A20000097B9F52D913C911197CD010296820F57
:100A3000931F20913201309133012817390739F67D
:100A4000309751F51092350110923401B093330173
:100A5000A0933201BCCFD383C28340815181840FE4
:100A6000951FC817D90761F44E5F5F4F8881998140
:100A7000480F591F518340838A819B8193838283CE
:100A80002115310509F0B0CFF0933501E093340121
:100A90009ECFFD01DC01C0CF13821282D7CF10E0C0
:100AA000CDE5D0E004C0FE010E9424042196CE359D
:080AB000D107C9F7F894FFCF4C
:060AB80000003601800081
:00000001FF
