:100000000C9429010C9451010C9451010C94FC05A1
:100010000C94FC050C94FC050C9451010C945101BA
:100020000C9451010C9451010C9451010C94510108
:100030000C9451010C9451010C9451010C945101F8
:100040000C945A050C9451010C94CA050C94A40507
:100050000C9451010C9451010C9451010C945101D8
:100060000C9451010C9451014446506C61796572B5
:10007000204D696E69206F6E6C696E652E00322EA0
:10008000506C6561736520696E7365727420746865
:100090006520534420636172642100312E506C65E9
:1000A000617365207265636865636B2074686520A1
:1000B000636F6E6E656374696F6E2100556E616269
:1000C0006C6520746F20626567696E3A00496E69DD
:1000D0007469616C697A696E67204446506C617915
:1000E0006572202E2E2E20284D61792074616B655B
:1000F00020337E35207365636F6E64732900444638
:10010000526F626F74204446506C61796572204D65
:10011000696E692044656D6F00496E2041647665A3
:1001200072746973650043616E6E6F742046696E08
:10013000642046696C650046696C6520496E64659B
:1001400078204F7574206F6620426F756E6400438F
:100150006865636B2053756D204E6F74204D61741C
:100160006368004765742057726F6E67205374612F
:10017000636B00536C656570696E67004361726400
:10018000206E6F7420666F756E64004446506C611B
:100190007965724572726F723A0020506C617920F5
:1001A00046696E697368656421004E756D6265729B
:1001B0003A0043617264204F6E6C696E65210043A2
:1001C0006172642052656D6F7665642100436172CF
:1001D0006420496E736572746564210053746163B1
:1001E0006B2057726F6E67210054696D65204F75E3
:1001F00074210000000000240027002A00000000F5
:1002000008000201000003040700000000000000D5
:10021000000000000023002600290001020408104D
:100220002040800102040810200102040810200070
:10023000000000250028002B00040404040404042A
:100240000402020202020203030303030300C006C6
:100250009E0A11241FBECFEFD8E0DEBFCDBF11E054
:10026000A0E0B1E0E0E0F9E102C005900D92A23516
:10027000B107D9F722E0A2E5B1E001C01D92A83A8A
:10028000B207E1F711E0C8E2D1E004C02197FE0116
:100290000E94410BC732D107C9F70E9402080C9493
:1002A000730C0C94000080E480937C0080917A00B1
:1002B000806480937A0080917A0086FDFCCF8091E3
:1002C0007800909179000895CF93DF9390E0FC013E
:1002D000E55EFD4F2491875C9D4FFC01849188234E
:1002E000D1F090E0880F991FFC01ED50FE4FA591D1
:1002F000B491FC01E15DFD4FC591D49161110EC037
:100300009FB7F8948C91E22FE0958E238C932881EF
:10031000E223E8839FBFDF91CF9108958FB7F894D0
:10032000EC91E22BEC938FBFF6CF3FB7F89480911E
:10033000970190919801A0919901B0919A0126B5E9
:10034000A89B05C02F3F19F00196A11DB11D3FBF0D
:10035000BA2FA92F982F8827BC01CD01620F711DDC
:10036000811D911D42E0660F771F881F991F4A95D6
:10037000D1F708958F929F92AF92BF92CF92DF9262
:10038000EF92FF926B017C010E9495014B015C0191
:10039000C114D104E104F104B9F00E949501681977
:1003A00079098A099B09683E73408105910580F3AC
:1003B00021E0C21AD108E108F10888EE880E83E036
:1003C000981EA11CB11CE4CFFF90EF90DF90CF905E
:1003D000BF90AF909F908F90089580913C02909134
:1003E0003D02DC01ED91FC910084F185E02D099541
:1003F000892B09F4D5C060E070E0CB010E94BA01FE
:1004000020915A0280913C0290913D02DC01ED91D5
:10041000FC910284F385E02D21110BC00995809396
:1004200046028E37D1F680915A028F5F80935A022E
:10043000D4CF099590915A02E92FF0E0E45CFD4F8A
:1004400082879230A9F09930C9F0913099F48F3FAA
:1004500089F010925A0281E080935C0210925F0250
:1004600010925E02809360021092610280E0089513
:10047000863079F79F5F90935A02AFCF8F3E49F74E
:100480002091480280914702280F3327331FE091C3
:100490004902C9018E0F911D20914A02280F392F60
:1004A000311D40914B0250E0240F351F80914C02CA
:1004B00090E060914D0270E0762F6627F0914E0239
:1004C0006F0F711D280F391F319521953109621762
:1004D000730709F0BECF10925A02E13419F410925A
:1004E00061022FC0E0935D02542F4427840F951FB3
:1004F00090935F0280935E02EA53E63108F046C0B3
:10050000F0E0EB57FD4F0C94410BB202BA02C4026B
:100510009B02C402A402C202C602C402C402C402F4
:10052000C402C402C402C402C402C602C402C40299
:10053000C402C402C40285E080935C0281E080931F
:10054000600280916002089580FF02C089E0F4CFCC
:1005500081FF02C084E0F0CF83709927892B89F353
:100560008AE0EACF80FF02C087E0E6CF81FFE9CFD3
:1005700082E0E2CF80FF02C088E0DECF81FFE1CFE2
:1005800083E0DACF86E0D8CF8BE0D6CF81E08093CE
:100590005C0210925F0210925E02809360029FCF15
:1005A00080916102882369F22FB7F89480919B01B2
:1005B00090919C01A0919D01B0919E012FBF40910F
:1005C0003E0250913F026091400270914102841BB3
:1005D000950BA60BB70B40914202509143026091DC
:1005E00044027091450284179507A607B70708F4DF
:1005F000A8CF10925A0210925C0210925F021092E1
:100600005E0281E02FCF80935302272F30E070935A
:100610005502609356024091520290915102490F47
:100620005527551F840F952F911D40915402840F1B
:10063000911D820F931F680F792F711D7195619520
:1006400071097093570260935802442361F08091BE
:100650006102882341F060E070E0CB010E94BA01A2
:100660000E94ED01F4CF80913C0290913D02DC01AB
:10067000ED91FC910280F381E02D4AE050E060E5CD
:1006800072E009952FB7F89480919B0190919C019D
:10069000A0919D01B0919E012FBF80933E02909347
:1006A0003F02A0934002B09341028091540291E036
:1006B000811101C090E090936102811106C06AE04F
:1006C00070E080E090E00C94BA010895AF92BF9280
:1006D000CF92DF92EF92FF920F931F93CF93DF930E
:1006E0006C017B018B01040F151FEB015E01AE183D
:1006F000BF08C017D10759F06991D601ED91FC915F
:100700000190F081E02DC6010995892B79F7C5018B
:10071000DF91CF911F910F91FF90EF90DF90CF90DD
:10072000BF90AF900895FC01538D448D252F30E08C
:10073000842F90E0821B930B541710F0CF960895EE
:1007400001970895FC01918D828D981761F0A28D1B
:10075000AE0FBF2FB11D5D968C91928D9F5F9F73E1
:10076000928F90E008958FEF9FEF0895FC01918D97
:10077000828D981731F0828DE80FF11D858D90E004
:1007800008958FEF9FEF0895FC01918D228D892FA1
:1007900090E0805C9F4F821B91098F739927089589
:1007A0008FE991E00E94C40321E0892B09F420E045
:1007B000822F089580E090E0892B29F00E94D003D9
:1007C00081110C9400000895FC01A48DA80FB92F8D
:1007D000B11DA35ABF4F2C91848D90E001968F7369
:1007E0009927848FA689B7892C93A089B1898C9188
:1007F000837080648C93938D848D981306C00288D7
:10080000F389E02D80818F7D80830895EF92FF92A0
:100810000F931F93CF93DF93EC0181E0888F9B8D23
:100820008C8D98131AC0E889F989808185FF15C0DD
:100830009FB7F894EE89FF896083E889F989808100
:100840008370806480839FBF81E090E0DF91CF91CF
:100850001F910F91FF90EF900895F62E0B8D10E0F1
:100860000F5F1F4F0F731127E02E8C8D8E110CC060
:100870000FB607FCFACFE889F989808185FFF5CFAB
:10088000CE010E94E403F1CFEB8DEC0FFD2FF11DA3
:10089000E35AFF4FF0829FB7F8940B8FEA89FB89E8
:1008A00080818062CFCF0F931F93CF93DF938C0112
:1008B000D0E0C0E0F801EC0FFD1F6491662341F029
:1008C0008FE991E00E940604892B11F02196F2CF66
:1008D000CE01DF91CF911F910F910895CF93DF93B8
:1008E000EC01888D8823B9F0AA89BB89E889F98948
:1008F0008C9185FD03C0808186FD0DC00FB607FC7D
:10090000F7CF8C9185FFF2CF808185FFEDCFCE01AF
:100910000E94E403E9CFDF91CF91089520919401E3
:10092000309195012817390771F4909192018091C7
:100930009301981741F0E0919201F0E0EE5AFE4FDA
:10094000808190E008958FEF9FEF08950895EF92D2
:10095000FF920F931F93CF93DF93DC015C96ED9092
:10096000FC905D97E114F10479F481E090E0139636
:100970009C938E93129790E080E0DF91CF911F912E
:100980000F91FF90EF9008955196ED91FC91529741
:1009900050968C915097982F90950FB75E962C910A
:1009A0005E97122F127021FD6095F894208111231B
:1009B00019F1282B2083E7012197F1F728E0462F32
:1009C00050E0308160FF1AC0382B3083E701219757
:1009D000F1F7BA0175956795215089F7112381F0D8
:1009E0008081892380830FBF5C968D919C910197B4
:1009F000F1F781E090E0C1CF2923DCCF3923E5CFA7
:100A00009081892BEFCF2091940130919501281787
:100A1000390771F4809193012091920190E0805CFC
:100A20009F4F821B910960E470E00E942D0B089596
:100A300090E080E00895209194013091950128176D
:100A40003907B9F49091920180919301981789F038
:100A5000E0919201F0E0EE5AFE4F808120919201E8
:100A600030E02F5F3F4F2F7333272093920190E0A8
:100A700008958FEF9FEF089590E080E00895FC01C6
:100A800001900020E9F73197AF01481B590BBC01D9
:100A90008FE991E00C946603CF93DF930E94530497
:100AA000EC0184E391E00E943F058C0F9D1FDF91D4
:100AB000CF9108951F920F920FB60F9211242F938A
:100AC0003F938F939F93AF93BF9380919B0190919E
:100AD0009C01A0919D01B0919E013091960123E06F
:100AE000230F2D3758F50196A11DB11D20939601B6
:100AF00080939B0190939C01A0939D01B0939E01D4
:100B00008091970190919801A0919901B0919A01DB
:100B10000196A11DB11D8093970190939801A09318
:100B20009901B0939A01BF91AF919F918F913F919D
:100B30002F910F900FBE0F901F90189526E8230F4E
:100B40000296A11DB11DD2CF1F920F920FB60F9228
:100B500011242F933F934F935F936F937F938F93C2
:100B60009F93AF93BF93EF93FF938FE991E00E9420
:100B7000E403FF91EF91BF91AF919F918F917F918E
:100B80006F915F914F913F912F910F900FBE0F90FA
:100B90001F9018951F920F920FB60F9211242F934A
:100BA0008F939F93EF93FF93E091AF01F091B0018A
:100BB0008081E091B501F091B60182FD1BC090816A
:100BC0008091B8018F5F8F732091B901821741F036
:100BD000E091B801F0E0E156FE4F958F8093B801A7
:100BE000FF91EF919F918F912F910F900FBE0F90DA
:100BF0001F9018958081F4CF1F920F920FB60F921D
:100C000011242F933F934F935F936F937F938F9311
:100C10009F93AF93BF93EF93FF93E0919401F09173
:100C20009501309749F0A685B7858585968D91FF0A
:100C300014C09C918923A1F4FF91EF91BF91AF91D2
:100C40009F918F917F916F915F914F913F912F91E4
:100C50000F900FBE0F901F9018959C91892361F7FC
:100C6000A389B4899C918589809589238C938689F1
:100C700097890197F1F7608D718DA685B7855585A8
:100C800038E020E0CB010197F1F7822F90E09595B5
:100C90008795282F4C91452309F02068315091F712
:100CA000868D81FD20958091930190E001968F7350
:100CB000992730919201381799F0A0919301B0E0F3
:100CC000AE5ABE4F2C9380939301828D938D0197E2
:100CD000F1F7A389B4898C919589892B8C93ACCF3A
:100CE000868D8160868FF1CF90E0FC01E350FE4F4E
:100CF0002491FC01E55EFD4F3491FC01E75CFD4F62
:100D0000E491EE23C9F0222339F0233001F1A8F455
:100D1000213019F1223029F1F0E0EE0FFF1FE15DE3
:100D2000FD4FA591B4918FB7F894EC91611126C055
:100D300030953E233C938FBF08952730A9F028308B
:100D4000C9F0243049F7809180008F7D03C08091E5
:100D500080008F7780938000DFCF84B58F7784BD4C
:100D6000DBCF84B58F7DFBCF8091B0008F778093F0
:100D7000B000D2CF8091B0008F7DF9CF3E2BDACF7B
:100D80001092A2011092A10188EE93E0A0E0B0E0E1
:100D90008093A3019093A401A093A501B093A60111
:100DA00084E191E09093A00180939F0185EC90E015
:100DB0009093AC018093AB0184EC90E09093AE01F2
:100DC0008093AD0180EC90E09093B0018093AF01EF
:100DD00081EC90E09093B2018093B10182EC90E0BD
:100DE0009093B4018093B30186EC90E09093B601A8
:100DF0008093B5011092B8011092B9011092BA0116
:100E00001092BB01109282021092890210929002FD
:100E100010929102109292021092930281E08093BC
:100E20008F0280938C0210928D0292E090938E023A
:100E30008093810281E290E0909386028093850204
:100E40000E944E0B90938B0280938A02009709F4C4
:100E5000D0C021E2FC0111922A95E9F78BE090E0E5
:100E6000909384028093830285E090E090938802BF
:100E70008093870280918202882341F061E085E0BF
:100E80000E94640160E085E00E947406EEE3F2E0F7
:100E9000E491F0E0EE0FFF1FE15DFD4F859194912D
:100EA0009093950280939402E0E2F2E0E491E09363
:100EB0009602109265021092640288EE93E0A0E020
:100EC000B0E08093660290936702A0936802B093AB
:100ED000690286E291E0909363028093620210922D
:100EE00079021092780210927B0210927A0210928C
:100EF0007D0210927C0210927F0210927E0260911D
:100F000080026E7F6D7F609380026695617081E0E4
:100F100068278BE00E94740661E08BE00E94640108
:100F2000E6E2F2E0E491E0937202E4E4F2E0E491BC
:100F3000F0E0EE0FFF1FE15DFD4F859194919093DE
:100F400074028093730260E08AE00E9464018091E1
:100F5000800281FD04C061E08AE00E9474068AE09C
:100F600080936E02E5E2F2E0E491E0936F02E3E445
:100F7000F2E0E491F0E0EE0FFF1FEF5EFD4F2591F0
:100F80003491309371022093700244EF51E060E09D
:100F900070E0409342025093430260934402709386
:100FA0004502E6E0F1E0A0E5B2E001900D928A95FD
:100FB000E1F710925A0282E080935B021092600285
:100FC000109261028FEF8093970210929902109213
:100FD00098021092A3021092A2028FEF9FEFDC0101
:100FE00080939E0290939F02A093A002B093A102CF
:100FF0000895109286021092850210928402109237
:10100000830232CFCF93DF93CDB7DEB7A1970FB670
:10101000F894DEBF0FBECDBF789484B5826084BDE6
:1010200084B5816084BD85B5826085BD85B58160EC
:1010300085BD80916E00816080936E00109281006A
:101040008091810082608093810080918100816025
:1010500080938100809180008160809380008091E6
:10106000B10084608093B1008091B0008160809372
:10107000B00080917A00846080937A0080917A0039
:10108000826080937A0080917A00816080937A00F8
:1010900080917A00806880937A001092C100E0917C
:1010A000AF01F091B00182E08083E091AB01F0915B
:1010B000AC011082E091AD01F091AE0180E180833E
:1010C0001092B701E091B301F091B40186E0808302
:1010D000E091B101F091B201808180618083E09163
:1010E000B101F091B201808188608083E091B1010B
:1010F000F091B201808180688083E091B101F0912C
:10110000B20180818F7D808310927D0210927C02DB
:1011100010927B0210927A02109279021092780259
:101120008DE991E090937F0280937E0290916E0210
:10113000963108F047C02DEB30E0309379022093D0
:1011400078022BE931E030937B0220937A022CE283
:1011500031E030937D0220937C022091680084E08E
:10116000983048F031E09E3008F430E081E001C072
:10117000880F3A95EAF7822B809368002DE630E0DD
:10118000983050F02BE630E09E3030F02CE630E026
:10119000963110F030E020E0309376022093750213
:1011A000292F30E0983008F083C081E001C0880F1B
:1011B0009A95EAF78093770280917E0290917F0260
:1011C0000197F1F780917C0290917D02892B49F182
:1011D000E0919401F091950122E0E236F20709F1E5
:1011E000309739F0A389B4899C91858980958923AA
:1011F0008C93809180028E7F809380021092930165
:101200001092920182E692E090939501809394016E
:10121000E0917502F0917602808190917702892B9E
:10122000808360E08EE00E94640184E391E00E948C
:101230003F058EEF90E00E944C058DEC90E00E94FF
:101240004C0582E692E090933D0280933C0281E05F
:101250008093540270E060E08CE00E9403038FB73B
:10126000F894C0909B01D0909C01E0909D01F0907B
:101270009E018FBF0E94ED01811127C02FB7F89406
:1012800080919B0190919C01A0919D01B0919E0144
:101290002FBF8C199D09AE09BF09813D9740A1055B
:1012A000B10598F460E070E0CB010E94BA01E2CF92
:1012B0009E3040F42850310981E001C0880F2A9502
:1012C000EAF778CF2E503109F7CF68EC70E080E074
:1012D00090E00E94BA011092600280915C0284301A
:1012E000A1F0893091F08CEB90E00E944C058BE9E5
:1012F00090E00E944C058EE790E00E944C0560E073
:1013000070E0CB010E94BA01FACF88E690E00E941B
:101310004C050E9453012BE130E0DC010E94470B99
:101320002FEF33E040E050E00E94C90A622F70E0E6
:1013300086E00E94030361E070E083E00E94030303
:1013400060918902663029F120918A0230918B02E6
:101350006150C9F070E08FEF95E00E94190BF90120
:101360004091850250918602CF01821B930B841716
:10137000950760F44081469FC001479F900D11245E
:1013800090833196EDCF70E060E0E9CF86E0809306
:10139000890244244A9483E0582E612C712C9AE0EF
:1013A000892E912CA12CB12C20E0222E20E0322E6F
:1013B0000E9453012BE130E0DC010E94470BA301A6
:1013C00092010E94C90A622F70E086E00E94030326
:1013D0000E94ED01882389F11092600200915E0263
:1013E00010915F02E0915C02E93038F5F0E0E550E1
:1013F000F64F0C94410B040A090A0C0A0F0A120A50
:101400002C0A740A150A290A89EE91E00E944C05FB
:1014100014C08CED91E0FACF8DEC91E0F7CF8FEB1B
:1014200091E0F4CF82EB91E0F1CF87E391E00E946D
:101430003F0584E391E00E943F052114310409F443
:10144000B7CF0E94D003882309F4B2CF0E940000D6
:10145000AFCF85E491E0EBCF8AEA91E00E9453049C
:101460006801110FEE08FF08F7FE28C06DE28FE952
:1014700091E00E94060422273327A9012C193D0977
:101480004E095F0919A2CE0181967C01CA01B901FA
:10149000A50194010E94E80A605DF70162937F0153
:1014A000211531054105510589F7E114F10419F0C1
:1014B000C7010E943F058AE991E0A8CFA7019601E4
:1014C00019A2CE0181967C01CA01B901A50194013E
:1014D0000E94E80A605DF70162937F0121153105E2
:1014E0004105510589F7E1CF8BE891E00E94530453
:1014F000F8013197E730F10508F09FCFEE57F54F2F
:101500000C94410B890A8C0A8F0A920A950A980A50
:101510009B0A8CE791E07ACF83E791E077CF83E66F
:1015200091E074CF8FE491E071CF87E391E06ECFCB
:1015300086E291E06BCF89E191E068CF86E291E0AD
:10154000909363028093620280919401909195013F
:101550008256924071F4E0917502F091760290818A
:101560008091770280958923808310929501109253
:10157000940180918A0290918B020E94EA0B8091E3
:1015800087029091880297FD03C060E00C9464018B
:101590000895052E97FB1EF400940E94E00A57FD63
:1015A00007D00E94E80A07FC03D04EF40C94E00A2E
:1015B00050954095309521953F4F4F4F5F4F08957F
:1015C00090958095709561957F4F8F4F9F4F0895AF
:1015D000A1E21A2EAA1BBB1BFD010DC0AA1FBB1F37
:1015E000EE1FFF1FA217B307E407F50720F0A21BA9
:1015F000B30BE40BF50B661F771F881F991F1A9416
:1016000069F760957095809590959B01AC01BD013F
:10161000CF010895A29FB001B39FC001A39F700D99
:10162000811D1124911DB29F700D811D1124911DEA
:101630000895AA1BBB1B51E107C0AA1FBB1FA61719
:10164000B70710F0A61BB70B881F991F5A95A9F76B
:1016500080959095BC01CD01089597FB072E16F457
:10166000009407D077FD09D00E94190B07FC05D024
:101670003EF4909581959F4F0895709561957F4FA9
:101680000895EE0FFF1F0590F491E02D09940E943C
:101690000A0BB7FF0895821B930B08950F931F93B6
:1016A000CF93DF938230910510F482E090E0E091D7
:1016B000A602F091A70230E020E0B0E0A0E0309771
:1016C00099F42115310509F44AC0281B390B24303F
:1016D0003105D8F58A819B816115710589F1FB017E
:1016E00093838283FE0111C0408151810281138165
:1016F00048175907E0F04817590799F4109761F017
:1017000012960C93129713961C933296CF01DF9189
:10171000CF911F910F9108950093A6021093A702F5
:10172000F4CF2115310551F04217530738F0A901C4
:10173000DB019A01BD01DF01F801C1CFEF01F9CF53
:101740009093A7028093A602CDCFFE01E20FF31F74
:10175000819391932250310939832883D7CF2091E7
:10176000A4023091A502232B41F420910201309173
:1017700003013093A5022093A4022091000130912F
:1017800001012115310541F42DB73EB74091040107
:1017900050910501241B350BE091A402F091A502A4
:1017A000E217F307A0F42E1B3F0B2817390778F038
:1017B000AC014E5F5F4F2417350748F04E0F5F1F97
:1017C0005093A5024093A402819391939FCFF0E0A0
:1017D000E0E09CCFCF93DF930097E9F0FC013297D4
:1017E00013821282A091A602B091A702ED0130E00F
:1017F00020E01097A1F420813181820F931F209166
:10180000A4023091A5022817390709F061C0F093AE
:10181000A502E093A402DF91CF910895EA01CE17CB
:10182000DF07E8F54A815B819E0141155105B1F75B
:10183000E901FB83EA8349915991C40FD51FEC1745
:10184000FD0761F4808191810296840F951FE90163
:1018500099838883828193819B838A83F0E0E0E08F
:1018600012968D919C9113970097B9F52D913C910B
:101870001197CD010296820F931F2091A4023091FF
:10188000A5022817390739F6309751F51092A702AB
:101890001092A602B093A502A093A402BCCFD3835A
:1018A000C28340815181840F951FC817D90761F405
:1018B0004E5F5F4F88819981480F591F5183408344
:1018C0008A819B81938382832115310509F0B0CFF2
:1018D000F093A702E093A6029ECFFD01DC01C0CFEA
:1018E00013821282D7CF11E0C8E2D1E004C0FE011A
:1018F0000E94410B2196C932D107C9F7F894FFCF56
:101900000000A80280007EFF06000100000000EF3A
:10191000000000000604660393036E04C403A203E0
:10192000B60300000000A70466033C05A6040305F7
:101930001B058E040D0A0055534220496E736572D3
:1019400074656421005553422052656D6F7665645D
:02195000210074
:00000001FF
