:100000000C94BC000C94E4000C94E4000C94AE0737
:100010000C94AE070C94AE070C94E4000C94E4002E
:100020000C94E4000C94E4000C94E4000C94E400C0
:100030000C94E4000C94E4000C94E4000C94E400B0
:100040000C940C070C94E4000C947C070C94560759
:100050000C94E4000C94E4000C94E4000C94E40090
:100060000C94E4000C94E4004446506C6179657291
:10007000204D696E69206F6E6C696E652E00322EA0
:10008000506C6561736520696E7365727420746865
:100090006520534420636172642100312E506C65E9
:1000A000617365207265636865636B2074686520A1
:1000B000636F6E6E656374696F6E2100556E616269
:1000C0006C6520746F20626567696E3A00496E69DD
:1000D0007469616C697A696E67204446506C617915
:1000E0006572202E2E2E20284D61792074616B655B
:1000F00020337E35207365636F6E64732900444638
:10010000526F626F74204446506C61796572204D65
:10011000696E692044656D6F0000000000240027AF
:10012000002A00000000080002010000030407008C
:10013000000000000000000000000023002600294D
:100140000001020408102040800102040810200170
:10015000020408102000000000250028002B0004E5
:10016000040404040404040202020202020303035E
:10017000030303002608701111241FBECFEFD8E03F
:10018000DEBFCDBF12E0A0E0B1E0E2E1F8E202C0E4
:1001900005900D92A432B107D9F723E0A4E2B2E0B2
:1001A00001C01D92A739B207E1F710E0CBEBD0E018
:1001B00004C02197FE010E94CA12CA3BD107C9F7A9
:1001C0000E9468090C94FC130C9400008F929F927B
:1001D000AF92BF92CF92DF92EF92FF92CF93209196
:1001E00072033091730382179307E8F54B01AA2439
:1001F000BB24C82DC52ED62EE72EFF24BC2DA42F40
:1002000020917803222361F0829E40011124C92DA0
:100210002C9D60011124BD2D249FF0011124AF2FCE
:10022000E0917E03E0907903F0907A0330917B03B4
:10023000E31323C09C01220F331F820F931F8E0DE7
:100240009F1DE0917B03E80FF92FF11DC083E09122
:100250007C03E80FF92FF11DB08320917D03820FFD
:10026000911DFC01A083CF91FF90EF90DF90CF9084
:10027000BF90AF909F908F900895880F991F880F1F
:10028000991F8E0D9F1D472F5527662777272223FD
:1002900049F030E0249F7001259FF00C349FF00C52
:1002A00011244F2DE80FF92FF11D4083CACFE091A3
:1002B0007203F09173038E179F0798F530917803BE
:1002C000332361F0639FB0011124672F349FA00195
:1002D0001124452F329F90011124232F30917E034A
:1002E000E0917903F0917A0350917B0335131AC0A2
:1002F000DC01AA0FBB1F8A0F9B1F8E0F9F1FE0916F
:100300007B03E80FF92FF11D6083E0917C03E80F78
:10031000F92FF11D408330917D03830F911DFC0166
:1003200020830895880F991F880F991F8E0F9F1F94
:10033000FC01E30FF11D1082E2CF90E0FC01ED5DC6
:10034000FE4F2491FC01EF5BFE4F3491FC01E15A1A
:10035000FE4FE491EE23C9F0222339F0233001F15E
:10036000A8F4213019F1223029F1F0E0EE0FFF1F3F
:10037000EB5AFE4FA591B4918FB7F894EC916111AF
:1003800026C030953E233C938FBF08952730A9F0B7
:100390002830C9F0243049F7809180008F7D03C058
:1003A000809180008F7780938000DFCF84B58F7736
:1003B00084BDDBCF84B58F7DFBCF8091B0008F777C
:1003C0008093B000D2CF8091B0008F7DF9CF3E2BCB
:1003D000DACFCF93DF9390E0FC01EF5BFE4F2491E7
:1003E000815A9E4FFC0184918823D1F090E0880FC0
:1003F000991FFC01E75EFE4FA591B491FC01EB5AF9
:10040000FE4FC591D49161110EC09FB7F8948C91A5
:10041000E22FE0958E238C932881E223E8839FBF0F
:10042000DF91CF9108958FB7F894EC91E22BEC9384
:100430008FBFF6CF3FB7F89480918A0290918B02DC
:10044000A0918C02B0918D0226B5A89B05C02F3FCC
:1004500019F00196A11DB11D3FBFBA2FA92F982FEA
:100460008827BC01CD01620F711D811D911D42E0E5
:10047000660F771F881F991F4A95D1F708950F932C
:100480001F93CF93DF93CDB7DEB729970FB6F894BC
:10049000DEBF0FBECDBF8091790390917A03892B87
:1004A00009F47CC00E941A0200917F03109180031E
:1004B00020918103309182036017710782079307AF
:1004C00040F460937F037093800380938103909343
:1004D000820300917F03109180032091810330916A
:1004E0008203601B710B820B930B6C327140810590
:1004F0009105C0F2F89480917403909175039A83EA
:100500008983E0917903F0917A03DF01119680816C
:10051000898790917003E0918303F0918403809127
:100520008503992309F445C09081982B9887908181
:10053000809589238F838F818C8388E08B83588576
:100540006F8149853B812C8189819A81508347FD48
:10055000252F3A952083262F39F0441F00C0000034
:100560006083000000C0F2CF38E04D91608300004E
:10057000019761F7F0938403E093830349873B83FA
:100580002C839A83898378940E941A0260937F0354
:1005900070938003809381039093820329960FB612
:1005A000F894DEBF0FBECDBFDF91CF911F910F91A9
:1005B00008959081982B98879081809589238F83C7
:1005C0008F818E8388E08D8358856F8149853D8139
:1005D0002E8189819A81508347FD252F00C000C05C
:1005E000208300C000C000C000C000C060830000C5
:1005F000262F3A9541F0441F000000C000C000C003
:1006000000C000C0E8CF38E04D9100C0608300C05A
:10061000019709F7F0938403E093830349873D83AF
:100620002E83AFCF8F929F92AF92BF92CF92DF92E5
:10063000EF92FF926B017C010E941A024B015C0158
:10064000C114D104E104F104B9F00E941A0268193E
:1006500079098A099B09683E73408105910580F3F9
:1006600021E0C21AD108E108F10888EE880E83E083
:10067000981EA11CB11CE4CFFF90EF90DF90CF90AB
:10068000BF90AF909F908F9008952FB7F89460918E
:1006900086027091870280918802909189022FBF13
:1006A00008950F931F9380912B0390912C03DC01ED
:1006B000ED91FC910084F185E02D0995892B09F4D9
:1006C000D7C060E070E0CB010E9412032091490383
:1006D00080912B0390912C03DC01ED91FC9102841D
:1006E000F385E02D21110BC00995809335038E37DA
:1006F000D1F6809149038F5F80934903D4CF099548
:1007000090914903E92FF0E0E55DFC4F828792303C
:10071000B9F09930D9F09130A9F48F3F99F0109247
:10072000490381E080934B0310924E0310924D03D6
:1007300080934F031092500380E01F910F91089512
:10074000863069F79F5F90934903ADCF8F3E39F7AD
:100750002091370380913603280F3327331FE09110
:100760003803C9018E0F911D20913903280F392FAD
:10077000311D40913A0350E0240F351F80913B0317
:1007800090E060913C0370E0762F6627F0913D0386
:100790006F0F711D280F391F31952195310962178F
:1007A000730709F0BCCF10924903E13419F4109299
:1007B00050032FC0E0934C03542F4427840F951F00
:1007C00090934E0380934D03EA53E63108F046C000
:1007D000F0E0E351FC4F0C94CA121A0422042C04DA
:1007E00003042C040C042A042E042C042C042C04D2
:1007F0002C042C042C042C042C042E042C042C0477
:100800002C042C042C0485E080934B0381E080931E
:100810004F0380914F0391CF80FF02C089E0F4CF56
:1008200081FF02C084E0F0CF83709927892B89F380
:100830008AE0EACF80FF02C087E0E6CF81FFE9CF00
:1008400082E0E2CF80FF02C088E0DECF81FFE1CF0F
:1008500083E0DACF86E0D8CF8BE0D6CF81E08093FB
:100860004B0310924E0310924D0380934F039FCF82
:1008700080915003882369F20E94450300912D0363
:1008800010912E0320912F0330913003601B710BC8
:10089000820B930B009131031091320320913303AB
:1008A00030913403601771078207930708F4B1CFC2
:1008B0001092490310924B0310924E0310924D0375
:1008C00081E036CF80934203272F30E070934403BA
:1008D000609345034091410390914003490F552790
:1008E000551F840F952F911D40914303840F911D37
:1008F000820F931F680F792F711D71956195710992
:100900007093460360934703442361F08091500342
:10091000882341F060E070E0CB010E9412030E9446
:100920005103F4CF80912B0390912C03DC01ED91C6
:10093000FC910280F381E02D4AE050E06FE373E028
:1009400009950E94450360932D0370932E038093B5
:100950002F03909330038091430391E0811101C0F4
:1009600090E090935003811106C06AE070E080E04F
:1009700090E00C9412030895AF92BF92CF92DF9251
:10098000EF92FF920F931F93CF93DF936C017B0144
:100990008B01040F151FEB015E01AE18BF08C017D5
:1009A000D10759F06991D601ED91FC910190F08148
:1009B000E02DC6010995892B79F7C501DF91CF910B
:1009C0001F910F91FF90EF90DF90CF90BF90AF906D
:1009D0000895FC01538D448D252F30E0842F90E045
:1009E000821B930B541710F0CF960895019708952A
:1009F000FC01918D828D981761F0A28DAE0FBF2FF3
:100A0000B11D5D968C91928D9F5F9F73928F90E048
:100A100008958FEF9FEF0895FC01918D828D9817B7
:100A200031F0828DE80FF11D858D90E008958FEFF4
:100A30009FEF0895FC01918D228D892F90E0805CBD
:100A40009F4F821B91098F73992708958EE892E03A
:100A50000E941A0521E0892B09F420E0822F0895D5
:100A600080E090E0892B29F00E94260581110C94EA
:100A700000000895FC01A48DA80FB92FB11DA35A41
:100A8000BF4F2C91848D90E001968F739927848FAE
:100A9000A689B7892C93A089B1898C9183708064D1
:100AA0008C93938D848D981306C00288F389E02D72
:100AB00080818F7D80830895EF92FF920F931F9323
:100AC000CF93DF93EC0181E0888F9B8D8C8D981301
:100AD0001AC0E889F989808185FF15C09FB7F8940D
:100AE000EE89FF896083E889F98980818370806459
:100AF00080839FBF81E090E0DF91CF911F910F91A4
:100B0000FF90EF900895F62E0B8D10E00F5F1F4FB2
:100B10000F731127E02E8C8D8E110CC00FB607FCC1
:100B2000FACFE889F989808185FFF5CFCE010E944F
:100B30003A05F1CFEB8DEC0FFD2FF11DE35AFF4F7E
:100B4000F0829FB7F8940B8FEA89FB8980818062DD
:100B5000CFCFCF93DF93EC01888D8823B9F0AA899A
:100B6000BB89E889F9898C9185FD03C0808186FD68
:100B70000DC00FB607FCF7CF8C9185FFF2CF8081B7
:100B800085FFEDCFCE010E943A05E9CFDF91CF91ED
:100B9000089520916602309167022817390771F491
:100BA0009091640280916502981741F0E09164028F
:100BB000F0E0EC5DFD4F808190E008958FEF9FEFB6
:100BC00008950895EF92FF920F931F93CF93DF93B1
:100BD000DC015C96ED90FC905D97E114F10479F4F2
:100BE00081E090E013969C938E93129790E080E0C2
:100BF000DF91CF911F910F91FF90EF900895519643
:100C0000ED91FC91529750968C915097982F90951A
:100C10000FB75E962C915E97122F127021FD609592
:100C2000F8942081112319F1282B2083E7012197C3
:100C3000F1F728E0462F50E0308160FF1AC0382BD2
:100C40003083E7012197F1F7BA0175956795215037
:100C500089F7112381F08081892380830FBF5C96FF
:100C60008D919C910197F1F781E090E0C1CF29230C
:100C7000DCCF3923E5CF9081892BEFCF209166021D
:100C8000309167022817390771F48091650220912D
:100C9000640290E0805C9F4F821B910960E470E0E9
:100CA0000E94B612089590E080E0089520916602B7
:100CB0003091670228173907B9F490916402809146
:100CC0006502981789F0E0916402F0E0EC5DFD4F59
:100CD00080812091640230E02F5F3F4F2F733327D4
:100CE0002093640290E008958FEF9FEF089590E0C5
:100CF00080E00895FC0101900020E9F73197AF01F1
:100D0000481B590BBC018EE892E00C94BC048F92F6
:100D10009F92AF92BF920F931F93CF93DF93CDB764
:100D2000DEB7A1970FB6F894DEBF0FBECDBF19A2F4
:100D3000423008F44AE08E010F5D1F4F842E912C43
:100D4000B12CA12CA50194010E947112E62FB901CA
:100D5000CA01EA30F4F4E05DD801EE938D01232B53
:100D6000242B252B79F790E080E0109719F0CD0126
:100D70000E947A06A1960FB6F894DEBF0FBECDBFD3
:100D8000DF91CF911F910F91BF90AF909F908F9067
:100D90000895E95CE1CFCF92DF92EF92FF92CF937B
:100DA000DF936B017C016DE28EE892E00E945C05AE
:100DB000EC0166277727CB016C197D098E099F0905
:100DC0004AE00E9487068C0F9D1FDF91CF91FF9014
:100DD000EF90DF90CF9008950F931F93CF93DF9301
:100DE0008C01D0E0C0E0F801EC0FFD1F6491662398
:100DF00041F08EE892E00E945C05892B11F021966B
:100E0000F2CF86E092E00E947A068C0F9D1FDF9160
:100E1000CF911F910F9108951F920F920FB60F92CD
:100E200011242F933F938F939F93AF93BF93809100
:100E3000860290918702A0918802B0918902309138
:100E4000850223E0230F2D3758F50196A11DB11D12
:100E5000209385028093860290938702A093880254
:100E6000B093890280918A0290918B02A0918C02AA
:100E7000B0918D020196A11DB11D80938A029093BD
:100E80008B02A0938C02B0938D02BF91AF919F9182
:100E90008F913F912F910F900FBE0F901F9018953B
:100EA00026E8230F0296A11DB11DD2CF1F920F92EB
:100EB0000FB60F9211242F933F934F935F936F932D
:100EC0007F938F939F93AF93BF93EF93FF938EE89E
:100ED00092E00E943A05FF91EF91BF91AF919F91EF
:100EE0008F917F916F915F914F913F912F910F90D3
:100EF0000FBE0F901F9018951F920F920FB60F9272
:100F000011242F938F939F93EF93FF93E0919E0271
:100F1000F0919F028081E091A402F091A50282FDF0
:100F20001BC090818091A7028F5F8F732091A802D0
:100F3000821741F0E091A702F0E0E257FD4F958F54
:100F40008093A702FF91EF919F918F912F910F9026
:100F50000FBE0F901F9018958081F4CF1F920F92B3
:100F60000FB60F9211242F933F934F935F936F937C
:100F70007F938F939F93AF93BF93EF93FF93E091F2
:100F80006602F0916702309749F0A685B78585859E
:100F9000968D91FF14C09C918923A1F4FF91EF914C
:100FA000BF91AF919F918F917F916F915F914F9181
:100FB0003F912F910F900FBE0F901F9018959C910D
:100FC000892361F7A389B4899C91858980958923B8
:100FD0008C93868997890197F1F7608D718DA6852D
:100FE000B785558538E020E0CB010197F1F7822FD6
:100FF00090E095958795282F4C91452309F020681E
:10100000315091F7868D81FD20958091650290E0A9
:1010100001968F73992730916402381799F0A09147
:101020006502B0E0AC5DBD4F2C9380936502828D6C
:10103000938D0197F1F7A389B4898C919589892BB8
:101040008C93ACCF868D8160868FF1CF1092910208
:101050001092900288EE93E0A0E0B0E080939202BC
:1010600090939302A0939402B093950286EE91E040
:1010700090938F0280938E0285EC90E090939B0278
:1010800080939A0284EC90E090939D0280939C025E
:1010900080EC90E090939F0280939E0281EC90E020
:1010A0009093A1028093A00282EC90E09093A3021F
:1010B0008093A20226EC30E03093A5022093A40294
:1010C0001092A7021092A8021092A9021092AA02EE
:1010D000109271031092780310927F031092800394
:1010E000109281031092820381E080937E038093AB
:1010F0007B0310927C0392E090937D0380937003B6
:10110000309375032093740386EC90E00E94D7120D
:1011100090937A0380937903009709F4D0C026EC6A
:10112000FC0111922A95E9F782E490E09093730311
:101130008093720385E090E0909377038093760329
:1011400080917103882341F061E085E00E94E9010C
:1011500060E085E00E949D01E4E6F1E0E491F0E0CA
:10116000EE0FFF1FEB5AFE4F8591949190938403ED
:1011700080938303E6E4F1E0E491E0938503109229
:1011800054031092530388EE93E0A0E0B0E0809304
:10119000550390935603A0935703B093580388EFD9
:1011A00091E0909352038093510310926803109240
:1011B000670310926A031092690310926C031092F5
:1011C0006B0310926E0310926D0360916F036E7F3C
:1011D0006D7F60936F036695617081E068278BE097
:1011E0000E949D0161E08BE00E94E901ECE4F1E0E6
:1011F000E491E0936103EAE6F1E0E491F0E0EE0FC0
:10120000FF1FEB5AFE4F8591949190936303809357
:10121000620360E08AE00E94E90180916F0381FD32
:1012200004C061E08AE00E949D018AE080935D0332
:10123000EBE4F1E0E491E0935E03E9E6F1E0E491B0
:10124000F0E0EE0FFF1FE95CFE4F259134913093E3
:10125000600320935F0344EF51E060E070E040934F
:101260003103509332036093330370933403E2E10C
:10127000F1E0AFE3B3E001900D928A95E1F71092AF
:10128000490382E080934A0310924F031092500367
:101290008FEF809386031092880310928703109239
:1012A0009203109291038FEF9FEFDC0180938D03E7
:1012B00090938E03A0938F03B093900308951092A0
:1012C000750310927403109273031092720332CF5D
:1012D000CF93DF93CDB7DEB72A970FB6F894DEBF72
:1012E0000FBECDBF789484B5826084BD84B5816023
:1012F00084BD85B5826085BD85B5816085BD8091E1
:101300006E00816080936E00109281008091810058
:101310008260809381008091810081608093810050
:10132000809180008160809380008091B100846012
:101330008093B1008091B00081608093B000809173
:101340007A00846080937A0080917A008260809332
:101350007A0080917A00816080937A0080917A008F
:10136000806880937A001092C100E0919E02F09113
:101370009F0282E08083E0919A02F0919B021082AA
:10138000E0919C02F0919D0280E180831092A60280
:10139000E091A202F091A30286E08083E091A00296
:1013A000F091A102808180618083E091A002F091A0
:1013B000A102808188608083E091A002F091A10267
:1013C000808180688083E091A002F091A1028081F9
:1013D0008F7D808310926C0310926B0310926A03CE
:1013E0001092690310926803109267038DE991E0EF
:1013F00090936E0380936D0390915D03963108F096
:1014000047C02DEB30E030936803209367032BE94E
:1014100031E030936A03209369032CE231E030938A
:101420006C0320936B032091680084E0983048F0AF
:1014300031E09E3008F430E081E001C0880F3A9539
:10144000EAF7822B809368002DE630E0983050F068
:101450002BE630E09E3030F02CE630E0963110F094
:1014600030E020E03093650320936403292F30E0BF
:10147000983008F077C081E001C0880F9A95EAF7AC
:101480008093660380916D0390916E030197F1F74D
:1014900080916B0390916C03892B49F1E091660276
:1014A000F091670203E0E135F00709F1309739F078
:1014B000A389B4899C918589809589238C93809197
:1014C0006F038E7F80936F03109265021092640207
:1014D00081E593E09093670280936602E091640354
:1014E000F0916503808190916603892B808360E091
:1014F0008EE00E94E90189E092E00E947A0686E08F
:1015000092E00E947A068EEF90E00E94EC068DEC4D
:1015100090E00E94EC0681E593E090932C03809389
:101520002B0381E08093430370E060E08CE00E9435
:1015300062040E9445036B017C010E9451038111EA
:101540001EC00E9445036C197D098E099F09613DEB
:1015500077408105910598F460E070E0CB010E942E
:101560001203EBCF9E3040F42850310981E001C0D6
:10157000880F2A95EAF784CF2E503109F7CF68EC0F
:1015800070E080E090E00E94120310924F0380917F
:101590004B038430A1F0893091F08CEB90E00E94F5
:1015A000EC068BE990E00E94EC068EE790E00E944A
:1015B000EC0660E070E0CB010E941203FACF60916C
:1015C0007803663029F12091790330917A036150D4
:1015D000C9F070E08FEF95E00E94A212F9014091EE
:1015E000740350917503CF01821B930B84179507E9
:1015F00060F44081469FC001479F900D1124908365
:101600003196EDCF70E060E0E9CF86E0809378031B
:10161000809176039091770397FD08C061E00E9466
:10162000E90160E0809176030E949D0181E0809352
:1016300071030E943F0288E690E00E94EC0680E47D
:1016400080937C0080917A00806480937A008091FE
:101650007A0086FDFCCF80917800A0917900BA2FA6
:10166000A82F2BE130E00E94D0122FEF33E040E0B2
:1016700050E00E943F12622F70E086E00E946204F8
:1016800061E070E083E00E9462040E9445034B0128
:101690005C010E9445036B017C012CEAC2162DE01F
:1016A000D206E104F104B9F485E192E00E947A06E1
:1016B0000E9445034AE00E94870686E092E00E946D
:1016C0007A064FEF5FEF6FEF70E090E080E00E94EE
:1016D000E6000E943F020E9445036838734181057D
:1016E000910508F451C080916A0290916B02092E15
:1016F000000CAA0BBB0B97018601081B190B2A0BC8
:101700003B0BD901C80184379105A105B105E0F172
:101710008091720390917303039700916802109176
:1017200069021A8309838017910770F1D0926B02C6
:10173000C0926A028017910739F04FEF5FEF6FEFA9
:1017400070E0C8010E94E6000E943F0240E050E0C5
:10175000BA0189819A8101970E94E6000E943F02A6
:1017600069817A816F5F7F4F70936902609368022D
:10177000072E000C880B990B97FF47C20E94CB06DF
:1017800086E092E00E947A060E9445036B017C018C
:10179000DC01CB018C599143A109B10985389C41E9
:1017A000A105B10508F041C1D701C601885C92438B
:1017B000A109B109893E9340A105B10560F0D701A7
:1017C000C60180589E43A109B109893E9340A105F5
:1017D000B10508F074C08091710290917202092ED7
:1017E000000CAA0BBB0B97018601081B190B2A0BD7
:1017F0003B0BD901C801893C9105A105B10508F44D
:1018000045C0D0927202C092710210E000E02091B7
:101810000201309103013A8329832330310509F015
:10182000F8C140E05FEF6FEF70E0F801E45BFE4F5E
:10183000808191810E94E6000E5F1F4F02311105E9
:1018400031F70E943F0210E000E0A981BA811297AF
:1018500009F0F9C140E050E0BA01F801E45BFE4F45
:10186000808191810E94E6000E5F1F4F02311105B9
:1018700061F70E943F0209811A81101611066CF46B
:10188000015011091093030100930201809102019C
:10189000909103011816190694F010E8C11A1EE37E
:1018A000D10AE108F10829ECC216D104E104F104DF
:1018B00030F443E050E050930301409302010E9452
:1018C000450300916D0210916E0220916F023091DC
:1018D0007002601B710B820B930B693271058105DD
:1018E000910508F4A2C00E94450360936D027093B5
:1018F0006E0280936F029093700280916C0281114E
:1019000055C06091000170910101072E000C880BF9
:10191000990B97FFAFC10E94CB0686E092E00E9430
:101920007A0680910001909101010A969A83898339
:101930009093010180930001E9818E2F90E0B0E047
:10194000A0E07C01DD24CC24BA2FA92F982F882772
:10195000C82AD92AEA2AFB2A80917203909173033C
:10196000B701A60101970E94E60080917203909151
:101970007303B701A60102970E94E60080917203EB
:1019800090917303B701A60103970E94E6000E949D
:101990003F0209811A810F3F11051CF011E01093DD
:1019A0006C0280916C02882309F43FC020910001F1
:1019B000309101012A5031093A8329833093010182
:1019C00020930001822F90E0B0E0A0E07C01DD24B4
:1019D000CC24BA2FA92F982F8827C82AD92AEA2AD7
:1019E000FB2A8091720390917303B701A6010197BE
:1019F0000E94E6008091720390917303B701A601E3
:101A000002970E94E6008091720390917303B701E0
:101A1000A60103970E94E6000E943F0209811A81F5
:101A20000833110514F410926C020E9445036B01F7
:101A30007C0118E0C11612E5D106E104F10471F051
:101A400028EAC21621E6D206E104F10439F038E4AE
:101A5000C31631E7D306E104F10451F41092800279
:101A600010927F0242E350E0509307014093060139
:101A70002601370158E5451A5DE4550A61087108E9
:101A800081EC48168BE258066104710408F4F6C034
:101A9000D701C60184509B45A109B109893E9340F5
:101AA000A105B10508F450C1D701C6018857994670
:101AB000A109B109893E9340A105B10508F444C1CB
:101AC00004E2C01A07E7D00AE108F10819EEC116CE
:101AD00013E0D106E104F10408F436C1D501C401D4
:101AE000845D9B47A109B10985319540A105B105E8
:101AF00008F008C3AEE72A2E312C10E000E00E9467
:101B0000E7112AE030E040E050E00E943F126630EA
:101B10007105810591050CF4C9C280917203909101
:101B20007303412C512C32010817190708F096C293
:101B300090917E03E0917B03A0917903B0917A03A9
:101B4000C0907803292F30E060917C0370E04091D1
:101B50007D0350E09E134FC3C801880F991F800F6B
:101B6000911F8A0F9B1F280F391FD9013C91680FC5
:101B7000791FFB01F081FD83840F951FDC01BC916F
:101B8000BE83CC2009F45EC2D12CF12CE12C632F52
:101B900070E0762F6627072E000C880B990BA701A3
:101BA00096010E947112D9019927882789839A8307
:101BB000AB83BC839D81692F70E0762F6627072E4B
:101BC000000C880B990BA70196010E947112442406
:101BD000522E632E742E29813A814B815C81422AD8
:101BE000532A642A752A3E81632F70E0762F662778
:101BF000072E000C880B990BA70196010E94711209
:101C0000422A532A642A752A29C24AE00E9487067A
:101C1000B7CD49815A814230510541F440E05FEF30
:101C20006FEF70E0F801EC5CFE4F02CE89819A8183
:101C3000019709F001CE40E05FEF6FEF70E0F8012F
:101C4000E45EFE4FF5CDE981FA81319739F440E049
:101C500050E0BA01F801EC5CFE4F02CE29813A81D6
:101C6000232B09F001CE40E050E0BA01F801E45E18
:101C7000FE4FF6CD4AE00E9487064FCE0E944503F4
:101C800000917B0210917C0220917D0230917E02B6
:101C9000601B710B820B930B6D32714081059105B6
:101CA00008F44AC00E94450360937B0270937C0253
:101CB00080937D0290937E020E94E71124E230E03F
:101CC00040E050E00E943F12660F771F66567E4F3D
:101CD000DB010D90BC91A02DBA83A9832FEF4FEFAC
:101CE0006FEFCD010E9457010E943F020E94450301
:101CF00000917702109178022091790230917A0256
:101D0000601B710B820B930B6D3271408105910545
:101D100098F00E9445036093770270937802809355
:101D2000790290937A0220E040E060E089819A8114
:101D30000E9457010E943F02E1EB4E16E4E05E066E
:101D40006104710408F0A4CE0E944503009173025F
:101D5000109174022091750230917602601B710B14
:101D6000820B930B603171058105910508F4B6CEA5
:101D70000E9445036093730270937402809375020E
:101D80009093760280917F02811147C040900601B6
:101D9000509007012AE0420E511C509207014092D8
:101DA000060170908002772009F4B3C03FEF43161C
:101DB000510409F034F5C42CD12CF12CE12C76011E
:101DC000DD24CC241A8219828091040190910501AE
:101DD0008230910509F06FC0E981FA81EE0FFF1F93
:101DE000E857FE4FB701A601808191810E94E6006D
:101DF00009811A810F5F1F4F1A830983093011056A
:101E000019F70E943F021FEF411651040CF466CEF1
:101E1000711064CE21E020937F02E0900601F090E3
:101E200007013AE0E31AF108F0920701E092060197
:101E30008E2D90E0B0E0A0E03C01552444244427DE
:101E4000582F692F7A2F442A552A662A772A4E2836
:101E5000592A6A2A7B2A1A82198200910401109158
:101E600005010330110509F0C0C0B301A201E981E9
:101E7000FA81E857FE4F808191810E94E6004981F6
:101E80005A814E5F5F4F5A8349834231510529F78A
:101E90000E943F0258E3E516F1040CF01FCE1092A9
:101EA0007F0281E0809380020150110910930501A7
:101EB0000093040113CE8130910539F4E981FA8150
:101EC000EE0FFF1FEA58FE4F8DCF009739F4E981DE
:101ED000FA81EE0FFF1FEC59FE4F84CF019609F0F7
:101EE00087CF09811A81000F111FF801E857FE4FB3
:101EF000B701A601808191810E94E600F801EA58AD
:101F0000FE4FB701A601808191810E94E600F80191
:101F1000E2CF842D90E0B0E0A0E07C01DD24CC2471
:101F20004427582F692F7A2FC42AD52AE62AF72A60
:101F3000C428D92AEA2AFB2A1A821982809104012C
:101F400090910501B701A6018330910571F08230AF
:101F50009105E9F4E981FA81EA58FE4F8081918187
:101F60000E94E60040E050E0BA01E981FA81E857BA
:101F7000FE4F808191810E94E60009811A810E5FE7
:101F80001F4F1A83098302311105C1F63ACF813000
:101F9000910581F4E981FA81EC59FE4F80819181AC
:101FA0000E94E60040E050E0BA01E981FA81EA5877
:101FB000FE4FDFCF892B09F7E981FA81E857FE4F01
:101FC000808191810E94E600B701A601E981FA8132
:101FD000EA58FE4F808191810E94E600B701A60178
:101FE000E981FA81EC59FE4FC4CF0230110539F472
:101FF000B301A201E981FA81EA58FE4F3CCF0130DA
:10200000110539F4B301A201E981FA81EC59FE4FBF
:1020100032CF0115110509F032CFB301A201E981D8
:10202000FA81E857FE4F808191810E94E600B3015A
:10203000A201E981FA81EA58FE4F808191810E94D4
:10204000E600E0CFED804E2C512C712C612C762CCB
:10205000652C542C4424632AFE804F28A301662754
:102060007727FF24E72CD62CC52C2C2D498260E045
:102070004B3030F032E3439FC0011124642F691BC1
:1020800040E02B3030F042E3C49EC00111244C2DBF
:10209000491B598120E05B3030F0A2E35A9FC00118
:1020A0001124252F291BC8010E9457010F5F1F4FC4
:1020B0000F33110509F023CD81010A5011093A822D
:1020C0002982E981FA81EF33F10530F42FEF40E006
:1020D0006FEFCF010E94570129813A8121503109C8
:1020E0003A8329832017310761F70E943F0266E097
:1020F00070E080E090E00E94120331E0231A310882
:1021000009F0FBCC48EE841A40E8940AA108B10813
:1021100051E285165EE49506A104B10408F05EC0A4
:102120000E9445036F83788789879A870E94E71109
:102130004B015C010E94E7112B013C010E94E71159
:10214000E0908102F090820200918302109184025B
:102150002F81388549855A852E193F09400B510B2F
:102160002335334041055105C8F1EF80F8840985D6
:102170001A85E0928102F09282020093830210930A
:1021800084022FEF30E040E050E00E943F12162F13
:10219000C301B2012FEF30E040E050E00E943F1257
:1021A000062FC501B4012FEF30E040E050E00E945F
:1021B0003F12F62E1A821982212F402F6F2D89810E
:1021C0009A810E9457010E943F0229813A812F5F24
:1021D0003F4F3A8329832F33310571F740E050E0B8
:1021E000452B09F452CA0E942605882309F44DCADA
:1021F0000E9400004ACAC801880F991F880F991FC2
:102200008A0F9B1F280F391FD9013C91E80FF92F26
:10221000F11DE080ED82680F791FDB01BC91BE8368
:10222000840F951FFC01F081F983CC2009F44AC08A
:10223000D12CF12CE12C632F70E0762F6627072E2E
:10224000000C880B990BA70196010E947112722E47
:102250006624552444242D81622F70E0762F662752
:10226000072E000C880B990BA70196010E94711292
:10227000A90133272227422A532A642A752A398141
:10228000632F70E0762F6627072E000C880B990BC2
:10229000A70196010E947112422A532A642A752AC4
:1022A0004E81642F70E0762F6627072E000C880B76
:1022B000990BA70196010E947112542F432F322FC0
:1022C00022279ECCED804E2C512C712C612C32019A
:1022D00055244424732AF9804F28EE805E28BECE10
:1022E00088EF91E0909352038093510380916602AE
:1022F000909167028155934071F4E0916403F091ED
:102300006503908180916603809589238083109274
:102310006702109266028091790390917A030E947D
:102320007313809176039091770397FD03C060E06B
:102330000C94E90108958F929F92AF92BF92CF9231
:10234000DF92EF92FF92CF93DF93EC016881798166
:102350008A819B81611571058105910521F464E2F3
:1023600079ED8BE597E02DE133EF41E050E00E94FD
:102370003F1249015A019B01AC01A7EAB1E40E9456
:102380005E126B017C01ACEEB4EFA50194010E94DA
:102390006C12C60ED71EE81EF91EF7FE06C081E0BD
:1023A000C81AD108E10880E8F80AC882D982EA820E
:1023B000FB82C701B6019F77DF91CF91FF90EF902D
:1023C000DF90CF90BF90AF909F908F9008958F92A5
:1023D0009F92AF92BF92CF92DF92EF92FF92609165
:1023E00008017091090180910A0190910B0161151A
:1023F00071058105910521F464E279ED8BE597E0A3
:102400002DE133EF41E050E00E943F1249015A01B3
:102410009B01AC01A7EAB1E40E945E126B017C0152
:10242000ACEEB4EFA50194010E946C12C60ED71E4B
:10243000E81EF91EF7FE06C081E0C81AD108E108BF
:1024400080E8F80AC0920801D0920901E0920A01DE
:10245000F0920B01C701B6019F77FF90EF90DF90DC
:10246000CF90BF90AF909F908F9008956093080198
:102470007093090180930A0190930B010895052E32
:1024800097FB1EF400940E94561257FD07D00E943D
:10249000711207FC03D04EF40C94561250954095DF
:1024A000309521953F4F4F4F5F4F08959095809500
:1024B000709561957F4F8F4F9F4F08950E949312A3
:1024C000A59F900DB49F900DA49F800D911D112488
:1024D0000895B7FF0C945E120E945E12821B930B4C
:1024E0000895A1E21A2EAA1BBB1BFD010DC0AA1F55
:1024F000BB1FEE1FFF1FA217B307E407F50720F06D
:10250000A21BB30BE40BF50B661F771F881F991FE7
:102510001A9469F760957095809590959B01AC0130
:10252000BD01CF010895A29FB001B39FC001A39F39
:10253000700D811D1124911DB29F700D811D1124FC
:10254000911D0895AA1BBB1B51E107C0AA1FBB1F09
:10255000A617B70710F0A61BB70B881F991F5A952F
:10256000A9F780959095BC01CD01089597FB072EA2
:1025700016F4009407D077FD09D00E94A21207FC40
:1025800005D03EF4909581959F4F08957095619583
:102590007F4F0895EE0FFF1F0590F491E02D0994F1
:1025A0000E949312B7FF0895821B930B08950F9317
:1025B0001F93CF93DF938230910510F482E090E077
:1025C000E0919503F091960330E020E0B0E0A0E0C8
:1025D000309799F42115310509F44AC0281B390BAD
:1025E00024303105D8F58A819B816115710589F107
:1025F000FB0193838283FE0111C0408151810281DE
:10260000138148175907E0F04817590799F41097B4
:1026100061F012960C93129713961C933296CF0189
:10262000DF91CF911F910F9108950093950310931F
:102630009603F4CF2115310551F04217530738F0B6
:10264000A901DB019A01BD01DF01F801C1CFEF0152
:10265000F9CF9093960380939503CDCFFE01E20FBF
:10266000F31F819391932250310939832883D7CF67
:102670002091930330919403232B41F420910E0178
:1026800030910F01309394032093930320910C0118
:1026900030910D012115310541F42DB73EB7409120
:1026A000100150911101241B350BE0919303F0911F
:1026B0009403E217F307A0F42E1B3F0B28173907EA
:1026C00078F0AC014E5F5F4F2417350748F04E0F8E
:1026D0005F1F5093940340939303819391939FCFF3
:1026E000F0E0E0E09CCFCF93DF930097E9F0FC01AE
:1026F000329713821282A0919503B0919603ED0157
:1027000030E020E01097A1F420813181820F931FE7
:1027100020919303309194032817390709F061C081
:10272000F0939403E0939303DF91CF910895EA012E
:10273000CE17DF07E8F54A815B819E0141155105FF
:10274000B1F7E901FB83EA8349915991C40FD51F81
:10275000EC17FD0761F4808191810296840F951F2B
:10276000E90199838883828193819B838A83F0E046
:10277000E0E012968D919C9113970097B9F52D91F9
:102780003C911197CD010296820F931F20919303E4
:10279000309194032817390739F6309751F5109284
:1027A000960310929503B0939403A0939303BCCF28
:1027B000D383C28340815181840F951FC817D907E5
:1027C00061F44E5F5F4F88819981480F591F518393
:1027D00040838A819B81938382832115310509F08F
:1027E000B0CFF0939603E09395039ECFFD01DC01FB
:1027F000C0CF13821282D7CF10E0CBEBD0E004C061
:10280000FE010E94CA122196CC3BD107C9F7F89469
:02281000FFCFF8
:1028120032000300030032000100000000009703B1
:1028220080007EFF06000100000000EF00000100B2
:10283200020003000400050006000700080009006A
:102842000A000B00150016001700180019001A00E4
:102852001B001C001D001E001F0020002A002B0070
:102862002C002D002E002F003000310032003300EA
:10287200340035000C000D000E000F001000110096
:10288200120013001400210022002300240025005E
:1028920026002700280029003600370038003900BA
:1028A2003A003B003C003D003E00000001000200F7
:1028B20003000400050006000700080009000A00E2
:1028C2000B00150016001700180019001A001B0053
:1028D2001C001D001E001F0020002A002B002C00DF
:1028E2002D002E002F003000310032003300340062
:1028F2003500000000005C05BC04E904A9051A05C6
:10290200F8040C0500000000E205BC047706E105AE
:102912003E065606C9050D0A005374617274696E4B
:10292200672E2E2E006D696C6C692031303030219B
:0429320021213A0025
:00000001FF
